{
  "contractName": "CompoundAdapterAltA",
  "abi": [
    {
      "inputs": [
        {
          "internalType": "contract INutmeg",
          "name": "nutmegAddr",
          "type": "address"
        }
      ],
      "stateMutability": "nonpayable",
      "type": "constructor"
    },
    {
      "anonymous": false,
      "inputs": [
        {
          "indexed": false,
          "internalType": "uint256",
          "name": "positionId",
          "type": "uint256"
        },
        {
          "indexed": false,
          "internalType": "address",
          "name": "caller",
          "type": "address"
        },
        {
          "indexed": false,
          "internalType": "uint256",
          "name": "amount",
          "type": "uint256"
        }
      ],
      "name": "closePositionEvent",
      "type": "event"
    },
    {
      "anonymous": false,
      "inputs": [
        {
          "indexed": false,
          "internalType": "address",
          "name": "token",
          "type": "address"
        },
        {
          "indexed": false,
          "internalType": "uint256",
          "name": "collateralLoss",
          "type": "uint256"
        },
        {
          "indexed": false,
          "internalType": "uint256",
          "name": "poolLoss",
          "type": "uint256"
        }
      ],
      "name": "creditEvent",
      "type": "event"
    },
    {
      "anonymous": false,
      "inputs": [
        {
          "indexed": false,
          "internalType": "uint256",
          "name": "positionId",
          "type": "uint256"
        },
        {
          "indexed": false,
          "internalType": "address",
          "name": "caller",
          "type": "address"
        }
      ],
      "name": "liquidateEvent",
      "type": "event"
    },
    {
      "anonymous": false,
      "inputs": [
        {
          "indexed": false,
          "internalType": "uint256",
          "name": "positionId",
          "type": "uint256"
        },
        {
          "indexed": false,
          "internalType": "address",
          "name": "caller",
          "type": "address"
        },
        {
          "indexed": false,
          "internalType": "uint256",
          "name": "baseAmt",
          "type": "uint256"
        },
        {
          "indexed": false,
          "internalType": "uint256",
          "name": "borrowAmount",
          "type": "uint256"
        }
      ],
      "name": "openPositionEvent",
      "type": "event"
    },
    {
      "inputs": [],
      "name": "acceptGovernor",
      "outputs": [],
      "stateMutability": "nonpayable",
      "type": "function"
    },
    {
      "inputs": [
        {
          "internalType": "address",
          "name": "baseToken",
          "type": "address"
        },
        {
          "internalType": "address",
          "name": "collToken",
          "type": "address"
        }
      ],
      "name": "addTokenPair",
      "outputs": [],
      "stateMutability": "nonpayable",
      "type": "function"
    },
    {
      "inputs": [
        {
          "internalType": "address",
          "name": "",
          "type": "address"
        }
      ],
      "name": "baseTokenMap",
      "outputs": [
        {
          "internalType": "bool",
          "name": "",
          "type": "bool"
        }
      ],
      "stateMutability": "view",
      "type": "function",
      "constant": true
    },
    {
      "inputs": [
        {
          "internalType": "uint256",
          "name": "",
          "type": "uint256"
        }
      ],
      "name": "baseTokens",
      "outputs": [
        {
          "internalType": "address",
          "name": "",
          "type": "address"
        }
      ],
      "stateMutability": "view",
      "type": "function",
      "constant": true
    },
    {
      "inputs": [],
      "name": "closePosition",
      "outputs": [
        {
          "internalType": "uint256",
          "name": "",
          "type": "uint256"
        }
      ],
      "stateMutability": "nonpayable",
      "type": "function"
    },
    {
      "inputs": [
        {
          "internalType": "address",
          "name": "baseToken",
          "type": "address"
        }
      ],
      "name": "creditTokenValue",
      "outputs": [
        {
          "internalType": "uint256",
          "name": "",
          "type": "uint256"
        }
      ],
      "stateMutability": "nonpayable",
      "type": "function"
    },
    {
      "inputs": [],
      "name": "governor",
      "outputs": [
        {
          "internalType": "address",
          "name": "",
          "type": "address"
        }
      ],
      "stateMutability": "view",
      "type": "function",
      "constant": true
    },
    {
      "inputs": [],
      "name": "liquidate",
      "outputs": [],
      "stateMutability": "nonpayable",
      "type": "function"
    },
    {
      "inputs": [],
      "name": "nutmeg",
      "outputs": [
        {
          "internalType": "contract INutmeg",
          "name": "",
          "type": "address"
        }
      ],
      "stateMutability": "view",
      "type": "function",
      "constant": true
    },
    {
      "inputs": [
        {
          "internalType": "address",
          "name": "baseToken",
          "type": "address"
        },
        {
          "internalType": "address",
          "name": "collToken",
          "type": "address"
        },
        {
          "internalType": "uint256",
          "name": "baseAmt",
          "type": "uint256"
        },
        {
          "internalType": "uint256",
          "name": "borrowAmt",
          "type": "uint256"
        }
      ],
      "name": "openPosition",
      "outputs": [],
      "stateMutability": "nonpayable",
      "type": "function"
    },
    {
      "inputs": [],
      "name": "pendingGovernor",
      "outputs": [
        {
          "internalType": "address",
          "name": "",
          "type": "address"
        }
      ],
      "stateMutability": "view",
      "type": "function",
      "constant": true
    },
    {
      "inputs": [
        {
          "internalType": "uint256",
          "name": "",
          "type": "uint256"
        }
      ],
      "name": "posInfoMap",
      "outputs": [
        {
          "internalType": "uint256",
          "name": "posId",
          "type": "uint256"
        },
        {
          "internalType": "uint256",
          "name": "collAmt",
          "type": "uint256"
        },
        {
          "internalType": "uint256",
          "name": "sumIpcStart",
          "type": "uint256"
        }
      ],
      "stateMutability": "view",
      "type": "function",
      "constant": true
    },
    {
      "inputs": [
        {
          "internalType": "address",
          "name": "baseToken",
          "type": "address"
        }
      ],
      "name": "removeTokenPair",
      "outputs": [],
      "stateMutability": "nonpayable",
      "type": "function"
    },
    {
      "inputs": [
        {
          "internalType": "address",
          "name": "addr",
          "type": "address"
        }
      ],
      "name": "setPendingGovernor",
      "outputs": [],
      "stateMutability": "nonpayable",
      "type": "function"
    },
    {
      "inputs": [
        {
          "internalType": "address",
          "name": "baseToken",
          "type": "address"
        },
        {
          "internalType": "uint256",
          "name": "collateralLoss",
          "type": "uint256"
        },
        {
          "internalType": "uint256",
          "name": "poolLoss",
          "type": "uint256"
        }
      ],
      "name": "settleCreditEvent",
      "outputs": [],
      "stateMutability": "nonpayable",
      "type": "function"
    },
    {
      "inputs": [
        {
          "internalType": "address",
          "name": "",
          "type": "address"
        }
      ],
      "name": "sumIpcMap",
      "outputs": [
        {
          "internalType": "uint256",
          "name": "",
          "type": "uint256"
        }
      ],
      "stateMutability": "view",
      "type": "function",
      "constant": true
    },
    {
      "inputs": [
        {
          "internalType": "address",
          "name": "",
          "type": "address"
        }
      ],
      "name": "tokenPairs",
      "outputs": [
        {
          "internalType": "address",
          "name": "",
          "type": "address"
        }
      ],
      "stateMutability": "view",
      "type": "function",
      "constant": true
    },
    {
      "inputs": [
        {
          "internalType": "address",
          "name": "",
          "type": "address"
        }
      ],
      "name": "totalCollateral",
      "outputs": [
        {
          "internalType": "uint256",
          "name": "",
          "type": "uint256"
        }
      ],
      "stateMutability": "view",
      "type": "function",
      "constant": true
    },
    {
      "inputs": [
        {
          "internalType": "address",
          "name": "",
          "type": "address"
        }
      ],
      "name": "totalLoan",
      "outputs": [
        {
          "internalType": "uint256",
          "name": "",
          "type": "uint256"
        }
      ],
      "stateMutability": "view",
      "type": "function",
      "constant": true
    },
    {
      "inputs": [
        {
          "internalType": "address",
          "name": "",
          "type": "address"
        }
      ],
      "name": "totalLoss",
      "outputs": [
        {
          "internalType": "uint256",
          "name": "",
          "type": "uint256"
        }
      ],
      "stateMutability": "view",
      "type": "function",
      "constant": true
    },
    {
      "inputs": [
        {
          "internalType": "address",
          "name": "",
          "type": "address"
        }
      ],
      "name": "totalMintAmt",
      "outputs": [
        {
          "internalType": "uint256",
          "name": "",
          "type": "uint256"
        }
      ],
      "stateMutability": "view",
      "type": "function",
      "constant": true
    }
  ],
  "bytecode": "0x60a06040523480156200001157600080fd5b50604051620036ae380380620036ae833981016040819052620000349162000140565b6001600160601b0319606082901b16608052806200005162000059565b505062000170565b600054610100900460ff1680620000755750620000756200011c565b8062000084575060005460ff16155b620000c15760405162461bcd60e51b815260040180806020018281038252602e81526020018062003680602e913960400191505060405180910390fd5b600054610100900460ff16158015620000ed576000805460ff1961ff0019909116610100171660011790555b6000805462010000600160b01b031916336201000002179055801562000119576000805461ff00191690555b50565b600062000134306200013a60201b62001bb01760201c565b15905090565b3b151590565b60006020828403121562000152578081fd5b81516001600160a01b038116811462000169578182fd5b9392505050565b60805160601c613457620002296000398061030b528061035552806103ea52806104fe5280610538528061058852806106055280610755528061086c5280610899528061096e5280610a035280610ab05280610c1e5280610cfd5280610d8b5280610ec15280610f5352806112e652806113e25280611527528061156852806115fd528061169c52806117b152806117eb528061183f52806118bc5280611a0c5280611bdb5280611fd2528061221852506134576000f3fe608060405234801561001057600080fd5b50600436106101375760003560e01c80637e059b22116100b8578063ad431d121161007c578063ad431d1214610279578063b4aaae791461028c578063c393d0e31461029f578063e3056a34146102a7578063e58bb639146102af578063f235757f146102b757610137565b80637e059b221461020d57806392bf17e5146102205780639c162d03146102335780639df6a37914610253578063a7c87ec21461026657610137565b80633770e79d116100ff5780633770e79d146101b957806347bbbdf5146101cc578063656d565e146101df5780636ef1a28f146101e757806376340a67146101fa57610137565b80630c340a241461013c57806315eeb6b51461015a57806328a070251461017c578063320fe91314610186578063328123a2146101a6575b600080fd5b6101446102ca565b6040516101519190612d43565b60405180910390f35b61016d610168366004612d13565b6102df565b60405161015193929190613328565b610184610300565b005b610199610194366004612b3e565b610801565b60405161015191906132b7565b6101446101b4366004612d13565b610813565b6101996101c7366004612b3e565b61083d565b6101446101da366004612b3e565b61084f565b61014461086a565b6101846101f5366004612bae565b61088e565b610199610208366004612b3e565b611007565b61019961021b366004612b3e565b611019565b61019961022e366004612b3e565b61102b565b610246610241366004612b3e565b61116d565b6040516101519190612dba565b610184610261366004612b3e565b611182565b610184610274366004612b76565b61120a565b610184610287366004612bf3565b6112db565b61019961029a366004612b3e565b611508565b61019961151a565b610144611abc565b610184611acb565b6101846102c5366004612b3e565b611b3f565b6000546201000090046001600160a01b031681565b60076020526000908152604090208054600182015460029092015490919083565b336001600160a01b037f000000000000000000000000000000000000000000000000000000000000000016146103515760405162461bcd60e51b815260040161034890612e9b565b60405180910390fd5b60007f00000000000000000000000000000000000000000000000000000000000000006001600160a01b0316637e7768ae6040518163ffffffff1660e01b815260040160206040518083038186803b1580156103ac57600080fd5b505afa1580156103c0573d6000803e3d6000fd5b505050506040513d601f19601f820116820180604052508101906103e49190612d2b565b905060007f00000000000000000000000000000000000000000000000000000000000000006001600160a01b031663eb02c301836040518263ffffffff1660e01b815260040161043491906132b7565b6101c06040518083038186803b15801561044d57600080fd5b505afa158015610461573d6000803e3d6000fd5b505050506040513d601f19601f820116820180604052508101906104859190612c47565b905061049081611bb6565b6104ac5760405162461bcd60e51b815260040161034890613207565b60006104b782611c82565b90506000806104c68484611cf4565b91509150816000146104ea5760405162461bcd60e51b815260040161034890613169565b6080840151610524906001600160a01b03167f00000000000000000000000000000000000000000000000000000000000000006000611ea0565b608084015161055d906001600160a01b03167f000000000000000000000000000000000000000000000000000000000000000083611ea0565b61056c84608001518683611fb8565b608084015160405163bcbaf48760e01b81526001600160a01b037f0000000000000000000000000000000000000000000000000000000000000000169163bcbaf487916105be91908590600401612d80565b600060405180830381600087803b1580156105d857600080fd5b505af11580156105ec573d6000803e3d6000fd5b505060405163eb02c30160e01b81526001600160a01b037f000000000000000000000000000000000000000000000000000000000000000016925063eb02c301915061063c9088906004016132b7565b6101c06040518083038186803b15801561065557600080fd5b505afa158015610669573d6000803e3d6000fd5b505050506040513d601f19601f8201168201806040525081019061068d9190612c47565b61016081015160808201516001600160a01b03166000908152600a60205260409020549195506106bd919061213e565b60808501516001600160a01b039081166000908152600a602090815260408083209490945561010088015160a08901519093168252600590529190912054610704916121a1565b600560008660a001516001600160a01b03166001600160a01b03168152602001908152602001600020819055507fb1d3b1d444607bfe3a3e5b87e71d41301e1f7031b7e3f0b87a100079d6be26e6857f00000000000000000000000000000000000000000000000000000000000000006001600160a01b031663a17fff756040518163ffffffff1660e01b815260040160206040518083038186803b1580156107ac57600080fd5b505afa1580156107c0573d6000803e3d6000fd5b505050506040513d601f19601f820116820180604052508101906107e49190612b5a565b6040516107f29291906132c0565b60405180910390a15050505050565b600a6020526000908152604090205481565b6002818154811061082357600080fd5b6000918252602090912001546001600160a01b0316905081565b60066020526000908152604090205481565b6004602052600090815260409020546001600160a01b031681565b7f000000000000000000000000000000000000000000000000000000000000000081565b336001600160a01b037f000000000000000000000000000000000000000000000000000000000000000016146108d65760405162461bcd60e51b815260040161034890612e9b565b600082116108f65760405162461bcd60e51b8152600401610348906130d9565b6001600160a01b03841660009081526003602052604090205460ff1661092e5760405162461bcd60e51b815260040161034890613092565b6001600160a01b0384811660009081526004602052604090205481169084161461096a5760405162461bcd60e51b815260040161034890612ec9565b60007f00000000000000000000000000000000000000000000000000000000000000006001600160a01b0316637e7768ae6040518163ffffffff1660e01b815260040160206040518083038186803b1580156109c557600080fd5b505afa1580156109d9573d6000803e3d6000fd5b505050506040513d601f19601f820116820180604052508101906109fd9190612d2b565b905060007f00000000000000000000000000000000000000000000000000000000000000006001600160a01b031663eb02c301836040518263ffffffff1660e01b8152600401610a4d91906132b7565b6101c06040518083038186803b158015610a6657600080fd5b505afa158015610a7a573d6000803e3d6000fd5b505050506040513d601f19601f82011682018060405250810190610a9e9190612c47565b905080604001516001600160a01b03167f00000000000000000000000000000000000000000000000000000000000000006001600160a01b031663a17fff756040518163ffffffff1660e01b815260040160206040518083038186803b158015610b0757600080fd5b505afa158015610b1b573d6000803e3d6000fd5b505050506040513d601f19601f82011682018060405250810190610b3f9190612b5a565b6001600160a01b031614610b655760405162461bcd60e51b81526004016103489061300a565b60408082015190516370a0823160e01b815285916001600160a01b038916916370a0823191610b9691600401612d43565b60206040518083038186803b158015610bae57600080fd5b505afa158015610bc2573d6000803e3d6000fd5b505050506040513d601f19601f82011682018060405250810190610be69190612d2b565b1015610c045760405162461bcd60e51b815260040161034890612e14565b60405163405c451760e11b81526000906001600160a01b037f000000000000000000000000000000000000000000000000000000000000000016906380b88a2e90610c55908a908990600401612d80565b60206040518083038186803b158015610c6d57600080fd5b505afa158015610c81573d6000803e3d6000fd5b505050506040513d601f19601f82011682018060405250810190610ca59190612d2b565b905080841115610cc75760405162461bcd60e51b815260040161034890613192565b848411610ce65760405162461bcd60e51b81526004016103489061311a565b60405163fbf3773960e01b81526001600160a01b037f0000000000000000000000000000000000000000000000000000000000000000169063fbf3773990610d38908a908a908a908a90600401612d57565b600060405180830381600087803b158015610d5257600080fd5b505af1158015610d66573d6000803e3d6000fd5b50505050610d7487846121fe565b60405163eb02c30160e01b81526001600160a01b037f0000000000000000000000000000000000000000000000000000000000000000169063eb02c30190610dc09086906004016132b7565b6101c06040518083038186803b158015610dd957600080fd5b505afa158015610ded573d6000803e3d6000fd5b505050506040513d601f19601f82011682018060405250810190610e119190612c47565b9150600080610e208487612341565b9150915081600014610e445760405162461bcd60e51b8152600401610348906131d9565b8015610f2f576000610e55896125ea565b6001600160a01b038a16600090815260056020526040902054909150610e7b908361213e565b6001600160a01b03808b166000908152600560209081526040808320949094558982526007905282902060028101849055600181018590559151632aa0145d60e11b81527f00000000000000000000000000000000000000000000000000000000000000009091169063554028ba90610efa908a90879060040161331a565b600060405180830381600087803b158015610f1457600080fd5b505af1158015610f28573d6000803e3d6000fd5b5050505050505b7f4f8d474cdd22aabe2e96f65f6dee87cd74d538fa1b8bd3d2352b980235a6dff6857f00000000000000000000000000000000000000000000000000000000000000006001600160a01b031663a17fff756040518163ffffffff1660e01b815260040160206040518083038186803b158015610faa57600080fd5b505afa158015610fbe573d6000803e3d6000fd5b505050506040513d601f19601f82011682018060405250810190610fe29190612b5a565b8989604051610ff494939291906132f6565b60405180910390a1505050505050505050565b60056020526000908152604090205481565b60096020526000908152604090205481565b6001600160a01b03808216600090815260046020526040812054909116806110655760405162461bcd60e51b815260040161034890612f7a565b6040516370a0823160e01b81526000906001600160a01b038316906370a0823190611094903090600401612d43565b60206040518083038186803b1580156110ac57600080fd5b505afa1580156110c0573d6000803e3d6000fd5b505050506040513d601f19601f820116820180604052508101906110e49190612d2b565b9050611163826001600160a01b031663bd6d894d6040518163ffffffff1660e01b8152600401602060405180830381600087803b15801561112457600080fd5b505af1158015611138573d6000803e3d6000fd5b505050506040513d601f19601f8201168201806040525081019061115c9190612d2b565b829061272e565b925050505b919050565b60036020526000908152604090205460ff1681565b6000546201000090046001600160a01b031633146111d1576040805162461bcd60e51b81526020600482015260076024820152663130b21033b7bb60c91b604482015290519081900360640190fd5b6001600160a01b03166000908152600360209081526040808320805460ff191690556004909152902080546001600160a01b0319169055565b6000546201000090046001600160a01b03163314611259576040805162461bcd60e51b81526020600482015260076024820152663130b21033b7bb60c91b604482015290519081900360640190fd5b6001600160a01b039182166000818152600360209081526040808320805460ff19166001908117909155600490925282208054949095166001600160a01b03199485161790945560028054948501815590527f405787fa12a823e0f2b7631cc41b3ba8828b3321ca811111fa75cd3aa3bb5ace90920180549091169091179055565b336001600160a01b037f000000000000000000000000000000000000000000000000000000000000000016146113235760405162461bcd60e51b815260040161034890612e9b565b6001600160a01b03831660009081526003602052604090205460ff1661135b5760405162461bcd60e51b815260040161034890612fc5565b6001600160a01b0383166000908152600960205260409020548211156113935760405162461bcd60e51b815260040161034890612e56565b6001600160a01b0383166000908152600860205260409020548111156113cb5760405162461bcd60e51b815260040161034890612f37565b604051632b692db960e01b81526001600160a01b037f00000000000000000000000000000000000000000000000000000000000000001690632b692db99061141b90869086908690600401612d99565b600060405180830381600087803b15801561143557600080fd5b505af1158015611449573d6000803e3d6000fd5b505050507ff43c9b3430b5ffd997ba4b5d58204bdcb4761cfb86b2897c8f641276b26fcc2383838360405161148093929190612d99565b60405180910390a16001600160a01b0383166000908152600a6020908152604080832083905560089091529020546114b890826121a1565b6001600160a01b0384166000908152600860209081526040808320939093556009905220546114e790836121a1565b6001600160a01b039093166000908152600960205260409020929092555050565b60086020526000908152604090205481565b6000336001600160a01b037f000000000000000000000000000000000000000000000000000000000000000016146115645760405162461bcd60e51b815260040161034890612e9b565b60007f00000000000000000000000000000000000000000000000000000000000000006001600160a01b0316637e7768ae6040518163ffffffff1660e01b815260040160206040518083038186803b1580156115bf57600080fd5b505afa1580156115d3573d6000803e3d6000fd5b505050506040513d601f19601f820116820180604052508101906115f79190612d2b565b905060007f00000000000000000000000000000000000000000000000000000000000000006001600160a01b031663eb02c301836040518263ffffffff1660e01b815260040161164791906132b7565b6101c06040518083038186803b15801561166057600080fd5b505afa158015611674573d6000803e3d6000fd5b505050506040513d601f19601f820116820180604052508101906116989190612c47565b90507f00000000000000000000000000000000000000000000000000000000000000006001600160a01b031663a17fff756040518163ffffffff1660e01b815260040160206040518083038186803b1580156116f357600080fd5b505afa158015611707573d6000803e3d6000fd5b505050506040513d601f19601f8201168201806040525081019061172b9190612b5a565b6001600160a01b031681604001516001600160a01b03161461175f5760405162461bcd60e51b815260040161034890612dc5565b600061176a82611c82565b90506000806117798484611cf4565b915091508160001461179d5760405162461bcd60e51b815260040161034890612f0d565b60808401516117d7906001600160a01b03167f00000000000000000000000000000000000000000000000000000000000000006000611ea0565b6080840151611810906001600160a01b03167f000000000000000000000000000000000000000000000000000000000000000083611ea0565b6118238460800151856000015183611fb8565b6080840151604051630450cfaf60e31b81526001600160a01b037f000000000000000000000000000000000000000000000000000000000000000016916322867d789161187591908590600401612d80565b600060405180830381600087803b15801561188f57600080fd5b505af11580156118a3573d6000803e3d6000fd5b505060405163eb02c30160e01b81526001600160a01b037f000000000000000000000000000000000000000000000000000000000000000016925063eb02c30191506118f39088906004016132b7565b6101c06040518083038186803b15801561190c57600080fd5b505afa158015611920573d6000803e3d6000fd5b505050506040513d601f19601f820116820180604052508101906119449190612c47565b61016081015160808201516001600160a01b03166000908152600a6020526040902054919550611974919061213e565b60808501516001600160a01b039081166000908152600a602090815260408083209490945561010088015160a089015190931682526005905291909120546119bb916121a1565b600560008660a001516001600160a01b03166001600160a01b03168152602001908152602001600020819055507fd245dd480b54d4fb2c6abff0ab361ff89a8073a603e5ef738a86ecbaa1ae7cc7857f00000000000000000000000000000000000000000000000000000000000000006001600160a01b031663a17fff756040518163ffffffff1660e01b815260040160206040518083038186803b158015611a6357600080fd5b505afa158015611a77573d6000803e3d6000fd5b505050506040513d601f19601f82011682018060405250810190611a9b9190612b5a565b83604051611aab939291906132d7565b60405180910390a194505050505090565b6001546001600160a01b031681565b6001546001600160a01b03163314611b14576040805162461bcd60e51b81526020600482015260076024820152661b9bc81c195b9960ca1b604482015290519081900360640190fd5b600180546001600160a01b03191690556000805462010000600160b01b031916336201000002179055565b6000546201000090046001600160a01b03163314611b8e576040805162461bcd60e51b81526020600482015260076024820152663130b21033b7bb60c91b604482015290519081900360640190fd5b600180546001600160a01b0319166001600160a01b0392909216919091179055565b3b151590565b6080810151815160405163238672f960e11b8152600092839283926001600160a01b037f0000000000000000000000000000000000000000000000000000000000000000169263470ce5f292611c0e92600401612d80565b60206040518083038186803b158015611c2657600080fd5b505afa158015611c3a573d6000803e3d6000fd5b505050506040513d601f19601f82011682018060405250810190611c5e9190612d2b565b60e0850151909150611c7182600261272e565b10611c7b57600191505b5092915050565b600080611c928360a001516125ea565b83516000908152600760205260408120600281015492935091611cd990670de0b6b3a764000090611cd390611cc89087906121a1565b60018601549061272e565b90612787565b6001830154909150611ceb908261213e565b95945050505050565b600080600084608001516001600160a01b03166370a08231306040518263ffffffff1660e01b8152600401611d299190612d43565b60206040518083038186803b158015611d4157600080fd5b505afa158015611d55573d6000803e3d6000fd5b505050506040513d601f19601f82011682018060405250810190611d799190612d2b565b905060008560a001516001600160a01b031663db006a75866040518263ffffffff1660e01b8152600401611dad91906132b7565b602060405180830381600087803b158015611dc757600080fd5b505af1158015611ddb573d6000803e3d6000fd5b505050506040513d601f19601f82011682018060405250810190611dff9190612d2b565b9050600086608001516001600160a01b03166370a08231306040518263ffffffff1660e01b8152600401611e339190612d43565b60206040518083038186803b158015611e4b57600080fd5b505afa158015611e5f573d6000803e3d6000fd5b505050506040513d601f19601f82011682018060405250810190611e839190612d2b565b90506000611e9182856121a1565b92989297509195505050505050565b801580611f26575060408051636eb1769f60e11b81523060048201526001600160a01b03848116602483015291519185169163dd62ed3e91604480820192602092909190829003018186803b158015611ef857600080fd5b505afa158015611f0c573d6000803e3d6000fd5b505050506040513d6020811015611f2257600080fd5b5051155b611f615760405162461bcd60e51b81526004018080602001828103825260368152602001806133ec6036913960400191505060405180910390fd5b604080516001600160a01b038416602482015260448082018490528251808303909101815260649091019091526020810180516001600160e01b031663095ea7b360e01b179052611fb39084906127ee565b505050565b60405163eb02c30160e01b81526000906001600160a01b037f0000000000000000000000000000000000000000000000000000000000000000169063eb02c301906120079086906004016132b7565b6101c06040518083038186803b15801561202057600080fd5b505afa158015612034573d6000803e3d6000fd5b505050506040513d601f19601f820116820180604052508101906120589190612c47565b60c08101516040810151602082015191519293509101018083106120b7576001600160a01b03851660009081526008602052604090205461209990826121a1565b6001600160a01b0386166000908152600860205260409020556120f4565b6001600160a01b0385166000908152600860205260409020546120da90846121a1565b6001600160a01b0386166000908152600860205260409020555b60e08201516001600160a01b03861660009081526009602052604090205461211b916121a1565b6001600160a01b0390951660009081526009602052604090209490945550505050565b600082820183811015612198576040805162461bcd60e51b815260206004820152601b60248201527f536166654d6174683a206164646974696f6e206f766572666c6f770000000000604482015290519081900360640190fd5b90505b92915050565b6000828211156121f8576040805162461bcd60e51b815260206004820152601e60248201527f536166654d6174683a207375627472616374696f6e206f766572666c6f770000604482015290519081900360640190fd5b50900390565b60405163eb02c30160e01b81526000906001600160a01b037f0000000000000000000000000000000000000000000000000000000000000000169063eb02c3019061224d9085906004016132b7565b6101c06040518083038186803b15801561226657600080fd5b505afa15801561227a573d6000803e3d6000fd5b505050506040513d601f19601f8201168201806040525081019061229e9190612c47565b905060005b6003811015612319576122f88260c0015182600381106122bf57fe5b602002015160086000876001600160a01b03166001600160a01b031681526020019081526020016000205461213e90919063ffffffff16565b6001600160a01b0385166000908152600860205260409020556001016122a3565b5060e08101516001600160a01b0384166000908152600960205260409020546114e79161213e565b60008060008460a001516001600160a01b03166370a08231306040518263ffffffff1660e01b81526004016123769190612d43565b60206040518083038186803b15801561238e57600080fd5b505afa1580156123a2573d6000803e3d6000fd5b505050506040513d601f19601f820116820180604052508101906123c69190612d2b565b905084608001516001600160a01b031663095ea7b38660a0015160006040518363ffffffff1660e01b81526004016123ff929190612d80565b602060405180830381600087803b15801561241957600080fd5b505af115801561242d573d6000803e3d6000fd5b505050506040513d601f19601f820116820180604052508101906124519190612c27565b61246d5760405162461bcd60e51b81526004016103489061325c565b608085015160a086015160405163095ea7b360e01b81526001600160a01b039092169163095ea7b3916124a4918890600401612d80565b602060405180830381600087803b1580156124be57600080fd5b505af11580156124d2573d6000803e3d6000fd5b505050506040513d601f19601f820116820180604052508101906124f69190612c27565b6125125760405162461bcd60e51b81526004016103489061305b565b60a085015160405163140e25ad60e31b81526000916001600160a01b03169063a0712d68906125459088906004016132b7565b602060405180830381600087803b15801561255f57600080fd5b505af1158015612573573d6000803e3d6000fd5b505050506040513d601f19601f820116820180604052508101906125979190612d2b565b905080156125b75760405162461bcd60e51b81526004016103489061328b565b60a08601516040516370a0823160e01b81526000916001600160a01b0316906370a0823190611e33903090600401612d43565b600080826001600160a01b03166370a08231306040518263ffffffff1660e01b81526004016126199190612d43565b60206040518083038186803b15801561263157600080fd5b505afa158015612645573d6000803e3d6000fd5b505050506040513d601f19601f820116820180604052508101906126699190612d2b565b6001600160a01b03841660009081526005602052604081205491925082821161269357600061269d565b61269d82846121a1565b9050600082156126c2576126bd83611cd384670de0b6b3a764000061272e565b6126c5565b60005b9050801561270a576001600160a01b0386166000908152600660205260409020546126f0908261213e565b6001600160a01b0387166000908152600660205260409020555b5050506001600160a01b038316600090815260066020526040902054915050919050565b60008261273d5750600061219b565b8282028284828161274a57fe5b04146121985760405162461bcd60e51b81526004018080602001828103825260218152602001806133a16021913960400191505060405180910390fd5b60008082116127dd576040805162461bcd60e51b815260206004820152601a60248201527f536166654d6174683a206469766973696f6e206279207a65726f000000000000604482015290519081900360640190fd5b8183816127e657fe5b049392505050565b6000612843826040518060400160405280602081526020017f5361666545524332303a206c6f772d6c6576656c2063616c6c206661696c6564815250856001600160a01b031661289f9092919063ffffffff16565b805190915015611fb35780806020019051602081101561286257600080fd5b5051611fb35760405162461bcd60e51b815260040180806020018281038252602a8152602001806133c2602a913960400191505060405180910390fd5b60606128ae84846000856128b8565b90505b9392505050565b6060824710156128f95760405162461bcd60e51b815260040180806020018281038252602681526020018061337b6026913960400191505060405180910390fd5b61290285611bb0565b612953576040805162461bcd60e51b815260206004820152601d60248201527f416464726573733a2063616c6c20746f206e6f6e2d636f6e7472616374000000604482015290519081900360640190fd5b600080866001600160a01b031685876040518082805190602001908083835b602083106129915780518252601f199092019160209182019101612972565b6001836020036101000a03801982511681845116808217855250505050505090500191505060006040518083038185875af1925050503d80600081146129f3576040519150601f19603f3d011682016040523d82523d6000602084013e6129f8565b606091505b5091509150612a08828286612a13565b979650505050505050565b60608315612a225750816128b1565b825115612a325782518084602001fd5b8160405162461bcd60e51b81526004018080602001828103825283818151815260200191508051906020019080838360005b83811015612a7c578181015183820152602001612a64565b50505050905090810190601f168015612aa95780820380516001836020036101000a031916815260200191505b509250505060405180910390fd5b805161116881613362565b600082601f830112612ad2578081fd5b6040516060810181811067ffffffffffffffff82111715612aef57fe5b604052808360608101861015612b03578384fd5b835b6003811015612b24578151835260209283019290910190600101612b05565b509195945050505050565b80516005811061116857600080fd5b600060208284031215612b4f578081fd5b813561219881613362565b600060208284031215612b6b578081fd5b815161219881613362565b60008060408385031215612b88578081fd5b8235612b9381613362565b91506020830135612ba381613362565b809150509250929050565b60008060008060808587031215612bc3578182fd5b8435612bce81613362565b93506020850135612bde81613362565b93969395505050506040820135916060013590565b600080600060608486031215612c07578283fd5b8335612c1281613362565b95602085013595506040909401359392505050565b600060208284031215612c38578081fd5b81518015158114612198578182fd5b60006101c08284031215612c59578081fd5b610180612c658161333e565b83518152612c7560208501612b2f565b6020820152612c8660408501612ab7565b6040820152612c9760608501612ab7565b6060820152612ca860808501612ab7565b6080820152612cb960a08501612ab7565b60a0820152612ccb8560c08601612ac2565b60c08201526101208481015160e083015261014080860151610100840152610160808701519284019290925292850151928201929092526101a0909301519083015250919050565b600060208284031215612d24578081fd5b5035919050565b600060208284031215612d3c578081fd5b5051919050565b6001600160a01b0391909116815260200190565b6001600160a01b0394851681529290931660208301526040820152606081019190915260800190565b6001600160a01b03929092168252602082015260400190565b6001600160a01b039390931683526020830191909152604082015260600190565b901515815260200190565b6020808252602f908201527f636c6f7365506f736974696f6e3a206f726967696e616c2063616c6c6572206960408201526e39903737ba103a34329037bbb732b960891b606082015260800190565b60208082526022908201527f6f70656e506f736974696f6e3a20696e73756666696369656e742062616c616e604082015261636560f01b606082015260800190565b60208082526025908201527f736574746c654372656469744576656e743a20696e76616c696420636f6c6c616040820152641d195c985b60da1b606082015260800190565b6020808252601490820152731bdb9b1e481b9d5d1b5959c818d85b8818d85b1b60621b604082015260600190565b60208082526024908201527f6f70656e506f736974696f6e3a20696e76616c69642063546f6b656e206164646040820152637265737360e01b606082015260800190565b60208082526010908201526f18db1cd41bdcce881c991b4819985a5b60821b604082015260600190565b60208082526023908201527f736574746c654372656469744576656e743a20696e76616c696420706f6f6c4c6040820152626f737360e81b606082015260800190565b6020808252602b908201527f736574746c654372656469744576656e743a20696e76616c696420636f6c6c6160408201526a3a32b930b6103a37b5b2b760a91b606082015260800190565b60208082526025908201527f736574746c654372656469744576656e743a20696e76616c69642062617365206040820152643a37b5b2b760d91b606082015260800190565b60208082526031908201527f6f70656e506f736974696f6e3a206f6e6c79206f776e65722063616e20696e696040820152701d1a585b1a5e99481d1a1a5cc818d85b1b607a1b606082015260800190565b6020808252601c908201527f5f646f4d696e7420617070726f766520616d6f756e74206572726f7200000000604082015260600190565b60208082526027908201527f6f70656e506f736974696f6e3a20696e76616c69642062617365546f6b656e206040820152666164647265737360c81b606082015260800190565b60208082526021908201527f6f70656e506f736974696f6e3a20696e76616c6964206261736520616d6f756e6040820152601d60fa1b606082015260800190565b6020808252602f908201527f6f70656e506f736974696f6e3a20626f72726f77416d74206973206c6573732060408201526e1d1a185b8818dbdb1b185d195c985b608a1b606082015260800190565b6020808252600f908201526e1b1c591d194e881c991b4819985a5b608a1b604082015260600190565b60208082526027908201527f6f70656e506f736974696f6e3a20626f72726f77416d742065786365656473206040820152666d6178696d756d60c81b606082015260800190565b6020808252601490820152731bdc1b941bdcce8817d91bd35a5b9d0819985a5b60621b604082015260600190565b60208082526035908201527f6c69717569646174653a20706f736974696f6e206973206e6f74207265616479604082015274103337b9103634b8bab4b230ba34b7b7103cb2ba1760591b606082015260800190565b6020808252601590820152742fb237a6b4b73a1030b8383937bb329032b93937b960591b604082015260600190565b6020808252601290820152712fb237a6b4b73a1036b4b73a1032b93937b960711b604082015260600190565b90815260200190565b9182526001600160a01b0316602082015260400190565b9283526001600160a01b03919091166020830152604082015260600190565b9384526001600160a01b039290921660208401526040830152606082015260800190565b918252602082015260400190565b9283526020830191909152604082015260600190565b60405181810167ffffffffffffffff8111828210171561335a57fe5b604052919050565b6001600160a01b038116811461337757600080fd5b5056fe416464726573733a20696e73756666696369656e742062616c616e636520666f722063616c6c536166654d6174683a206d756c7469706c69636174696f6e206f766572666c6f775361666545524332303a204552433230206f7065726174696f6e20646964206e6f7420737563636565645361666545524332303a20617070726f76652066726f6d206e6f6e2d7a65726f20746f206e6f6e2d7a65726f20616c6c6f77616e6365a2646970667358221220b90b253c3bfc6dafc134899ead87ff23e2f1cd0b0cd0d663721958d40db2ff5f64736f6c63430007060033496e697469616c697a61626c653a20636f6e747261637420697320616c726561647920696e697469616c697a6564",
  "immutableReferences": {
    "4659": [
      {
        "length": 32,
        "start": 779
      },
      {
        "length": 32,
        "start": 853
      },
      {
        "length": 32,
        "start": 1002
      },
      {
        "length": 32,
        "start": 1278
      },
      {
        "length": 32,
        "start": 1336
      },
      {
        "length": 32,
        "start": 1416
      },
      {
        "length": 32,
        "start": 1541
      },
      {
        "length": 32,
        "start": 1877
      },
      {
        "length": 32,
        "start": 2156
      },
      {
        "length": 32,
        "start": 2201
      },
      {
        "length": 32,
        "start": 2414
      },
      {
        "length": 32,
        "start": 2563
      },
      {
        "length": 32,
        "start": 2736
      },
      {
        "length": 32,
        "start": 3102
      },
      {
        "length": 32,
        "start": 3325
      },
      {
        "length": 32,
        "start": 3467
      },
      {
        "length": 32,
        "start": 3777
      },
      {
        "length": 32,
        "start": 3923
      },
      {
        "length": 32,
        "start": 4838
      },
      {
        "length": 32,
        "start": 5090
      },
      {
        "length": 32,
        "start": 5415
      },
      {
        "length": 32,
        "start": 5480
      },
      {
        "length": 32,
        "start": 5629
      },
      {
        "length": 32,
        "start": 5788
      },
      {
        "length": 32,
        "start": 6065
      },
      {
        "length": 32,
        "start": 6123
      },
      {
        "length": 32,
        "start": 6207
      },
      {
        "length": 32,
        "start": 6332
      },
      {
        "length": 32,
        "start": 6668
      },
      {
        "length": 32,
        "start": 7131
      },
      {
        "length": 32,
        "start": 8146
      },
      {
        "length": 32,
        "start": 8728
      }
    ]
  },
  "source": "// SPDX-License-Identifier: MIT\n\npragma solidity 0.7.6;\npragma experimental ABIEncoderV2;\nimport \"../Nutmeg.sol\";\n\n// @notice This contract is a version of Nutmeg that contains additional\n// interfaces for testing\n\ncontract NutmegAltA is Nutmeg {\n    //@notice output version string\n    function getVersionString()\n    external virtual pure returns (string memory) {\n        return \"nutmegalta\";\n   }\n}\n\ncontract NutmegAltB is Nutmeg {\n    //@notice output version string\n    function getVersionString()\n    external virtual pure returns (string memory) {\n        return \"nutmegaltb\";\n   }\n}\n\nimport \"../NutDistributor.sol\";\nimport \"@openzeppelin/contracts/token/ERC20/SafeERC20.sol\";\n\n// @notice This contract is a version of NutDistributor that allows\n// the epoch intervals to be changed for testing\n\ncontract NutDistributorAltA is NutDistributor {\n    //@notice output version string\n    function getVersionString()\n    external virtual pure override returns (string memory) {\n        return \"nutdistributoralta\";\n   }\n}\n\ncontract NutDistributorAltB is NutDistributor {\n    //@notice output version string\n    function getVersionString()\n    external virtual pure override returns (string memory) {\n        return \"nutdistributoraltb\";\n   }\n}\n\nimport \"./MockERC20.sol\";\n\ncontract MockERC20AltA is\nMockERC20(\"MockERC20AltA\", \"MOCKERC20ALTA\", 18) {\n}\n\ncontract MockERC20AltB is\nMockERC20(\"MockERC20AltB\", \"MOCKERC20ALTB\", 18) {\n}\n\ncontract MockERC20AltC is\nMockERC20(\"MockERC20AltC\", \"MOCKERC20ALTC\", 6) {\n}\n\nimport \"./MockCERC20.sol\";\n\ncontract MockCERC20AltA is MockCERC20Base {\n    constructor(address tokenAddr)\n    MockCERC20Base(tokenAddr, \"MockCERC20 AltA\", \"MOCKCERC20ALTA\", 18) {\n    }\n}\ncontract MockCERC20AltB is MockCERC20Base {\n    constructor(address tokenAddr)\n    MockCERC20Base(tokenAddr, \"MockCERC20 AltB\", \"MOCKCERC20ALTB\", 18) {\n    }\n}\ncontract MockCERC20AltC is MockCERC20Base {\n    constructor(address tokenAddr)\n    MockCERC20Base(tokenAddr, \"MockCERC20 AltC\", \"MOCKCERC20ALTC\", 6) {\n    }\n}\n\nimport \"../adapters/CompoundAdapter.sol\";\nimport \"../interfaces/INutmeg.sol\";\ncontract CompoundAdapterAltA is CompoundAdapter {\n    constructor(INutmeg nutmegAddr) CompoundAdapter(nutmegAddr) {\n    }\n}\n\ncontract CompoundAdapterAltB is CompoundAdapter {\n    constructor(INutmeg nutmegAddr) CompoundAdapter(nutmegAddr) {\n    }\n}\n",
  "sourcePath": "/home/joe/local2/bench/git/nutmeg.0501/contracts/mock/AltContracts.sol",
  "compiler": {
    "name": "solc",
    "version": "0.7.6+commit.7338295f.Emscripten.clang"
  },
  "schemaVersion": "3.3.4",
  "updatedAt": "2021-05-04T05:14:42.012Z",
  "networkType": "ethereum",
  "devdoc": {
    "kind": "dev",
    "methods": {
      "acceptGovernor()": {
        "details": "Accept to become the new governor. Must be called by the pending governor."
      },
      "addTokenPair(address,address)": {
        "details": "Add baseToken collToken pairs"
      },
      "openPosition(address,address,uint256,uint256)": {
        "params": {
          "baseAmt": "Amount of collateral in base token.",
          "baseToken": "Base token of the position.",
          "borrowAmt": "Amount of base token to be borrowed from nutmeg.",
          "collToken": "Collateral token of the position."
        }
      },
      "removeTokenPair(address)": {
        "details": "Remove baseToken collToken pairs"
      },
      "setPendingGovernor(address)": {
        "details": "Set the pending governor, which will be the governor once accepted.",
        "params": {
          "addr": "The address of the pending governor."
        }
      },
      "settleCreditEvent(address,uint256,uint256)": {
        "params": {
          "baseToken": "The base token address"
        }
      }
    },
    "version": 1
  },
  "userdoc": {
    "kind": "user",
    "methods": {
      "closePosition()": {
        "notice": "Close a position by the borrower"
      },
      "creditTokenValue(address)": {
        "notice": "Get value of credit tokens"
      },
      "liquidate()": {
        "notice": "Liquidate a position"
      },
      "openPosition(address,address,uint256,uint256)": {
        "notice": "Open a position."
      },
      "settleCreditEvent(address,uint256,uint256)": {
        "notice": "Settle credit event"
      }
    },
    "version": 1
  }
}