{
  "contractName": "Governable",
  "abi": [
    {
      "inputs": [],
      "name": "governor",
      "outputs": [
        {
          "internalType": "address",
          "name": "",
          "type": "address"
        }
      ],
      "stateMutability": "view",
      "type": "function"
    },
    {
      "inputs": [],
      "name": "pendingGovernor",
      "outputs": [
        {
          "internalType": "address",
          "name": "",
          "type": "address"
        }
      ],
      "stateMutability": "view",
      "type": "function"
    },
    {
      "inputs": [
        {
          "internalType": "address",
          "name": "addr",
          "type": "address"
        }
      ],
      "name": "setPendingGovernor",
      "outputs": [],
      "stateMutability": "nonpayable",
      "type": "function"
    },
    {
      "inputs": [],
      "name": "acceptGovernor",
      "outputs": [],
      "stateMutability": "nonpayable",
      "type": "function"
    }
  ],
  "bytecode": "0x608060405234801561001057600080fd5b506101ec806100206000396000f3fe608060405234801561001057600080fd5b506004361061004c5760003560e01c80630c340a2414610051578063e3056a3414610075578063e58bb6391461007d578063f235757f14610087575b600080fd5b6100596100ad565b604080516001600160a01b039092168252519081900360200190f35b6100596100c2565b6100856100d1565b005b6100856004803603602081101561009d57600080fd5b50356001600160a01b0316610145565b6000546201000090046001600160a01b031681565b6001546001600160a01b031681565b6001546001600160a01b0316331461011a576040805162461bcd60e51b81526020600482015260076024820152661b9bc81c195b9960ca1b604482015290519081900360640190fd5b600180546001600160a01b03191690556000805462010000600160b01b031916336201000002179055565b6000546201000090046001600160a01b03163314610194576040805162461bcd60e51b81526020600482015260076024820152663130b21033b7bb60c91b604482015290519081900360640190fd5b600180546001600160a01b0319166001600160a01b039290921691909117905556fea264697066735822122056e72a1486bb68836a34d63e4c6c40491c3243615481bfd1eee99807e5adb52e64736f6c63430007060033",
  "immutableReferences": {},
  "source": "// SPDX-License-Identifier: MIT\n\npragma solidity 0.7.6;\n\nimport \"@openzeppelin/contracts/proxy/Initializable.sol\";\ncontract Governable is Initializable {\n  address public governor;\n  address public pendingGovernor;\n\n  modifier onlyGov() {\n    require(msg.sender == governor, 'bad gov');\n    _;\n  }\n\n  function __Governable__init() internal initializer {\n    governor = msg.sender;\n  }\n\n  function __Governable__init(address _governor) internal initializer {\n    governor = _governor;\n  }\n\n  /// @dev Set the pending governor, which will be the governor once accepted.\n  /// @param addr The address of the pending governor.\n  function setPendingGovernor(address addr) external onlyGov {\n    pendingGovernor = addr;\n  }\n\n  /// @dev Accept to become the new governor. Must be called by the pending governor.\n  function acceptGovernor() external {\n    require(msg.sender == pendingGovernor, 'no pend');\n    pendingGovernor = address(0);\n    governor = msg.sender;\n  }\n}\n",
  "sourcePath": "/home/joe/local2/bench/git/nutmeg/contracts/lib/Governable.sol",
  "compiler": {
    "name": "solc",
    "version": "0.7.6+commit.7338295f.Emscripten.clang"
  },
  "schemaVersion": "3.3.4",
  "updatedAt": "2021-04-29T11:24:49.115Z",
  "devdoc": {
    "kind": "dev",
    "methods": {
      "acceptGovernor()": {
        "details": "Accept to become the new governor. Must be called by the pending governor."
      },
      "setPendingGovernor(address)": {
        "details": "Set the pending governor, which will be the governor once accepted.",
        "params": {
          "addr": "The address of the pending governor."
        }
      }
    },
    "version": 1
  },
  "userdoc": {
    "kind": "user",
    "methods": {},
    "version": 1
  }
}