{
  "contractName": "MockCERC20AltA",
  "abi": [
    {
      "inputs": [
        {
          "internalType": "address",
          "name": "tokenAddr",
          "type": "address"
        }
      ],
      "stateMutability": "nonpayable",
      "type": "constructor"
    },
    {
      "anonymous": false,
      "inputs": [
        {
          "indexed": true,
          "internalType": "address",
          "name": "owner",
          "type": "address"
        },
        {
          "indexed": true,
          "internalType": "address",
          "name": "spender",
          "type": "address"
        },
        {
          "indexed": false,
          "internalType": "uint256",
          "name": "value",
          "type": "uint256"
        }
      ],
      "name": "Approval",
      "type": "event"
    },
    {
      "anonymous": false,
      "inputs": [
        {
          "indexed": true,
          "internalType": "address",
          "name": "from",
          "type": "address"
        },
        {
          "indexed": true,
          "internalType": "address",
          "name": "to",
          "type": "address"
        },
        {
          "indexed": false,
          "internalType": "uint256",
          "name": "value",
          "type": "uint256"
        }
      ],
      "name": "Transfer",
      "type": "event"
    },
    {
      "inputs": [
        {
          "internalType": "address",
          "name": "owner",
          "type": "address"
        },
        {
          "internalType": "address",
          "name": "spender",
          "type": "address"
        }
      ],
      "name": "allowance",
      "outputs": [
        {
          "internalType": "uint256",
          "name": "",
          "type": "uint256"
        }
      ],
      "stateMutability": "view",
      "type": "function",
      "constant": true
    },
    {
      "inputs": [
        {
          "internalType": "address",
          "name": "account",
          "type": "address"
        },
        {
          "internalType": "uint256",
          "name": "amount",
          "type": "uint256"
        }
      ],
      "name": "approve",
      "outputs": [
        {
          "internalType": "bool",
          "name": "",
          "type": "bool"
        }
      ],
      "stateMutability": "nonpayable",
      "type": "function"
    },
    {
      "inputs": [
        {
          "internalType": "address",
          "name": "account",
          "type": "address"
        }
      ],
      "name": "balanceOf",
      "outputs": [
        {
          "internalType": "uint256",
          "name": "",
          "type": "uint256"
        }
      ],
      "stateMutability": "view",
      "type": "function",
      "constant": true
    },
    {
      "inputs": [],
      "name": "decimals",
      "outputs": [
        {
          "internalType": "uint8",
          "name": "",
          "type": "uint8"
        }
      ],
      "stateMutability": "view",
      "type": "function",
      "constant": true
    },
    {
      "inputs": [
        {
          "internalType": "address",
          "name": "spender",
          "type": "address"
        },
        {
          "internalType": "uint256",
          "name": "subtractedValue",
          "type": "uint256"
        }
      ],
      "name": "decreaseAllowance",
      "outputs": [
        {
          "internalType": "bool",
          "name": "",
          "type": "bool"
        }
      ],
      "stateMutability": "nonpayable",
      "type": "function"
    },
    {
      "inputs": [],
      "name": "exchangeRate",
      "outputs": [
        {
          "internalType": "uint256",
          "name": "",
          "type": "uint256"
        }
      ],
      "stateMutability": "view",
      "type": "function",
      "constant": true
    },
    {
      "inputs": [],
      "name": "exchangeRateCurrent",
      "outputs": [
        {
          "internalType": "uint256",
          "name": "",
          "type": "uint256"
        }
      ],
      "stateMutability": "view",
      "type": "function",
      "constant": true
    },
    {
      "inputs": [
        {
          "internalType": "address",
          "name": "spender",
          "type": "address"
        },
        {
          "internalType": "uint256",
          "name": "addedValue",
          "type": "uint256"
        }
      ],
      "name": "increaseAllowance",
      "outputs": [
        {
          "internalType": "bool",
          "name": "",
          "type": "bool"
        }
      ],
      "stateMutability": "nonpayable",
      "type": "function"
    },
    {
      "inputs": [
        {
          "internalType": "uint256",
          "name": "amount",
          "type": "uint256"
        }
      ],
      "name": "mint",
      "outputs": [
        {
          "internalType": "uint256",
          "name": "",
          "type": "uint256"
        }
      ],
      "stateMutability": "nonpayable",
      "type": "function"
    },
    {
      "inputs": [],
      "name": "name",
      "outputs": [
        {
          "internalType": "string",
          "name": "",
          "type": "string"
        }
      ],
      "stateMutability": "view",
      "type": "function",
      "constant": true
    },
    {
      "inputs": [
        {
          "internalType": "uint256",
          "name": "amount",
          "type": "uint256"
        }
      ],
      "name": "redeem",
      "outputs": [
        {
          "internalType": "uint256",
          "name": "",
          "type": "uint256"
        }
      ],
      "stateMutability": "nonpayable",
      "type": "function"
    },
    {
      "inputs": [
        {
          "internalType": "uint256",
          "name": "amount",
          "type": "uint256"
        }
      ],
      "name": "redeemUnderlying",
      "outputs": [
        {
          "internalType": "uint256",
          "name": "",
          "type": "uint256"
        }
      ],
      "stateMutability": "nonpayable",
      "type": "function"
    },
    {
      "inputs": [],
      "name": "returnError",
      "outputs": [
        {
          "internalType": "bool",
          "name": "",
          "type": "bool"
        }
      ],
      "stateMutability": "view",
      "type": "function",
      "constant": true
    },
    {
      "inputs": [
        {
          "internalType": "bool",
          "name": "b",
          "type": "bool"
        }
      ],
      "name": "setError",
      "outputs": [],
      "stateMutability": "nonpayable",
      "type": "function"
    },
    {
      "inputs": [
        {
          "internalType": "uint256",
          "name": "e",
          "type": "uint256"
        }
      ],
      "name": "setExchangeRate",
      "outputs": [],
      "stateMutability": "nonpayable",
      "type": "function"
    },
    {
      "inputs": [],
      "name": "supplyRatePerBlock",
      "outputs": [
        {
          "internalType": "uint256",
          "name": "",
          "type": "uint256"
        }
      ],
      "stateMutability": "pure",
      "type": "function",
      "constant": true
    },
    {
      "inputs": [],
      "name": "symbol",
      "outputs": [
        {
          "internalType": "string",
          "name": "",
          "type": "string"
        }
      ],
      "stateMutability": "view",
      "type": "function",
      "constant": true
    },
    {
      "inputs": [],
      "name": "token",
      "outputs": [
        {
          "internalType": "address",
          "name": "",
          "type": "address"
        }
      ],
      "stateMutability": "view",
      "type": "function",
      "constant": true
    },
    {
      "inputs": [],
      "name": "totalSupply",
      "outputs": [
        {
          "internalType": "uint256",
          "name": "",
          "type": "uint256"
        }
      ],
      "stateMutability": "view",
      "type": "function",
      "constant": true
    },
    {
      "inputs": [
        {
          "internalType": "address",
          "name": "dst",
          "type": "address"
        },
        {
          "internalType": "uint256",
          "name": "amount",
          "type": "uint256"
        }
      ],
      "name": "transfer",
      "outputs": [
        {
          "internalType": "bool",
          "name": "",
          "type": "bool"
        }
      ],
      "stateMutability": "nonpayable",
      "type": "function"
    },
    {
      "inputs": [
        {
          "internalType": "address",
          "name": "sender",
          "type": "address"
        },
        {
          "internalType": "address",
          "name": "recipient",
          "type": "address"
        },
        {
          "internalType": "uint256",
          "name": "amount",
          "type": "uint256"
        }
      ],
      "name": "transferFrom",
      "outputs": [
        {
          "internalType": "bool",
          "name": "",
          "type": "bool"
        }
      ],
      "stateMutability": "nonpayable",
      "type": "function"
    }
  ],
  "bytecode": "0x60a06040523480156200001157600080fd5b5060405162001681380380620016818339810160408190526200003491620001c0565b604080518082018252600f81526e4d6f636b43455243323020416c744160881b60208083019182528351808501909452600e84526d4d4f434b434552433230414c544160901b90840152815184939160129184918491620000989160039162000114565b508051620000ae90600490602084019062000114565b50506005805460ff199081166012179091556001600160601b0319606087901b16608052670de0b6b3a764000060065560078054909116905550620000f381620000fe565b5050505050620001f0565b6005805460ff191660ff92909216919091179055565b828054600181600116156101000203166002900490600052602060002090601f0160209004810192826200014c576000855562000197565b82601f106200016757805160ff191683800117855562000197565b8280016001018555821562000197579182015b82811115620001975782518255916020019190600101906200017a565b50620001a5929150620001a9565b5090565b5b80821115620001a55760008155600101620001aa565b600060208284031215620001d2578081fd5b81516001600160a01b0381168114620001e9578182fd5b9392505050565b60805160601c6114646200021d6000398061049c528061057f528061069e528061070152506114646000f3fe608060405234801561001057600080fd5b50600436106101375760003560e01c806395d89b41116100b8578063bd6d894d1161007c578063bd6d894d14610256578063dad03cb01461025e578063db006a7514610266578063db068e0e14610279578063dd62ed3e1461028c578063fc0c546a1461029f57610137565b806395d89b411461020d578063a0712d6814610215578063a457c2d714610228578063a9059cbb1461023b578063ae9d70b01461024e57610137565b8063313ce567116100ff578063313ce567146101b757806339509351146101cc5780633ba0b9a9146101df57806370a08231146101e7578063852a12e3146101fa57610137565b806306fdde031461013c578063095ea7b31461015a57806318160ddd1461017a5780631bb7a6e81461018f57806323b872dd146101a4575b600080fd5b6101446102b4565b604051610151919061120f565b60405180910390f35b61016d61016836600461118f565b61034a565b6040516101519190611204565b61018261035f565b6040516101519190611262565b6101a261019d3660046111b8565b610365565b005b61016d6101b2366004611154565b610378565b6101bf610400565b604051610151919061126b565b61016d6101da36600461118f565b610409565b610182610460565b6101826101f5366004611108565b610466565b6101826102083660046111d8565b610479565b6101446104fb565b6101826102233660046111d8565b61055c565b61016d61023636600461118f565b6105d1565b61016d61024936600461118f565b610639565b610182610645565b61018261064a565b61016d610650565b6101826102743660046111d8565b610659565b6101a26102873660046111d8565b6106cf565b61018261029a366004611122565b6106d4565b6102a76106ff565b60405161015191906111f0565b60038054604080516020601f60026000196101006001881615020190951694909404938401819004810282018101909252828152606093909290918301828280156103405780601f1061031557610100808354040283529160200191610340565b820191906000526020600020905b81548152906001019060200180831161032357829003601f168201915b5050505050905090565b60006103568383610723565b90505b92915050565b60025490565b6007805460ff1916911515919091179055565b6000610385848484610737565b6103f584610391610892565b6103f08560405180606001604052806028815260200161134e602891396001600160a01b038a166000908152600160205260408120906103cf610892565b6001600160a01b031681526020810191909152604001600020549190610896565b61092d565b5060015b9392505050565b60055460ff1690565b6000610457610416610892565b846103f08560016000610427610892565b6001600160a01b03908116825260208083019390935260409182016000908120918c168152925290205490610a19565b50600192915050565b60065481565b600061047182610a73565b90505b919050565b60075460009060ff161561048f57506001610474565b6104c36001600160a01b037f0000000000000000000000000000000000000000000000000000000000000000163384610a8e565b6104f3336104ee6006546104e8670de0b6b3a764000087610ae590919063ffffffff16565b90610b3e565b610ba5565b506000919050565b60048054604080516020601f60026000196101006001881615020190951694909404938401819004810282018101909252828152606093909290918301828280156103405780601f1061031557610100808354040283529160200191610340565b60075460009060ff161561057257506001610474565b6105a76001600160a01b037f000000000000000000000000000000000000000000000000000000000000000016333085610ca1565b6104f3336105cc6006546104e8670de0b6b3a764000087610ae590919063ffffffff16565b610d01565b60006104576105de610892565b846103f08560405180606001604052806025815260200161140a6025913960016000610608610892565b6001600160a01b03908116825260208083019390935260409182016000908120918d16815292529020549190610896565b60006103568383610df1565b600090565b60065490565b60075460ff1681565b60075460009060ff161561066f57506001610474565b6106c533610694670de0b6b3a76400006104e860065487610ae590919063ffffffff16565b6001600160a01b037f0000000000000000000000000000000000000000000000000000000000000000169190610a8e565b6104f33383610ba5565b600655565b6001600160a01b03918216600090815260016020908152604080832093909416825291909152205490565b7f000000000000000000000000000000000000000000000000000000000000000081565b6000610457610730610892565b848461092d565b6001600160a01b03831661077c5760405162461bcd60e51b81526004018080602001828103825260258152602001806113976025913960400191505060405180910390fd5b6001600160a01b0382166107c15760405162461bcd60e51b815260040180806020018281038252602381526020018061127a6023913960400191505060405180910390fd5b6107cc838383610ae0565b610809816040518060600160405280602681526020016112e1602691396001600160a01b0386166000908152602081905260409020549190610896565b6001600160a01b0380851660009081526020819052604080822093909355908416815220546108389082610a19565b6001600160a01b038084166000818152602081815260409182902094909455805185815290519193928716927fddf252ad1be2c89b69c2b068fc378daa952ba7f163c4a11628f55a4df523b3ef92918290030190a3505050565b3390565b600081848411156109255760405162461bcd60e51b81526004018080602001828103825283818151815260200191508051906020019080838360005b838110156108ea5781810151838201526020016108d2565b50505050905090810190601f1680156109175780820380516001836020036101000a031916815260200191505b509250505060405180910390fd5b505050900390565b6001600160a01b0383166109725760405162461bcd60e51b81526004018080602001828103825260248152602001806113bc6024913960400191505060405180910390fd5b6001600160a01b0382166109b75760405162461bcd60e51b81526004018080602001828103825260228152602001806112bf6022913960400191505060405180910390fd5b6001600160a01b03808416600081815260016020908152604080832094871680845294825291829020859055815185815291517f8c5be1e5ebec7d5bd14f71427d1e84f3dd0314c0f7b2291e5b200ac8c7c3b9259281900390910190a3505050565b600082820183811015610356576040805162461bcd60e51b815260206004820152601b60248201527f536166654d6174683a206164646974696f6e206f766572666c6f770000000000604482015290519081900360640190fd5b6001600160a01b031660009081526020819052604090205490565b604080516001600160a01b038416602482015260448082018490528251808303909101815260649091019091526020810180516001600160e01b031663a9059cbb60e01b179052610ae0908490610e05565b505050565b600082610af457506000610359565b82820282848281610b0157fe5b04146103565760405162461bcd60e51b815260040180806020018281038252602181526020018061132d6021913960400191505060405180910390fd5b6000808211610b94576040805162461bcd60e51b815260206004820152601a60248201527f536166654d6174683a206469766973696f6e206279207a65726f000000000000604482015290519081900360640190fd5b818381610b9d57fe5b049392505050565b6001600160a01b038216610bea5760405162461bcd60e51b81526004018080602001828103825260218152602001806113766021913960400191505060405180910390fd5b610bf682600083610ae0565b610c338160405180606001604052806022815260200161129d602291396001600160a01b0385166000908152602081905260409020549190610896565b6001600160a01b038316600090815260208190526040902055600254610c599082610eb6565b6002556040805182815290516000916001600160a01b038516917fddf252ad1be2c89b69c2b068fc378daa952ba7f163c4a11628f55a4df523b3ef9181900360200190a35050565b604080516001600160a01b0380861660248301528416604482015260648082018490528251808303909101815260849091019091526020810180516001600160e01b03166323b872dd60e01b179052610cfb908590610e05565b50505050565b6001600160a01b038216610d5c576040805162461bcd60e51b815260206004820152601f60248201527f45524332303a206d696e7420746f20746865207a65726f206164647265737300604482015290519081900360640190fd5b610d6860008383610ae0565b600254610d759082610a19565b6002556001600160a01b038216600090815260208190526040902054610d9b9082610a19565b6001600160a01b0383166000818152602081815260408083209490945583518581529351929391927fddf252ad1be2c89b69c2b068fc378daa952ba7f163c4a11628f55a4df523b3ef9281900390910190a35050565b6000610457610dfe610892565b8484610737565b6000610e5a826040518060400160405280602081526020017f5361666545524332303a206c6f772d6c6576656c2063616c6c206661696c6564815250856001600160a01b0316610f139092919063ffffffff16565b805190915015610ae057808060200190516020811015610e7957600080fd5b5051610ae05760405162461bcd60e51b815260040180806020018281038252602a8152602001806113e0602a913960400191505060405180910390fd5b600082821115610f0d576040805162461bcd60e51b815260206004820152601e60248201527f536166654d6174683a207375627472616374696f6e206f766572666c6f770000604482015290519081900360640190fd5b50900390565b6060610f228484600085610f2a565b949350505050565b606082471015610f6b5760405162461bcd60e51b81526004018080602001828103825260268152602001806113076026913960400191505060405180910390fd5b610f7485611085565b610fc5576040805162461bcd60e51b815260206004820152601d60248201527f416464726573733a2063616c6c20746f206e6f6e2d636f6e7472616374000000604482015290519081900360640190fd5b600080866001600160a01b031685876040518082805190602001908083835b602083106110035780518252601f199092019160209182019101610fe4565b6001836020036101000a03801982511681845116808217855250505050505090500191505060006040518083038185875af1925050503d8060008114611065576040519150601f19603f3d011682016040523d82523d6000602084013e61106a565b606091505b509150915061107a82828661108b565b979650505050505050565b3b151590565b6060831561109a5750816103f9565b8251156110aa5782518084602001fd5b60405162461bcd60e51b81526020600482018181528451602484015284518593919283926044019190850190808383600083156108ea5781810151838201526020016108d2565b80356001600160a01b038116811461047457600080fd5b600060208284031215611119578081fd5b610356826110f1565b60008060408385031215611134578081fd5b61113d836110f1565b915061114b602084016110f1565b90509250929050565b600080600060608486031215611168578081fd5b611171846110f1565b925061117f602085016110f1565b9150604084013590509250925092565b600080604083850312156111a1578182fd5b6111aa836110f1565b946020939093013593505050565b6000602082840312156111c9578081fd5b81358015158114610356578182fd5b6000602082840312156111e9578081fd5b5035919050565b6001600160a01b0391909116815260200190565b901515815260200190565b6000602080835283518082850152825b8181101561123b5785810183015185820160400152820161121f565b8181111561124c5783604083870101525b50601f01601f1916929092016040019392505050565b90815260200190565b60ff9190911681526020019056fe45524332303a207472616e7366657220746f20746865207a65726f206164647265737345524332303a206275726e20616d6f756e7420657863656564732062616c616e636545524332303a20617070726f766520746f20746865207a65726f206164647265737345524332303a207472616e7366657220616d6f756e7420657863656564732062616c616e6365416464726573733a20696e73756666696369656e742062616c616e636520666f722063616c6c536166654d6174683a206d756c7469706c69636174696f6e206f766572666c6f7745524332303a207472616e7366657220616d6f756e74206578636565647320616c6c6f77616e636545524332303a206275726e2066726f6d20746865207a65726f206164647265737345524332303a207472616e736665722066726f6d20746865207a65726f206164647265737345524332303a20617070726f76652066726f6d20746865207a65726f20616464726573735361666545524332303a204552433230206f7065726174696f6e20646964206e6f74207375636365656445524332303a2064656372656173656420616c6c6f77616e63652062656c6f77207a65726fa26469706673582212205a9d525ad52c9c6688cfd43131d50dfa029a915934fc008011bdc650a5b2868d64736f6c63430007060033",
  "immutableReferences": {
    "7127": [
      {
        "length": 32,
        "start": 1180
      },
      {
        "length": 32,
        "start": 1407
      },
      {
        "length": 32,
        "start": 1694
      },
      {
        "length": 32,
        "start": 1793
      }
    ]
  },
  "source": "// SPDX-License-Identifier: MIT\n\npragma solidity 0.7.6;\npragma experimental ABIEncoderV2;\nimport \"../Nutmeg.sol\";\n\n// @notice This contract is a version of Nutmeg that contains additional\n// interfaces for testing\n\ncontract NutmegAltA is Nutmeg {\n    //@notice output version string\n    function getVersionString()\n    external virtual pure returns (string memory) {\n        return \"nutmegalta\";\n   }\n}\n\ncontract NutmegAltB is Nutmeg {\n    //@notice output version string\n    function getVersionString()\n    external virtual pure returns (string memory) {\n        return \"nutmegaltb\";\n   }\n}\n\nimport \"../NutDistributor.sol\";\nimport \"@openzeppelin/contracts/token/ERC20/SafeERC20.sol\";\n\n// @notice This contract is a version of NutDistributor that allows\n// the epoch intervals to be changed for testing\n\ncontract NutDistributorAltA is NutDistributor {\n    //@notice output version string\n    function getVersionString()\n    external virtual pure override returns (string memory) {\n        return \"nutdistributoralta\";\n   }\n}\n\ncontract NutDistributorAltB is NutDistributor {\n    //@notice output version string\n    function getVersionString()\n    external virtual pure override returns (string memory) {\n        return \"nutdistributoraltb\";\n   }\n}\n\nimport \"./MockERC20.sol\";\n\ncontract MockERC20AltA is\nMockERC20(\"MockERC20AltA\", \"MOCKERC20ALTA\", 18) {\n}\n\ncontract MockERC20AltB is\nMockERC20(\"MockERC20AltB\", \"MOCKERC20ALTB\", 18) {\n}\n\ncontract MockERC20AltC is\nMockERC20(\"MockERC20AltC\", \"MOCKERC20ALTC\", 6) {\n}\n\nimport \"./MockCERC20.sol\";\n\ncontract MockCERC20AltA is MockCERC20Base {\n    constructor(address tokenAddr)\n    MockCERC20Base(tokenAddr, \"MockCERC20 AltA\", \"MOCKCERC20ALTA\", 18) {\n    }\n}\ncontract MockCERC20AltB is MockCERC20Base {\n    constructor(address tokenAddr)\n    MockCERC20Base(tokenAddr, \"MockCERC20 AltB\", \"MOCKCERC20ALTB\", 18) {\n    }\n}\ncontract MockCERC20AltC is MockCERC20Base {\n    constructor(address tokenAddr)\n    MockCERC20Base(tokenAddr, \"MockCERC20 AltC\", \"MOCKCERC20ALTC\", 6) {\n    }\n}\n\nimport \"../adapters/CompoundAdapter.sol\";\nimport \"../interfaces/INutmeg.sol\";\ncontract CompoundAdapterAltA is CompoundAdapter {\n    constructor(INutmeg nutmegAddr) CompoundAdapter(nutmegAddr) {\n    }\n}\n\ncontract CompoundAdapterAltB is CompoundAdapter {\n    constructor(INutmeg nutmegAddr) CompoundAdapter(nutmegAddr) {\n    }\n}\n",
  "sourcePath": "/home/joe/local2/bench/git/nutmeg.0501/contracts/mock/AltContracts.sol",
  "compiler": {
    "name": "solc",
    "version": "0.7.6+commit.7338295f.Emscripten.clang"
  },
  "schemaVersion": "3.3.4",
  "updatedAt": "2021-05-04T05:14:42.038Z",
  "networkType": "ethereum",
  "devdoc": {
    "kind": "dev",
    "methods": {
      "allowance(address,address)": {
        "details": "See {IERC20-allowance}."
      },
      "decimals()": {
        "details": "Returns the number of decimals used to get its user representation. For example, if `decimals` equals `2`, a balance of `505` tokens should be displayed to a user as `5,05` (`505 / 10 ** 2`). Tokens usually opt for a value of 18, imitating the relationship between Ether and Wei. This is the value {ERC20} uses, unless {_setupDecimals} is called. NOTE: This information is only used for _display_ purposes: it in no way affects any of the arithmetic of the contract, including {IERC20-balanceOf} and {IERC20-transfer}."
      },
      "decreaseAllowance(address,uint256)": {
        "details": "Atomically decreases the allowance granted to `spender` by the caller. This is an alternative to {approve} that can be used as a mitigation for problems described in {IERC20-approve}. Emits an {Approval} event indicating the updated allowance. Requirements: - `spender` cannot be the zero address. - `spender` must have allowance for the caller of at least `subtractedValue`."
      },
      "increaseAllowance(address,uint256)": {
        "details": "Atomically increases the allowance granted to `spender` by the caller. This is an alternative to {approve} that can be used as a mitigation for problems described in {IERC20-approve}. Emits an {Approval} event indicating the updated allowance. Requirements: - `spender` cannot be the zero address."
      },
      "name()": {
        "details": "Returns the name of the token."
      },
      "symbol()": {
        "details": "Returns the symbol of the token, usually a shorter version of the name."
      },
      "totalSupply()": {
        "details": "See {IERC20-totalSupply}."
      },
      "transferFrom(address,address,uint256)": {
        "details": "See {IERC20-transferFrom}. Emits an {Approval} event indicating the updated allowance. This is not required by the EIP. See the note at the beginning of {ERC20}. Requirements: - `sender` and `recipient` cannot be the zero address. - `sender` must have a balance of at least `amount`. - the caller must have allowance for ``sender``'s tokens of at least `amount`."
      }
    },
    "version": 1
  },
  "userdoc": {
    "kind": "user",
    "methods": {},
    "version": 1
  }
}