{
  "contractName": "MockCERC20",
  "abi": [
    {
      "inputs": [
        {
          "internalType": "address",
          "name": "tokenAddr",
          "type": "address"
        }
      ],
      "stateMutability": "nonpayable",
      "type": "constructor"
    },
    {
      "anonymous": false,
      "inputs": [
        {
          "indexed": true,
          "internalType": "address",
          "name": "owner",
          "type": "address"
        },
        {
          "indexed": true,
          "internalType": "address",
          "name": "spender",
          "type": "address"
        },
        {
          "indexed": false,
          "internalType": "uint256",
          "name": "value",
          "type": "uint256"
        }
      ],
      "name": "Approval",
      "type": "event"
    },
    {
      "anonymous": false,
      "inputs": [
        {
          "indexed": true,
          "internalType": "address",
          "name": "from",
          "type": "address"
        },
        {
          "indexed": true,
          "internalType": "address",
          "name": "to",
          "type": "address"
        },
        {
          "indexed": false,
          "internalType": "uint256",
          "name": "value",
          "type": "uint256"
        }
      ],
      "name": "Transfer",
      "type": "event"
    },
    {
      "inputs": [
        {
          "internalType": "address",
          "name": "owner",
          "type": "address"
        },
        {
          "internalType": "address",
          "name": "spender",
          "type": "address"
        }
      ],
      "name": "allowance",
      "outputs": [
        {
          "internalType": "uint256",
          "name": "",
          "type": "uint256"
        }
      ],
      "stateMutability": "view",
      "type": "function"
    },
    {
      "inputs": [],
      "name": "decimals",
      "outputs": [
        {
          "internalType": "uint8",
          "name": "",
          "type": "uint8"
        }
      ],
      "stateMutability": "view",
      "type": "function"
    },
    {
      "inputs": [
        {
          "internalType": "address",
          "name": "spender",
          "type": "address"
        },
        {
          "internalType": "uint256",
          "name": "subtractedValue",
          "type": "uint256"
        }
      ],
      "name": "decreaseAllowance",
      "outputs": [
        {
          "internalType": "bool",
          "name": "",
          "type": "bool"
        }
      ],
      "stateMutability": "nonpayable",
      "type": "function"
    },
    {
      "inputs": [],
      "name": "exchangeRate",
      "outputs": [
        {
          "internalType": "uint256",
          "name": "",
          "type": "uint256"
        }
      ],
      "stateMutability": "view",
      "type": "function"
    },
    {
      "inputs": [
        {
          "internalType": "address",
          "name": "spender",
          "type": "address"
        },
        {
          "internalType": "uint256",
          "name": "addedValue",
          "type": "uint256"
        }
      ],
      "name": "increaseAllowance",
      "outputs": [
        {
          "internalType": "bool",
          "name": "",
          "type": "bool"
        }
      ],
      "stateMutability": "nonpayable",
      "type": "function"
    },
    {
      "inputs": [],
      "name": "name",
      "outputs": [
        {
          "internalType": "string",
          "name": "",
          "type": "string"
        }
      ],
      "stateMutability": "view",
      "type": "function"
    },
    {
      "inputs": [],
      "name": "returnError",
      "outputs": [
        {
          "internalType": "bool",
          "name": "",
          "type": "bool"
        }
      ],
      "stateMutability": "view",
      "type": "function"
    },
    {
      "inputs": [],
      "name": "symbol",
      "outputs": [
        {
          "internalType": "string",
          "name": "",
          "type": "string"
        }
      ],
      "stateMutability": "view",
      "type": "function"
    },
    {
      "inputs": [],
      "name": "token",
      "outputs": [
        {
          "internalType": "address",
          "name": "",
          "type": "address"
        }
      ],
      "stateMutability": "view",
      "type": "function"
    },
    {
      "inputs": [],
      "name": "totalSupply",
      "outputs": [
        {
          "internalType": "uint256",
          "name": "",
          "type": "uint256"
        }
      ],
      "stateMutability": "view",
      "type": "function"
    },
    {
      "inputs": [
        {
          "internalType": "address",
          "name": "sender",
          "type": "address"
        },
        {
          "internalType": "address",
          "name": "recipient",
          "type": "address"
        },
        {
          "internalType": "uint256",
          "name": "amount",
          "type": "uint256"
        }
      ],
      "name": "transferFrom",
      "outputs": [
        {
          "internalType": "bool",
          "name": "",
          "type": "bool"
        }
      ],
      "stateMutability": "nonpayable",
      "type": "function"
    },
    {
      "inputs": [
        {
          "internalType": "uint256",
          "name": "amount",
          "type": "uint256"
        }
      ],
      "name": "mint",
      "outputs": [
        {
          "internalType": "uint256",
          "name": "",
          "type": "uint256"
        }
      ],
      "stateMutability": "nonpayable",
      "type": "function"
    },
    {
      "inputs": [
        {
          "internalType": "uint256",
          "name": "amount",
          "type": "uint256"
        }
      ],
      "name": "redeem",
      "outputs": [
        {
          "internalType": "uint256",
          "name": "",
          "type": "uint256"
        }
      ],
      "stateMutability": "nonpayable",
      "type": "function"
    },
    {
      "inputs": [
        {
          "internalType": "uint256",
          "name": "amount",
          "type": "uint256"
        }
      ],
      "name": "redeemUnderlying",
      "outputs": [
        {
          "internalType": "uint256",
          "name": "",
          "type": "uint256"
        }
      ],
      "stateMutability": "nonpayable",
      "type": "function"
    },
    {
      "inputs": [],
      "name": "exchangeRateCurrent",
      "outputs": [
        {
          "internalType": "uint256",
          "name": "",
          "type": "uint256"
        }
      ],
      "stateMutability": "view",
      "type": "function"
    },
    {
      "inputs": [],
      "name": "supplyRatePerBlock",
      "outputs": [
        {
          "internalType": "uint256",
          "name": "",
          "type": "uint256"
        }
      ],
      "stateMutability": "pure",
      "type": "function"
    },
    {
      "inputs": [
        {
          "internalType": "address",
          "name": "account",
          "type": "address"
        }
      ],
      "name": "balanceOf",
      "outputs": [
        {
          "internalType": "uint256",
          "name": "",
          "type": "uint256"
        }
      ],
      "stateMutability": "view",
      "type": "function"
    },
    {
      "inputs": [
        {
          "internalType": "address",
          "name": "account",
          "type": "address"
        },
        {
          "internalType": "uint256",
          "name": "amount",
          "type": "uint256"
        }
      ],
      "name": "approve",
      "outputs": [
        {
          "internalType": "bool",
          "name": "",
          "type": "bool"
        }
      ],
      "stateMutability": "nonpayable",
      "type": "function"
    },
    {
      "inputs": [
        {
          "internalType": "address",
          "name": "dst",
          "type": "address"
        },
        {
          "internalType": "uint256",
          "name": "amount",
          "type": "uint256"
        }
      ],
      "name": "transfer",
      "outputs": [
        {
          "internalType": "bool",
          "name": "",
          "type": "bool"
        }
      ],
      "stateMutability": "nonpayable",
      "type": "function"
    },
    {
      "inputs": [
        {
          "internalType": "uint256",
          "name": "e",
          "type": "uint256"
        }
      ],
      "name": "setExchangeRate",
      "outputs": [],
      "stateMutability": "nonpayable",
      "type": "function"
    },
    {
      "inputs": [
        {
          "internalType": "bool",
          "name": "b",
          "type": "bool"
        }
      ],
      "name": "setError",
      "outputs": [],
      "stateMutability": "nonpayable",
      "type": "function"
    }
  ],
  "bytecode": "0x60a06040523480156200001157600080fd5b506040516200162438038062001624833981810160405260208110156200003757600080fd5b5051604080518082018252600a81526904d6f636b4345524332360b41b60208281019182528351808501909452600784526604d4345524332360cc1b9084015281519192916200008a9160039162000103565b508051620000a090600490602084019062000103565b505060058054601260ff199182168117909255606084901b6001600160601b031916608052670de0b6b3a7640000600655600780549091169055620000e69150620000ed565b50620001af565b6005805460ff191660ff92909216919091179055565b828054600181600116156101000203166002900490600052602060002090601f0160209004810192826200013b576000855562000186565b82601f106200015657805160ff191683800117855562000186565b8280016001018555821562000186579182015b828111156200018657825182559160200191906001019062000169565b506200019492915062000198565b5090565b5b8082111562000194576000815560010162000199565b60805160601c611448620001dc6000398061060852806106eb528061080a528061086d52506114486000f3fe608060405234801561001057600080fd5b50600436106101375760003560e01c806395d89b41116100b8578063bd6d894d1161007c578063bd6d894d14610384578063dad03cb01461038c578063db006a7514610394578063db068e0e146103b1578063dd62ed3e146103ce578063fc0c546a146103fc57610137565b806395d89b41146102ff578063a0712d6814610307578063a457c2d714610324578063a9059cbb14610350578063ae9d70b01461037c57610137565b8063313ce567116100ff578063313ce5671461026a57806339509351146102885780633ba0b9a9146102b457806370a08231146102bc578063852a12e3146102e257610137565b806306fdde031461013c578063095ea7b3146101b957806318160ddd146101f95780631bb7a6e81461021357806323b872dd14610234575b600080fd5b610144610420565b6040805160208082528351818301528351919283929083019185019080838360005b8381101561017e578181015183820152602001610166565b50505050905090810190601f1680156101ab5780820380516001836020036101000a031916815260200191505b509250505060405180910390f35b6101e5600480360360408110156101cf57600080fd5b506001600160a01b0381351690602001356104b6565b604080519115158252519081900360200190f35b6102016104cb565b60408051918252519081900360200190f35b6102326004803603602081101561022957600080fd5b503515156104d1565b005b6101e56004803603606081101561024a57600080fd5b506001600160a01b038135811691602081013590911690604001356104e4565b61027261056c565b6040805160ff9092168252519081900360200190f35b6101e56004803603604081101561029e57600080fd5b506001600160a01b038135169060200135610575565b6102016105cc565b610201600480360360208110156102d257600080fd5b50356001600160a01b03166105d2565b610201600480360360208110156102f857600080fd5b50356105e5565b610144610667565b6102016004803603602081101561031d57600080fd5b50356106c8565b6101e56004803603604081101561033a57600080fd5b506001600160a01b03813516906020013561073d565b6101e56004803603604081101561036657600080fd5b506001600160a01b0381351690602001356107a5565b6102016107b1565b6102016107b6565b6101e56107bc565b610201600480360360208110156103aa57600080fd5b50356107c5565b610232600480360360208110156103c757600080fd5b503561083b565b610201600480360360408110156103e457600080fd5b506001600160a01b0381358116916020013516610840565b61040461086b565b604080516001600160a01b039092168252519081900360200190f35b60038054604080516020601f60026000196101006001881615020190951694909404938401819004810282018101909252828152606093909290918301828280156104ac5780601f10610481576101008083540402835291602001916104ac565b820191906000526020600020905b81548152906001019060200180831161048f57829003601f168201915b5050505050905090565b60006104c2838361088f565b90505b92915050565b60025490565b6007805460ff1916911515919091179055565b60006104f18484846108a3565b610561846104fd6109fe565b61055c85604051806060016040528060288152602001611332602891396001600160a01b038a1660009081526001602052604081209061053b6109fe565b6001600160a01b031681526020810191909152604001600020549190610a02565b610a99565b5060015b9392505050565b60055460ff1690565b60006105c36105826109fe565b8461055c85600160006105936109fe565b6001600160a01b03908116825260208083019390935260409182016000908120918c168152925290205490610b85565b50600192915050565b60065481565b60006105dd82610bdf565b90505b919050565b60075460009060ff16156105fb575060016105e0565b61062f6001600160a01b037f0000000000000000000000000000000000000000000000000000000000000000163384610bfa565b61065f3361065a600654610654670de0b6b3a764000087610c5190919063ffffffff16565b90610caa565b610d11565b506000919050565b60048054604080516020601f60026000196101006001881615020190951694909404938401819004810282018101909252828152606093909290918301828280156104ac5780601f10610481576101008083540402835291602001916104ac565b60075460009060ff16156106de575060016105e0565b6107136001600160a01b037f000000000000000000000000000000000000000000000000000000000000000016333085610e0d565b61065f33610738600654610654670de0b6b3a764000087610c5190919063ffffffff16565b610e6d565b60006105c361074a6109fe565b8461055c856040518060600160405280602581526020016113ee60259139600160006107746109fe565b6001600160a01b03908116825260208083019390935260409182016000908120918d16815292529020549190610a02565b60006104c28383610f5d565b600090565b60065490565b60075460ff1681565b60075460009060ff16156107db575060016105e0565b61083133610800670de0b6b3a764000061065460065487610c5190919063ffffffff16565b6001600160a01b037f0000000000000000000000000000000000000000000000000000000000000000169190610bfa565b61065f3383610d11565b600655565b6001600160a01b03918216600090815260016020908152604080832093909416825291909152205490565b7f000000000000000000000000000000000000000000000000000000000000000081565b60006105c361089c6109fe565b8484610a99565b6001600160a01b0383166108e85760405162461bcd60e51b815260040180806020018281038252602581526020018061137b6025913960400191505060405180910390fd5b6001600160a01b03821661092d5760405162461bcd60e51b815260040180806020018281038252602381526020018061125e6023913960400191505060405180910390fd5b610938838383610c4c565b610975816040518060600160405280602681526020016112c5602691396001600160a01b0386166000908152602081905260409020549190610a02565b6001600160a01b0380851660009081526020819052604080822093909355908416815220546109a49082610b85565b6001600160a01b038084166000818152602081815260409182902094909455805185815290519193928716927fddf252ad1be2c89b69c2b068fc378daa952ba7f163c4a11628f55a4df523b3ef92918290030190a3505050565b3390565b60008184841115610a915760405162461bcd60e51b81526004018080602001828103825283818151815260200191508051906020019080838360005b83811015610a56578181015183820152602001610a3e565b50505050905090810190601f168015610a835780820380516001836020036101000a031916815260200191505b509250505060405180910390fd5b505050900390565b6001600160a01b038316610ade5760405162461bcd60e51b81526004018080602001828103825260248152602001806113a06024913960400191505060405180910390fd5b6001600160a01b038216610b235760405162461bcd60e51b81526004018080602001828103825260228152602001806112a36022913960400191505060405180910390fd5b6001600160a01b03808416600081815260016020908152604080832094871680845294825291829020859055815185815291517f8c5be1e5ebec7d5bd14f71427d1e84f3dd0314c0f7b2291e5b200ac8c7c3b9259281900390910190a3505050565b6000828201838110156104c2576040805162461bcd60e51b815260206004820152601b60248201527f536166654d6174683a206164646974696f6e206f766572666c6f770000000000604482015290519081900360640190fd5b6001600160a01b031660009081526020819052604090205490565b604080516001600160a01b038416602482015260448082018490528251808303909101815260649091019091526020810180516001600160e01b031663a9059cbb60e01b179052610c4c908490610f71565b505050565b600082610c60575060006104c5565b82820282848281610c6d57fe5b04146104c25760405162461bcd60e51b81526004018080602001828103825260218152602001806113116021913960400191505060405180910390fd5b6000808211610d00576040805162461bcd60e51b815260206004820152601a60248201527f536166654d6174683a206469766973696f6e206279207a65726f000000000000604482015290519081900360640190fd5b818381610d0957fe5b049392505050565b6001600160a01b038216610d565760405162461bcd60e51b815260040180806020018281038252602181526020018061135a6021913960400191505060405180910390fd5b610d6282600083610c4c565b610d9f81604051806060016040528060228152602001611281602291396001600160a01b0385166000908152602081905260409020549190610a02565b6001600160a01b038316600090815260208190526040902055600254610dc59082611022565b6002556040805182815290516000916001600160a01b038516917fddf252ad1be2c89b69c2b068fc378daa952ba7f163c4a11628f55a4df523b3ef9181900360200190a35050565b604080516001600160a01b0380861660248301528416604482015260648082018490528251808303909101815260849091019091526020810180516001600160e01b03166323b872dd60e01b179052610e67908590610f71565b50505050565b6001600160a01b038216610ec8576040805162461bcd60e51b815260206004820152601f60248201527f45524332303a206d696e7420746f20746865207a65726f206164647265737300604482015290519081900360640190fd5b610ed460008383610c4c565b600254610ee19082610b85565b6002556001600160a01b038216600090815260208190526040902054610f079082610b85565b6001600160a01b0383166000818152602081815260408083209490945583518581529351929391927fddf252ad1be2c89b69c2b068fc378daa952ba7f163c4a11628f55a4df523b3ef9281900390910190a35050565b60006105c3610f6a6109fe565b84846108a3565b6000610fc6826040518060400160405280602081526020017f5361666545524332303a206c6f772d6c6576656c2063616c6c206661696c6564815250856001600160a01b031661107f9092919063ffffffff16565b805190915015610c4c57808060200190516020811015610fe557600080fd5b5051610c4c5760405162461bcd60e51b815260040180806020018281038252602a8152602001806113c4602a913960400191505060405180910390fd5b600082821115611079576040805162461bcd60e51b815260206004820152601e60248201527f536166654d6174683a207375627472616374696f6e206f766572666c6f770000604482015290519081900360640190fd5b50900390565b606061108e8484600085611096565b949350505050565b6060824710156110d75760405162461bcd60e51b81526004018080602001828103825260268152602001806112eb6026913960400191505060405180910390fd5b6110e0856111f1565b611131576040805162461bcd60e51b815260206004820152601d60248201527f416464726573733a2063616c6c20746f206e6f6e2d636f6e7472616374000000604482015290519081900360640190fd5b600080866001600160a01b031685876040518082805190602001908083835b6020831061116f5780518252601f199092019160209182019101611150565b6001836020036101000a03801982511681845116808217855250505050505090500191505060006040518083038185875af1925050503d80600081146111d1576040519150601f19603f3d011682016040523d82523d6000602084013e6111d6565b606091505b50915091506111e68282866111f7565b979650505050505050565b3b151590565b60608315611206575081610565565b8251156112165782518084602001fd5b60405162461bcd60e51b8152602060048201818152845160248401528451859391928392604401919085019080838360008315610a56578181015183820152602001610a3e56fe45524332303a207472616e7366657220746f20746865207a65726f206164647265737345524332303a206275726e20616d6f756e7420657863656564732062616c616e636545524332303a20617070726f766520746f20746865207a65726f206164647265737345524332303a207472616e7366657220616d6f756e7420657863656564732062616c616e6365416464726573733a20696e73756666696369656e742062616c616e636520666f722063616c6c536166654d6174683a206d756c7469706c69636174696f6e206f766572666c6f7745524332303a207472616e7366657220616d6f756e74206578636565647320616c6c6f77616e636545524332303a206275726e2066726f6d20746865207a65726f206164647265737345524332303a207472616e736665722066726f6d20746865207a65726f206164647265737345524332303a20617070726f76652066726f6d20746865207a65726f20616464726573735361666545524332303a204552433230206f7065726174696f6e20646964206e6f74207375636365656445524332303a2064656372656173656420616c6c6f77616e63652062656c6f77207a65726fa26469706673582212203f2937f3d1bb26f8084c74b251c9c4d5c44f7c5f38e437429c5a91742b684cf464736f6c63430007060033",
  "immutableReferences": {
    "6977": [
      {
        "length": 32,
        "start": 1544
      },
      {
        "length": 32,
        "start": 1771
      },
      {
        "length": 32,
        "start": 2058
      },
      {
        "length": 32,
        "start": 2157
      }
    ]
  },
  "source": "// SPDX-License-Identifier: MIT\n// Mock ERC20 token for testing\n\npragma solidity 0.7.6;\nimport \"@openzeppelin/contracts/token/ERC20/IERC20.sol\";\nimport \"@openzeppelin/contracts/token/ERC20/SafeERC20.sol\";\nimport \"@openzeppelin/contracts/math/SafeMath.sol\";\nimport \"@openzeppelin/contracts/token/ERC20/ERC20.sol\";\nimport \"../interfaces/ICERC20.sol\";\n\ncontract MockCERC20 is ICERC20, ERC20 {\n    address public immutable token;\n    using SafeERC20 for IERC20;\n    using SafeMath for uint;\n\n    uint private constant MULTIPLIER = 10**18;\n    uint public exchangeRate;\n    bool public returnError;\n    constructor(address tokenAddr) ERC20(\"MockCERC20\", \"MCERC20\") {\n        token = tokenAddr;\n        exchangeRate = MULTIPLIER;\n        returnError = false;\n        _setupDecimals(18);\n    }\n    function mint(uint amount) external override returns (uint) {\n        if (returnError) return 1;\n        IERC20(token).safeTransferFrom(msg.sender, address(this), amount);\n        _mint(msg.sender, amount.mul(MULTIPLIER).div(exchangeRate));\n        return 0;\n    }\n    function redeem(uint amount) external override returns (uint) {\n        if (returnError) return 1;\n        IERC20(token).safeTransfer(\n            msg.sender, amount.mul(exchangeRate).div(MULTIPLIER)\n        );\n        _burn(msg.sender, amount);\n        return 0;\n    }\n    function redeemUnderlying(uint amount) external override returns (uint) {\n        if (returnError) return 1;\n        IERC20(token).safeTransfer(msg.sender, amount);\n        _burn(\n            msg.sender, amount.mul(MULTIPLIER).div(exchangeRate)\n        );\n        return 0;\n    }\n    function exchangeRateCurrent() external view override returns (uint) {\n        return exchangeRate;\n    }\n    function supplyRatePerBlock() external pure override returns (uint) {\n        return 0;\n    }\n    function balanceOf(address account) public override(ERC20, ICERC20) view returns (uint) {\n        return ERC20.balanceOf(account);\n    }\n    function approve(address account, uint amount) public override(ERC20, ICERC20) returns (bool) {\n        return ERC20.approve(account, amount);\n    }\n    function transfer(address dst, uint amount) public override(ERC20, ICERC20) returns (bool) {\n        return ERC20.transfer(dst, amount);\n    }\n\n    function setExchangeRate(uint e) external {\n        exchangeRate = e;\n    }\n    function setError(bool b) external {\n        returnError = b;\n    }\n}\n",
  "sourcePath": "/home/joe/local2/bench/git/nutmeg/contracts/mock/MockCERC20.sol",
  "compiler": {
    "name": "solc",
    "version": "0.7.6+commit.7338295f.Emscripten.clang"
  },
  "schemaVersion": "3.3.4",
  "updatedAt": "2021-04-29T11:24:49.126Z",
  "devdoc": {
    "kind": "dev",
    "methods": {
      "allowance(address,address)": {
        "details": "See {IERC20-allowance}."
      },
      "decimals()": {
        "details": "Returns the number of decimals used to get its user representation. For example, if `decimals` equals `2`, a balance of `505` tokens should be displayed to a user as `5,05` (`505 / 10 ** 2`). Tokens usually opt for a value of 18, imitating the relationship between Ether and Wei. This is the value {ERC20} uses, unless {_setupDecimals} is called. NOTE: This information is only used for _display_ purposes: it in no way affects any of the arithmetic of the contract, including {IERC20-balanceOf} and {IERC20-transfer}."
      },
      "decreaseAllowance(address,uint256)": {
        "details": "Atomically decreases the allowance granted to `spender` by the caller. This is an alternative to {approve} that can be used as a mitigation for problems described in {IERC20-approve}. Emits an {Approval} event indicating the updated allowance. Requirements: - `spender` cannot be the zero address. - `spender` must have allowance for the caller of at least `subtractedValue`."
      },
      "increaseAllowance(address,uint256)": {
        "details": "Atomically increases the allowance granted to `spender` by the caller. This is an alternative to {approve} that can be used as a mitigation for problems described in {IERC20-approve}. Emits an {Approval} event indicating the updated allowance. Requirements: - `spender` cannot be the zero address."
      },
      "name()": {
        "details": "Returns the name of the token."
      },
      "symbol()": {
        "details": "Returns the symbol of the token, usually a shorter version of the name."
      },
      "totalSupply()": {
        "details": "See {IERC20-totalSupply}."
      },
      "transferFrom(address,address,uint256)": {
        "details": "See {IERC20-transferFrom}. Emits an {Approval} event indicating the updated allowance. This is not required by the EIP. See the note at the beginning of {ERC20}. Requirements: - `sender` and `recipient` cannot be the zero address. - `sender` must have a balance of at least `amount`. - the caller must have allowance for ``sender``'s tokens of at least `amount`."
      }
    },
    "version": 1
  },
  "userdoc": {
    "kind": "user",
    "methods": {},
    "version": 1
  }
}