{
  "contractName": "MockAdapter",
  "abi": [
    {
      "inputs": [
        {
          "internalType": "contract INutmeg",
          "name": "nutmegAddr",
          "type": "address"
        },
        {
          "internalType": "address",
          "name": "wethAddr",
          "type": "address"
        }
      ],
      "stateMutability": "nonpayable",
      "type": "constructor"
    },
    {
      "anonymous": false,
      "inputs": [
        {
          "indexed": false,
          "internalType": "address",
          "name": "",
          "type": "address"
        },
        {
          "indexed": false,
          "internalType": "uint256",
          "name": "",
          "type": "uint256"
        }
      ],
      "name": "Received",
      "type": "event"
    },
    {
      "anonymous": false,
      "inputs": [
        {
          "indexed": false,
          "internalType": "uint256",
          "name": "positionId",
          "type": "uint256"
        },
        {
          "indexed": false,
          "internalType": "address",
          "name": "caller",
          "type": "address"
        },
        {
          "indexed": false,
          "internalType": "uint256",
          "name": "amount",
          "type": "uint256"
        }
      ],
      "name": "closePositionEvent",
      "type": "event"
    },
    {
      "anonymous": false,
      "inputs": [
        {
          "indexed": false,
          "internalType": "address",
          "name": "token",
          "type": "address"
        },
        {
          "indexed": false,
          "internalType": "uint256",
          "name": "collateralLoss",
          "type": "uint256"
        },
        {
          "indexed": false,
          "internalType": "uint256",
          "name": "poolLoss",
          "type": "uint256"
        }
      ],
      "name": "creditEvent",
      "type": "event"
    },
    {
      "anonymous": false,
      "inputs": [
        {
          "indexed": false,
          "internalType": "uint256",
          "name": "positionId",
          "type": "uint256"
        },
        {
          "indexed": false,
          "internalType": "address",
          "name": "caller",
          "type": "address"
        }
      ],
      "name": "liquidateEvent",
      "type": "event"
    },
    {
      "anonymous": false,
      "inputs": [
        {
          "indexed": false,
          "internalType": "uint256",
          "name": "positionId",
          "type": "uint256"
        },
        {
          "indexed": false,
          "internalType": "address",
          "name": "caller",
          "type": "address"
        },
        {
          "indexed": false,
          "internalType": "uint256",
          "name": "baseAmt",
          "type": "uint256"
        },
        {
          "indexed": false,
          "internalType": "uint256",
          "name": "borrowAmount",
          "type": "uint256"
        }
      ],
      "name": "openPositionEvent",
      "type": "event"
    },
    {
      "inputs": [],
      "name": "acceptGovernor",
      "outputs": [],
      "stateMutability": "nonpayable",
      "type": "function"
    },
    {
      "inputs": [
        {
          "internalType": "address",
          "name": "baseToken",
          "type": "address"
        },
        {
          "internalType": "address",
          "name": "collToken",
          "type": "address"
        }
      ],
      "name": "addTokenPair",
      "outputs": [],
      "stateMutability": "nonpayable",
      "type": "function"
    },
    {
      "inputs": [],
      "name": "closePosition",
      "outputs": [
        {
          "internalType": "uint256",
          "name": "",
          "type": "uint256"
        }
      ],
      "stateMutability": "nonpayable",
      "type": "function"
    },
    {
      "inputs": [
        {
          "internalType": "address",
          "name": "baseToken",
          "type": "address"
        }
      ],
      "name": "creditTokenValue",
      "outputs": [
        {
          "internalType": "uint256",
          "name": "",
          "type": "uint256"
        }
      ],
      "stateMutability": "nonpayable",
      "type": "function"
    },
    {
      "inputs": [],
      "name": "governor",
      "outputs": [
        {
          "internalType": "address",
          "name": "",
          "type": "address"
        }
      ],
      "stateMutability": "view",
      "type": "function"
    },
    {
      "inputs": [],
      "name": "liquidate",
      "outputs": [],
      "stateMutability": "nonpayable",
      "type": "function"
    },
    {
      "inputs": [],
      "name": "nutmeg",
      "outputs": [
        {
          "internalType": "contract INutmeg",
          "name": "",
          "type": "address"
        }
      ],
      "stateMutability": "view",
      "type": "function"
    },
    {
      "inputs": [
        {
          "internalType": "address",
          "name": "baseToken",
          "type": "address"
        },
        {
          "internalType": "address",
          "name": "collToken",
          "type": "address"
        },
        {
          "internalType": "uint256",
          "name": "baseAmt",
          "type": "uint256"
        },
        {
          "internalType": "uint256",
          "name": "borrowAmt",
          "type": "uint256"
        }
      ],
      "name": "openPosition",
      "outputs": [],
      "stateMutability": "nonpayable",
      "type": "function"
    },
    {
      "inputs": [],
      "name": "pendingGovernor",
      "outputs": [
        {
          "internalType": "address",
          "name": "",
          "type": "address"
        }
      ],
      "stateMutability": "view",
      "type": "function"
    },
    {
      "inputs": [
        {
          "internalType": "address",
          "name": "baseToken",
          "type": "address"
        }
      ],
      "name": "removeTokenPair",
      "outputs": [],
      "stateMutability": "nonpayable",
      "type": "function"
    },
    {
      "inputs": [
        {
          "internalType": "address",
          "name": "addr",
          "type": "address"
        }
      ],
      "name": "setPendingGovernor",
      "outputs": [],
      "stateMutability": "nonpayable",
      "type": "function"
    },
    {
      "inputs": [
        {
          "internalType": "address",
          "name": "baseToken",
          "type": "address"
        },
        {
          "internalType": "uint256",
          "name": "collateralLoss",
          "type": "uint256"
        },
        {
          "internalType": "uint256",
          "name": "poolLoss",
          "type": "uint256"
        }
      ],
      "name": "settleCreditEvent",
      "outputs": [],
      "stateMutability": "nonpayable",
      "type": "function"
    },
    {
      "inputs": [
        {
          "internalType": "address",
          "name": "",
          "type": "address"
        }
      ],
      "name": "totalCollateral",
      "outputs": [
        {
          "internalType": "uint256",
          "name": "",
          "type": "uint256"
        }
      ],
      "stateMutability": "view",
      "type": "function"
    },
    {
      "inputs": [
        {
          "internalType": "address",
          "name": "",
          "type": "address"
        }
      ],
      "name": "totalLoan",
      "outputs": [
        {
          "internalType": "uint256",
          "name": "",
          "type": "uint256"
        }
      ],
      "stateMutability": "view",
      "type": "function"
    },
    {
      "inputs": [
        {
          "internalType": "address",
          "name": "",
          "type": "address"
        }
      ],
      "name": "totalLoss",
      "outputs": [
        {
          "internalType": "uint256",
          "name": "",
          "type": "uint256"
        }
      ],
      "stateMutability": "view",
      "type": "function"
    },
    {
      "inputs": [],
      "name": "weth",
      "outputs": [
        {
          "internalType": "address",
          "name": "",
          "type": "address"
        }
      ],
      "stateMutability": "view",
      "type": "function"
    },
    {
      "stateMutability": "payable",
      "type": "receive"
    },
    {
      "inputs": [],
      "name": "test",
      "outputs": [],
      "stateMutability": "pure",
      "type": "function"
    },
    {
      "inputs": [],
      "name": "testFail",
      "outputs": [],
      "stateMutability": "pure",
      "type": "function"
    },
    {
      "inputs": [
        {
          "internalType": "uint256",
          "name": "amount",
          "type": "uint256"
        }
      ],
      "name": "testBorrow",
      "outputs": [],
      "stateMutability": "nonpayable",
      "type": "function"
    },
    {
      "inputs": [
        {
          "internalType": "uint256",
          "name": "pos",
          "type": "uint256"
        }
      ],
      "name": "testCurrPositionId",
      "outputs": [],
      "stateMutability": "view",
      "type": "function"
    },
    {
      "inputs": [
        {
          "internalType": "uint256",
          "name": "pos",
          "type": "uint256"
        }
      ],
      "name": "testPosition",
      "outputs": [],
      "stateMutability": "view",
      "type": "function"
    },
    {
      "inputs": [
        {
          "internalType": "address",
          "name": "token",
          "type": "address"
        },
        {
          "internalType": "uint256",
          "name": "repayAmount",
          "type": "uint256"
        }
      ],
      "name": "testRepay",
      "outputs": [],
      "stateMutability": "nonpayable",
      "type": "function"
    }
  ],
  "bytecode": "0x60c06040523480156200001157600080fd5b5060405162003ad438038062003ad4833981016040819052620000349162000150565b6001600160601b0319606083901b16608052816200005162000069565b5060601b6001600160601b03191660a05250620001a4565b600054610100900460ff1680620000855750620000856200012c565b8062000094575060005460ff16155b620000d15760405162461bcd60e51b815260040180806020018281038252602e81526020018062003aa6602e913960400191505060405180910390fd5b600054610100900460ff16158015620000fd576000805460ff1961ff0019909116610100171660011790555b6000805462010000600160b01b031916336201000002179055801562000129576000805461ff00191690555b50565b600062000144306200014a60201b62001ef11760201c565b15905090565b3b151590565b6000806040838503121562000163578182fd5b825162000170816200018e565b602084015190925062000183816200018e565b809150509250929050565b6001600160a01b03811681146200012957600080fd5b60805160601c60a05160601c6138246200028260003980610a0b5280610a71525080610452528061050a528061054b52806105e052806106f4528061072e528061077e52806107fb528061094b5280610a445280610ada5280610b075280610bdc5280610c715280610d1e5280610e8c5280610f6b5280610ff9528061113052806111c052806114ef52806115eb52806117305280611771528061180652806118a552806119ba52806119f45280611a485280611ac55280611c155280611cdc5280611d4d5280611f1c5280612313528061255952506138246000f3fe6080604052600436106101395760003560e01c80639df6a379116100ab578063c85854721161006f578063c858547214610361578063d6e781ea14610381578063e3056a34146103a1578063e58bb639146103b6578063f235757f146103cb578063f8a8fd6d146103eb57610179565b80639df6a379146102cc578063a7c87ec2146102ec578063ad431d121461030c578063b4aaae791461032c578063c393d0e31461034c57610179565b80633fc8cef3116100fd5780633fc8cef3146102225780636355d59814610237578063656d565e146102575780636ef1a28f1461026c5780637e059b221461028c57806392bf17e5146102ac57610179565b806304d91c6a1461017e5780630c340a24146101955780631659458b146101c057806328a07025146101e0578063320fe913146101f557610179565b36610179577f88a5966d370b9919b20f3e2c13ff65706f196a4e32cc2c12bf57088f88525874333460405161016f9291906130c3565b60405180910390a1005b600080fd5b34801561018a57600080fd5b50610193610400565b005b3480156101a157600080fd5b506101aa610423565b6040516101b791906130af565b60405180910390f35b3480156101cc57600080fd5b506101936101db36600461307f565b610438565b3480156101ec57600080fd5b506101936104ff565b34801561020157600080fd5b50610215610210366004612e7f565b6109f7565b6040516101b7919061369a565b34801561022e57600080fd5b506101aa610a09565b34801561024357600080fd5b5061019361025236600461307f565b610a2d565b34801561026357600080fd5b506101aa610ad8565b34801561027857600080fd5b50610193610287366004612eef565b610afc565b34801561029857600080fd5b506102156102a7366004612e7f565b611274565b3480156102b857600080fd5b506102156102c7366004612e7f565b611286565b3480156102d857600080fd5b506101936102e7366004612e7f565b6113c8565b3480156102f857600080fd5b50610193610307366004612eb7565b611450565b34801561031857600080fd5b50610193610327366004612f5f565b6114e4565b34801561033857600080fd5b50610215610347366004612e7f565b611711565b34801561035857600080fd5b50610215611723565b34801561036d57600080fd5b5061019361037c366004612f34565b611cc5565b34801561038d57600080fd5b5061019361039c36600461307f565b611d49565b3480156103ad57600080fd5b506101aa611dfd565b3480156103c257600080fd5b50610193611e0c565b3480156103d757600080fd5b506101936103e6366004612e7f565b611e80565b3480156103f757600080fd5b50610193610421565b60405162461bcd60e51b81526004016104189061326e565b60405180910390fd5b565b6000546201000090046001600160a01b031681565b60405163eb02c30160e01b81526000906001600160a01b037f0000000000000000000000000000000000000000000000000000000000000000169063eb02c3019061048790859060040161369a565b6101c06040518083038186803b1580156104a057600080fd5b505afa1580156104b4573d6000803e3d6000fd5b505050506040513d601f19601f820116820180604052508101906104d89190612fb3565b805190915082146104fb5760405162461bcd60e51b8152600401610418906133c0565b5050565b336001600160a01b037f000000000000000000000000000000000000000000000000000000000000000016146105475760405162461bcd60e51b8152600401610418906131fc565b60007f00000000000000000000000000000000000000000000000000000000000000006001600160a01b0316637e7768ae6040518163ffffffff1660e01b815260040160206040518083038186803b1580156105a257600080fd5b505afa1580156105b6573d6000803e3d6000fd5b505050506040513d601f19601f820116820180604052508101906105da9190613097565b905060007f00000000000000000000000000000000000000000000000000000000000000006001600160a01b031663eb02c301836040518263ffffffff1660e01b815260040161062a919061369a565b6101c06040518083038186803b15801561064357600080fd5b505afa158015610657573d6000803e3d6000fd5b505050506040513d601f19601f8201168201806040525081019061067b9190612fb3565b905061068681611ef7565b6106a25760405162461bcd60e51b8152600401610418906135ea565b60006106ad82611fc3565b90506000806106bc8484612035565b91509150816000146106e05760405162461bcd60e51b81526004016104189061354c565b608084015161071a906001600160a01b03167f000000000000000000000000000000000000000000000000000000000000000060006121e1565b6080840151610753906001600160a01b03167f0000000000000000000000000000000000000000000000000000000000000000836121e1565b610762846080015186836122f9565b608084015160405163bcbaf48760e01b81526001600160a01b037f0000000000000000000000000000000000000000000000000000000000000000169163bcbaf487916107b4919085906004016130c3565b600060405180830381600087803b1580156107ce57600080fd5b505af11580156107e2573d6000803e3d6000fd5b505060405163eb02c30160e01b81526001600160a01b037f000000000000000000000000000000000000000000000000000000000000000016925063eb02c301915061083290889060040161369a565b6101c06040518083038186803b15801561084b57600080fd5b505afa15801561085f573d6000803e3d6000fd5b505050506040513d601f19601f820116820180604052508101906108839190612fb3565b61016081015160808201516001600160a01b03166000908152600960205260409020549195506108b3919061247f565b60808501516001600160a01b0390811660009081526009602090815260408083209490945561010088015160a089015190931682526004905291909120546108fa916124e2565b600460008660a001516001600160a01b03166001600160a01b03168152602001908152602001600020819055507fb1d3b1d444607bfe3a3e5b87e71d41301e1f7031b7e3f0b87a100079d6be26e6857f00000000000000000000000000000000000000000000000000000000000000006001600160a01b031663a17fff756040518163ffffffff1660e01b815260040160206040518083038186803b1580156109a257600080fd5b505afa1580156109b6573d6000803e3d6000fd5b505050506040513d601f19601f820116820180604052508101906109da9190612e9b565b6040516109e89291906136a3565b60405180910390a15050505050565b60096020526000908152604090205481565b7f000000000000000000000000000000000000000000000000000000000000000081565b60405163fbf3773960e01b81526001600160a01b037f0000000000000000000000000000000000000000000000000000000000000000169063fbf3773990610aa3907f000000000000000000000000000000000000000000000000000000000000000090309060091987019087906004016130dc565b600060405180830381600087803b158015610abd57600080fd5b505af1158015610ad1573d6000803e3d6000fd5b5050505050565b7f000000000000000000000000000000000000000000000000000000000000000081565b336001600160a01b037f00000000000000000000000000000000000000000000000000000000000000001614610b445760405162461bcd60e51b8152600401610418906131fc565b60008211610b645760405162461bcd60e51b8152600401610418906134bc565b6001600160a01b03841660009081526002602052604090205460ff16610b9c5760405162461bcd60e51b815260040161041890613475565b6001600160a01b03848116600090815260036020526040902054811690841614610bd85760405162461bcd60e51b81526004016104189061322a565b60007f00000000000000000000000000000000000000000000000000000000000000006001600160a01b0316637e7768ae6040518163ffffffff1660e01b815260040160206040518083038186803b158015610c3357600080fd5b505afa158015610c47573d6000803e3d6000fd5b505050506040513d601f19601f82011682018060405250810190610c6b9190613097565b905060007f00000000000000000000000000000000000000000000000000000000000000006001600160a01b031663eb02c301836040518263ffffffff1660e01b8152600401610cbb919061369a565b6101c06040518083038186803b158015610cd457600080fd5b505afa158015610ce8573d6000803e3d6000fd5b505050506040513d601f19601f82011682018060405250810190610d0c9190612fb3565b905080604001516001600160a01b03167f00000000000000000000000000000000000000000000000000000000000000006001600160a01b031663a17fff756040518163ffffffff1660e01b815260040160206040518083038186803b158015610d7557600080fd5b505afa158015610d89573d6000803e3d6000fd5b505050506040513d601f19601f82011682018060405250810190610dad9190612e9b565b6001600160a01b031614610dd35760405162461bcd60e51b8152600401610418906133ed565b60408082015190516370a0823160e01b815285916001600160a01b038916916370a0823191610e04916004016130af565b60206040518083038186803b158015610e1c57600080fd5b505afa158015610e30573d6000803e3d6000fd5b505050506040513d601f19601f82011682018060405250810190610e549190613097565b1015610e725760405162461bcd60e51b815260040161041890613175565b60405163405c451760e11b81526000906001600160a01b037f000000000000000000000000000000000000000000000000000000000000000016906380b88a2e90610ec3908a9089906004016130c3565b60206040518083038186803b158015610edb57600080fd5b505afa158015610eef573d6000803e3d6000fd5b505050506040513d601f19601f82011682018060405250810190610f139190613097565b905080841115610f355760405162461bcd60e51b815260040161041890613575565b848411610f545760405162461bcd60e51b8152600401610418906134fd565b60405163fbf3773960e01b81526001600160a01b037f0000000000000000000000000000000000000000000000000000000000000000169063fbf3773990610fa6908a908a908a908a906004016130dc565b600060405180830381600087803b158015610fc057600080fd5b505af1158015610fd4573d6000803e3d6000fd5b50505050610fe2878461253f565b60405163eb02c30160e01b81526001600160a01b037f0000000000000000000000000000000000000000000000000000000000000000169063eb02c3019061102e90869060040161369a565b6101c06040518083038186803b15801561104757600080fd5b505afa15801561105b573d6000803e3d6000fd5b505050506040513d601f19601f8201168201806040525081019061107f9190612fb3565b915060008061108e8487612682565b91509150816000146110b25760405162461bcd60e51b8152600401610418906135bc565b801561119c5760006110c38961292b565b6001600160a01b038a166000908152600460205260409020549091506110e9908361247f565b6001600160a01b03808b166000908152600460208181526040808420959095558a8352600690529083902060028101859055600181018690559251632aa0145d60e11b81527f00000000000000000000000000000000000000000000000000000000000000009092169163554028ba91611167918b918891016136fd565b600060405180830381600087803b15801561118157600080fd5b505af1158015611195573d6000803e3d6000fd5b5050505050505b7f4f8d474cdd22aabe2e96f65f6dee87cd74d538fa1b8bd3d2352b980235a6dff6857f00000000000000000000000000000000000000000000000000000000000000006001600160a01b031663a17fff756040518163ffffffff1660e01b815260040160206040518083038186803b15801561121757600080fd5b505afa15801561122b573d6000803e3d6000fd5b505050506040513d601f19601f8201168201806040525081019061124f9190612e9b565b898960405161126194939291906136d9565b60405180910390a1505050505050505050565b60086020526000908152604090205481565b6001600160a01b03808216600090815260036020526040812054909116806112c05760405162461bcd60e51b8152600401610418906132f9565b6040516370a0823160e01b81526000906001600160a01b038316906370a08231906112ef9030906004016130af565b60206040518083038186803b15801561130757600080fd5b505afa15801561131b573d6000803e3d6000fd5b505050506040513d601f19601f8201168201806040525081019061133f9190613097565b90506113be826001600160a01b031663bd6d894d6040518163ffffffff1660e01b8152600401602060405180830381600087803b15801561137f57600080fd5b505af1158015611393573d6000803e3d6000fd5b505050506040513d601f19601f820116820180604052508101906113b79190613097565b8290612a6f565b925050505b919050565b6000546201000090046001600160a01b03163314611417576040805162461bcd60e51b81526020600482015260076024820152663130b21033b7bb60c91b604482015290519081900360640190fd5b6001600160a01b03166000908152600260209081526040808320805460ff191690556003909152902080546001600160a01b0319169055565b6000546201000090046001600160a01b0316331461149f576040805162461bcd60e51b81526020600482015260076024820152663130b21033b7bb60c91b604482015290519081900360640190fd5b6001600160a01b039182166000908152600260209081526040808320805460ff19166001179055600390915290208054919092166001600160a01b0319909116179055565b336001600160a01b037f0000000000000000000000000000000000000000000000000000000000000000161461152c5760405162461bcd60e51b8152600401610418906131fc565b6001600160a01b03831660009081526002602052604090205460ff166115645760405162461bcd60e51b81526004016104189061337b565b6001600160a01b03831660009081526008602052604090205482111561159c5760405162461bcd60e51b8152600401610418906131b7565b6001600160a01b0383166000908152600760205260409020548111156115d45760405162461bcd60e51b8152600401610418906132b6565b604051632b692db960e01b81526001600160a01b037f00000000000000000000000000000000000000000000000000000000000000001690632b692db99061162490869086908690600401613105565b600060405180830381600087803b15801561163e57600080fd5b505af1158015611652573d6000803e3d6000fd5b505050507ff43c9b3430b5ffd997ba4b5d58204bdcb4761cfb86b2897c8f641276b26fcc2383838360405161168993929190613105565b60405180910390a16001600160a01b038316600090815260096020908152604080832083905560079091529020546116c190826124e2565b6001600160a01b0384166000908152600760209081526040808320939093556008905220546116f090836124e2565b6001600160a01b039093166000908152600860205260409020929092555050565b60076020526000908152604090205481565b6000336001600160a01b037f0000000000000000000000000000000000000000000000000000000000000000161461176d5760405162461bcd60e51b8152600401610418906131fc565b60007f00000000000000000000000000000000000000000000000000000000000000006001600160a01b0316637e7768ae6040518163ffffffff1660e01b815260040160206040518083038186803b1580156117c857600080fd5b505afa1580156117dc573d6000803e3d6000fd5b505050506040513d601f19601f820116820180604052508101906118009190613097565b905060007f00000000000000000000000000000000000000000000000000000000000000006001600160a01b031663eb02c301836040518263ffffffff1660e01b8152600401611850919061369a565b6101c06040518083038186803b15801561186957600080fd5b505afa15801561187d573d6000803e3d6000fd5b505050506040513d601f19601f820116820180604052508101906118a19190612fb3565b90507f00000000000000000000000000000000000000000000000000000000000000006001600160a01b031663a17fff756040518163ffffffff1660e01b815260040160206040518083038186803b1580156118fc57600080fd5b505afa158015611910573d6000803e3d6000fd5b505050506040513d601f19601f820116820180604052508101906119349190612e9b565b6001600160a01b031681604001516001600160a01b0316146119685760405162461bcd60e51b815260040161041890613126565b600061197382611fc3565b90506000806119828484612035565b91509150816000146119a65760405162461bcd60e51b81526004016104189061328c565b60808401516119e0906001600160a01b03167f000000000000000000000000000000000000000000000000000000000000000060006121e1565b6080840151611a19906001600160a01b03167f0000000000000000000000000000000000000000000000000000000000000000836121e1565b611a2c84608001518560000151836122f9565b6080840151604051630450cfaf60e31b81526001600160a01b037f000000000000000000000000000000000000000000000000000000000000000016916322867d7891611a7e919085906004016130c3565b600060405180830381600087803b158015611a9857600080fd5b505af1158015611aac573d6000803e3d6000fd5b505060405163eb02c30160e01b81526001600160a01b037f000000000000000000000000000000000000000000000000000000000000000016925063eb02c3019150611afc90889060040161369a565b6101c06040518083038186803b158015611b1557600080fd5b505afa158015611b29573d6000803e3d6000fd5b505050506040513d601f19601f82011682018060405250810190611b4d9190612fb3565b61016081015160808201516001600160a01b0316600090815260096020526040902054919550611b7d919061247f565b60808501516001600160a01b0390811660009081526009602090815260408083209490945561010088015160a08901519093168252600490529190912054611bc4916124e2565b600460008660a001516001600160a01b03166001600160a01b03168152602001908152602001600020819055507fd245dd480b54d4fb2c6abff0ab361ff89a8073a603e5ef738a86ecbaa1ae7cc7857f00000000000000000000000000000000000000000000000000000000000000006001600160a01b031663a17fff756040518163ffffffff1660e01b815260040160206040518083038186803b158015611c6c57600080fd5b505afa158015611c80573d6000803e3d6000fd5b505050506040513d601f19601f82011682018060405250810190611ca49190612e9b565b83604051611cb4939291906136ba565b60405180910390a194505050505090565b604051630450cfaf60e31b81526001600160a01b037f000000000000000000000000000000000000000000000000000000000000000016906322867d7890611d1390859085906004016130c3565b600060405180830381600087803b158015611d2d57600080fd5b505af1158015611d41573d6000803e3d6000fd5b505050505050565b60007f00000000000000000000000000000000000000000000000000000000000000006001600160a01b0316637e7768ae6040518163ffffffff1660e01b815260040160206040518083038186803b158015611da457600080fd5b505afa158015611db8573d6000803e3d6000fd5b505050506040513d601f19601f82011682018060405250810190611ddc9190613097565b90508082146104fb5760405162461bcd60e51b815260040161041890613344565b6001546001600160a01b031681565b6001546001600160a01b03163314611e55576040805162461bcd60e51b81526020600482015260076024820152661b9bc81c195b9960ca1b604482015290519081900360640190fd5b600180546001600160a01b03191690556000805462010000600160b01b031916336201000002179055565b6000546201000090046001600160a01b03163314611ecf576040805162461bcd60e51b81526020600482015260076024820152663130b21033b7bb60c91b604482015290519081900360640190fd5b600180546001600160a01b0319166001600160a01b0392909216919091179055565b3b151590565b6080810151815160405163238672f960e11b8152600092839283926001600160a01b037f0000000000000000000000000000000000000000000000000000000000000000169263470ce5f292611f4f926004016130c3565b60206040518083038186803b158015611f6757600080fd5b505afa158015611f7b573d6000803e3d6000fd5b505050506040513d601f19601f82011682018060405250810190611f9f9190613097565b60e0850151909150611fb2826002612a6f565b10611fbc57600191505b5092915050565b600080611fd38360a0015161292b565b8351600090815260066020526040812060028101549293509161201a90670de0b6b3a764000090612014906120099087906124e2565b600186015490612a6f565b90612ac8565b600183015490915061202c908261247f565b95945050505050565b600080600084608001516001600160a01b03166370a08231306040518263ffffffff1660e01b815260040161206a91906130af565b60206040518083038186803b15801561208257600080fd5b505afa158015612096573d6000803e3d6000fd5b505050506040513d601f19601f820116820180604052508101906120ba9190613097565b905060008560a001516001600160a01b031663db006a75866040518263ffffffff1660e01b81526004016120ee919061369a565b602060405180830381600087803b15801561210857600080fd5b505af115801561211c573d6000803e3d6000fd5b505050506040513d601f19601f820116820180604052508101906121409190613097565b9050600086608001516001600160a01b03166370a08231306040518263ffffffff1660e01b815260040161217491906130af565b60206040518083038186803b15801561218c57600080fd5b505afa1580156121a0573d6000803e3d6000fd5b505050506040513d601f19601f820116820180604052508101906121c49190613097565b905060006121d282856124e2565b92989297509195505050505050565b801580612267575060408051636eb1769f60e11b81523060048201526001600160a01b03848116602483015291519185169163dd62ed3e91604480820192602092909190829003018186803b15801561223957600080fd5b505afa15801561224d573d6000803e3d6000fd5b505050506040513d602081101561226357600080fd5b5051155b6122a25760405162461bcd60e51b81526004018080602001828103825260368152602001806137b96036913960400191505060405180910390fd5b604080516001600160a01b038416602482015260448082018490528251808303909101815260649091019091526020810180516001600160e01b031663095ea7b360e01b1790526122f4908490612b2f565b505050565b60405163eb02c30160e01b81526000906001600160a01b037f0000000000000000000000000000000000000000000000000000000000000000169063eb02c3019061234890869060040161369a565b6101c06040518083038186803b15801561236157600080fd5b505afa158015612375573d6000803e3d6000fd5b505050506040513d601f19601f820116820180604052508101906123999190612fb3565b60c08101516040810151602082015191519293509101018083106123f8576001600160a01b0385166000908152600760205260409020546123da90826124e2565b6001600160a01b038616600090815260076020526040902055612435565b6001600160a01b03851660009081526007602052604090205461241b90846124e2565b6001600160a01b0386166000908152600760205260409020555b60e08201516001600160a01b03861660009081526008602052604090205461245c916124e2565b6001600160a01b0390951660009081526008602052604090209490945550505050565b6000828201838110156124d9576040805162461bcd60e51b815260206004820152601b60248201527f536166654d6174683a206164646974696f6e206f766572666c6f770000000000604482015290519081900360640190fd5b90505b92915050565b600082821115612539576040805162461bcd60e51b815260206004820152601e60248201527f536166654d6174683a207375627472616374696f6e206f766572666c6f770000604482015290519081900360640190fd5b50900390565b60405163eb02c30160e01b81526000906001600160a01b037f0000000000000000000000000000000000000000000000000000000000000000169063eb02c3019061258e90859060040161369a565b6101c06040518083038186803b1580156125a757600080fd5b505afa1580156125bb573d6000803e3d6000fd5b505050506040513d601f19601f820116820180604052508101906125df9190612fb3565b905060005b600381101561265a576126398260c00151826003811061260057fe5b602002015160076000876001600160a01b03166001600160a01b031681526020019081526020016000205461247f90919063ffffffff16565b6001600160a01b0385166000908152600760205260409020556001016125e4565b5060e08101516001600160a01b0384166000908152600860205260409020546116f09161247f565b60008060008460a001516001600160a01b03166370a08231306040518263ffffffff1660e01b81526004016126b791906130af565b60206040518083038186803b1580156126cf57600080fd5b505afa1580156126e3573d6000803e3d6000fd5b505050506040513d601f19601f820116820180604052508101906127079190613097565b905084608001516001600160a01b031663095ea7b38660a0015160006040518363ffffffff1660e01b81526004016127409291906130c3565b602060405180830381600087803b15801561275a57600080fd5b505af115801561276e573d6000803e3d6000fd5b505050506040513d601f19601f820116820180604052508101906127929190612f93565b6127ae5760405162461bcd60e51b81526004016104189061363f565b608085015160a086015160405163095ea7b360e01b81526001600160a01b039092169163095ea7b3916127e59188906004016130c3565b602060405180830381600087803b1580156127ff57600080fd5b505af1158015612813573d6000803e3d6000fd5b505050506040513d601f19601f820116820180604052508101906128379190612f93565b6128535760405162461bcd60e51b81526004016104189061343e565b60a085015160405163140e25ad60e31b81526000916001600160a01b03169063a0712d689061288690889060040161369a565b602060405180830381600087803b1580156128a057600080fd5b505af11580156128b4573d6000803e3d6000fd5b505050506040513d601f19601f820116820180604052508101906128d89190613097565b905080156128f85760405162461bcd60e51b81526004016104189061366e565b60a08601516040516370a0823160e01b81526000916001600160a01b0316906370a08231906121749030906004016130af565b600080826001600160a01b03166370a08231306040518263ffffffff1660e01b815260040161295a91906130af565b60206040518083038186803b15801561297257600080fd5b505afa158015612986573d6000803e3d6000fd5b505050506040513d601f19601f820116820180604052508101906129aa9190613097565b6001600160a01b0384166000908152600460205260408120549192508282116129d45760006129de565b6129de82846124e2565b905060008215612a03576129fe8361201484670de0b6b3a7640000612a6f565b612a06565b60005b90508015612a4b576001600160a01b038616600090815260056020526040902054612a31908261247f565b6001600160a01b0387166000908152600560205260409020555b5050506001600160a01b038316600090815260056020526040902054915050919050565b600082612a7e575060006124dc565b82820282848281612a8b57fe5b04146124d95760405162461bcd60e51b815260040180806020018281038252602181526020018061376e6021913960400191505060405180910390fd5b6000808211612b1e576040805162461bcd60e51b815260206004820152601a60248201527f536166654d6174683a206469766973696f6e206279207a65726f000000000000604482015290519081900360640190fd5b818381612b2757fe5b049392505050565b6000612b84826040518060400160405280602081526020017f5361666545524332303a206c6f772d6c6576656c2063616c6c206661696c6564815250856001600160a01b0316612be09092919063ffffffff16565b8051909150156122f457808060200190516020811015612ba357600080fd5b50516122f45760405162461bcd60e51b815260040180806020018281038252602a81526020018061378f602a913960400191505060405180910390fd5b6060612bef8484600085612bf9565b90505b9392505050565b606082471015612c3a5760405162461bcd60e51b81526004018080602001828103825260268152602001806137486026913960400191505060405180910390fd5b612c4385611ef1565b612c94576040805162461bcd60e51b815260206004820152601d60248201527f416464726573733a2063616c6c20746f206e6f6e2d636f6e7472616374000000604482015290519081900360640190fd5b600080866001600160a01b031685876040518082805190602001908083835b60208310612cd25780518252601f199092019160209182019101612cb3565b6001836020036101000a03801982511681845116808217855250505050505090500191505060006040518083038185875af1925050503d8060008114612d34576040519150601f19603f3d011682016040523d82523d6000602084013e612d39565b606091505b5091509150612d49828286612d54565b979650505050505050565b60608315612d63575081612bf2565b825115612d735782518084602001fd5b8160405162461bcd60e51b81526004018080602001828103825283818151815260200191508051906020019080838360005b83811015612dbd578181015183820152602001612da5565b50505050905090810190601f168015612dea5780820380516001836020036101000a031916815260200191505b509250505060405180910390fd5b80516113c38161372f565b600082601f830112612e13578081fd5b6040516060810181811067ffffffffffffffff82111715612e3057fe5b604052808360608101861015612e44578384fd5b835b6003811015612e65578151835260209283019290910190600101612e46565b509195945050505050565b8051600581106113c357600080fd5b600060208284031215612e90578081fd5b81356124d98161372f565b600060208284031215612eac578081fd5b81516124d98161372f565b60008060408385031215612ec9578081fd5b8235612ed48161372f565b91506020830135612ee48161372f565b809150509250929050565b60008060008060808587031215612f04578182fd5b8435612f0f8161372f565b93506020850135612f1f8161372f565b93969395505050506040820135916060013590565b60008060408385031215612f46578182fd5b8235612f518161372f565b946020939093013593505050565b600080600060608486031215612f73578283fd5b8335612f7e8161372f565b95602085013595506040909401359392505050565b600060208284031215612fa4578081fd5b815180151581146124d9578182fd5b60006101c08284031215612fc5578081fd5b610180612fd18161370b565b83518152612fe160208501612e70565b6020820152612ff260408501612df8565b604082015261300360608501612df8565b606082015261301460808501612df8565b608082015261302560a08501612df8565b60a08201526130378560c08601612e03565b60c08201526101208481015160e083015261014080860151610100840152610160808701519284019290925292850151928201929092526101a0909301519083015250919050565b600060208284031215613090578081fd5b5035919050565b6000602082840312156130a8578081fd5b5051919050565b6001600160a01b0391909116815260200190565b6001600160a01b03929092168252602082015260400190565b6001600160a01b0394851681529290931660208301526040820152606081019190915260800190565b6001600160a01b039390931683526020830191909152604082015260600190565b6020808252602f908201527f636c6f7365506f736974696f6e3a206f726967696e616c2063616c6c6572206960408201526e39903737ba103a34329037bbb732b960891b606082015260800190565b60208082526022908201527f6f70656e506f736974696f6e3a20696e73756666696369656e742062616c616e604082015261636560f01b606082015260800190565b60208082526025908201527f736574746c654372656469744576656e743a20696e76616c696420636f6c6c616040820152641d195c985b60da1b606082015260800190565b6020808252601490820152731bdb9b1e481b9d5d1b5959c818d85b8818d85b1b60621b604082015260600190565b60208082526024908201527f6f70656e506f736974696f6e3a20696e76616c69642063546f6b656e206164646040820152637265737360e01b606082015260800190565b60208082526004908201526319985a5b60e21b604082015260600190565b60208082526010908201526f18db1cd41bdcce881c991b4819985a5b60821b604082015260600190565b60208082526023908201527f736574746c654372656469744576656e743a20696e76616c696420706f6f6c4c6040820152626f737360e81b606082015260800190565b6020808252602b908201527f736574746c654372656469744576656e743a20696e76616c696420636f6c6c6160408201526a3a32b930b6103a37b5b2b760a91b606082015260800190565b6020808252601a908201527f7465737443757272656e74506f736974696f6e206661696c6564000000000000604082015260600190565b60208082526025908201527f736574746c654372656469744576656e743a20696e76616c69642062617365206040820152643a37b5b2b760d91b606082015260800190565b6020808252601390820152721d195cdd141bdcda5d1a5bdb8819985a5b1959606a1b604082015260600190565b60208082526031908201527f6f70656e506f736974696f6e3a206f6e6c79206f776e65722063616e20696e696040820152701d1a585b1a5e99481d1a1a5cc818d85b1b607a1b606082015260800190565b6020808252601c908201527f5f646f4d696e7420617070726f766520616d6f756e74206572726f7200000000604082015260600190565b60208082526027908201527f6f70656e506f736974696f6e3a20696e76616c69642062617365546f6b656e206040820152666164647265737360c81b606082015260800190565b60208082526021908201527f6f70656e506f736974696f6e3a20696e76616c6964206261736520616d6f756e6040820152601d60fa1b606082015260800190565b6020808252602f908201527f6f70656e506f736974696f6e3a20626f72726f77416d74206973206c6573732060408201526e1d1a185b8818dbdb1b185d195c985b608a1b606082015260800190565b6020808252600f908201526e1b1c591d194e881c991b4819985a5b608a1b604082015260600190565b60208082526027908201527f6f70656e506f736974696f6e3a20626f72726f77416d742065786365656473206040820152666d6178696d756d60c81b606082015260800190565b6020808252601490820152731bdc1b941bdcce8817d91bd35a5b9d0819985a5b60621b604082015260600190565b60208082526035908201527f6c69717569646174653a20706f736974696f6e206973206e6f74207265616479604082015274103337b9103634b8bab4b230ba34b7b7103cb2ba1760591b606082015260800190565b6020808252601590820152742fb237a6b4b73a1030b8383937bb329032b93937b960591b604082015260600190565b6020808252601290820152712fb237a6b4b73a1036b4b73a1032b93937b960711b604082015260600190565b90815260200190565b9182526001600160a01b0316602082015260400190565b9283526001600160a01b03919091166020830152604082015260600190565b9384526001600160a01b039290921660208401526040830152606082015260800190565b918252602082015260400190565b60405181810167ffffffffffffffff8111828210171561372757fe5b604052919050565b6001600160a01b038116811461374457600080fd5b5056fe416464726573733a20696e73756666696369656e742062616c616e636520666f722063616c6c536166654d6174683a206d756c7469706c69636174696f6e206f766572666c6f775361666545524332303a204552433230206f7065726174696f6e20646964206e6f7420737563636565645361666545524332303a20617070726f76652066726f6d206e6f6e2d7a65726f20746f206e6f6e2d7a65726f20616c6c6f77616e6365a2646970667358221220d53609a7ba579c6acec3030e46f837e61c0853096f9c05e64b5dc592b357612c64736f6c63430007060033496e697469616c697a61626c653a20636f6e747261637420697320616c726561647920696e697469616c697a6564",
  "immutableReferences": {
    "4661": [
      {
        "length": 32,
        "start": 1106
      },
      {
        "length": 32,
        "start": 1290
      },
      {
        "length": 32,
        "start": 1355
      },
      {
        "length": 32,
        "start": 1504
      },
      {
        "length": 32,
        "start": 1780
      },
      {
        "length": 32,
        "start": 1838
      },
      {
        "length": 32,
        "start": 1918
      },
      {
        "length": 32,
        "start": 2043
      },
      {
        "length": 32,
        "start": 2379
      },
      {
        "length": 32,
        "start": 2628
      },
      {
        "length": 32,
        "start": 2778
      },
      {
        "length": 32,
        "start": 2823
      },
      {
        "length": 32,
        "start": 3036
      },
      {
        "length": 32,
        "start": 3185
      },
      {
        "length": 32,
        "start": 3358
      },
      {
        "length": 32,
        "start": 3724
      },
      {
        "length": 32,
        "start": 3947
      },
      {
        "length": 32,
        "start": 4089
      },
      {
        "length": 32,
        "start": 4400
      },
      {
        "length": 32,
        "start": 4544
      },
      {
        "length": 32,
        "start": 5359
      },
      {
        "length": 32,
        "start": 5611
      },
      {
        "length": 32,
        "start": 5936
      },
      {
        "length": 32,
        "start": 6001
      },
      {
        "length": 32,
        "start": 6150
      },
      {
        "length": 32,
        "start": 6309
      },
      {
        "length": 32,
        "start": 6586
      },
      {
        "length": 32,
        "start": 6644
      },
      {
        "length": 32,
        "start": 6728
      },
      {
        "length": 32,
        "start": 6853
      },
      {
        "length": 32,
        "start": 7189
      },
      {
        "length": 32,
        "start": 7388
      },
      {
        "length": 32,
        "start": 7501
      },
      {
        "length": 32,
        "start": 7964
      },
      {
        "length": 32,
        "start": 8979
      },
      {
        "length": 32,
        "start": 9561
      }
    ],
    "6841": [
      {
        "length": 32,
        "start": 2571
      },
      {
        "length": 32,
        "start": 2673
      }
    ]
  },
  "source": "// SPDX-License-Identifier: MIT\n\npragma solidity 0.7.6;\npragma experimental ABIEncoderV2;\n\nimport '@openzeppelin/contracts/proxy/Initializable.sol';\nimport '@openzeppelin/contracts/token/ERC20/IERC20.sol';\nimport \"@openzeppelin/contracts/token/ERC20/SafeERC20.sol\";\nimport \"@openzeppelin/contracts/math/SafeMath.sol\";\nimport '../adapters/CompoundAdapter.sol';\nimport '../interfaces/IAdapter.sol';\nimport '../interfaces/INutmeg.sol';\n\ncontract MockAdapter is CompoundAdapter {\n  using SafeERC20 for IERC20;\n  using SafeMath for uint;\n\n  event Received(address, uint);\n  address public immutable weth;\n\n  constructor(INutmeg nutmegAddr, address wethAddr) CompoundAdapter(nutmegAddr) {\n    weth = wethAddr;\n  }\n\n  function test() external pure {\n  }\n\n  function testFail() external pure {\n    require(false, \"fail\");\n  }\n\n  function testBorrow(uint amount) external {\n    INutmeg(nutmeg).borrow(weth, address(this), amount-10, amount);\n  }\n\n  function testCurrPositionId(uint pos) external view {\n    uint posret = INutmeg(nutmeg).getCurrPositionId();\n    require(pos == posret, 'testCurrentPosition failed');\n  }\n\n  function testPosition(uint pos) external view {\n    INutmeg.Position memory p = INutmeg(nutmeg).getPosition(pos);\n    require(p.id == pos, 'testPosition failed');\n  }\n\n  function testRepay(address token, uint repayAmount) external {\n    INutmeg(nutmeg).repay(token, repayAmount);\n  }\n\n  receive() external payable {\n     emit Received(msg.sender, msg.value);\n  }\n}\n\n/* Local Variables:   */\n/* mode: javascript   */\n/* js-indent-level: 2 */\n/* End:               */\n",
  "sourcePath": "/home/joe/local2/bench/git/nutmeg/contracts/mock/MockAdapter.sol",
  "compiler": {
    "name": "solc",
    "version": "0.7.6+commit.7338295f.Emscripten.clang"
  },
  "schemaVersion": "3.3.4",
  "updatedAt": "2021-04-29T11:24:49.120Z",
  "devdoc": {
    "kind": "dev",
    "methods": {
      "acceptGovernor()": {
        "details": "Accept to become the new governor. Must be called by the pending governor."
      },
      "addTokenPair(address,address)": {
        "details": "Add baseToken collToken pairs"
      },
      "openPosition(address,address,uint256,uint256)": {
        "params": {
          "baseAmt": "Amount of collateral in base token.",
          "baseToken": "Base token of the position.",
          "borrowAmt": "Amount of base token to be borrowed from nutmeg.",
          "collToken": "Collateral token of the position."
        }
      },
      "removeTokenPair(address)": {
        "details": "Remove baseToken collToken pairs"
      },
      "setPendingGovernor(address)": {
        "details": "Set the pending governor, which will be the governor once accepted.",
        "params": {
          "addr": "The address of the pending governor."
        }
      },
      "settleCreditEvent(address,uint256,uint256)": {
        "params": {
          "baseToken": "The base token address"
        }
      }
    },
    "version": 1
  },
  "userdoc": {
    "kind": "user",
    "methods": {
      "closePosition()": {
        "notice": "Close a position by the borrower"
      },
      "creditTokenValue(address)": {
        "notice": "Get value of credit tokens"
      },
      "liquidate()": {
        "notice": "Liquidate a position"
      },
      "openPosition(address,address,uint256,uint256)": {
        "notice": "Open a position."
      },
      "settleCreditEvent(address,uint256,uint256)": {
        "notice": "Settle credit event"
      }
    },
    "version": 1
  }
}