{
  "contractName": "Nut",
  "abi": [
    {
      "inputs": [
        {
          "internalType": "string",
          "name": "name",
          "type": "string"
        },
        {
          "internalType": "string",
          "name": "symbol",
          "type": "string"
        },
        {
          "internalType": "address",
          "name": "sinkAddr",
          "type": "address"
        }
      ],
      "stateMutability": "nonpayable",
      "type": "constructor"
    },
    {
      "anonymous": false,
      "inputs": [
        {
          "indexed": true,
          "internalType": "address",
          "name": "owner",
          "type": "address"
        },
        {
          "indexed": true,
          "internalType": "address",
          "name": "spender",
          "type": "address"
        },
        {
          "indexed": false,
          "internalType": "uint256",
          "name": "value",
          "type": "uint256"
        }
      ],
      "name": "Approval",
      "type": "event"
    },
    {
      "anonymous": false,
      "inputs": [
        {
          "indexed": true,
          "internalType": "address",
          "name": "from",
          "type": "address"
        },
        {
          "indexed": true,
          "internalType": "address",
          "name": "to",
          "type": "address"
        },
        {
          "indexed": false,
          "internalType": "uint256",
          "name": "value",
          "type": "uint256"
        }
      ],
      "name": "Transfer",
      "type": "event"
    },
    {
      "inputs": [],
      "name": "MAX_TOKENS",
      "outputs": [
        {
          "internalType": "uint256",
          "name": "",
          "type": "uint256"
        }
      ],
      "stateMutability": "view",
      "type": "function"
    },
    {
      "inputs": [],
      "name": "SINK_FUND",
      "outputs": [
        {
          "internalType": "uint256",
          "name": "",
          "type": "uint256"
        }
      ],
      "stateMutability": "view",
      "type": "function"
    },
    {
      "inputs": [],
      "name": "acceptGovernor",
      "outputs": [],
      "stateMutability": "nonpayable",
      "type": "function"
    },
    {
      "inputs": [
        {
          "internalType": "address",
          "name": "owner",
          "type": "address"
        },
        {
          "internalType": "address",
          "name": "spender",
          "type": "address"
        }
      ],
      "name": "allowance",
      "outputs": [
        {
          "internalType": "uint256",
          "name": "",
          "type": "uint256"
        }
      ],
      "stateMutability": "view",
      "type": "function"
    },
    {
      "inputs": [
        {
          "internalType": "address",
          "name": "spender",
          "type": "address"
        },
        {
          "internalType": "uint256",
          "name": "amount",
          "type": "uint256"
        }
      ],
      "name": "approve",
      "outputs": [
        {
          "internalType": "bool",
          "name": "",
          "type": "bool"
        }
      ],
      "stateMutability": "nonpayable",
      "type": "function"
    },
    {
      "inputs": [
        {
          "internalType": "address",
          "name": "account",
          "type": "address"
        }
      ],
      "name": "balanceOf",
      "outputs": [
        {
          "internalType": "uint256",
          "name": "",
          "type": "uint256"
        }
      ],
      "stateMutability": "view",
      "type": "function"
    },
    {
      "inputs": [],
      "name": "decimals",
      "outputs": [
        {
          "internalType": "uint8",
          "name": "",
          "type": "uint8"
        }
      ],
      "stateMutability": "view",
      "type": "function"
    },
    {
      "inputs": [
        {
          "internalType": "address",
          "name": "spender",
          "type": "address"
        },
        {
          "internalType": "uint256",
          "name": "subtractedValue",
          "type": "uint256"
        }
      ],
      "name": "decreaseAllowance",
      "outputs": [
        {
          "internalType": "bool",
          "name": "",
          "type": "bool"
        }
      ],
      "stateMutability": "nonpayable",
      "type": "function"
    },
    {
      "inputs": [],
      "name": "distributor",
      "outputs": [
        {
          "internalType": "address",
          "name": "",
          "type": "address"
        }
      ],
      "stateMutability": "view",
      "type": "function"
    },
    {
      "inputs": [],
      "name": "governor",
      "outputs": [
        {
          "internalType": "address",
          "name": "",
          "type": "address"
        }
      ],
      "stateMutability": "view",
      "type": "function"
    },
    {
      "inputs": [
        {
          "internalType": "address",
          "name": "spender",
          "type": "address"
        },
        {
          "internalType": "uint256",
          "name": "addedValue",
          "type": "uint256"
        }
      ],
      "name": "increaseAllowance",
      "outputs": [
        {
          "internalType": "bool",
          "name": "",
          "type": "bool"
        }
      ],
      "stateMutability": "nonpayable",
      "type": "function"
    },
    {
      "inputs": [],
      "name": "name",
      "outputs": [
        {
          "internalType": "string",
          "name": "",
          "type": "string"
        }
      ],
      "stateMutability": "view",
      "type": "function"
    },
    {
      "inputs": [],
      "name": "pendingGovernor",
      "outputs": [
        {
          "internalType": "address",
          "name": "",
          "type": "address"
        }
      ],
      "stateMutability": "view",
      "type": "function"
    },
    {
      "inputs": [
        {
          "internalType": "address",
          "name": "addr",
          "type": "address"
        }
      ],
      "name": "setPendingGovernor",
      "outputs": [],
      "stateMutability": "nonpayable",
      "type": "function"
    },
    {
      "inputs": [],
      "name": "symbol",
      "outputs": [
        {
          "internalType": "string",
          "name": "",
          "type": "string"
        }
      ],
      "stateMutability": "view",
      "type": "function"
    },
    {
      "inputs": [],
      "name": "totalSupply",
      "outputs": [
        {
          "internalType": "uint256",
          "name": "",
          "type": "uint256"
        }
      ],
      "stateMutability": "view",
      "type": "function"
    },
    {
      "inputs": [
        {
          "internalType": "address",
          "name": "recipient",
          "type": "address"
        },
        {
          "internalType": "uint256",
          "name": "amount",
          "type": "uint256"
        }
      ],
      "name": "transfer",
      "outputs": [
        {
          "internalType": "bool",
          "name": "",
          "type": "bool"
        }
      ],
      "stateMutability": "nonpayable",
      "type": "function"
    },
    {
      "inputs": [
        {
          "internalType": "address",
          "name": "sender",
          "type": "address"
        },
        {
          "internalType": "address",
          "name": "recipient",
          "type": "address"
        },
        {
          "internalType": "uint256",
          "name": "amount",
          "type": "uint256"
        }
      ],
      "name": "transferFrom",
      "outputs": [
        {
          "internalType": "bool",
          "name": "",
          "type": "bool"
        }
      ],
      "stateMutability": "nonpayable",
      "type": "function"
    },
    {
      "inputs": [
        {
          "internalType": "address",
          "name": "addr",
          "type": "address"
        }
      ],
      "name": "setNutDistributor",
      "outputs": [],
      "stateMutability": "nonpayable",
      "type": "function"
    },
    {
      "inputs": [
        {
          "internalType": "address",
          "name": "receipt",
          "type": "address"
        },
        {
          "internalType": "uint256",
          "name": "amount",
          "type": "uint256"
        }
      ],
      "name": "mint",
      "outputs": [],
      "stateMutability": "nonpayable",
      "type": "function"
    }
  ],
  "bytecode": "0x60806040523480156200001157600080fd5b506040516200147538038062001475833981810160405260608110156200003757600080fd5b81019080805160405193929190846401000000008211156200005857600080fd5b9083019060208201858111156200006e57600080fd5b82516401000000008111828201881017156200008957600080fd5b82525081516020918201929091019080838360005b83811015620000b85781810151838201526020016200009e565b50505050905090810190601f168015620000e65780820380516001836020036101000a031916815260200191505b50604052602001805160405193929190846401000000008211156200010a57600080fd5b9083019060208201858111156200012057600080fd5b82516401000000008111828201881017156200013b57600080fd5b82525081516020918201929091019080838360005b838110156200016a57818101518382015260200162000150565b50505050905090810190601f168015620001985780820380516001836020036101000a031916815260200191505b5060405260209081015185519093508592508491620001bd9160039185019062000477565b508051620001d390600490602084019062000477565b50506005805460ff1916601217905550620001f981692a5a058fc295ed0000006200020c565b620002036200031b565b50505062000523565b6001600160a01b03821662000268576040805162461bcd60e51b815260206004820152601f60248201527f45524332303a206d696e7420746f20746865207a65726f206164647265737300604482015290519081900360640190fd5b6200027660008383620003ec565b6200029281600254620003f160201b6200099f1790919060201c565b6002556001600160a01b03821660009081526020818152604090912054620002c59183906200099f620003f1821b17901c565b6001600160a01b0383166000818152602081815260408083209490945583518581529351929391927fddf252ad1be2c89b69c2b068fc378daa952ba7f163c4a11628f55a4df523b3ef9281900390910190a35050565b60055462010000900460ff16806200033857506200033862000453565b806200034c5750600554610100900460ff16155b620003895760405162461bcd60e51b815260040180806020018281038252602e81526020018062001447602e913960400191505060405180910390fd5b60055462010000900460ff16158015620003ba576005805461ff001962ff0000199091166201000017166101001790555b600580546301000000600160b81b031916336301000000021790558015620003e9576005805462ff0000191690555b50565b505050565b6000828201838110156200044c576040805162461bcd60e51b815260206004820152601b60248201527f536166654d6174683a206164646974696f6e206f766572666c6f770000000000604482015290519081900360640190fd5b9392505050565b60006200046b306200047160201b62000a001760201c565b15905090565b3b151590565b828054600181600116156101000203166002900490600052602060002090601f016020900481019282620004af5760008555620004fa565b82601f10620004ca57805160ff1916838001178555620004fa565b82800160010185558215620004fa579182015b82811115620004fa578251825591602001919060010190620004dd565b50620005089291506200050c565b5090565b5b808211156200050857600081556001016200050d565b610f1480620005336000396000f3fe608060405234801561001057600080fd5b506004361061012c5760003560e01c806395d89b41116100ad578063dd62ed3e11610071578063dd62ed3e14610396578063e3056a34146103c4578063e58bb639146103cc578063f235757f146103d4578063f47c84c5146103fa5761012c565b806395d89b4114610308578063a457c2d714610310578063a9059cbb1461033c578063bfe1092814610368578063d76512be146103705761012c565b806323dee033116100f457806323dee03314610262578063313ce5671461026a578063395093511461028857806340c10f19146102b457806370a08231146102e25761012c565b806306fdde0314610131578063095ea7b3146101ae5780630c340a24146101ee57806318160ddd1461021257806323b872dd1461022c575b600080fd5b610139610402565b6040805160208082528351818301528351919283929083019185019080838360005b8381101561017357818101518382015260200161015b565b50505050905090810190601f1680156101a05780820380516001836020036101000a031916815260200191505b509250505060405180910390f35b6101da600480360360408110156101c457600080fd5b506001600160a01b038135169060200135610498565b604080519115158252519081900360200190f35b6101f66104b5565b604080516001600160a01b039092168252519081900360200190f35b61021a6104cb565b60408051918252519081900360200190f35b6101da6004803603606081101561024257600080fd5b506001600160a01b038135811691602081013590911690604001356104d1565b61021a610558565b610272610566565b6040805160ff9092168252519081900360200190f35b6101da6004803603604081101561029e57600080fd5b506001600160a01b03813516906020013561056f565b6102e0600480360360408110156102ca57600080fd5b506001600160a01b0381351690602001356105bd565b005b61021a600480360360208110156102f857600080fd5b50356001600160a01b03166106f6565b610139610711565b6101da6004803603604081101561032657600080fd5b506001600160a01b038135169060200135610772565b6101da6004803603604081101561035257600080fd5b506001600160a01b0381351690602001356107da565b6101f66107ee565b6102e06004803603602081101561038657600080fd5b50356001600160a01b03166107fd565b61021a600480360360408110156103ac57600080fd5b506001600160a01b038135811691602001351661086f565b6101f661089a565b6102e06108a9565b6102e0600480360360208110156103ea57600080fd5b50356001600160a01b031661091f565b61021a610991565b60038054604080516020601f600260001961010060018816150201909516949094049384018190048102820181019092528281526060939092909183018282801561048e5780601f106104635761010080835404028352916020019161048e565b820191906000526020600020905b81548152906001019060200180831161047157829003601f168201915b5050505050905090565b60006104ac6104a5610a06565b8484610a0a565b50600192915050565b600554630100000090046001600160a01b031681565b60025490565b60006104de848484610af6565b61054e846104ea610a06565b61054985604051806060016040528060288152602001610e49602891396001600160a01b038a16600090815260016020526040812090610528610a06565b6001600160a01b031681526020810191909152604001600020549190610c51565b610a0a565b5060019392505050565b692a5a058fc295ed00000081565b60055460ff1690565b60006104ac61057c610a06565b84610549856001600061058d610a06565b6001600160a01b03908116825260208083019390935260409182016000908120918c16815292529020549061099f565b6007546001600160a01b0316331461061c576040805162461bcd60e51b815260206004820152601d60248201527f6d7573742062652063616c6c6564206279206469737472696275746f72000000604482015290519081900360640190fd5b69d3c21bcecceda1000000610696306001600160a01b03166318160ddd6040518163ffffffff1660e01b815260040160206040518083038186803b15801561066357600080fd5b505afa158015610677573d6000803e3d6000fd5b505050506040513d602081101561068d57600080fd5b5051839061099f565b106106e8576040805162461bcd60e51b815260206004820181905260248201527f63616e6e6f74206d696e74206d6f7265207468616e204d41585f544f4b454e53604482015290519081900360640190fd5b6106f28282610ce8565b5050565b6001600160a01b031660009081526020819052604090205490565b60048054604080516020601f600260001961010060018816150201909516949094049384018190048102820181019092528281526060939092909183018282801561048e5780601f106104635761010080835404028352916020019161048e565b60006104ac61077f610a06565b8461054985604051806060016040528060258152602001610eba60259139600160006107a9610a06565b6001600160a01b03908116825260208083019390935260409182016000908120918d16815292529020549190610c51565b60006104ac6107e7610a06565b8484610af6565b6007546001600160a01b031681565b600554630100000090046001600160a01b0316331461084d576040805162461bcd60e51b81526020600482015260076024820152663130b21033b7bb60c91b604482015290519081900360640190fd5b600780546001600160a01b0319166001600160a01b0392909216919091179055565b6001600160a01b03918216600090815260016020908152604080832093909416825291909152205490565b6006546001600160a01b031681565b6006546001600160a01b031633146108f2576040805162461bcd60e51b81526020600482015260076024820152661b9bc81c195b9960ca1b604482015290519081900360640190fd5b600680546001600160a01b0319169055600580546301000000600160b81b03191633630100000002179055565b600554630100000090046001600160a01b0316331461096f576040805162461bcd60e51b81526020600482015260076024820152663130b21033b7bb60c91b604482015290519081900360640190fd5b600680546001600160a01b0319166001600160a01b0392909216919091179055565b69d3c21bcecceda100000081565b6000828201838110156109f9576040805162461bcd60e51b815260206004820152601b60248201527f536166654d6174683a206164646974696f6e206f766572666c6f770000000000604482015290519081900360640190fd5b9392505050565b3b151590565b3390565b6001600160a01b038316610a4f5760405162461bcd60e51b8152600401808060200182810382526024815260200180610e966024913960400191505060405180910390fd5b6001600160a01b038216610a945760405162461bcd60e51b8152600401808060200182810382526022815260200180610e016022913960400191505060405180910390fd5b6001600160a01b03808416600081815260016020908152604080832094871680845294825291829020859055815185815291517f8c5be1e5ebec7d5bd14f71427d1e84f3dd0314c0f7b2291e5b200ac8c7c3b9259281900390910190a3505050565b6001600160a01b038316610b3b5760405162461bcd60e51b8152600401808060200182810382526025815260200180610e716025913960400191505060405180910390fd5b6001600160a01b038216610b805760405162461bcd60e51b8152600401808060200182810382526023815260200180610dde6023913960400191505060405180910390fd5b610b8b838383610dd8565b610bc881604051806060016040528060268152602001610e23602691396001600160a01b0386166000908152602081905260409020549190610c51565b6001600160a01b038085166000908152602081905260408082209390935590841681522054610bf7908261099f565b6001600160a01b038084166000818152602081815260409182902094909455805185815290519193928716927fddf252ad1be2c89b69c2b068fc378daa952ba7f163c4a11628f55a4df523b3ef92918290030190a3505050565b60008184841115610ce05760405162461bcd60e51b81526004018080602001828103825283818151815260200191508051906020019080838360005b83811015610ca5578181015183820152602001610c8d565b50505050905090810190601f168015610cd25780820380516001836020036101000a031916815260200191505b509250505060405180910390fd5b505050900390565b6001600160a01b038216610d43576040805162461bcd60e51b815260206004820152601f60248201527f45524332303a206d696e7420746f20746865207a65726f206164647265737300604482015290519081900360640190fd5b610d4f60008383610dd8565b600254610d5c908261099f565b6002556001600160a01b038216600090815260208190526040902054610d82908261099f565b6001600160a01b0383166000818152602081815260408083209490945583518581529351929391927fddf252ad1be2c89b69c2b068fc378daa952ba7f163c4a11628f55a4df523b3ef9281900390910190a35050565b50505056fe45524332303a207472616e7366657220746f20746865207a65726f206164647265737345524332303a20617070726f766520746f20746865207a65726f206164647265737345524332303a207472616e7366657220616d6f756e7420657863656564732062616c616e636545524332303a207472616e7366657220616d6f756e74206578636565647320616c6c6f77616e636545524332303a207472616e736665722066726f6d20746865207a65726f206164647265737345524332303a20617070726f76652066726f6d20746865207a65726f206164647265737345524332303a2064656372656173656420616c6c6f77616e63652062656c6f77207a65726fa2646970667358221220c91676aac1421d326831c00f53cf75cd47bf928eb662dc2fac1f49c4e504ed5164736f6c63430007060033496e697469616c697a61626c653a20636f6e747261637420697320616c726561647920696e697469616c697a6564",
  "immutableReferences": {},
  "source": "// SPDX-License-Identifier: MIT\n\npragma solidity 0.7.6;\n\nimport \"@openzeppelin/contracts/token/ERC20/ERC20.sol\";\nimport \"./interfaces/INut.sol\";\nimport \"./lib/Governable.sol\";\n\ncontract Nut is ERC20, Governable, INut {\n    using SafeMath for uint;\n\n    address public distributor;\n\n    uint public constant MAX_TOKENS = 1000000 ether; // total amount of NUT tokens\n    uint public constant SINK_FUND = 200000 ether; // 20% of tokens goes to sink fund\n\n    constructor (string memory name, string memory symbol, address sinkAddr) ERC20(name, symbol) {\n        _mint(sinkAddr, SINK_FUND);\n        __Governable__init();\n    }\n\n    /// @dev Set the new distributor\n    function setNutDistributor(address addr) external onlyGov {\n        distributor = addr;\n    }\n\n    /// @dev Mint nut tokens to receipt\n    function mint(address receipt, uint256 amount) external override {\n        require(msg.sender == distributor, \"must be called by distributor\");\n        require(amount.add(this.totalSupply()) < MAX_TOKENS, \"cannot mint more than MAX_TOKENS\");\n        _mint(receipt, amount);\n    }\n\n}\n",
  "sourcePath": "/home/joe/local2/bench/git/nutmeg/contracts/Nut.sol",
  "compiler": {
    "name": "solc",
    "version": "0.7.6+commit.7338295f.Emscripten.clang"
  },
  "schemaVersion": "3.3.4",
  "updatedAt": "2021-04-29T11:24:49.028Z",
  "devdoc": {
    "kind": "dev",
    "methods": {
      "acceptGovernor()": {
        "details": "Accept to become the new governor. Must be called by the pending governor."
      },
      "allowance(address,address)": {
        "details": "See {IERC20-allowance}."
      },
      "approve(address,uint256)": {
        "details": "See {IERC20-approve}. Requirements: - `spender` cannot be the zero address."
      },
      "balanceOf(address)": {
        "details": "See {IERC20-balanceOf}."
      },
      "decimals()": {
        "details": "Returns the number of decimals used to get its user representation. For example, if `decimals` equals `2`, a balance of `505` tokens should be displayed to a user as `5,05` (`505 / 10 ** 2`). Tokens usually opt for a value of 18, imitating the relationship between Ether and Wei. This is the value {ERC20} uses, unless {_setupDecimals} is called. NOTE: This information is only used for _display_ purposes: it in no way affects any of the arithmetic of the contract, including {IERC20-balanceOf} and {IERC20-transfer}."
      },
      "decreaseAllowance(address,uint256)": {
        "details": "Atomically decreases the allowance granted to `spender` by the caller. This is an alternative to {approve} that can be used as a mitigation for problems described in {IERC20-approve}. Emits an {Approval} event indicating the updated allowance. Requirements: - `spender` cannot be the zero address. - `spender` must have allowance for the caller of at least `subtractedValue`."
      },
      "increaseAllowance(address,uint256)": {
        "details": "Atomically increases the allowance granted to `spender` by the caller. This is an alternative to {approve} that can be used as a mitigation for problems described in {IERC20-approve}. Emits an {Approval} event indicating the updated allowance. Requirements: - `spender` cannot be the zero address."
      },
      "mint(address,uint256)": {
        "details": "Mint nut tokens to receipt"
      },
      "name()": {
        "details": "Returns the name of the token."
      },
      "setNutDistributor(address)": {
        "details": "Set the new distributor"
      },
      "setPendingGovernor(address)": {
        "details": "Set the pending governor, which will be the governor once accepted.",
        "params": {
          "addr": "The address of the pending governor."
        }
      },
      "symbol()": {
        "details": "Returns the symbol of the token, usually a shorter version of the name."
      },
      "totalSupply()": {
        "details": "See {IERC20-totalSupply}."
      },
      "transfer(address,uint256)": {
        "details": "See {IERC20-transfer}. Requirements: - `recipient` cannot be the zero address. - the caller must have a balance of at least `amount`."
      },
      "transferFrom(address,address,uint256)": {
        "details": "See {IERC20-transferFrom}. Emits an {Approval} event indicating the updated allowance. This is not required by the EIP. See the note at the beginning of {ERC20}. Requirements: - `sender` and `recipient` cannot be the zero address. - `sender` must have a balance of at least `amount`. - the caller must have allowance for ``sender``'s tokens of at least `amount`."
      }
    },
    "version": 1
  },
  "userdoc": {
    "kind": "user",
    "methods": {},
    "version": 1
  }
}