{
  "contractName": "NutDistributorAltB",
  "abi": [
    {
      "inputs": [],
      "name": "BLOCKS_PER_EPOCH",
      "outputs": [
        {
          "internalType": "uint256",
          "name": "",
          "type": "uint256"
        }
      ],
      "stateMutability": "view",
      "type": "function",
      "constant": true
    },
    {
      "inputs": [],
      "name": "CURRENT_EPOCH",
      "outputs": [
        {
          "internalType": "uint256",
          "name": "",
          "type": "uint256"
        }
      ],
      "stateMutability": "view",
      "type": "function",
      "constant": true
    },
    {
      "inputs": [],
      "name": "DIST_MIN_AMOUNT",
      "outputs": [
        {
          "internalType": "uint256",
          "name": "",
          "type": "uint256"
        }
      ],
      "stateMutability": "view",
      "type": "function",
      "constant": true
    },
    {
      "inputs": [],
      "name": "DIST_START_AMOUNT",
      "outputs": [
        {
          "internalType": "uint256",
          "name": "",
          "type": "uint256"
        }
      ],
      "stateMutability": "view",
      "type": "function",
      "constant": true
    },
    {
      "inputs": [],
      "name": "DIST_START_BLOCK",
      "outputs": [
        {
          "internalType": "uint256",
          "name": "",
          "type": "uint256"
        }
      ],
      "stateMutability": "view",
      "type": "function",
      "constant": true
    },
    {
      "inputs": [],
      "name": "MAX_NUM_POOLS",
      "outputs": [
        {
          "internalType": "uint256",
          "name": "",
          "type": "uint256"
        }
      ],
      "stateMutability": "view",
      "type": "function",
      "constant": true
    },
    {
      "inputs": [],
      "name": "NUM_EPOCH",
      "outputs": [
        {
          "internalType": "uint256",
          "name": "",
          "type": "uint256"
        }
      ],
      "stateMutability": "view",
      "type": "function",
      "constant": true
    },
    {
      "inputs": [],
      "name": "acceptGovernor",
      "outputs": [],
      "stateMutability": "nonpayable",
      "type": "function"
    },
    {
      "inputs": [],
      "name": "collect",
      "outputs": [],
      "stateMutability": "nonpayable",
      "type": "function"
    },
    {
      "inputs": [
        {
          "internalType": "uint256",
          "name": "",
          "type": "uint256"
        }
      ],
      "name": "distCompletionMap",
      "outputs": [
        {
          "internalType": "bool",
          "name": "",
          "type": "bool"
        }
      ],
      "stateMutability": "view",
      "type": "function",
      "constant": true
    },
    {
      "inputs": [],
      "name": "distribute",
      "outputs": [],
      "stateMutability": "nonpayable",
      "type": "function"
    },
    {
      "inputs": [
        {
          "internalType": "uint256",
          "name": "",
          "type": "uint256"
        }
      ],
      "name": "echoMap",
      "outputs": [
        {
          "internalType": "uint256",
          "name": "id",
          "type": "uint256"
        },
        {
          "internalType": "uint256",
          "name": "endBlock",
          "type": "uint256"
        },
        {
          "internalType": "uint256",
          "name": "amount",
          "type": "uint256"
        }
      ],
      "stateMutability": "view",
      "type": "function",
      "constant": true
    },
    {
      "inputs": [],
      "name": "getCollectionAmount",
      "outputs": [
        {
          "internalType": "uint256",
          "name": "",
          "type": "uint256"
        }
      ],
      "stateMutability": "view",
      "type": "function",
      "constant": true
    },
    {
      "inputs": [
        {
          "internalType": "address",
          "name": "pool",
          "type": "address"
        },
        {
          "internalType": "uint256",
          "name": "i",
          "type": "uint256"
        }
      ],
      "name": "getTotalVtb",
      "outputs": [
        {
          "internalType": "uint256",
          "name": "",
          "type": "uint256"
        }
      ],
      "stateMutability": "view",
      "type": "function",
      "constant": true
    },
    {
      "inputs": [
        {
          "internalType": "address",
          "name": "pool",
          "type": "address"
        },
        {
          "internalType": "address",
          "name": "lender",
          "type": "address"
        },
        {
          "internalType": "uint256",
          "name": "i",
          "type": "uint256"
        }
      ],
      "name": "getVtb",
      "outputs": [
        {
          "internalType": "uint256",
          "name": "",
          "type": "uint256"
        }
      ],
      "stateMutability": "view",
      "type": "function",
      "constant": true
    },
    {
      "inputs": [],
      "name": "governor",
      "outputs": [
        {
          "internalType": "address",
          "name": "",
          "type": "address"
        }
      ],
      "stateMutability": "view",
      "type": "function",
      "constant": true
    },
    {
      "inputs": [],
      "name": "inNutDistribution",
      "outputs": [
        {
          "internalType": "bool",
          "name": "",
          "type": "bool"
        }
      ],
      "stateMutability": "view",
      "type": "function",
      "constant": true
    },
    {
      "inputs": [
        {
          "internalType": "address",
          "name": "nutAddr",
          "type": "address"
        },
        {
          "internalType": "address",
          "name": "_governor",
          "type": "address"
        }
      ],
      "name": "initialize",
      "outputs": [],
      "stateMutability": "nonpayable",
      "type": "function"
    },
    {
      "inputs": [],
      "name": "nut",
      "outputs": [
        {
          "internalType": "address",
          "name": "",
          "type": "address"
        }
      ],
      "stateMutability": "view",
      "type": "function",
      "constant": true
    },
    {
      "inputs": [],
      "name": "nutmeg",
      "outputs": [
        {
          "internalType": "address",
          "name": "",
          "type": "address"
        }
      ],
      "stateMutability": "view",
      "type": "function",
      "constant": true
    },
    {
      "inputs": [],
      "name": "oracle",
      "outputs": [
        {
          "internalType": "address",
          "name": "",
          "type": "address"
        }
      ],
      "stateMutability": "view",
      "type": "function",
      "constant": true
    },
    {
      "inputs": [],
      "name": "pendingGovernor",
      "outputs": [
        {
          "internalType": "address",
          "name": "",
          "type": "address"
        }
      ],
      "stateMutability": "view",
      "type": "function",
      "constant": true
    },
    {
      "inputs": [
        {
          "internalType": "uint256",
          "name": "",
          "type": "uint256"
        }
      ],
      "name": "pools",
      "outputs": [
        {
          "internalType": "address",
          "name": "",
          "type": "address"
        }
      ],
      "stateMutability": "view",
      "type": "function",
      "constant": true
    },
    {
      "inputs": [
        {
          "internalType": "address",
          "name": "addr",
          "type": "address"
        }
      ],
      "name": "setNutmegAddress",
      "outputs": [],
      "stateMutability": "nonpayable",
      "type": "function"
    },
    {
      "inputs": [
        {
          "internalType": "address",
          "name": "addr",
          "type": "address"
        }
      ],
      "name": "setPendingGovernor",
      "outputs": [],
      "stateMutability": "nonpayable",
      "type": "function"
    },
    {
      "inputs": [
        {
          "internalType": "address",
          "name": "addr",
          "type": "address"
        }
      ],
      "name": "setPriceOracle",
      "outputs": [],
      "stateMutability": "nonpayable",
      "type": "function"
    },
    {
      "inputs": [
        {
          "internalType": "address",
          "name": "",
          "type": "address"
        },
        {
          "internalType": "uint256",
          "name": "",
          "type": "uint256"
        }
      ],
      "name": "totalNutMap",
      "outputs": [
        {
          "internalType": "uint256",
          "name": "",
          "type": "uint256"
        }
      ],
      "stateMutability": "view",
      "type": "function",
      "constant": true
    },
    {
      "inputs": [
        {
          "internalType": "address",
          "name": "",
          "type": "address"
        },
        {
          "internalType": "uint256",
          "name": "",
          "type": "uint256"
        }
      ],
      "name": "totalVtbMap",
      "outputs": [
        {
          "internalType": "uint256",
          "name": "",
          "type": "uint256"
        }
      ],
      "stateMutability": "view",
      "type": "function",
      "constant": true
    },
    {
      "inputs": [
        {
          "internalType": "address",
          "name": "token",
          "type": "address"
        },
        {
          "internalType": "address",
          "name": "lender",
          "type": "address"
        },
        {
          "internalType": "uint256",
          "name": "incAmount",
          "type": "uint256"
        },
        {
          "internalType": "uint256",
          "name": "decAmount",
          "type": "uint256"
        }
      ],
      "name": "updateVtb",
      "outputs": [],
      "stateMutability": "nonpayable",
      "type": "function"
    },
    {
      "inputs": [
        {
          "internalType": "address",
          "name": "",
          "type": "address"
        },
        {
          "internalType": "address",
          "name": "",
          "type": "address"
        },
        {
          "internalType": "uint256",
          "name": "",
          "type": "uint256"
        }
      ],
      "name": "vtbMap",
      "outputs": [
        {
          "internalType": "uint256",
          "name": "",
          "type": "uint256"
        }
      ],
      "stateMutability": "view",
      "type": "function",
      "constant": true
    },
    {
      "inputs": [],
      "name": "getVersionString",
      "outputs": [
        {
          "internalType": "string",
          "name": "",
          "type": "string"
        }
      ],
      "stateMutability": "pure",
      "type": "function",
      "constant": true
    }
  ],
  "bytecode": "0x608060405234801561001057600080fd5b506120cd806100206000396000f3fe608060405234801561001057600080fd5b50600436106101e55760003560e01c8063625372db1161010f578063ad8102fa116100a2578063e4fc6b6d11610071578063e4fc6b6d14610394578063e52253811461039c578063e58bb639146103a4578063f235757f146103ac576101e5565b8063ad8102fa1461035e578063bf47c26414610366578063d44b7af114610379578063e3056a341461038c576101e5565b80638b159cee116100de5780638b159cee1461031d5780639107a25f14610330578063960874d814610338578063ac4afa381461034b576101e5565b8063625372db146102f2578063656d565e14610305578063763f31a21461030d5780637dc0d1d014610315576101e5565b80632c6bb55411610187578063485cc95511610156578063485cc955146102955780634ce41ac0146102aa5780634d24cff0146102cc578063530e784f146102df576101e5565b80632c6bb5541461026a578063325140ea146102725780633d02df6f1461027a5780633fde3f9f14610282576101e5565b8063153173d6116101c3578063153173d61461023257806315d3b7a0146102525780631f3adc0f1461025a5780632962420714610262576101e5565b80630374119e146101ea57806305b540f2146102085780630c340a241461021d575b600080fd5b6101f26103bf565b6040516101ff9190611f10565b60405180910390f35b6102106103cd565b6040516101ff9190611ebd565b6102256103f9565b6040516101ff9190611e9e565b610245610240366004611e86565b61040e565b6040516101ff9190611eb2565b610225610423565b6101f2610432565b6101f2610438565b6101f261043e565b6101f261059f565b6102456105a5565b6101f2610290366004611e5d565b6105d7565b6102a86102a3366004611daf565b6105fc565b005b6102bd6102b8366004611e86565b610768565b6040516101ff93929190611f19565b6101f26102da366004611e5d565b610789565b6102a86102ed366004611d95565b61083f565b6102a8610300366004611e1c565b6108b0565b610225610dae565b6101f2610dbd565b610225610dc3565b6101f261032b366004611e5d565b610dd2565b6101f2610dee565b6101f2610346366004611de1565b610df3565b610225610359366004611e86565b610eca565b6101f2610ef4565b6101f2610374366004611de1565b610f02565b6102a8610387366004611d95565b610f34565b610225610fa5565b6102a8610fb4565b6102a86114a6565b6102a8611882565b6102a86103ba366004611d95565b6118f6565b6934f086f3b33b6840000081565b604080518082019091526012815271373aba3234b9ba3934b13aba37b930b63a3160711b602082015290565b6000546201000090046001600160a01b031681565b600b6020526000908152604090205460ff1681565b6003546001600160a01b031681565b60065481565b60075481565b60008061046260065461045c6005544361196790919063ffffffff16565b906119c4565b9050600081116104a35760405162461bcd60e51b815260040180806020018281038252602e815260200180611ff6602e913960400191505060405180910390fd5b6009543390600090610100116104bb576101006104bf565b6009545b90506000805b82811015610596576000600982815481106104dc57fe5b60009182526020822001546001600160a01b031691505b86811080156105025750600f81105b1561058c576000610514838884610df3565b905060008111801561052f5750600061052d8484610789565b115b156105835760006105736105438585610789565b6001600160a01b0386166000908152600d6020526040902061045c9086600f811061056a57fe5b01548590611a2b565b905061057f8682611a84565b9550505b506001016104f3565b50506001016104c5565b50935050505090565b60055481565b600060055443101580156105d257506006546105cf906105c690600f611a2b565b60055490611a84565b43105b905090565b600c60205281600052604060002081600f81106105f357600080fd5b01549150829050565b600054610100900460ff16806106155750610615611ade565b80610623575060005460ff16155b61065e5760405162461bcd60e51b815260040180806020018281038252602e815260200180611f7d602e913960400191505060405180910390fd5b600054610100900460ff16158015610689576000805460ff1961ff0019909116610100171660011790555b600380546001600160a01b0319166001600160a01b0385161790554360055562013b006006556106b882611aef565b60005b600f811015610750576000818152600a602052604090208181556106ef6105c66106e6846001611a84565b60065490611a2b565b81600101819055506000610721610710600185611a8490919063ffffffff16565b6934f086f3b33b68400000906119c4565b90506903f870857a3e0e38000081101561074257506903f870857a3e0e3800005b6002909101556001016106bb565b508015610763576000805461ff00191690555b505050565b600a6020526000908152604090208054600182015460029092015490919083565b6000600f82106107d3576040805162461bcd60e51b815260206004820152601060248201526f3a37ba30b62b3a311034b23c1032b93960811b604482015290519081900360640190fd5b6001600160a01b0383166000908152601160205260409020548210610810576001600160a01b0383166000908152600f6020526040902054610836565b6001600160a01b0383166000908152600c6020526040902082600f811061083357fe5b01545b90505b92915050565b6000546201000090046001600160a01b0316331461088e576040805162461bcd60e51b81526020600482015260076024820152663130b21033b7bb60c91b604482015290519081900360640190fd5b600480546001600160a01b0319166001600160a01b0392909216919091179055565b6002546001600160a01b03163314610906576040805162461bcd60e51b81526020600482015260146024820152731bdb9b1e481b9d5d1b5959c818d85b8818d85b1b60621b604482015290519081900360640190fd5b60055443101561095d576040805162461bcd60e51b815260206004820152601f60248201527f7570646174655674623a20696e76616c696420626c6f636b206e756d62657200604482015290519081900360640190fd5b811580610968575080155b6109a35760405162461bcd60e51b81526004018080602001828103825260238152602001806120246023913960400191505060405180910390fd5b60006109af8383611a84565b9050600081116109f05760405162461bcd60e51b815260040180806020018281038252602b815260200180611f52602b913960400191505060405180910390fd5b610a0b60065461045c6005544361196790919063ffffffff16565b6007819055600f11610a1d5750610da8565b610a278585611bb4565b610a3085611cb4565b6007546000908152600a6020526040812060010154610a5b908390610a559043611967565b90611a2b565b90506000610a7483600654611a2b90919063ffffffff16565b90508415610bd0576001600160a01b038088166000908152600e60209081526040808320938a16835292905220600754610abc918491600f8110610ab457fe5b015490611a84565b6001600160a01b038089166000908152600e60209081526040808320938b16835292905220600754600f8110610aee57fe5b01556001600160a01b0387166000908152600c60205260409020600754610b1b918491600f8110610ab457fe5b6001600160a01b0388166000908152600c60205260409020600754600f8110610b4057fe5b01556001600160a01b038088166000908152601060209081526040808320938a1683529290522054610b729082611a84565b6001600160a01b038089166000818152601060209081526040808320948c16835293815283822094909455908152600f909252902054610bb29082611a84565b6001600160a01b0388166000908152600f6020526040902055610d20565b6001600160a01b038088166000908152600e60209081526040808320938a16835292905220600754610c10918491600f8110610c0857fe5b015490611967565b6001600160a01b038089166000908152600e60209081526040808320938b16835292905220600754600f8110610c4257fe5b01556001600160a01b0387166000908152600c60205260409020600754610c6f918491600f8110610c0857fe5b6001600160a01b0388166000908152600c60205260409020600754600f8110610c9457fe5b01556001600160a01b038088166000908152601060209081526040808320938a1683529290522054610cc69082611967565b6001600160a01b038089166000818152601060209081526040808320948c16835293815283822094909455908152600f909252902054610d069082611967565b6001600160a01b0388166000908152600f60205260409020555b6001600160a01b03871660009081526008602052604090205460ff16610da4576009805460018082019092557f6e1540171b6c0c960b71a7020d9f60077f6af931a8bbf590da0223dacf75c7af0180546001600160a01b0319166001600160a01b038a169081179091556000908152600860205260409020805460ff191690911790555b5050505b50505050565b6002546001600160a01b031681565b61010081565b6004546001600160a01b031681565b600d60205281600052604060002081600f81106105f357600080fd5b600f81565b6000600f8210610e38576040805162461bcd60e51b815260206004820152600b60248201526a3b3a311034b23c1032b93960a91b604482015290519081900360640190fd5b6001600160a01b038085166000908152601260209081526040808320938716835292905220548210610e8f576001600160a01b03808516600090815260106020908152604080832093871683529290522054610ec2565b6001600160a01b038085166000908152600e6020908152604080832093871683529290522082600f8110610ebf57fe5b01545b949350505050565b60098181548110610eda57600080fd5b6000918252602090912001546001600160a01b0316905081565b6903f870857a3e0e38000081565b600e60205282600052604060002060205281600052604060002081600f8110610f2a57600080fd5b0154925083915050565b6000546201000090046001600160a01b03163314610f83576040805162461bcd60e51b81526020600482015260076024820152663130b21033b7bb60c91b604482015290519081900360640190fd5b600280546001600160a01b0319166001600160a01b0392909216919091179055565b6001546001600160a01b031681565b6000546201000090046001600160a01b03163314611003576040805162461bcd60e51b81526020600482015260076024820152663130b21033b7bb60c91b604482015290519081900360640190fd5b6004546001600160a01b0316611060576040805162461bcd60e51b815260206004820152601f60248201527f646973747269627574653a206e6f206f7261636c6520617661696c61626c6500604482015290519081900360640190fd5b600061107d60065461045c6005544361196790919063ffffffff16565b9050600081116110be5760405162461bcd60e51b815260040180806020018281038252602c81526020018061206c602c913960400191505060405180910390fd5b6110ca600f6001611a84565b81106111075760405162461bcd60e51b815260040180806020018281038252602a815260200180611fcc602a913960400191505060405180910390fd5b6000611114826001611967565b6000818152600b602052604090205490915060ff16156111655760405162461bcd60e51b81526004018080602001828103825260258152602001806120476025913960400191505060405180910390fd5b6000818152600a60205260408082206002015460035482516340c10f1960e01b815230600482015260248101839052925191936001600160a01b03909116926340c10f19926044808301939282900301818387803b1580156111c657600080fd5b505af11580156111da573d6000803e3d6000fd5b505050506000610100600980549050106111f6576101006111fa565b6009545b905060008060005b838110156112fe57600454600980546000926001600160a01b0316916341976e09918590811061122e57fe5b60009182526020918290200154604080516001600160e01b031960e086901b1681526001600160a01b0390921660048301525160248083019392829003018186803b15801561127c57600080fd5b505afa158015611290573d6000803e3d6000fd5b505050506040513d60208110156112a657600080fd5b5051600980549192506000916112e6916112df91869081106112c457fe5b6000918252602090912001546001600160a01b03168a610789565b8390611a2b565b90506112f28582611a84565b94505050600101611202565b50811561143a5760005b8381101561143857600454600980546000926001600160a01b0316916341976e09918590811061133457fe5b60009182526020918290200154604080516001600160e01b031960e086901b1681526001600160a01b0390921660048301525160248083019392829003018186803b15801561138257600080fd5b505afa158015611396573d6000803e3d6000fd5b505050506040513d60208110156113ac57600080fd5b5051600980549192506000916113ca916112df91869081106112c457fe5b905060006113dc8661045c848b611a2b565b90506113e88582611a84565b945080600d6000600987815481106113fc57fe5b60009182526020808320909101546001600160a01b0316835282019290925260400190208a600f811061142b57fe5b0155505050600101611308565b505b83811115611486576040805162461bcd60e51b8152602060048201526014602482015273646973747269627574653a206f766572666c6f7760601b604482015290519081900360640190fd5b505050600091825250600b60205260409020805460ff1916600117905550565b60006114c360065461045c6005544361196790919063ffffffff16565b9050600081116115045760405162461bcd60e51b8152600401808060200182810382526022815260200180611f306022913960400191505060405180910390fd5b60095433906000906101001161151c57610100611520565b6009545b90506000805b828110156115fd5760006009828154811061153d57fe5b60009182526020822001546001600160a01b031691505b86811080156115635750600f81105b156115f3576000611575838884610df3565b90506000811180156115905750600061158e8484610789565b115b156115ea5760006115a46105438585610789565b90506115b08682611a84565b6001600160a01b038086166000908152600e60209081526040808320938d1683529290529081209197509084600f81106115e657fe5b0155505b50600101611554565b5050600101611526565b508015610da8576003546040805163095ea7b360e01b815230600482015260006024820181905291516001600160a01b039093169263095ea7b392604480840193602093929083900390910190829087803b15801561165b57600080fd5b505af115801561166f573d6000803e3d6000fd5b505050506040513d602081101561168557600080fd5b50516116d8576040805162461bcd60e51b815260206004820152601a60248201527f6469737472696275746f7220617070726f7665206661696c6564000000000000604482015290519081900360640190fd5b6003546040805163095ea7b360e01b81523060048201526024810184905290516001600160a01b039092169163095ea7b3916044808201926020929091908290030181600087803b15801561172c57600080fd5b505af1158015611740573d6000803e3d6000fd5b505050506040513d602081101561175657600080fd5b50516117a9576040805162461bcd60e51b815260206004820152601d60248201527f4e75744469737420617070726f766520616d6f756e74206661696c6564000000604482015290519081900360640190fd5b600354604080516323b872dd60e01b81523060048201526001600160a01b03868116602483015260448201859052915191909216916323b872dd9160648083019260209291908290030181600087803b15801561180557600080fd5b505af1158015611819573d6000803e3d6000fd5b505050506040513d602081101561182f57600080fd5b5051610da8576040805162461bcd60e51b815260206004820152601760248201527f4e757444697374207472616e73666572206661696c6564000000000000000000604482015290519081900360640190fd5b6001546001600160a01b031633146118cb576040805162461bcd60e51b81526020600482015260076024820152661b9bc81c195b9960ca1b604482015290519081900360640190fd5b600180546001600160a01b03191690556000805462010000600160b01b031916336201000002179055565b6000546201000090046001600160a01b03163314611945576040805162461bcd60e51b81526020600482015260076024820152663130b21033b7bb60c91b604482015290519081900360640190fd5b600180546001600160a01b0319166001600160a01b0392909216919091179055565b6000828211156119be576040805162461bcd60e51b815260206004820152601e60248201527f536166654d6174683a207375627472616374696f6e206f766572666c6f770000604482015290519081900360640190fd5b50900390565b6000808211611a1a576040805162461bcd60e51b815260206004820152601a60248201527f536166654d6174683a206469766973696f6e206279207a65726f000000000000604482015290519081900360640190fd5b818381611a2357fe5b049392505050565b600082611a3a57506000610839565b82820282848281611a4757fe5b04146108365760405162461bcd60e51b8152600401808060200182810382526021815260200180611fab6021913960400191505060405180910390fd5b600082820183811015610836576040805162461bcd60e51b815260206004820152601b60248201527f536166654d6174683a206164646974696f6e206f766572666c6f770000000000604482015290519081900360640190fd5b6000611ae930611d74565b15905090565b600054610100900460ff1680611b085750611b08611ade565b80611b16575060005460ff16155b611b515760405162461bcd60e51b815260040180806020018281038252602e815260200180611f7d602e913960400191505060405180910390fd5b600054610100900460ff16158015611b7c576000805460ff1961ff0019909116610100171660011790555b6000805462010000600160b01b031916620100006001600160a01b038516021790558015611bb0576000805461ff00191690555b5050565b6007546001600160a01b038084166000908152601260209081526040808320938616835292905220541180611bec5750600f60075410155b15611bf657611bb0565b6001600160a01b038083166000818152601060209081526040808320948616808452948252808320549383526012825280832094835293905291909120545b6007548111611c7a576001600160a01b038085166000908152600e60209081526040808320938716835292905220829082600f8110611c7057fe5b0155600101611c35565b50600754611c89906001611a84565b6001600160a01b03808516600090815260126020908152604080832093871683529290522055505050565b6007546001600160a01b0382166000908152601160205260409020541180611cdf5750600f60075410155b15611ce957611d71565b6001600160a01b0381166000908152600f60209081526040808320546011909252909120545b6007548111611d47576001600160a01b0383166000908152600c60205260409020829082600f8110611d3d57fe5b0155600101611d0f565b50600754611d56906001611a84565b6001600160a01b038316600090815260116020526040902055505b50565b803b15155b919050565b80356001600160a01b0381168114611d7957600080fd5b600060208284031215611da6578081fd5b61083682611d7e565b60008060408385031215611dc1578081fd5b611dca83611d7e565b9150611dd860208401611d7e565b90509250929050565b600080600060608486031215611df5578081fd5b611dfe84611d7e565b9250611e0c60208501611d7e565b9150604084013590509250925092565b60008060008060808587031215611e31578081fd5b611e3a85611d7e565b9350611e4860208601611d7e565b93969395505050506040820135916060013590565b60008060408385031215611e6f578182fd5b611e7883611d7e565b946020939093013593505050565b600060208284031215611e97578081fd5b5035919050565b6001600160a01b0391909116815260200190565b901515815260200190565b6000602080835283518082850152825b81811015611ee957858101830151858201604001528201611ecd565b81811115611efa5783604083870101525b50601f01601f1916929092016040019392505050565b90815260200190565b928352602083019190915260408201526060019056fe636f6c6c6563743a20646973747269627574696f6e20697320636f6d706c657465647570646174655674623a2075706461746520616d6f756e742073686f756c6420626520706f736974697665496e697469616c697a61626c653a20636f6e747261637420697320616c726561647920696e697469616c697a6564536166654d6174683a206d756c7469706c69636174696f6e206f766572666c6f77646973747269627574653a206e757420746f6b656e20646973747269627574696f6e206973206f766572676574436f6c6c656374696f6e416d6f756e743a20646973747269627574696f6e20697320636f6d706c657465647570646174655674623a2075706461746520616d6f756e7420697320696e76616c6964646973747269627574653a20646973747269627574696f6e20697320636f6d706c65746564646973747269627574653a206e757420746f6b656e20646973747269627574696f6e206e6f74207265616479a2646970667358221220aa46cd0a1e15883abb5d68062eceaf03e7478ab92fb90dc902ecf4f840e7388064736f6c63430007060033",
  "immutableReferences": {},
  "source": "// SPDX-License-Identifier: MIT\n\npragma solidity 0.7.6;\npragma experimental ABIEncoderV2;\nimport \"../Nutmeg.sol\";\n\n// @notice This contract is a version of Nutmeg that contains additional\n// interfaces for testing\n\ncontract NutmegAltA is Nutmeg {\n    //@notice output version string\n    function getVersionString()\n    external virtual pure returns (string memory) {\n        return \"nutmegalta\";\n   }\n}\n\ncontract NutmegAltB is Nutmeg {\n    //@notice output version string\n    function getVersionString()\n    external virtual pure returns (string memory) {\n        return \"nutmegaltb\";\n   }\n}\n\nimport \"../NutDistributor.sol\";\nimport \"@openzeppelin/contracts/token/ERC20/SafeERC20.sol\";\n\n// @notice This contract is a version of NutDistributor that allows\n// the epoch intervals to be changed for testing\n\ncontract NutDistributorAltA is NutDistributor {\n    //@notice output version string\n    function getVersionString()\n    external virtual pure override returns (string memory) {\n        return \"nutdistributoralta\";\n   }\n}\n\ncontract NutDistributorAltB is NutDistributor {\n    //@notice output version string\n    function getVersionString()\n    external virtual pure override returns (string memory) {\n        return \"nutdistributoraltb\";\n   }\n}\n\nimport \"./MockERC20.sol\";\n\ncontract MockERC20AltA is\nMockERC20(\"MockERC20AltA\", \"MOCKERC20ALTA\", 18) {\n}\n\ncontract MockERC20AltB is\nMockERC20(\"MockERC20AltB\", \"MOCKERC20ALTB\", 18) {\n}\n\ncontract MockERC20AltC is\nMockERC20(\"MockERC20AltC\", \"MOCKERC20ALTC\", 6) {\n}\n\nimport \"./MockCERC20.sol\";\n\ncontract MockCERC20AltA is MockCERC20Base {\n    constructor(address tokenAddr)\n    MockCERC20Base(tokenAddr, \"MockCERC20 AltA\", \"MOCKCERC20ALTA\", 18) {\n    }\n}\ncontract MockCERC20AltB is MockCERC20Base {\n    constructor(address tokenAddr)\n    MockCERC20Base(tokenAddr, \"MockCERC20 AltB\", \"MOCKCERC20ALTB\", 18) {\n    }\n}\ncontract MockCERC20AltC is MockCERC20Base {\n    constructor(address tokenAddr)\n    MockCERC20Base(tokenAddr, \"MockCERC20 AltC\", \"MOCKCERC20ALTC\", 6) {\n    }\n}\n\nimport \"../adapters/CompoundAdapter.sol\";\nimport \"../interfaces/INutmeg.sol\";\ncontract CompoundAdapterAltA is CompoundAdapter {\n    constructor(INutmeg nutmegAddr) CompoundAdapter(nutmegAddr) {\n    }\n}\n\ncontract CompoundAdapterAltB is CompoundAdapter {\n    constructor(INutmeg nutmegAddr) CompoundAdapter(nutmegAddr) {\n    }\n}\n",
  "sourcePath": "/home/joe/local2/bench/git/nutmeg.0501/contracts/mock/AltContracts.sol",
  "compiler": {
    "name": "solc",
    "version": "0.7.6+commit.7338295f.Emscripten.clang"
  },
  "schemaVersion": "3.3.4",
  "updatedAt": "2021-05-04T05:14:42.006Z",
  "networkType": "ethereum",
  "devdoc": {
    "kind": "dev",
    "methods": {
      "acceptGovernor()": {
        "details": "Accept to become the new governor. Must be called by the pending governor."
      },
      "collect()": {
        "details": "Collect Nut tokens"
      },
      "distribute()": {
        "details": "Distribute NUT tokens for the previous epoch"
      },
      "getCollectionAmount()": {
        "details": "getCollectionAmount get the # of NUT tokens for collection"
      },
      "setNutmegAddress(address)": {
        "details": "Set the Nutmeg"
      },
      "setPendingGovernor(address)": {
        "details": "Set the pending governor, which will be the governor once accepted.",
        "params": {
          "addr": "The address of the pending governor."
        }
      },
      "setPriceOracle(address)": {
        "details": "Set the oracle"
      },
      "updateVtb(address,address,uint256,uint256)": {
        "params": {
          "decAmount": "false=subtract/unstake true=add/stake",
          "incAmount": "to stake or unstake",
          "lender": "Address of the lender.",
          "token": "Base token of the pool."
        }
      }
    },
    "version": 1
  },
  "userdoc": {
    "kind": "user",
    "methods": {
      "updateVtb(address,address,uint256,uint256)": {
        "notice": "Update valueTimesBlocks of pools and the lender when they stake or unstake"
      }
    },
    "version": 1
  }
}