{
  "contractName": "NutDistributor",
  "abi": [
    {
      "inputs": [],
      "name": "BLOCKS_PER_EPOCH",
      "outputs": [
        {
          "internalType": "uint256",
          "name": "",
          "type": "uint256"
        }
      ],
      "stateMutability": "view",
      "type": "function",
      "constant": true
    },
    {
      "inputs": [],
      "name": "CURRENT_EPOCH",
      "outputs": [
        {
          "internalType": "uint256",
          "name": "",
          "type": "uint256"
        }
      ],
      "stateMutability": "view",
      "type": "function",
      "constant": true
    },
    {
      "inputs": [],
      "name": "DIST_MIN_AMOUNT",
      "outputs": [
        {
          "internalType": "uint256",
          "name": "",
          "type": "uint256"
        }
      ],
      "stateMutability": "view",
      "type": "function",
      "constant": true
    },
    {
      "inputs": [],
      "name": "DIST_START_AMOUNT",
      "outputs": [
        {
          "internalType": "uint256",
          "name": "",
          "type": "uint256"
        }
      ],
      "stateMutability": "view",
      "type": "function",
      "constant": true
    },
    {
      "inputs": [],
      "name": "DIST_START_BLOCK",
      "outputs": [
        {
          "internalType": "uint256",
          "name": "",
          "type": "uint256"
        }
      ],
      "stateMutability": "view",
      "type": "function",
      "constant": true
    },
    {
      "inputs": [],
      "name": "MAX_NUM_POOLS",
      "outputs": [
        {
          "internalType": "uint256",
          "name": "",
          "type": "uint256"
        }
      ],
      "stateMutability": "view",
      "type": "function",
      "constant": true
    },
    {
      "inputs": [],
      "name": "NUM_EPOCH",
      "outputs": [
        {
          "internalType": "uint256",
          "name": "",
          "type": "uint256"
        }
      ],
      "stateMutability": "view",
      "type": "function",
      "constant": true
    },
    {
      "inputs": [],
      "name": "acceptGovernor",
      "outputs": [],
      "stateMutability": "nonpayable",
      "type": "function"
    },
    {
      "inputs": [
        {
          "internalType": "uint256",
          "name": "",
          "type": "uint256"
        }
      ],
      "name": "distCompletionMap",
      "outputs": [
        {
          "internalType": "bool",
          "name": "",
          "type": "bool"
        }
      ],
      "stateMutability": "view",
      "type": "function",
      "constant": true
    },
    {
      "inputs": [
        {
          "internalType": "uint256",
          "name": "",
          "type": "uint256"
        }
      ],
      "name": "echoMap",
      "outputs": [
        {
          "internalType": "uint256",
          "name": "id",
          "type": "uint256"
        },
        {
          "internalType": "uint256",
          "name": "endBlock",
          "type": "uint256"
        },
        {
          "internalType": "uint256",
          "name": "amount",
          "type": "uint256"
        }
      ],
      "stateMutability": "view",
      "type": "function",
      "constant": true
    },
    {
      "inputs": [],
      "name": "governor",
      "outputs": [
        {
          "internalType": "address",
          "name": "",
          "type": "address"
        }
      ],
      "stateMutability": "view",
      "type": "function",
      "constant": true
    },
    {
      "inputs": [],
      "name": "nut",
      "outputs": [
        {
          "internalType": "address",
          "name": "",
          "type": "address"
        }
      ],
      "stateMutability": "view",
      "type": "function",
      "constant": true
    },
    {
      "inputs": [],
      "name": "nutmeg",
      "outputs": [
        {
          "internalType": "address",
          "name": "",
          "type": "address"
        }
      ],
      "stateMutability": "view",
      "type": "function",
      "constant": true
    },
    {
      "inputs": [],
      "name": "oracle",
      "outputs": [
        {
          "internalType": "address",
          "name": "",
          "type": "address"
        }
      ],
      "stateMutability": "view",
      "type": "function",
      "constant": true
    },
    {
      "inputs": [],
      "name": "pendingGovernor",
      "outputs": [
        {
          "internalType": "address",
          "name": "",
          "type": "address"
        }
      ],
      "stateMutability": "view",
      "type": "function",
      "constant": true
    },
    {
      "inputs": [
        {
          "internalType": "uint256",
          "name": "",
          "type": "uint256"
        }
      ],
      "name": "pools",
      "outputs": [
        {
          "internalType": "address",
          "name": "",
          "type": "address"
        }
      ],
      "stateMutability": "view",
      "type": "function",
      "constant": true
    },
    {
      "inputs": [
        {
          "internalType": "address",
          "name": "addr",
          "type": "address"
        }
      ],
      "name": "setPendingGovernor",
      "outputs": [],
      "stateMutability": "nonpayable",
      "type": "function"
    },
    {
      "inputs": [
        {
          "internalType": "address",
          "name": "",
          "type": "address"
        },
        {
          "internalType": "uint256",
          "name": "",
          "type": "uint256"
        }
      ],
      "name": "totalNutMap",
      "outputs": [
        {
          "internalType": "uint256",
          "name": "",
          "type": "uint256"
        }
      ],
      "stateMutability": "view",
      "type": "function",
      "constant": true
    },
    {
      "inputs": [
        {
          "internalType": "address",
          "name": "",
          "type": "address"
        },
        {
          "internalType": "uint256",
          "name": "",
          "type": "uint256"
        }
      ],
      "name": "totalVtbMap",
      "outputs": [
        {
          "internalType": "uint256",
          "name": "",
          "type": "uint256"
        }
      ],
      "stateMutability": "view",
      "type": "function",
      "constant": true
    },
    {
      "inputs": [
        {
          "internalType": "address",
          "name": "",
          "type": "address"
        },
        {
          "internalType": "address",
          "name": "",
          "type": "address"
        },
        {
          "internalType": "uint256",
          "name": "",
          "type": "uint256"
        }
      ],
      "name": "vtbMap",
      "outputs": [
        {
          "internalType": "uint256",
          "name": "",
          "type": "uint256"
        }
      ],
      "stateMutability": "view",
      "type": "function",
      "constant": true
    },
    {
      "inputs": [
        {
          "internalType": "address",
          "name": "addr",
          "type": "address"
        }
      ],
      "name": "setNutmegAddress",
      "outputs": [],
      "stateMutability": "nonpayable",
      "type": "function"
    },
    {
      "inputs": [
        {
          "internalType": "address",
          "name": "addr",
          "type": "address"
        }
      ],
      "name": "setPriceOracle",
      "outputs": [],
      "stateMutability": "nonpayable",
      "type": "function"
    },
    {
      "inputs": [
        {
          "internalType": "address",
          "name": "nutAddr",
          "type": "address"
        },
        {
          "internalType": "address",
          "name": "_governor",
          "type": "address"
        }
      ],
      "name": "initialize",
      "outputs": [],
      "stateMutability": "nonpayable",
      "type": "function"
    },
    {
      "inputs": [],
      "name": "inNutDistribution",
      "outputs": [
        {
          "internalType": "bool",
          "name": "",
          "type": "bool"
        }
      ],
      "stateMutability": "view",
      "type": "function",
      "constant": true
    },
    {
      "inputs": [
        {
          "internalType": "address",
          "name": "token",
          "type": "address"
        },
        {
          "internalType": "address",
          "name": "lender",
          "type": "address"
        },
        {
          "internalType": "uint256",
          "name": "incAmount",
          "type": "uint256"
        },
        {
          "internalType": "uint256",
          "name": "decAmount",
          "type": "uint256"
        }
      ],
      "name": "updateVtb",
      "outputs": [],
      "stateMutability": "nonpayable",
      "type": "function"
    },
    {
      "inputs": [],
      "name": "distribute",
      "outputs": [],
      "stateMutability": "nonpayable",
      "type": "function"
    },
    {
      "inputs": [],
      "name": "collect",
      "outputs": [],
      "stateMutability": "nonpayable",
      "type": "function"
    },
    {
      "inputs": [],
      "name": "getCollectionAmount",
      "outputs": [
        {
          "internalType": "uint256",
          "name": "",
          "type": "uint256"
        }
      ],
      "stateMutability": "view",
      "type": "function",
      "constant": true
    },
    {
      "inputs": [
        {
          "internalType": "address",
          "name": "pool",
          "type": "address"
        },
        {
          "internalType": "address",
          "name": "lender",
          "type": "address"
        },
        {
          "internalType": "uint256",
          "name": "i",
          "type": "uint256"
        }
      ],
      "name": "getVtb",
      "outputs": [
        {
          "internalType": "uint256",
          "name": "",
          "type": "uint256"
        }
      ],
      "stateMutability": "view",
      "type": "function",
      "constant": true
    },
    {
      "inputs": [
        {
          "internalType": "address",
          "name": "pool",
          "type": "address"
        },
        {
          "internalType": "uint256",
          "name": "i",
          "type": "uint256"
        }
      ],
      "name": "getTotalVtb",
      "outputs": [
        {
          "internalType": "uint256",
          "name": "",
          "type": "uint256"
        }
      ],
      "stateMutability": "view",
      "type": "function",
      "constant": true
    },
    {
      "inputs": [],
      "name": "getVersionString",
      "outputs": [
        {
          "internalType": "string",
          "name": "",
          "type": "string"
        }
      ],
      "stateMutability": "pure",
      "type": "function",
      "constant": true
    }
  ],
  "bytecode": "0x608060405234801561001057600080fd5b506120bc806100206000396000f3fe608060405234801561001057600080fd5b50600436106101e55760003560e01c8063625372db1161010f578063ad8102fa116100a2578063e4fc6b6d11610071578063e4fc6b6d14610536578063e52253811461053e578063e58bb63914610546578063f235757f1461054e576101e5565b8063ad8102fa146104ca578063bf47c264146104d2578063d44b7af114610508578063e3056a341461052e576101e5565b80638b159cee116100de5780638b159cee146104435780639107a25f1461046f578063960874d814610477578063ac4afa38146104ad576101e5565b8063625372db146103ef578063656d565e1461042b578063763f31a2146104335780637dc0d1d01461043b576101e5565b80632c6bb55411610187578063485cc95511610156578063485cc955146103325780634ce41ac0146103625780634d24cff01461039d578063530e784f146103c9576101e5565b80632c6bb554146102ee578063325140ea146102f65780633d02df6f146102fe5780633fde3f9f14610306576101e5565b8063153173d6116101c3578063153173d6146102a557806315d3b7a0146102d65780631f3adc0f146102de57806329624207146102e6576101e5565b80630374119e146101ea57806305b540f2146102045780630c340a2414610281575b600080fd5b6101f2610574565b60408051918252519081900360200190f35b61020c610582565b6040805160208082528351818301528351919283929083019185019080838360005b8381101561024657818101518382015260200161022e565b50505050905090810190601f1680156102735780820380516001836020036101000a031916815260200191505b509250505060405180910390f35b61028961059d565b604080516001600160a01b039092168252519081900360200190f35b6102c2600480360360208110156102bb57600080fd5b50356105b2565b604080519115158252519081900360200190f35b6102896105c7565b6101f26105d6565b6101f26105dc565b6101f26105e2565b6101f2610743565b6102c2610749565b6101f26004803603604081101561031c57600080fd5b506001600160a01b03813516906020013561077b565b6103606004803603604081101561034857600080fd5b506001600160a01b03813581169160200135166107a0565b005b61037f6004803603602081101561037857600080fd5b503561090c565b60408051938452602084019290925282820152519081900360600190f35b6101f2600480360360408110156103b357600080fd5b506001600160a01b03813516906020013561092d565b610360600480360360208110156103df57600080fd5b50356001600160a01b03166109e3565b6103606004803603608081101561040557600080fd5b506001600160a01b03813581169160208101359091169060408101359060600135610a54565b610289610f52565b6101f2610f61565b610289610f67565b6101f26004803603604081101561045957600080fd5b506001600160a01b038135169060200135610f76565b6101f2610f92565b6101f26004803603606081101561048d57600080fd5b506001600160a01b03813581169160208101359091169060400135610f97565b610289600480360360208110156104c357600080fd5b503561106e565b6101f2611098565b6101f2600480360360608110156104e857600080fd5b506001600160a01b038135811691602081013590911690604001356110a6565b6103606004803603602081101561051e57600080fd5b50356001600160a01b03166110d8565b610289611149565b610360611158565b61036061164a565b610360611a26565b6103606004803603602081101561056457600080fd5b50356001600160a01b0316611a9a565b6934f086f3b33b6840000081565b6040805180820190915260018152603160f81b602082015290565b6000546201000090046001600160a01b031681565b600b6020526000908152604090205460ff1681565b6003546001600160a01b031681565b60065481565b60075481565b60008061060660065461060060055443611b0b90919063ffffffff16565b90611b68565b9050600081116106475760405162461bcd60e51b815260040180806020018281038252602e815260200180611fe5602e913960400191505060405180910390fd5b60095433906000906101001161065f57610100610663565b6009545b90506000805b8281101561073a5760006009828154811061068057fe5b60009182526020822001546001600160a01b031691505b86811080156106a65750600f81105b156107305760006106b8838884610f97565b90506000811180156106d3575060006106d1848461092d565b115b156107275760006107176106e7858561092d565b6001600160a01b0386166000908152600d602052604090206106009086600f811061070e57fe5b01548590611bcf565b90506107238682611c28565b9550505b50600101610697565b5050600101610669565b50935050505090565b60055481565b6000600554431015801561077657506006546107739061076a90600f611bcf565b60055490611c28565b43105b905090565b600c60205281600052604060002081600f811061079757600080fd5b01549150829050565b600054610100900460ff16806107b957506107b9611c82565b806107c7575060005460ff16155b6108025760405162461bcd60e51b815260040180806020018281038252602e815260200180611f6c602e913960400191505060405180910390fd5b600054610100900460ff1615801561082d576000805460ff1961ff0019909116610100171660011790555b600380546001600160a01b0319166001600160a01b0385161790554360055562013b0060065561085c82611c93565b60005b600f8110156108f4576000818152600a6020526040902081815561089361076a61088a846001611c28565b60065490611bcf565b816001018190555060006108c56108b4600185611c2890919063ffffffff16565b6934f086f3b33b6840000090611b68565b90506903f870857a3e0e3800008110156108e657506903f870857a3e0e3800005b60029091015560010161085f565b508015610907576000805461ff00191690555b505050565b600a6020526000908152604090208054600182015460029092015490919083565b6000600f8210610977576040805162461bcd60e51b815260206004820152601060248201526f3a37ba30b62b3a311034b23c1032b93960811b604482015290519081900360640190fd5b6001600160a01b03831660009081526011602052604090205482106109b4576001600160a01b0383166000908152600f60205260409020546109da565b6001600160a01b0383166000908152600c6020526040902082600f81106109d757fe5b01545b90505b92915050565b6000546201000090046001600160a01b03163314610a32576040805162461bcd60e51b81526020600482015260076024820152663130b21033b7bb60c91b604482015290519081900360640190fd5b600480546001600160a01b0319166001600160a01b0392909216919091179055565b6002546001600160a01b03163314610aaa576040805162461bcd60e51b81526020600482015260146024820152731bdb9b1e481b9d5d1b5959c818d85b8818d85b1b60621b604482015290519081900360640190fd5b600554431015610b01576040805162461bcd60e51b815260206004820152601f60248201527f7570646174655674623a20696e76616c696420626c6f636b206e756d62657200604482015290519081900360640190fd5b811580610b0c575080155b610b475760405162461bcd60e51b81526004018080602001828103825260238152602001806120136023913960400191505060405180910390fd5b6000610b538383611c28565b905060008111610b945760405162461bcd60e51b815260040180806020018281038252602b815260200180611f41602b913960400191505060405180910390fd5b610baf60065461060060055443611b0b90919063ffffffff16565b6007819055600f11610bc15750610f4c565b610bcb8585611d58565b610bd485611e58565b6007546000908152600a6020526040812060010154610bff908390610bf99043611b0b565b90611bcf565b90506000610c1883600654611bcf90919063ffffffff16565b90508415610d74576001600160a01b038088166000908152600e60209081526040808320938a16835292905220600754610c60918491600f8110610c5857fe5b015490611c28565b6001600160a01b038089166000908152600e60209081526040808320938b16835292905220600754600f8110610c9257fe5b01556001600160a01b0387166000908152600c60205260409020600754610cbf918491600f8110610c5857fe5b6001600160a01b0388166000908152600c60205260409020600754600f8110610ce457fe5b01556001600160a01b038088166000908152601060209081526040808320938a1683529290522054610d169082611c28565b6001600160a01b038089166000818152601060209081526040808320948c16835293815283822094909455908152600f909252902054610d569082611c28565b6001600160a01b0388166000908152600f6020526040902055610ec4565b6001600160a01b038088166000908152600e60209081526040808320938a16835292905220600754610db4918491600f8110610dac57fe5b015490611b0b565b6001600160a01b038089166000908152600e60209081526040808320938b16835292905220600754600f8110610de657fe5b01556001600160a01b0387166000908152600c60205260409020600754610e13918491600f8110610dac57fe5b6001600160a01b0388166000908152600c60205260409020600754600f8110610e3857fe5b01556001600160a01b038088166000908152601060209081526040808320938a1683529290522054610e6a9082611b0b565b6001600160a01b038089166000818152601060209081526040808320948c16835293815283822094909455908152600f909252902054610eaa9082611b0b565b6001600160a01b0388166000908152600f60205260409020555b6001600160a01b03871660009081526008602052604090205460ff16610f48576009805460018082019092557f6e1540171b6c0c960b71a7020d9f60077f6af931a8bbf590da0223dacf75c7af0180546001600160a01b0319166001600160a01b038a169081179091556000908152600860205260409020805460ff191690911790555b5050505b50505050565b6002546001600160a01b031681565b61010081565b6004546001600160a01b031681565b600d60205281600052604060002081600f811061079757600080fd5b600f81565b6000600f8210610fdc576040805162461bcd60e51b815260206004820152600b60248201526a3b3a311034b23c1032b93960a91b604482015290519081900360640190fd5b6001600160a01b038085166000908152601260209081526040808320938716835292905220548210611033576001600160a01b03808516600090815260106020908152604080832093871683529290522054611066565b6001600160a01b038085166000908152600e6020908152604080832093871683529290522082600f811061106357fe5b01545b949350505050565b6009818154811061107e57600080fd5b6000918252602090912001546001600160a01b0316905081565b6903f870857a3e0e38000081565b600e60205282600052604060002060205281600052604060002081600f81106110ce57600080fd5b0154925083915050565b6000546201000090046001600160a01b03163314611127576040805162461bcd60e51b81526020600482015260076024820152663130b21033b7bb60c91b604482015290519081900360640190fd5b600280546001600160a01b0319166001600160a01b0392909216919091179055565b6001546001600160a01b031681565b6000546201000090046001600160a01b031633146111a7576040805162461bcd60e51b81526020600482015260076024820152663130b21033b7bb60c91b604482015290519081900360640190fd5b6004546001600160a01b0316611204576040805162461bcd60e51b815260206004820152601f60248201527f646973747269627574653a206e6f206f7261636c6520617661696c61626c6500604482015290519081900360640190fd5b600061122160065461060060055443611b0b90919063ffffffff16565b9050600081116112625760405162461bcd60e51b815260040180806020018281038252602c81526020018061205b602c913960400191505060405180910390fd5b61126e600f6001611c28565b81106112ab5760405162461bcd60e51b815260040180806020018281038252602a815260200180611fbb602a913960400191505060405180910390fd5b60006112b8826001611b0b565b6000818152600b602052604090205490915060ff16156113095760405162461bcd60e51b81526004018080602001828103825260258152602001806120366025913960400191505060405180910390fd5b6000818152600a60205260408082206002015460035482516340c10f1960e01b815230600482015260248101839052925191936001600160a01b03909116926340c10f19926044808301939282900301818387803b15801561136a57600080fd5b505af115801561137e573d6000803e3d6000fd5b5050505060006101006009805490501061139a5761010061139e565b6009545b905060008060005b838110156114a257600454600980546000926001600160a01b0316916341976e0991859081106113d257fe5b60009182526020918290200154604080516001600160e01b031960e086901b1681526001600160a01b0390921660048301525160248083019392829003018186803b15801561142057600080fd5b505afa158015611434573d6000803e3d6000fd5b505050506040513d602081101561144a57600080fd5b50516009805491925060009161148a91611483918690811061146857fe5b6000918252602090912001546001600160a01b03168a61092d565b8390611bcf565b90506114968582611c28565b945050506001016113a6565b5081156115de5760005b838110156115dc57600454600980546000926001600160a01b0316916341976e0991859081106114d857fe5b60009182526020918290200154604080516001600160e01b031960e086901b1681526001600160a01b0390921660048301525160248083019392829003018186803b15801561152657600080fd5b505afa15801561153a573d6000803e3d6000fd5b505050506040513d602081101561155057600080fd5b50516009805491925060009161156e91611483918690811061146857fe5b9050600061158086610600848b611bcf565b905061158c8582611c28565b945080600d6000600987815481106115a057fe5b60009182526020808320909101546001600160a01b0316835282019290925260400190208a600f81106115cf57fe5b01555050506001016114ac565b505b8381111561162a576040805162461bcd60e51b8152602060048201526014602482015273646973747269627574653a206f766572666c6f7760601b604482015290519081900360640190fd5b505050600091825250600b60205260409020805460ff1916600117905550565b600061166760065461060060055443611b0b90919063ffffffff16565b9050600081116116a85760405162461bcd60e51b8152600401808060200182810382526022815260200180611f1f6022913960400191505060405180910390fd5b6009543390600090610100116116c0576101006116c4565b6009545b90506000805b828110156117a1576000600982815481106116e157fe5b60009182526020822001546001600160a01b031691505b86811080156117075750600f81105b15611797576000611719838884610f97565b905060008111801561173457506000611732848461092d565b115b1561178e5760006117486106e7858561092d565b90506117548682611c28565b6001600160a01b038086166000908152600e60209081526040808320938d1683529290529081209197509084600f811061178a57fe5b0155505b506001016116f8565b50506001016116ca565b508015610f4c576003546040805163095ea7b360e01b815230600482015260006024820181905291516001600160a01b039093169263095ea7b392604480840193602093929083900390910190829087803b1580156117ff57600080fd5b505af1158015611813573d6000803e3d6000fd5b505050506040513d602081101561182957600080fd5b505161187c576040805162461bcd60e51b815260206004820152601a60248201527f6469737472696275746f7220617070726f7665206661696c6564000000000000604482015290519081900360640190fd5b6003546040805163095ea7b360e01b81523060048201526024810184905290516001600160a01b039092169163095ea7b3916044808201926020929091908290030181600087803b1580156118d057600080fd5b505af11580156118e4573d6000803e3d6000fd5b505050506040513d60208110156118fa57600080fd5b505161194d576040805162461bcd60e51b815260206004820152601d60248201527f4e75744469737420617070726f766520616d6f756e74206661696c6564000000604482015290519081900360640190fd5b600354604080516323b872dd60e01b81523060048201526001600160a01b03868116602483015260448201859052915191909216916323b872dd9160648083019260209291908290030181600087803b1580156119a957600080fd5b505af11580156119bd573d6000803e3d6000fd5b505050506040513d60208110156119d357600080fd5b5051610f4c576040805162461bcd60e51b815260206004820152601760248201527f4e757444697374207472616e73666572206661696c6564000000000000000000604482015290519081900360640190fd5b6001546001600160a01b03163314611a6f576040805162461bcd60e51b81526020600482015260076024820152661b9bc81c195b9960ca1b604482015290519081900360640190fd5b600180546001600160a01b03191690556000805462010000600160b01b031916336201000002179055565b6000546201000090046001600160a01b03163314611ae9576040805162461bcd60e51b81526020600482015260076024820152663130b21033b7bb60c91b604482015290519081900360640190fd5b600180546001600160a01b0319166001600160a01b0392909216919091179055565b600082821115611b62576040805162461bcd60e51b815260206004820152601e60248201527f536166654d6174683a207375627472616374696f6e206f766572666c6f770000604482015290519081900360640190fd5b50900390565b6000808211611bbe576040805162461bcd60e51b815260206004820152601a60248201527f536166654d6174683a206469766973696f6e206279207a65726f000000000000604482015290519081900360640190fd5b818381611bc757fe5b049392505050565b600082611bde575060006109dd565b82820282848281611beb57fe5b04146109da5760405162461bcd60e51b8152600401808060200182810382526021815260200180611f9a6021913960400191505060405180910390fd5b6000828201838110156109da576040805162461bcd60e51b815260206004820152601b60248201527f536166654d6174683a206164646974696f6e206f766572666c6f770000000000604482015290519081900360640190fd5b6000611c8d30611f18565b15905090565b600054610100900460ff1680611cac5750611cac611c82565b80611cba575060005460ff16155b611cf55760405162461bcd60e51b815260040180806020018281038252602e815260200180611f6c602e913960400191505060405180910390fd5b600054610100900460ff16158015611d20576000805460ff1961ff0019909116610100171660011790555b6000805462010000600160b01b031916620100006001600160a01b038516021790558015611d54576000805461ff00191690555b5050565b6007546001600160a01b038084166000908152601260209081526040808320938616835292905220541180611d905750600f60075410155b15611d9a57611d54565b6001600160a01b038083166000818152601060209081526040808320948616808452948252808320549383526012825280832094835293905291909120545b6007548111611e1e576001600160a01b038085166000908152600e60209081526040808320938716835292905220829082600f8110611e1457fe5b0155600101611dd9565b50600754611e2d906001611c28565b6001600160a01b03808516600090815260126020908152604080832093871683529290522055505050565b6007546001600160a01b0382166000908152601160205260409020541180611e835750600f60075410155b15611e8d57611f15565b6001600160a01b0381166000908152600f60209081526040808320546011909252909120545b6007548111611eeb576001600160a01b0383166000908152600c60205260409020829082600f8110611ee157fe5b0155600101611eb3565b50600754611efa906001611c28565b6001600160a01b038316600090815260116020526040902055505b50565b3b15159056fe636f6c6c6563743a20646973747269627574696f6e20697320636f6d706c657465647570646174655674623a2075706461746520616d6f756e742073686f756c6420626520706f736974697665496e697469616c697a61626c653a20636f6e747261637420697320616c726561647920696e697469616c697a6564536166654d6174683a206d756c7469706c69636174696f6e206f766572666c6f77646973747269627574653a206e757420746f6b656e20646973747269627574696f6e206973206f766572676574436f6c6c656374696f6e416d6f756e743a20646973747269627574696f6e20697320636f6d706c657465647570646174655674623a2075706461746520616d6f756e7420697320696e76616c6964646973747269627574653a20646973747269627574696f6e20697320636f6d706c65746564646973747269627574653a206e757420746f6b656e20646973747269627574696f6e206e6f74207265616479a2646970667358221220942661725421f6624f1cdb408fbdd3f247b0825ccefeed6156262845975ec31564736f6c63430007060033",
  "immutableReferences": {},
  "source": "// SPDX-License-Identifier: MIT\n\npragma solidity 0.7.6;\n\nimport \"@openzeppelin/contracts/token/ERC20/IERC20.sol\";\nimport \"@openzeppelin/contracts/token/ERC20/SafeERC20.sol\";\nimport \"./interfaces/INutDistributor.sol\";\nimport \"./interfaces/INut.sol\";\nimport \"./interfaces/IPriceOracle.sol\";\nimport \"./lib/Governable.sol\";\n\n/*\nThis contract distributes nut tokens based on staking unstaking during\nthe staking period.  It generates an array of \"value times blocks\" for\neach token/lender pair and \"total value times block\" for each token.\nIt then distributes the rewards across the array.\n\nOne issue is that each unstake/stake requires a calculation to\ndetermine the fraction of the pool owned by a lender.  To avoid having\nto loop across all epochs and use up gas, this algorithm relies on the\nfact that all future epochs have the same value.  So the vtb and\ntotalVtb arrays keep an index of the last epoch in which there was a\npartial stake and unstake of tokens and then the epochs beyond that\nall of the same value which is stored in futureVtbMap and\nfutureTotalVtbMap.\n*/\n\ncontract NutDistributor is Governable, INutDistributor {\n    using SafeMath for uint;\n    using SafeERC20 for IERC20;\n\n    struct Echo {\n        uint id;\n        uint endBlock;\n        uint amount;\n    }\n\n    address public nutmeg;\n    address public nut;\n    address public oracle;\n\n    uint public constant MAX_NUM_POOLS = 256;\n    uint public DIST_START_BLOCK; // starting block of echo 0\n    uint public constant NUM_EPOCH = 15; // # of epochs\n    uint public BLOCKS_PER_EPOCH; // # of blocks per epoch\n    uint public constant DIST_START_AMOUNT = 250000 ether; // # of tokens distributed at epoch 0\n    uint public constant DIST_MIN_AMOUNT = 18750 ether; // min # of tokens distributed at any epoch\n\n    uint public CURRENT_EPOCH;\n    mapping(address => bool) addedPoolMap;\n    address[] public pools;\n    mapping(uint => Echo) public echoMap;\n    mapping(uint => bool) public distCompletionMap;\n\n    // the term vtb is short for value times blocks\n    mapping(address => uint[15]) public totalVtbMap; // pool => total vtb, i.e., valueTimesBlocks.\n    mapping(address => uint[15]) public totalNutMap; // pool => total Nut awarded.\n    mapping(address => mapping( address => uint[15] ) ) public vtbMap; // pool => lender => vtb.\n\n    mapping(address => uint) futureTotalVtbMap;\n    mapping(address => mapping( address => uint) ) futureVtbMap;\n    mapping(address => uint) futureTotalVtbEpoch;\n    mapping(address => mapping( address => uint) ) futureVtbEpoch;\n\n    modifier onlyNutmeg() {\n        require(msg.sender == nutmeg, 'only nutmeg can call');\n        _;\n    }\n\n    /// @dev Set the Nutmeg\n    function setNutmegAddress(address addr) external onlyGov {\n        nutmeg = addr;\n    }\n\n    /// @dev Set the oracle\n    function setPriceOracle(address addr) external onlyGov {\n        oracle = addr;\n    }\n\n    function initialize(address nutAddr, address _governor) public initializer{\n        nut = nutAddr;\n        DIST_START_BLOCK = block.number;\n        BLOCKS_PER_EPOCH = 80640;\n         __Governable__init(_governor);\n\n        // config echoMap which indicates how many tokens will be distributed at each epoch\n        for (uint i = 0; i < NUM_EPOCH; i++) {\n            Echo storage echo =  echoMap[i];\n            echo.id = i;\n            echo.endBlock = DIST_START_BLOCK.add(BLOCKS_PER_EPOCH.mul(i.add(1)));\n            uint amount = DIST_START_AMOUNT.div(i.add(1));\n            if (amount < DIST_MIN_AMOUNT) {\n                amount = DIST_MIN_AMOUNT;\n            }\n            echo.amount = amount;\n        }\n    }\n\n\n    function inNutDistribution() external override view returns(bool) {\n        return (block.number >= DIST_START_BLOCK && block.number < DIST_START_BLOCK.add(BLOCKS_PER_EPOCH.mul(NUM_EPOCH)));\n    }\n\n    /// @notice Update valueTimesBlocks of pools and the lender when they stake or unstake\n    /// @param token Base token of the pool.\n    /// @param lender Address of the lender.\n    /// @param incAmount to stake or unstake\n    /// @param decAmount false=subtract/unstake true=add/stake\n    function updateVtb(address token, address lender, uint incAmount, uint decAmount) external override onlyNutmeg {\n        require(block.number >= DIST_START_BLOCK, 'updateVtb: invalid block number');\n        require(incAmount == 0 || decAmount == 0, 'updateVtb: update amount is invalid');\n\n        uint amount = incAmount.add(decAmount);\n        require(amount > 0, 'updateVtb: update amount should be positive');\n\n        // get current epoch\n        CURRENT_EPOCH = (block.number.sub(DIST_START_BLOCK)).div(BLOCKS_PER_EPOCH);\n        if (CURRENT_EPOCH >= NUM_EPOCH) return;\n\n        _fillVtbGap(token, lender);\n        _fillTotalVtbGap(token);\n\n        uint dv = echoMap[CURRENT_EPOCH].endBlock.sub( block.number ).mul(amount);\n        uint epochDv = BLOCKS_PER_EPOCH.mul(amount);\n\n        if (incAmount > 0) {\n            vtbMap[token][lender][CURRENT_EPOCH] = vtbMap[token][lender][CURRENT_EPOCH].add(dv);\n            totalVtbMap[token][CURRENT_EPOCH] = totalVtbMap[token][CURRENT_EPOCH].add(dv);\n            futureVtbMap[token][lender] = futureVtbMap[token][lender].add(epochDv);\n            futureTotalVtbMap[token] = futureTotalVtbMap[token].add(epochDv);\n        } else {\n            vtbMap[token][lender][CURRENT_EPOCH] = vtbMap[token][lender][CURRENT_EPOCH].sub(dv);\n            totalVtbMap[token][CURRENT_EPOCH] = totalVtbMap[token][CURRENT_EPOCH].sub(dv);\n            futureVtbMap[token][lender] = futureVtbMap[token][lender].sub(epochDv);\n            futureTotalVtbMap[token] = futureTotalVtbMap[token].sub(epochDv);\n        }\n\n        if (!addedPoolMap[token]) {\n            pools.push(token);\n            addedPoolMap[token] = true;\n        }\n    }\n    // @dev This function fills the array between the last epoch at which things were calculated and the current epoch.\n    function _fillVtbGap(address token, address lender) internal {\n        if (futureVtbEpoch[token][lender] > CURRENT_EPOCH || CURRENT_EPOCH >= NUM_EPOCH ) return;\n        uint futureVtb = futureVtbMap[token][lender];\n        for (uint i = futureVtbEpoch[token][lender]; i <= CURRENT_EPOCH; i++) {\n            vtbMap[token][lender][i] = futureVtb;\n        }\n        futureVtbEpoch[token][lender] = CURRENT_EPOCH.add(1);\n    }\n\n    // @dev This function fills the array between the last epoch at which things were calculated and the current epoch.\n    function _fillTotalVtbGap(address token) internal {\n        if (futureTotalVtbEpoch[token] > CURRENT_EPOCH || CURRENT_EPOCH >= NUM_EPOCH ) return;\n        uint futureTotalVtb = futureTotalVtbMap[token];\n        for (uint i = futureTotalVtbEpoch[token]; i <= CURRENT_EPOCH; i++) {\n            totalVtbMap[token][i] = futureTotalVtb;\n        }\n        futureTotalVtbEpoch[token] = CURRENT_EPOCH.add(1);\n    }\n\n    /// @dev Distribute NUT tokens for the previous epoch\n    function distribute() external onlyGov {\n        require(oracle != address(0), 'distribute: no oracle available');\n\n        // get current epoch\n        uint currEpochId = (block.number.sub(DIST_START_BLOCK)).div(BLOCKS_PER_EPOCH);\n        require(currEpochId > 0, 'distribute: nut token distribution not ready');\n        require(currEpochId < NUM_EPOCH.add(1), 'distribute: nut token distribution is over');\n\n        // distribute the nut tokens for the previous epoch.\n        uint prevEpochId = currEpochId.sub(1);\n        require(!distCompletionMap[prevEpochId], 'distribute: distribution is completed');\n\n        // mint nut tokens\n        uint amount = echoMap[prevEpochId].amount;\n        INut(nut).mint(address(this), amount);\n\n        uint numOfPools = pools.length < MAX_NUM_POOLS ? pools.length : MAX_NUM_POOLS;\n        uint sumOfDv;\n        uint actualSumOfNut;\n        for (uint i = 0; i < numOfPools; i++) {\n            uint price = IPriceOracle(oracle).getPrice(pools[i]);\n            uint dv = price.mul(getTotalVtb(pools[i],prevEpochId));\n            sumOfDv = sumOfDv.add(dv);\n        }\n\n        if (sumOfDv > 0) {\n            for (uint i = 0; i < numOfPools; i++) {\n                uint price = IPriceOracle(oracle).getPrice(pools[i]);\n                uint dv = price.mul(getTotalVtb(pools[i], prevEpochId));\n                uint nutAmount = dv.mul(amount).div(sumOfDv);\n                actualSumOfNut = actualSumOfNut.add(nutAmount);\n                totalNutMap[pools[i]][prevEpochId] = nutAmount;\n            }\n        }\n\n        require(actualSumOfNut <= amount, \"distribute: overflow\");\n\n        distCompletionMap[prevEpochId] = true;\n    }\n\n    /// @dev Collect Nut tokens\n    function collect() external  {\n        uint epochId = (block.number.sub(DIST_START_BLOCK)).div(BLOCKS_PER_EPOCH);\n        require(epochId > 0, 'collect: distribution is completed');\n\n        address lender = msg.sender;\n\n        uint numOfPools = pools.length < MAX_NUM_POOLS ? pools.length : MAX_NUM_POOLS;\n        uint totalAmount;\n        for (uint i = 0; i < numOfPools; i++) {\n            address pool = pools[i];\n            for (uint j = 0; j < epochId && j < NUM_EPOCH; j++) {\n                uint vtb = getVtb(pool, lender, j);\n                if (vtb > 0 && getTotalVtb(pool, j) > 0) {\n                    uint amount = vtb.mul(totalNutMap[pool][j]).div(getTotalVtb(pool, j));\n                    totalAmount = totalAmount.add(amount);\n                    vtbMap[pool][lender][j] = 0;\n                }\n            }\n        }\n\n        if (totalAmount > 0) {\n            require(\n                IERC20(nut).approve(address(this), 0),\n                'distributor approve failed'\n            );\n            require(\n                IERC20(nut).approve(address(this), totalAmount),\n                'NutDist approve amount failed'\n            );\n            require(\n                IERC20(nut).transferFrom(address(this), lender, totalAmount),\n                'NutDist transfer failed'\n            );\n        }\n    }\n\n    /// @dev getCollectionAmount get the # of NUT tokens for collection\n    function getCollectionAmount() external view returns(uint) {\n        uint epochId = (block.number.sub(DIST_START_BLOCK)).div(BLOCKS_PER_EPOCH);\n        require(epochId > 0, 'getCollectionAmount: distribution is completed');\n\n        address lender = msg.sender;\n\n        uint numOfPools = pools.length < MAX_NUM_POOLS ? pools.length : MAX_NUM_POOLS;\n        uint totalAmount;\n        for (uint i = 0; i < numOfPools; i++) {\n            address pool = pools[i];\n            for (uint j = 0; j < epochId && j < NUM_EPOCH; j++) {\n                uint vtb = getVtb(pool, lender, j);\n                if (vtb > 0 && getTotalVtb(pool, j) > 0) {\n                    uint amount = vtb.mul(totalNutMap[pool][j]).div(getTotalVtb(pool, j));\n                    totalAmount = totalAmount.add(amount);\n                }\n            }\n        }\n\n        return totalAmount;\n    }\n\n    function getVtb(address pool, address lender, uint i) public view returns(uint) {\n        require(i < NUM_EPOCH, 'vtb idx err');\n        return i < futureVtbEpoch[pool][lender] ?\n            vtbMap[pool][lender][i] : futureVtbMap[pool][lender];\n    }\n    function getTotalVtb(address pool, uint i) public view returns (uint) {\n        require(i < NUM_EPOCH, 'totalVtb idx err');\n        return i < futureTotalVtbEpoch[pool] ?\n            totalVtbMap[pool][i] : futureTotalVtbMap[pool];\n    }\n\n    //@notice output version string\n    function getVersionString()\n    external virtual pure returns (string memory) {\n        return \"1\";\n   }\n}\n",
  "sourcePath": "/home/joe/local2/bench/git/nutmeg/contracts/NutDistributor.sol",
  "compiler": {
    "name": "solc",
    "version": "0.7.6+commit.7338295f.Emscripten.clang"
  },
  "schemaVersion": "3.3.4",
  "updatedAt": "2021-04-29T15:07:48.108Z",
  "networkType": "ethereum",
  "devdoc": {
    "kind": "dev",
    "methods": {
      "acceptGovernor()": {
        "details": "Accept to become the new governor. Must be called by the pending governor."
      },
      "collect()": {
        "details": "Collect Nut tokens"
      },
      "distribute()": {
        "details": "Distribute NUT tokens for the previous epoch"
      },
      "getCollectionAmount()": {
        "details": "getCollectionAmount get the # of NUT tokens for collection"
      },
      "setNutmegAddress(address)": {
        "details": "Set the Nutmeg"
      },
      "setPendingGovernor(address)": {
        "details": "Set the pending governor, which will be the governor once accepted.",
        "params": {
          "addr": "The address of the pending governor."
        }
      },
      "setPriceOracle(address)": {
        "details": "Set the oracle"
      },
      "updateVtb(address,address,uint256,uint256)": {
        "params": {
          "decAmount": "false=subtract/unstake true=add/stake",
          "incAmount": "to stake or unstake",
          "lender": "Address of the lender.",
          "token": "Base token of the pool."
        }
      }
    },
    "version": 1
  },
  "userdoc": {
    "kind": "user",
    "methods": {
      "updateVtb(address,address,uint256,uint256)": {
        "notice": "Update valueTimesBlocks of pools and the lender when they stake or unstake"
      }
    },
    "version": 1
  }
}