{
  "contractName": "NutmegAltA",
  "abi": [
    {
      "anonymous": false,
      "inputs": [
        {
          "indexed": false,
          "internalType": "address",
          "name": "bank",
          "type": "address"
        },
        {
          "indexed": false,
          "internalType": "uint256",
          "name": "interestRateA",
          "type": "uint256"
        }
      ],
      "name": "addPoolEvent",
      "type": "event"
    },
    {
      "anonymous": false,
      "inputs": [
        {
          "indexed": false,
          "internalType": "address",
          "name": "bank",
          "type": "address"
        },
        {
          "indexed": false,
          "internalType": "address",
          "name": "owner",
          "type": "address"
        },
        {
          "indexed": false,
          "internalType": "uint256",
          "name": "tranche",
          "type": "uint256"
        },
        {
          "indexed": false,
          "internalType": "uint256",
          "name": "amount",
          "type": "uint256"
        },
        {
          "indexed": false,
          "internalType": "uint256",
          "name": "depId",
          "type": "uint256"
        }
      ],
      "name": "stakeEvent",
      "type": "event"
    },
    {
      "anonymous": false,
      "inputs": [
        {
          "indexed": false,
          "internalType": "address",
          "name": "bank",
          "type": "address"
        },
        {
          "indexed": false,
          "internalType": "address",
          "name": "owner",
          "type": "address"
        },
        {
          "indexed": false,
          "internalType": "uint256",
          "name": "tranche",
          "type": "uint256"
        },
        {
          "indexed": false,
          "internalType": "uint256",
          "name": "amount",
          "type": "uint256"
        },
        {
          "indexed": false,
          "internalType": "uint256",
          "name": "depId",
          "type": "uint256"
        }
      ],
      "name": "unstakeEvent",
      "type": "event"
    },
    {
      "inputs": [],
      "name": "CURR_ADAPTER",
      "outputs": [
        {
          "internalType": "address",
          "name": "",
          "type": "address"
        }
      ],
      "stateMutability": "view",
      "type": "function",
      "constant": true
    },
    {
      "inputs": [],
      "name": "CURR_POSITION_ID",
      "outputs": [
        {
          "internalType": "uint256",
          "name": "",
          "type": "uint256"
        }
      ],
      "stateMutability": "view",
      "type": "function",
      "constant": true
    },
    {
      "inputs": [],
      "name": "CURR_SENDER",
      "outputs": [
        {
          "internalType": "address",
          "name": "",
          "type": "address"
        }
      ],
      "stateMutability": "view",
      "type": "function",
      "constant": true
    },
    {
      "inputs": [],
      "name": "EXECUTION_LOCK",
      "outputs": [
        {
          "internalType": "uint256",
          "name": "",
          "type": "uint256"
        }
      ],
      "stateMutability": "view",
      "type": "function",
      "constant": true
    },
    {
      "inputs": [],
      "name": "LIQUIDATION_COMMISSION",
      "outputs": [
        {
          "internalType": "uint256",
          "name": "",
          "type": "uint256"
        }
      ],
      "stateMutability": "view",
      "type": "function",
      "constant": true
    },
    {
      "inputs": [],
      "name": "MAX_INTEREST_RATE_PER_BLOCK",
      "outputs": [
        {
          "internalType": "uint256",
          "name": "",
          "type": "uint256"
        }
      ],
      "stateMutability": "view",
      "type": "function",
      "constant": true
    },
    {
      "inputs": [],
      "name": "MAX_NUM_POOL",
      "outputs": [
        {
          "internalType": "uint256",
          "name": "",
          "type": "uint256"
        }
      ],
      "stateMutability": "view",
      "type": "function",
      "constant": true
    },
    {
      "inputs": [],
      "name": "MIN_INTEREST_RATE_PER_BLOCK",
      "outputs": [
        {
          "internalType": "uint256",
          "name": "",
          "type": "uint256"
        }
      ],
      "stateMutability": "view",
      "type": "function",
      "constant": true
    },
    {
      "inputs": [],
      "name": "POOL_LOCK",
      "outputs": [
        {
          "internalType": "uint256",
          "name": "",
          "type": "uint256"
        }
      ],
      "stateMutability": "view",
      "type": "function",
      "constant": true
    },
    {
      "inputs": [],
      "name": "POSITION_COUNTER",
      "outputs": [
        {
          "internalType": "uint256",
          "name": "",
          "type": "uint256"
        }
      ],
      "stateMutability": "view",
      "type": "function",
      "constant": true
    },
    {
      "inputs": [],
      "name": "STAKE_COUNTER",
      "outputs": [
        {
          "internalType": "uint256",
          "name": "",
          "type": "uint256"
        }
      ],
      "stateMutability": "view",
      "type": "function",
      "constant": true
    },
    {
      "inputs": [],
      "name": "VERSION_ID",
      "outputs": [
        {
          "internalType": "uint256",
          "name": "",
          "type": "uint256"
        }
      ],
      "stateMutability": "view",
      "type": "function",
      "constant": true
    },
    {
      "inputs": [
        {
          "internalType": "address",
          "name": "baseToken",
          "type": "address"
        },
        {
          "internalType": "uint256",
          "name": "baseAmt",
          "type": "uint256"
        }
      ],
      "name": "_getCollateralRatioPct",
      "outputs": [
        {
          "internalType": "uint256",
          "name": "",
          "type": "uint256"
        }
      ],
      "stateMutability": "view",
      "type": "function",
      "constant": true
    },
    {
      "inputs": [
        {
          "internalType": "uint256[3]",
          "name": "loans",
          "type": "uint256[3]"
        },
        {
          "internalType": "uint256",
          "name": "totalAmt",
          "type": "uint256"
        }
      ],
      "name": "_getRepayAmount",
      "outputs": [
        {
          "internalType": "uint256[3]",
          "name": "",
          "type": "uint256[3]"
        }
      ],
      "stateMutability": "pure",
      "type": "function",
      "constant": true
    },
    {
      "inputs": [],
      "name": "acceptGovernor",
      "outputs": [],
      "stateMutability": "nonpayable",
      "type": "function"
    },
    {
      "inputs": [
        {
          "internalType": "address",
          "name": "",
          "type": "address"
        }
      ],
      "name": "adapterMap",
      "outputs": [
        {
          "internalType": "bool",
          "name": "",
          "type": "bool"
        }
      ],
      "stateMutability": "view",
      "type": "function",
      "constant": true
    },
    {
      "inputs": [
        {
          "internalType": "uint256",
          "name": "",
          "type": "uint256"
        }
      ],
      "name": "adapters",
      "outputs": [
        {
          "internalType": "address",
          "name": "",
          "type": "address"
        }
      ],
      "stateMutability": "view",
      "type": "function",
      "constant": true
    },
    {
      "inputs": [
        {
          "internalType": "address",
          "name": "token",
          "type": "address"
        }
      ],
      "name": "addAdapter",
      "outputs": [],
      "stateMutability": "nonpayable",
      "type": "function"
    },
    {
      "inputs": [
        {
          "internalType": "uint256",
          "name": "posId",
          "type": "uint256"
        },
        {
          "internalType": "uint256",
          "name": "collAmt",
          "type": "uint256"
        }
      ],
      "name": "addCollToken",
      "outputs": [],
      "stateMutability": "nonpayable",
      "type": "function"
    },
    {
      "inputs": [
        {
          "internalType": "address",
          "name": "token",
          "type": "address"
        },
        {
          "internalType": "uint256",
          "name": "interestRate",
          "type": "uint256"
        }
      ],
      "name": "addPool",
      "outputs": [],
      "stateMutability": "nonpayable",
      "type": "function"
    },
    {
      "inputs": [
        {
          "internalType": "address",
          "name": "baseToken",
          "type": "address"
        },
        {
          "internalType": "address",
          "name": "collToken",
          "type": "address"
        },
        {
          "internalType": "uint256",
          "name": "baseAmt",
          "type": "uint256"
        },
        {
          "internalType": "uint256",
          "name": "borrowAmt",
          "type": "uint256"
        }
      ],
      "name": "borrow",
      "outputs": [],
      "stateMutability": "nonpayable",
      "type": "function"
    },
    {
      "inputs": [
        {
          "internalType": "uint256",
          "name": "posId",
          "type": "uint256"
        },
        {
          "internalType": "contract IAdapter",
          "name": "adapter",
          "type": "address"
        }
      ],
      "name": "closePosition",
      "outputs": [
        {
          "internalType": "uint256",
          "name": "",
          "type": "uint256"
        }
      ],
      "stateMutability": "nonpayable",
      "type": "function"
    },
    {
      "inputs": [
        {
          "internalType": "address",
          "name": "baseToken",
          "type": "address"
        },
        {
          "internalType": "uint256",
          "name": "collateralLoss",
          "type": "uint256"
        },
        {
          "internalType": "uint256",
          "name": "poolLoss",
          "type": "uint256"
        }
      ],
      "name": "distributeCreditLosses",
      "outputs": [],
      "stateMutability": "nonpayable",
      "type": "function"
    },
    {
      "inputs": [],
      "name": "getCurrPositionId",
      "outputs": [
        {
          "internalType": "uint256",
          "name": "",
          "type": "uint256"
        }
      ],
      "stateMutability": "view",
      "type": "function",
      "constant": true
    },
    {
      "inputs": [],
      "name": "getCurrSender",
      "outputs": [
        {
          "internalType": "address",
          "name": "",
          "type": "address"
        }
      ],
      "stateMutability": "view",
      "type": "function",
      "constant": true
    },
    {
      "inputs": [
        {
          "internalType": "address",
          "name": "token",
          "type": "address"
        },
        {
          "internalType": "address",
          "name": "owner",
          "type": "address"
        },
        {
          "internalType": "enum INutmeg.Tranche",
          "name": "tranche",
          "type": "uint8"
        }
      ],
      "name": "getEarnedInterest",
      "outputs": [
        {
          "internalType": "uint256",
          "name": "",
          "type": "uint256"
        }
      ],
      "stateMutability": "view",
      "type": "function",
      "constant": true
    },
    {
      "inputs": [
        {
          "internalType": "address",
          "name": "baseToken",
          "type": "address"
        },
        {
          "internalType": "uint256",
          "name": "baseAmt",
          "type": "uint256"
        }
      ],
      "name": "getMaxBorrowAmount",
      "outputs": [
        {
          "internalType": "uint256",
          "name": "",
          "type": "uint256"
        }
      ],
      "stateMutability": "view",
      "type": "function",
      "constant": true
    },
    {
      "inputs": [
        {
          "internalType": "address",
          "name": "token",
          "type": "address"
        },
        {
          "internalType": "address",
          "name": "owner",
          "type": "address"
        },
        {
          "internalType": "uint256",
          "name": "tranche",
          "type": "uint256"
        }
      ],
      "name": "getMaxUnstakePrincipal",
      "outputs": [
        {
          "internalType": "uint256",
          "name": "",
          "type": "uint256"
        }
      ],
      "stateMutability": "view",
      "type": "function",
      "constant": true
    },
    {
      "inputs": [],
      "name": "getNextPositionId",
      "outputs": [
        {
          "internalType": "uint256",
          "name": "",
          "type": "uint256"
        }
      ],
      "stateMutability": "view",
      "type": "function",
      "constant": true
    },
    {
      "inputs": [
        {
          "internalType": "address",
          "name": "addr",
          "type": "address"
        }
      ],
      "name": "getPool",
      "outputs": [
        {
          "components": [
            {
              "internalType": "bool",
              "name": "isExists",
              "type": "bool"
            },
            {
              "internalType": "address",
              "name": "baseToken",
              "type": "address"
            },
            {
              "internalType": "uint256[3]",
              "name": "interestRates",
              "type": "uint256[3]"
            },
            {
              "internalType": "uint256[3]",
              "name": "principals",
              "type": "uint256[3]"
            },
            {
              "internalType": "uint256[3]",
              "name": "loans",
              "type": "uint256[3]"
            },
            {
              "internalType": "uint256[3]",
              "name": "interests",
              "type": "uint256[3]"
            },
            {
              "internalType": "uint256",
              "name": "totalCollateral",
              "type": "uint256"
            },
            {
              "internalType": "uint256",
              "name": "latestAccruedBlock",
              "type": "uint256"
            },
            {
              "internalType": "uint256",
              "name": "sumRtb",
              "type": "uint256"
            },
            {
              "internalType": "uint256",
              "name": "irAdjustPct",
              "type": "uint256"
            },
            {
              "internalType": "bool",
              "name": "isIrAdjustPctNegative",
              "type": "bool"
            },
            {
              "internalType": "uint256[3]",
              "name": "sumIpp",
              "type": "uint256[3]"
            },
            {
              "internalType": "uint256[3]",
              "name": "lossMultiplier",
              "type": "uint256[3]"
            },
            {
              "internalType": "uint256[3]",
              "name": "lossZeroCounter",
              "type": "uint256[3]"
            }
          ],
          "internalType": "struct INutmeg.Pool",
          "name": "",
          "type": "tuple"
        }
      ],
      "stateMutability": "view",
      "type": "function",
      "constant": true
    },
    {
      "inputs": [
        {
          "internalType": "address",
          "name": "token",
          "type": "address"
        }
      ],
      "name": "getPoolInfo",
      "outputs": [
        {
          "internalType": "uint256",
          "name": "",
          "type": "uint256"
        },
        {
          "internalType": "uint256",
          "name": "",
          "type": "uint256"
        },
        {
          "internalType": "uint256",
          "name": "",
          "type": "uint256"
        }
      ],
      "stateMutability": "view",
      "type": "function",
      "constant": true
    },
    {
      "inputs": [],
      "name": "getPools",
      "outputs": [
        {
          "internalType": "address[]",
          "name": "",
          "type": "address[]"
        }
      ],
      "stateMutability": "view",
      "type": "function",
      "constant": true
    },
    {
      "inputs": [
        {
          "internalType": "uint256",
          "name": "id",
          "type": "uint256"
        }
      ],
      "name": "getPosition",
      "outputs": [
        {
          "components": [
            {
              "internalType": "uint256",
              "name": "id",
              "type": "uint256"
            },
            {
              "internalType": "enum INutmeg.PositionStatus",
              "name": "status",
              "type": "uint8"
            },
            {
              "internalType": "address",
              "name": "owner",
              "type": "address"
            },
            {
              "internalType": "address",
              "name": "adapter",
              "type": "address"
            },
            {
              "internalType": "address",
              "name": "baseToken",
              "type": "address"
            },
            {
              "internalType": "address",
              "name": "collToken",
              "type": "address"
            },
            {
              "internalType": "uint256[3]",
              "name": "loans",
              "type": "uint256[3]"
            },
            {
              "internalType": "uint256",
              "name": "baseAmt",
              "type": "uint256"
            },
            {
              "internalType": "uint256",
              "name": "collAmt",
              "type": "uint256"
            },
            {
              "internalType": "uint256",
              "name": "borrowAmt",
              "type": "uint256"
            },
            {
              "internalType": "uint256",
              "name": "sumRtbStart",
              "type": "uint256"
            },
            {
              "internalType": "uint256",
              "name": "repayDeficit",
              "type": "uint256"
            }
          ],
          "internalType": "struct INutmeg.Position",
          "name": "",
          "type": "tuple"
        }
      ],
      "stateMutability": "view",
      "type": "function",
      "constant": true
    },
    {
      "inputs": [
        {
          "internalType": "address",
          "name": "borrower",
          "type": "address"
        }
      ],
      "name": "getPositionIds",
      "outputs": [
        {
          "internalType": "uint256[]",
          "name": "",
          "type": "uint256[]"
        }
      ],
      "stateMutability": "view",
      "type": "function",
      "constant": true
    },
    {
      "inputs": [
        {
          "internalType": "address",
          "name": "token",
          "type": "address"
        },
        {
          "internalType": "uint256",
          "name": "posId",
          "type": "uint256"
        }
      ],
      "name": "getPositionInterest",
      "outputs": [
        {
          "internalType": "uint256",
          "name": "",
          "type": "uint256"
        }
      ],
      "stateMutability": "view",
      "type": "function",
      "constant": true
    },
    {
      "inputs": [
        {
          "internalType": "address",
          "name": "token",
          "type": "address"
        },
        {
          "internalType": "address",
          "name": "owner",
          "type": "address"
        }
      ],
      "name": "getStake",
      "outputs": [
        {
          "components": [
            {
              "internalType": "uint256",
              "name": "id",
              "type": "uint256"
            },
            {
              "internalType": "enum INutmeg.StakeStatus",
              "name": "status",
              "type": "uint8"
            },
            {
              "internalType": "address",
              "name": "owner",
              "type": "address"
            },
            {
              "internalType": "address",
              "name": "pool",
              "type": "address"
            },
            {
              "internalType": "uint256",
              "name": "tranche",
              "type": "uint256"
            },
            {
              "internalType": "uint256",
              "name": "principal",
              "type": "uint256"
            },
            {
              "internalType": "uint256",
              "name": "sumIppStart",
              "type": "uint256"
            },
            {
              "internalType": "uint256",
              "name": "earnedInterest",
              "type": "uint256"
            },
            {
              "internalType": "uint256",
              "name": "lossMultiplierBase",
              "type": "uint256"
            },
            {
              "internalType": "uint256",
              "name": "lossZeroCounterBase",
              "type": "uint256"
            }
          ],
          "internalType": "struct INutmeg.Stake[3]",
          "name": "",
          "type": "tuple[3]"
        }
      ],
      "stateMutability": "view",
      "type": "function",
      "constant": true
    },
    {
      "inputs": [
        {
          "internalType": "address",
          "name": "lender",
          "type": "address"
        }
      ],
      "name": "getStakeIds",
      "outputs": [
        {
          "internalType": "uint256[]",
          "name": "",
          "type": "uint256[]"
        }
      ],
      "stateMutability": "view",
      "type": "function",
      "constant": true
    },
    {
      "inputs": [],
      "name": "governor",
      "outputs": [
        {
          "internalType": "address",
          "name": "",
          "type": "address"
        }
      ],
      "stateMutability": "view",
      "type": "function",
      "constant": true
    },
    {
      "inputs": [
        {
          "internalType": "address",
          "name": "_governor",
          "type": "address"
        }
      ],
      "name": "initialize",
      "outputs": [],
      "stateMutability": "nonpayable",
      "type": "function"
    },
    {
      "inputs": [
        {
          "internalType": "address",
          "name": "baseToken",
          "type": "address"
        },
        {
          "internalType": "uint256",
          "name": "liquidateAmt",
          "type": "uint256"
        }
      ],
      "name": "liquidate",
      "outputs": [],
      "stateMutability": "nonpayable",
      "type": "function"
    },
    {
      "inputs": [
        {
          "internalType": "uint256",
          "name": "posId",
          "type": "uint256"
        },
        {
          "internalType": "contract IAdapter",
          "name": "adapter",
          "type": "address"
        }
      ],
      "name": "liquidatePosition",
      "outputs": [],
      "stateMutability": "nonpayable",
      "type": "function"
    },
    {
      "inputs": [],
      "name": "nut",
      "outputs": [
        {
          "internalType": "address",
          "name": "",
          "type": "address"
        }
      ],
      "stateMutability": "view",
      "type": "function",
      "constant": true
    },
    {
      "inputs": [],
      "name": "nutDistributor",
      "outputs": [
        {
          "internalType": "address",
          "name": "",
          "type": "address"
        }
      ],
      "stateMutability": "view",
      "type": "function",
      "constant": true
    },
    {
      "inputs": [
        {
          "internalType": "uint256",
          "name": "posId",
          "type": "uint256"
        },
        {
          "internalType": "contract IAdapter",
          "name": "adapter",
          "type": "address"
        },
        {
          "internalType": "address",
          "name": "baseToken",
          "type": "address"
        },
        {
          "internalType": "address",
          "name": "collToken",
          "type": "address"
        },
        {
          "internalType": "uint256",
          "name": "baseAmt",
          "type": "uint256"
        },
        {
          "internalType": "uint256",
          "name": "borrowAmt",
          "type": "uint256"
        }
      ],
      "name": "openPosition",
      "outputs": [],
      "stateMutability": "nonpayable",
      "type": "function"
    },
    {
      "inputs": [],
      "name": "pendingGovernor",
      "outputs": [
        {
          "internalType": "address",
          "name": "",
          "type": "address"
        }
      ],
      "stateMutability": "view",
      "type": "function",
      "constant": true
    },
    {
      "inputs": [
        {
          "internalType": "address",
          "name": "",
          "type": "address"
        }
      ],
      "name": "poolMap",
      "outputs": [
        {
          "internalType": "bool",
          "name": "isExists",
          "type": "bool"
        },
        {
          "internalType": "address",
          "name": "baseToken",
          "type": "address"
        },
        {
          "internalType": "uint256",
          "name": "totalCollateral",
          "type": "uint256"
        },
        {
          "internalType": "uint256",
          "name": "latestAccruedBlock",
          "type": "uint256"
        },
        {
          "internalType": "uint256",
          "name": "sumRtb",
          "type": "uint256"
        },
        {
          "internalType": "uint256",
          "name": "irAdjustPct",
          "type": "uint256"
        },
        {
          "internalType": "bool",
          "name": "isIrAdjustPctNegative",
          "type": "bool"
        }
      ],
      "stateMutability": "view",
      "type": "function",
      "constant": true
    },
    {
      "inputs": [
        {
          "internalType": "uint256",
          "name": "",
          "type": "uint256"
        }
      ],
      "name": "pools",
      "outputs": [
        {
          "internalType": "address",
          "name": "",
          "type": "address"
        }
      ],
      "stateMutability": "view",
      "type": "function",
      "constant": true
    },
    {
      "inputs": [
        {
          "internalType": "uint256",
          "name": "",
          "type": "uint256"
        }
      ],
      "name": "positionMap",
      "outputs": [
        {
          "internalType": "uint256",
          "name": "id",
          "type": "uint256"
        },
        {
          "internalType": "enum INutmeg.PositionStatus",
          "name": "status",
          "type": "uint8"
        },
        {
          "internalType": "address",
          "name": "owner",
          "type": "address"
        },
        {
          "internalType": "address",
          "name": "adapter",
          "type": "address"
        },
        {
          "internalType": "address",
          "name": "baseToken",
          "type": "address"
        },
        {
          "internalType": "address",
          "name": "collToken",
          "type": "address"
        },
        {
          "internalType": "uint256",
          "name": "baseAmt",
          "type": "uint256"
        },
        {
          "internalType": "uint256",
          "name": "collAmt",
          "type": "uint256"
        },
        {
          "internalType": "uint256",
          "name": "borrowAmt",
          "type": "uint256"
        },
        {
          "internalType": "uint256",
          "name": "sumRtbStart",
          "type": "uint256"
        },
        {
          "internalType": "uint256",
          "name": "repayDeficit",
          "type": "uint256"
        }
      ],
      "stateMutability": "view",
      "type": "function",
      "constant": true
    },
    {
      "inputs": [
        {
          "internalType": "address",
          "name": "token",
          "type": "address"
        }
      ],
      "name": "removeAdapter",
      "outputs": [],
      "stateMutability": "nonpayable",
      "type": "function"
    },
    {
      "inputs": [
        {
          "internalType": "address",
          "name": "baseToken",
          "type": "address"
        },
        {
          "internalType": "uint256",
          "name": "repayAmt",
          "type": "uint256"
        }
      ],
      "name": "repay",
      "outputs": [],
      "stateMutability": "nonpayable",
      "type": "function"
    },
    {
      "inputs": [
        {
          "internalType": "address",
          "name": "poolAddr",
          "type": "address"
        },
        {
          "internalType": "address",
          "name": "adapterAddr",
          "type": "address"
        },
        {
          "internalType": "uint256",
          "name": "val",
          "type": "uint256"
        }
      ],
      "name": "setMinNut4Borrowers",
      "outputs": [],
      "stateMutability": "nonpayable",
      "type": "function"
    },
    {
      "inputs": [
        {
          "internalType": "address",
          "name": "addr",
          "type": "address"
        }
      ],
      "name": "setNut",
      "outputs": [],
      "stateMutability": "nonpayable",
      "type": "function"
    },
    {
      "inputs": [
        {
          "internalType": "address",
          "name": "addr",
          "type": "address"
        }
      ],
      "name": "setNutDistributor",
      "outputs": [],
      "stateMutability": "nonpayable",
      "type": "function"
    },
    {
      "inputs": [
        {
          "internalType": "address",
          "name": "addr",
          "type": "address"
        }
      ],
      "name": "setPendingGovernor",
      "outputs": [],
      "stateMutability": "nonpayable",
      "type": "function"
    },
    {
      "inputs": [
        {
          "internalType": "contract IAdapter",
          "name": "adapter",
          "type": "address"
        },
        {
          "internalType": "address",
          "name": "baseToken",
          "type": "address"
        },
        {
          "internalType": "uint256",
          "name": "collateralLoss",
          "type": "uint256"
        },
        {
          "internalType": "uint256",
          "name": "poolLoss",
          "type": "uint256"
        }
      ],
      "name": "settleCreditEvent",
      "outputs": [],
      "stateMutability": "nonpayable",
      "type": "function"
    },
    {
      "inputs": [
        {
          "internalType": "address",
          "name": "token",
          "type": "address"
        },
        {
          "internalType": "uint256",
          "name": "tranche",
          "type": "uint256"
        },
        {
          "internalType": "uint256",
          "name": "principal",
          "type": "uint256"
        }
      ],
      "name": "stake",
      "outputs": [],
      "stateMutability": "nonpayable",
      "type": "function"
    },
    {
      "inputs": [
        {
          "internalType": "address",
          "name": "",
          "type": "address"
        },
        {
          "internalType": "address",
          "name": "",
          "type": "address"
        },
        {
          "internalType": "uint256",
          "name": "",
          "type": "uint256"
        }
      ],
      "name": "stakeMap",
      "outputs": [
        {
          "internalType": "uint256",
          "name": "id",
          "type": "uint256"
        },
        {
          "internalType": "enum INutmeg.StakeStatus",
          "name": "status",
          "type": "uint8"
        },
        {
          "internalType": "address",
          "name": "owner",
          "type": "address"
        },
        {
          "internalType": "address",
          "name": "pool",
          "type": "address"
        },
        {
          "internalType": "uint256",
          "name": "tranche",
          "type": "uint256"
        },
        {
          "internalType": "uint256",
          "name": "principal",
          "type": "uint256"
        },
        {
          "internalType": "uint256",
          "name": "sumIppStart",
          "type": "uint256"
        },
        {
          "internalType": "uint256",
          "name": "earnedInterest",
          "type": "uint256"
        },
        {
          "internalType": "uint256",
          "name": "lossMultiplierBase",
          "type": "uint256"
        },
        {
          "internalType": "uint256",
          "name": "lossZeroCounterBase",
          "type": "uint256"
        }
      ],
      "stateMutability": "view",
      "type": "function",
      "constant": true
    },
    {
      "inputs": [
        {
          "internalType": "address",
          "name": "token",
          "type": "address"
        },
        {
          "internalType": "uint256",
          "name": "tranche",
          "type": "uint256"
        },
        {
          "internalType": "uint256",
          "name": "amount",
          "type": "uint256"
        }
      ],
      "name": "unstake",
      "outputs": [],
      "stateMutability": "nonpayable",
      "type": "function"
    },
    {
      "inputs": [
        {
          "internalType": "address",
          "name": "token",
          "type": "address"
        }
      ],
      "name": "updateInterestRateAdjustment",
      "outputs": [],
      "stateMutability": "nonpayable",
      "type": "function"
    },
    {
      "inputs": [
        {
          "internalType": "address",
          "name": "token",
          "type": "address"
        },
        {
          "internalType": "uint256",
          "name": "interestRate",
          "type": "uint256"
        }
      ],
      "name": "updateInterestRates",
      "outputs": [],
      "stateMutability": "nonpayable",
      "type": "function"
    },
    {
      "inputs": [],
      "name": "getVersionString",
      "outputs": [
        {
          "internalType": "string",
          "name": "",
          "type": "string"
        }
      ],
      "stateMutability": "pure",
      "type": "function",
      "constant": true
    }
  ],
  "bytecode": "0x608060405234801561001057600080fd5b50615f9b80620000216000396000f3fe608060405234801561001057600080fd5b50600436106103af5760003560e01c80638033db42116101f4578063bcbaf4871161011a578063e3056a34116100ad578063f18c1cda1161007c578063f18c1cda146107e4578063f235757f146107ec578063f79d9bf2146107ff578063fbf3773914610812576103af565b8063e3056a34146107ac578063e58bb639146107b4578063eb02c301146107bc578063eb289421146107dc576103af565b8063ce56378a116100e9578063ce56378a1461075e578063d27459681461077e578063d76512be14610786578063dcc474eb14610799576103af565b8063bcbaf4871461071d578063c4d66de814610730578063cc7b9d0614610743578063ccbc4cc01461074b576103af565b8063a17fff7511610192578063b5e0ecac11610161578063b5e0ecac146106cf578063b75141f7146106e2578063b90306ed146106ea578063bbe4f6db146106fd576103af565b8063a17fff7514610699578063a2bc66be146106a1578063a4b407e4146106b4578063ac4afa38146106bc576103af565b806382dda22d116101ce57806382dda22d1461063e5780638ccab1381461065e578063938148dd1461067e5780639befd22314610691576103af565b80638033db421461061057806380b88a2e1461062357806381d3a1c214610636576103af565b80633d31fbb4116102d9578063585cd34b11610277578063639dc52711610246578063639dc527146105d8578063673a2a1f146105e057806379a267d9146105f55780637e7768ae14610608576103af565b8063585cd34b146105795780635b6735321461058c5780635f036de1146105b257806360d54d41146105c5576103af565b8063470ce5f2116102b3578063470ce5f2146105385780634ef501ac1461054b5780635400e01b1461055e578063554028ba14610566576103af565b80633d31fbb4146105205780634379652b14610528578063449b539214610530576103af565b80630f9ebdce11610351578063265c03aa11610320578063265c03aa146104c757806328fe7031146104da5780632b692db9146104fa57806332a9caba1461050d576103af565b80630f9ebdce1461047057806315d3b7a0146104995780631c8fc7fc146104a157806322867d78146104b4576103af565b806306bfa9381161038d57806306bfa938146103fc5780630b5f78a11461041e5780630c340a24146104485780630c51b88f1461045d576103af565b806301fda53b146103b457806305b540f2146103c9578063067f4ddd146103e7575b600080fd5b6103c76103c2366004615063565b610825565b005b6103d161094b565b6040516103de91906154d6565b60405180910390f35b6103ef61096f565b6040516103de9190615db9565b61040f61040a366004614f3d565b610975565b6040516103de93929190615e8b565b61043161042c36600461517a565b610bd3565b6040516103de9b9a99989796959493929190615dc2565b610450610c38565b6040516103de91906152a1565b6103c761046b36600461508e565b610c4d565b61048361047e366004614fde565b61118c565b6040516103de9a99989796959493929190615e2a565b61045061120c565b6103c76104af3660046151ce565b61121b565b6103c76104c2366004615063565b611363565b6103ef6104d5366004614f91565b611687565b6104ed6104e8366004614f3d565b611748565b6040516103de9190615456565b6103c761050836600461508e565b6117b4565b6103c761051b366004615063565b611b03565b6103ef611d2b565b610450611d30565b6103ef611d3f565b6103ef610546366004615063565b611d45565b61045061055936600461517a565b611e37565b6103ef611e61565b6103c7610574366004615232565b611e67565b6103c7610587366004614f3d565b611f17565b61059f61059a366004614f3d565b611faf565b6040516103de9796959493929190615499565b6103c76105c03660046151aa565b611ff4565b6103c76105d3366004614f3d565b61205d565b61045061213a565b6105e8612149565b6040516103de9190615349565b6103ef610603366004614fde565b6121ab565b6103ef6124a6565b6103c761061e366004614f3d565b6124ac565b6103ef610631366004615063565b6125e3565b6103ef61260d565b61065161064c366004614f59565b612614565b6040516103de9190615396565b61067161066c366004614f3d565b612718565b6040516103de919061548e565b6103c761068c366004614fde565b61272d565b6103ef61281a565b610450612820565b6103c76106af36600461508e565b61282f565b6103ef612f77565b6104506106ca36600461517a565b612f7d565b6103ef6106dd3660046151aa565b612f8d565b6103ef613018565b6103ef6106f8366004615063565b61301e565b61071061070b366004614f3d565b613142565b6040516103de9190615bf9565b6103c761072b366004615063565b613357565b6103c761073e366004614f3d565b6136ef565b6103ef6137c7565b6103c7610759366004614f3d565b6137cc565b61077161076c3660046150c2565b61383d565b6040516103de9190615448565b6103ef6138f8565b6103c7610794366004614f3d565b6138fe565b6104ed6107a7366004614f3d565b61396f565b6104506139d9565b6103c76139e8565b6107cf6107ca36600461517a565b613a5c565b6040516103de9190615cf8565b6103ef613b5d565b610450613b63565b6103c76107fa366004614f3d565b613b72565b6103c761080d366004615165565b613be3565b6103c761082036600461501e565b613ca7565b6004541561084e5760405162461bcd60e51b815260040161084590615693565b60405180910390fd5b60016004556000546201000090046001600160a01b031633146108a2576040805162461bcd60e51b81526020600482015260076024820152663130b21033b7bb60c91b604482015290519081900360640190fd5b6108ab8161406a565b6108c75760405162461bcd60e51b815260040161084590615852565b6001600160a01b0382166000908152600c60205260409020805460ff166109005760405162461bcd60e51b8152600401610845906159b6565b604080516060810190915280610917846002614083565b81526020810184905260400161092e8460026140ea565b90526109409060018301906003614d39565b505060006004555050565b60408051808201909152600a8152696e75746d6567616c746160b01b602082015290565b60075490565b6001600160a01b038181166000908152600c6020908152604080832081516101c081018352815460ff811615158252610100900490951692850192909252805160608101808352939485948594859492939092840191600184019060039082845b8154815260200190600101908083116109d657505050918352505060408051606081019182905260209092019190600484019060039082845b815481526020019060010190808311610a0f57505050918352505060408051606081019182905260209092019190600784019060039082845b815481526020019060010190808311610a4857505050918352505060408051606081019182905260209092019190600a84019060039082845b815481526020019060010190808311610a81575050509183525050600d8201546020820152600e820154604080830191909152600f83015460608084019190915260108401546080840152601184015460ff16151560a084015281519081019182905260c09092019190601284019060039082845b815481526020019060010190808311610af657505050918352505060408051606081019182905260209092019190601584019060039082845b815481526020019060010190808311610b2f57505050918352505060408051606081019182905260209092019190601884019060039082845b815481526020019060010190808311610b685750505050508152505090508060000151610ba75760405162461bcd60e51b8152600401610845906157b7565b610bb48160600151614143565b610bc18260800151614143565b60c09092015190969195509350915050565b60116020526000908152604090208054600182015460028301546003840154600485015460088601546009870154600a880154600b890154600c90990154979860ff8816986101009098046001600160a01b039081169897811697968116969516948b565b6000546201000090046001600160a01b031681565b60045415610c6d5760405162461bcd60e51b815260040161084590615693565b600160045582610c7c8161415f565b60038310610c9c5760405162461bcd60e51b815260040161084590615abd565b60008211610cbc5760405162461bcd60e51b815260040161084590615940565b6001600160a01b0384166000908152600c60205260409020805460ff16610cf55760405162461bcd60e51b815260040161084590615724565b6002841415610d315760048101546006820154610d13908590614361565b1115610d315760405162461bcd60e51b8152600401610845906155c9565b8054610d4d9061010090046001600160a01b03163330866143bb565b6001600160a01b0385166000908152600d6020908152604080832033845290915281208560038110610d7b57fe5b6009020190506000826012018660038110610d9257fe5b01548254909150600090610df6576006805460018082019092558455838101805460ff1916909117610100600160a81b03191633610100021790556002830180546001600160a01b0319166001600160a01b038a1617905560038301879055610f8e565b604080516101408101909152835481526001840154610e9c91908590602083019060ff166003811115610e2557fe5b6003811115610e3057fe5b815260018201546001600160a01b0361010091829004811660208401526002840154166040830152600383015460608301526004808401546080840152600584015460a0840152600684015460c0840152600784015460e0840152600890930154910152850154614415565b90506000610ed3670de0b6b3a7640000610ecd610ec687600501548761468690919063ffffffff16565b85906140ea565b90614083565b604080516101408101909152855481526001860154919250610f87918391610f81918890602083019060ff166003811115610f0a57fe5b6003811115610f1557fe5b815260018201546001600160a01b03610100918290048116602084015260028401541660408301526003830154606083015260048301546080830152600583015460a083015260068084015460c0840152600784015460e0840152600890930154910152880154614415565b90614361565b6006850155505b60058301829055610f9f8187614361565b6004840155601884018760038110610fb357fe5b01546008840155601584018760038110610fc957fe5b0154600784015560018084015461010090046001600160a01b03166000908152600e6020908152604082208654815494850182559083529120909101556110218660048601896003811061101957fe5b015490614361565b84600401886003811061103057fe5b015561103b886124ac565b600260009054906101000a90046001600160a01b03166001600160a01b0316633d02df6f6040518163ffffffff1660e01b815260040160206040518083038186803b15801561108957600080fd5b505afa15801561109d573d6000803e3d6000fd5b505050506040513d601f19601f820116820180604052508101906110c19190615145565b1561113d57600254600184015460405163625372db60e01b81526001600160a01b039283169263625372db9261110a928d92610100909204909116908b906000906004016152e6565b600060405180830381600087803b15801561112457600080fd5b505af1158015611138573d6000803e3d6000fd5b505050505b82546040517fdd896aa374850d8e04317b5aeb7adadc818f31150c0dc804fe7c0da09bb6677291611175918b9133918c918c916152b5565b60405180910390a150506000600455505050505050565b600d60205282600052604060002060205281600052604060002081600381106111b457600080fd5b6009020180546001820154600283015460038401546004850154600586015460068701546007880154600890980154969a5060ff861699506101009095046001600160a01b039081169850909316959194909391908a565b6003546001600160a01b031681565b6003546040516370a0823160e01b81526000916001600160a01b0316906370a082319061124c9033906004016152a1565b60206040518083038186803b15801561126457600080fd5b505afa158015611278573d6000803e3d6000fd5b505050506040513d601f19601f8201168201806040525081019061129c9190615192565b6001600160a01b038087166000908152601360209081526040808320938b16835292905220549091508110156112e45760405162461bcd60e51b8152600401610845906159dc565b6112ee87876146e3565b604051636ef1a28f60e01b81526001600160a01b03871690636ef1a28f906113209088908890889088906004016152e6565b600060405180830381600087803b15801561133a57600080fd5b505af115801561134e573d6000803e3d6000fd5b5050505061135a614833565b50505050505050565b8161136d8161415f565b60001960085414156113915760405162461bcd60e51b81526004016108459061589d565b600a546001600160a01b031633146113bb5760405162461bcd60e51b8152600401610845906156b3565b600554156113db5760405162461bcd60e51b8152600401610845906157e1565b6001600555600854600090815260116020908152604080832060038101546001600160a01b03168452600c909252909120805460ff1661142d5760405162461bcd60e51b815260040161084590615bb4565b60028201546001600160a01b031660009081526010602052604090205460ff168015611465575060028201546001600160a01b031633145b6114815760405162461bcd60e51b815260040161084590615b84565b6040805160608101918290526000916114bd9190600586019060039082845b8154815260200190600101908083116114a0575050505050614143565b825484549192506000916114df9161010090046001600160a01b031690611d45565b90506000611504826114fe87600801548a61436190919063ffffffff16565b90614686565b90506000838211611516576000611520565b6115208285614686565b90506115376001600160a01b038a1633308b6143bb565b8382101561154f576115498483614686565b600c8701555b60408051606081019182905260009161158c919060058a019060039082845b81548152602001906001019080831161156e5750505050508a61383d565b60018801805460ff19166002179055905060005b60038110156115ed576115d48282600381106115b857fe5b60200201518960050183600381106115cc57fe5b015490614686565b8860050182600381106115e357fe5b01556001016115a0565b506008870154600d87015461160191614686565b600d87015560005b600381101561164e5761163582826003811061162157fe5b60200201518860070183600381106115cc57fe5b87600701826003811061164457fe5b0155600101611609565b508115611676576001870154611676906001600160a01b038c8116916101009004168461485f565b505060006005555050505050505050565b6001600160a01b0383166000908152600c60205260408120805460ff166116c05760405162461bcd60e51b81526004016108459061598c565b60006116cc8686612614565b8460028111156116d857fe5b600381106116e257fe5b6020020151905061173c8161173761172c670de0b6b3a7640000610ecd6117218760c00151896012018c600281111561171757fe5b600381106115cc57fe5b60a0880151906140ea565b60e085015190614361565b614415565b925050505b9392505050565b6001600160a01b0381166000908152601260209081526040918290208054835181840281018401909452808452606093928301828280156117a857602002820191906000526020600020905b815481526020019060010190808311611794575b50505050509050919050565b826117be8161415f565b60001960085414156117e25760405162461bcd60e51b81526004016108459061589d565b600a546001600160a01b0316331461180c5760405162461bcd60e51b8152600401610845906156b3565b6005541561182c5760405162461bcd60e51b8152600401610845906157e1565b60016005556001600160a01b0384166000908152600c60205260409020805460ff1661186a5760405162461bcd60e51b815260040161084590615a1e565b80600d015484111561188e5760405162461bcd60e51b81526004016108459061566a565b600d81015461189d9085614686565b600d820155826118ad5750611af8565b60408051606081019182905260048301805482526000926118e692919060039060058701602085018083116114a0575050505050614143565b90508360005b6003811015611a48576000600182600303039050600085600401826003811061191157fe5b01549050600086600a01836003811061192657fe5b015487600401846003811061193757fe5b01540190508185106119a657600087600401846003811061195457fe5b01556000600a8801846003811061196757fe5b01554360188801846003811061197957fe5b0155670de0b6b3a764000060158801846003811061199357fe5b015561199f8583614686565b9450611a3d565b60006119b28387614686565b90506119d382610ecd838b60040188600381106119cb57fe5b0154906140ea565b8860040185600381106119e257fe5b01556119fb82610ecd83600a8c0188600381106119cb57fe5b88600a018560038110611a0a57fe5b0155611a2282610ecd83670de0b6b3a76400006140ea565b886015018560038110611a3157fe5b015550611a4892505050565b5050506001016118ec565b5060098301546008840154600091611a6891610f81906007880185611019565b905082861115611a79576000611a83565b611a838387614686565b925080861115611a94576000611a9e565b611a9e8187614686565b905060005b6003811015611af2578315611ad657611ad184610ecd876004018460038110611ac857fe5b015485906140ea565b611ad9565b60005b856007018260038110611ae857fe5b0155600101611aa3565b50505050505b505060006005555050565b60045415611b235760405162461bcd60e51b815260040161084590615693565b60016004556000546201000090046001600160a01b03163314611b77576040805162461bcd60e51b81526020600482015260076024820152663130b21033b7bb60c91b604482015290519081900360640190fd5b600b5461010011611b9a5760405162461bcd60e51b815260040161084590615b5c565b611ba38161406a565b611bbf5760405162461bcd60e51b815260040161084590615877565b6001600160a01b0382166000908152600c60205260409020805460ff1615611bf95760405162461bcd60e51b815260040161084590615ae4565b8054600160ff1990911617610100600160a81b0319166101006001600160a01b03851602178155604080516060810190915280611c37846002614083565b815260208101849052604001611c4e8460026140ea565b9052611c609060018301906003614d39565b50600b80546001810182556000919091527f0175b7a638427703f0dbe7bb9bbf987a2551717b34e79f33b5b1008d1fa01db90180546001600160a01b0319166001600160a01b0385161790556040517faf34faf75d3145f35bbbac30e5a4ee7bdcce5f49268859df1a013baa102eca1b90611cde908590859061530f565b60405180910390a16040518060600160405280670de0b6b3a76400008152602001670de0b6b3a76400008152602001670de0b6b3a764000081525081601501906003610940929190614d39565b600581565b6002546001600160a01b031681565b60045481565b6001600160a01b0382166000908152600c60205260408120805460ff16611d7e5760405162461bcd60e51b815260040161084590615b0d565b6000838152601160205260409020815460038201546001600160a01b039081166101009092041614611dc25760405162461bcd60e51b815260040161084590615618565b611e2c611dd4622014806127106140ea565b610ecd611df284600b015486600f015461468690919063ffffffff16565b6040805160608101918290526005870180548252611e269260039060068a01602085018083116114a0575050505050614143565b906140ea565b925050505b92915050565b600f8181548110611e4757600080fd5b6000918252602090912001546001600160a01b0316905081565b60085481565b6000196008541415611e8b5760405162461bcd60e51b81526004016108459061589d565b600a546001600160a01b03163314611eb55760405162461bcd60e51b8152600401610845906156b3565b60055415611ed55760405162461bcd60e51b8152600401610845906157e1565b6001600555600854600090815260116020526040902080548314611f0b5760405162461bcd60e51b815260040161084590615551565b60090155506000600555565b60045415611f375760405162461bcd60e51b815260040161084590615693565b60016004556000546201000090046001600160a01b03163314611f8b576040805162461bcd60e51b81526020600482015260076024820152663130b21033b7bb60c91b604482015290519081900360640190fd5b6001600160a01b03166000908152601060205260408120805460ff19169055600455565b600c6020526000908152604090208054600d820154600e830154600f840154601085015460119095015460ff808616966101009096046001600160a01b031695911687565b611ffe82826146e3565b806001600160a01b03166328a070256040518163ffffffff1660e01b8152600401600060405180830381600087803b15801561203957600080fd5b505af115801561204d573d6000803e3d6000fd5b50505050612059614833565b5050565b6004541561207d5760405162461bcd60e51b815260040161084590615693565b60016004556000546201000090046001600160a01b031633146120d1576040805162461bcd60e51b81526020600482015260076024820152663130b21033b7bb60c91b604482015290519081900360640190fd5b600f805460018181019092557f8d1108e10bcb7c27dddfc02ed9d693a074039d026cf4ea4240b40f7d581ac8020180546001600160a01b039093166001600160a01b0319909316831790556000918252601060205260408220805460ff19169091179055600455565b600a546001600160a01b031681565b6060600b8054806020026020016040519081016040528092919081815260200182805480156121a157602002820191906000526020600020905b81546001600160a01b03168152600190910190602001808311612183575b5050505050905090565b6001600160a01b038084166000908152600d602090815260408083209386168352929052908120819083600381106121df57fe5b60408051610140810190915260099190910291909101805482526001810154602083019060ff16600381111561221157fe5b600381111561221c57fe5b81526001828101546001600160a01b036101009182900481166020808601919091526002860154821660408087019190915260038088015460608089019190915260048901546080890152600589015460a0890152600689015460c0890152600789015460e0890152600890980154968501969096528787015183166000908152600c835281902081516101c081018352815460ff8116151582529590950490931691840191909152805195860180825296975061249d96929591949086019391929185019182845b8154815260200190600101908083116122e557505050918352505060408051606081019182905260209092019190600484019060039082845b81548152602001906001019080831161231e57505050918352505060408051606081019182905260209092019190600784019060039082845b81548152602001906001019080831161235757505050918352505060408051606081019182905260209092019190600a84019060039082845b815481526020019060010190808311612390575050509183525050600d8201546020820152600e820154604080830191909152600f83015460608084019190915260108401546080840152601184015460ff16151560a084015281519081019182905260c09092019190601284019060039082845b81548152602001906001019080831161240557505050918352505060408051606081019182905260209092019190601584019060039082845b81548152602001906001019080831161243e57505050918352505060408051606081019182905260209092019190601884019060039082845b815481526020019060010190808311612477575050505050815250508260a001516148b6565b95945050505050565b60085490565b6001600160a01b0381166000908152600c60205260409020805460ff166124e55760405162461bcd60e51b8152600401610845906158be565b604080516060810191829052600483018054825260009261251e92919060039060058701602085018083116114a0575050505050614143565b60408051606081019182905260078501805482529293506000926125589260039060088801602085018083116114a0575050505050614143565b905081156125dd5760008282101561257e5761257983610ecd8460646140ea565b612581565b60645b9050605a8111156125b25761259c6032611e2683605a614686565b601085015560118401805460ff191690556125db565b605a8110156125db576125c6605a82614686565b601085015560118401805460ff191660011790555b505b50505050565b6000806125f0848461301e565b9050612605836114fe83610ecd8360646140ea565b949350505050565b620186a081565b61261c614d77565b6001600160a01b038084166000908152600d60209081526040808320938616835292905281812082516060810190935290600390835b8282101561270c57604080516101408101909152600983028501805482526001810154602083019060ff16600381111561268857fe5b600381111561269357fe5b81526001828101546001600160a01b03610100918290048116602080860191909152600286015490911660408501526003850154606085015260048501546080850152600585015460a0850152600685015460c0850152600785015460e085015260089094015492019190915291835292019101612652565b50505050905092915050565b60106020526000908152604090205460ff1681565b6000546201000090046001600160a01b0316331461277c576040805162461bcd60e51b81526020600482015260076024820152663130b21033b7bb60c91b604482015290519081900360640190fd5b6001600160a01b03821660009081526010602052604090205460ff166127b45760405162461bcd60e51b815260040161084590615529565b6001600160a01b0383166000908152600c60205260409020805460ff166127ed5760405162461bcd60e51b815260040161084590615803565b506001600160a01b0392831660009081526013602090815260408083209490951682529290925291902055565b6101f481565b6009546001600160a01b031690565b6004541561284f5760405162461bcd60e51b815260040161084590615693565b60016004558261285e8161415f565b6003831061287e5760405162461bcd60e51b8152600401610845906155ef565b6001600160a01b0384166000908152600c60209081526040808320600d8352818420338552909252822090919085600381106128b657fe5b6009020180549091506128db5760405162461bcd60e51b815260040161084590615644565b604080516101408101909152815481526001820154600091612983918490602083019060ff16600381111561290c57fe5b600381111561291757fe5b815260018201546001600160a01b0361010091829004811660208401526002840154166040830152600383015460608301526004808401546080840152600584015460a0840152600684015460c0840152600784015460e0840152600890930154910152840154614415565b90506000851180156129955750808511155b6129b15760405162461bcd60e51b815260040161084590615919565b60018083015460ff1660038111156129c557fe5b146129e25760405162461bcd60e51b8152600401610845906156fa565b60028201546001600160a01b039081166000908152600c6020908152604080832081516101c081018352815460ff8116151582526101009004909516928501929092528051606081018083529394612bfa9490939284019190600184019060039082845b815481526020019060010190808311612a4657505050918352505060408051606081019182905260209092019190600484019060039082845b815481526020019060010190808311612a7f57505050918352505060408051606081019182905260209092019190600784019060039082845b815481526020019060010190808311612ab857505050918352505060408051606081019182905260209092019190600a84019060039082845b815481526020019060010190808311612af1575050509183525050600d8201546020820152600e820154604080830191909152600f83015460608084019190915260108401546080840152601184015460ff16151560a084015281519081019182905260c09092019190601284019060039082845b815481526020019060010190808311612b6657505050918352505060408051606081019182905260209092019190601584019060039082845b815481526020019060010190808311612b9f57505050918352505060408051606081019182905260209092019190601884019060039082845b815481526020019060010190808311612bd857505050505081525050876148b6565b90506000612c2b670de0b6b3a7640000610ecd612c248760050154896012018d600381106115cc57fe5b86906140ea565b90506000612ce282610f818760405180610140016040529081600082015481526020016001820160009054906101000a900460ff166003811115612c6b57fe5b6003811115612c7657fe5b815260018201546001600160a01b03610100918290048116602084015260028401541660408301526003830154606083015260048301546080830152600583015460a083015260068084015460c0840152600784015460e0840152600890930154910152890154614415565b905085600a018960038110612cf357fe5b0154811115612d105785600a018960038110612d0b57fe5b015490505b6000612d1c8483614361565b8754909150612d3a9061010090046001600160a01b0316338361485f565b612d448585614686565b6004870155601287018a60038110612d5857fe5b01546005870155601887018a60038110612d6e57fe5b01546008870155601587018a60038110612d8457fe5b01546007870155600060068701556004860154612dab5760018601805460ff191660021790555b612dbe84886004018c600381106115cc57fe5b876004018b60038110612dcd57fe5b0155612de282600a89018c600381106115cc57fe5b87600a018b60038110612df157fe5b0155612dfc8b6124ac565b600260009054906101000a90046001600160a01b03166001600160a01b0316633d02df6f6040518163ffffffff1660e01b815260040160206040518083038186803b158015612e4a57600080fd5b505afa158015612e5e573d6000803e3d6000fd5b505050506040513d601f19601f82011682018060405250810190612e829190615145565b8015612e8e5750600084115b15612f2557600260009054906101000a90046001600160a01b03166001600160a01b031663625372db8c8860010160019054906101000a90046001600160a01b03166000886040518563ffffffff1660e01b8152600401612ef294939291906152e6565b600060405180830381600087803b158015612f0c57600080fd5b505af1158015612f20573d6000803e3d6000fd5b505050505b85546040517fcbaeda62652cb1eed671e4f780d62f58277055c4318fbdd9544f795de48fdf9c91612f5d918e9133918f918a916152b5565b60405180910390a150506000600455505050505050505050565b60055481565b600b8181548110611e4757600080fd5b6000612f9983836146e3565b6000826001600160a01b031663c393d0e36040518163ffffffff1660e01b8152600401602060405180830381600087803b158015612fd657600080fd5b505af1158015612fea573d6000803e3d6000fd5b505050506040513d601f19601f8201168201806040525081019061300e9190615192565b9050611741614833565b60065481565b6001600160a01b0382166000908152600c60205260408120805460ff166130575760405162461bcd60e51b8152600401610845906158e9565b604080516060810191829052600483018054825260009261309092919060039060058701602085018083116114a0575050505050614143565b60408051606081019182905260078501805482529293506000926130ca9260039060088801602085018083116114a0575050505050614143565b9050600082156130ec576130e783610ecd6064611e26868b614361565b6130ef565b60645b905060648111156130fe575060645b605a8111156131275761311c600a610f816009611e2685605a614686565b945050505050611e31565b6131376001610f8183600a614083565b979650505050505050565b61314a614da4565b6001600160a01b038281166000908152600c602090815260409182902082516101c081018452815460ff8116151582526101009004909416918401919091528151606081018084529192840191600184019060039082845b8154815260200190600101908083116131a257505050918352505060408051606081019182905260209092019190600484019060039082845b8154815260200190600101908083116131db57505050918352505060408051606081019182905260209092019190600784019060039082845b81548152602001906001019080831161321457505050918352505060408051606081019182905260209092019190600a84019060039082845b81548152602001906001019080831161324d575050509183525050600d8201546020820152600e820154604080830191909152600f83015460608084019190915260108401546080840152601184015460ff16151560a084015281519081019182905260c09092019190601284019060039082845b8154815260200190600101908083116132c257505050918352505060408051606081019182905260209092019190601584019060039082845b8154815260200190600101908083116132fb57505050918352505060408051606081019182905260209092019190601884019060039082845b815481526020019060010190808311613334575050505050815250509050919050565b816133618161415f565b60001960085414156133855760405162461bcd60e51b81526004016108459061589d565b600a546001600160a01b031633146133af5760405162461bcd60e51b8152600401610845906156b3565b600554156133cf5760405162461bcd60e51b8152600401610845906157e1565b600160055560085460009081526011602090815260408083206001600160a01b0387168452600c909252909120805460ff1661341d5760405162461bcd60e51b815260040161084590615b37565b80546001600160a01b03868116610100909204161461344e5760405162461bcd60e51b815260040161084590615a6b565b60028201546001600160a01b031660009081526010602052604090205460ff168015613486575060028201546001600160a01b031633145b6134a25760405162461bcd60e51b8152600401610845906155a4565b600084116134c25760405162461bcd60e51b8152600401610845906156d5565b6134d76001600160a01b0386163330876143bb565b604080516060810191829052600584018054825260009261351092919060039060068801602085018083116114a0575050505050614143565b825484549192506000916135329161010090046001600160a01b031690611d45565b90506000613551826114fe87600801548a61436190919063ffffffff16565b905060006135656064610ecd6005856140ea565b905060006135738383614686565b9050600081861061358557600061358f565b61358f8287614686565b6040805160608101918290529192506000916135ce9160058c019060039082845b8154815260200190600101908083116135b05750505050508c61383d565b90506135e46001600160a01b038d16328661485f565b60018901805460ff1916600317905560005b600381101561363b5761362282826003811061360e57fe5b60200201518b60050183600381106115cc57fe5b8a600501826003811061363157fe5b01556001016135f6565b506008890154600d89015461364f91614686565b600d89015560005b600381101561369c5761368382826003811061366f57fe5b60200201518a60070183600381106115cc57fe5b89600701826003811061369257fe5b0155600101613657565b5081156136c45760018901546136c4906001600160a01b038e8116916101009004168461485f565b868510156136dc576136d68786614686565b600c8a01555b5050600060055550505050505050505050565b600054610100900460ff168061370857506137086148e5565b80613716575060005460ff16155b6137515760405162461bcd60e51b815260040180806020018281038252602e815260200180615eb7602e913960400191505060405180910390fd5b600054610100900460ff1615801561377c576000805460ff1961ff0019909116610100171660011790555b613785826148f6565b6000600481905560055560016006819055600755600019600855600a80546001600160a01b03191660021790558015612059576000805461ff00191690555050565b600181565b6000546201000090046001600160a01b0316331461381b576040805162461bcd60e51b81526020600482015260076024820152663130b21033b7bb60c91b604482015290519081900360640190fd5b600380546001600160a01b0319166001600160a01b0392909216919091179055565b613845614e3c565b600061385084614143565b905060008382106138615783613863565b815b604080516060810182526000808252602082018190529181018290529192505b60038110156138c4576138ab84610ecd858a85600381106138a057fe5b6020020151906140ea565b8282600381106138b757fe5b6020020152600101613883565b506138ea6138e38260015b60200201518360005b602002015190614361565b8390614686565b604082015295945050505050565b61010081565b6000546201000090046001600160a01b0316331461394d576040805162461bcd60e51b81526020600482015260076024820152663130b21033b7bb60c91b604482015290519081900360640190fd5b600280546001600160a01b0319166001600160a01b0392909216919091179055565b6001600160a01b0381166000908152600e60209081526040918290208054835181840281018401909452808452606093928301828280156117a857602002820191906000526020600020908154815260200190600101908083116117945750505050509050919050565b6001546001600160a01b031681565b6001546001600160a01b03163314613a31576040805162461bcd60e51b81526020600482015260076024820152661b9bc81c195b9960ca1b604482015290519081900360640190fd5b600180546001600160a01b03191690556000805462010000600160b01b031916336201000002179055565b613a64614e5a565b60008281526011602090815260409182902082516101808101909352805483526001810154909183019060ff166004811115613a9c57fe5b6004811115613aa757fe5b8152600182015461010090046001600160a01b0390811660208301526002830154811660408084019190915260038085015483166060808601919091526004860154909316608085015281519283019182905260a090930192600585019182845b815481526020019060010190808311613b0857505050505081526020016008820154815260200160098201548152602001600a8201548152602001600b8201548152602001600c820154815250509050919050565b60075481565b6009546001600160a01b031681565b6000546201000090046001600160a01b03163314613bc1576040805162461bcd60e51b81526020600482015260076024820152663130b21033b7bb60c91b604482015290519081900360640190fd5b600180546001600160a01b0319166001600160a01b0392909216919091179055565b6000546201000090046001600160a01b03163314613c32576040805162461bcd60e51b81526020600482015260076024820152663130b21033b7bb60c91b604482015290519081900360640190fd5b613c3d6000856146e3565b6040516356a18e8960e11b81526001600160a01b0385169063ad431d1290613c6d90869086908690600401615328565b600060405180830381600087803b158015613c8757600080fd5b505af1158015613c9b573d6000803e3d6000fd5b505050506125dd614833565b83613cb18161415f565b6000196008541415613cd55760405162461bcd60e51b81526004016108459061589d565b600a546001600160a01b03163314613cff5760405162461bcd60e51b8152600401610845906156b3565b60055415613d1f5760405162461bcd60e51b8152600401610845906157e1565b60016005556001600160a01b0385166000908152600c60205260409020805460ff16613d5d5760405162461bcd60e51b815260040161084590615771565b600854600090815260116020526040902060038101546001600160a01b031615613d995760405162461bcd60e51b815260040161084590615966565b6000613da588876125e3565b905080851115613dc75760405162461bcd60e51b815260040161084590615a46565b858511613de65760405162461bcd60e51b815260040161084590615749565b613dee614e3c565b60005b6003811015613e3657613e1d856007018260038110613e0c57fe5b01548660040183600381106115cc57fe5b828260038110613e2957fe5b6020020152600101613df1565b506000613e4282614143565b905080871115613e645760405162461bcd60e51b815260040161084590615a96565b613e6c614e3c565b60005b6003811015613eb057613e9783610ecd868460038110613e8b57fe5b60200201518c906140ea565b828260038110613ea357fe5b6020020152600101613e6f565b50613ec6613ebf8260016138cf565b8990614686565b60408201528554613ee79061010090046001600160a01b03163060006149ba565b8554613f029061010090046001600160a01b0316308b6149ba565b60018501548654613f2a916001600160a01b036101009283900481169290910416308c6143bb565b8554613f459061010090046001600160a01b0316338a61485f565b6001858101805460ff1916828002179055508554600386810180546101009093046001600160a01b039081166001600160a01b031994851617909155600488018054909316908d1617909155600886018a9055600a8601899055613faf9060058701908390614d39565b50600f860154600b86015560018086015461010090046001600160a01b031660009081526012602090815260408220885481549485018255908352908220909201919091555b600381101561403a5761402182826003811061400d57fe5b602002015188600701836003811061101957fe5b87600701826003811061403057fe5b0155600101613ff5565b50600d86015461404a908a614361565b600d8701556140588b6124ac565b50506000600555505050505050505050565b6000620186a08211158015611e315750506101f4111590565b60008082116140d9576040805162461bcd60e51b815260206004820152601a60248201527f536166654d6174683a206469766973696f6e206279207a65726f000000000000604482015290519081900360640190fd5b8183816140e257fe5b049392505050565b6000826140f957506000611e31565b8282028284828161410657fe5b04146117415760405162461bcd60e51b8152600401808060200182810382526021815260200180615ee56021913960400191505060405180910390fd5b60408101516020820151600091611e3191610f819085856138d8565b6001600160a01b0381166000908152600c60205260409020805460ff166141985760405162461bcd60e51b81526004016108459061557c565b60408051606081019182905260078301805482526000926141d192919060039060088701602085018083116114a0575050505050614143565b600e830154909150439081116141e95750505061435e565b8115614354576002830154601184015460ff1661422e576142276064610ecd6142206064886010015461436190919063ffffffff16565b84906140ea565b9050614251565b61424e6064610ecd6142208760100154606461468690919063ffffffff16565b90505b600061427461426d86600e01548561468690919063ffffffff16565b83906140ea565b600f8601549091506142869082614361565b600f86015560005b60038110156143505760008660040182600381106142a857fe5b015411156143485760006142d76142c4622014806127106140ea565b610ecd858a60070186600381106119cb57fe5b90506142ec8188600a01846003811061101957fe5b87600a0183600381106142fb57fe5b015561433561432660048901846003811061431257fe5b0154610ecd84670de0b6b3a76400006140ea565b88601201846003811061101957fe5b87601201836003811061434457fe5b0155505b60010161428e565b5050505b505043600e909101555b50565b600082820183811015611741576040805162461bcd60e51b815260206004820152601b60248201527f536166654d6174683a206164646974696f6e206f766572666c6f770000000000604482015290519081900360640190fd5b604080516001600160a01b0380861660248301528416604482015260648082018490528251808303909101815260849091019091526020810180516001600160e01b03166323b872dd60e01b1790526125dd908590614ac9565b6060828101516001600160a01b039081166000908152600c6020908152604080832081516101c081018352815460ff8116151582526101009004909516928501929092528051948501808252929485949391840191600184019060039082845b81548152602001906001019080831161447557505050918352505060408051606081019182905260209092019190600484019060039082845b8154815260200190600101908083116144ae57505050918352505060408051606081019182905260209092019190600784019060039082845b8154815260200190600101908083116144e757505050918352505060408051606081019182905260209092019190600a84019060039082845b815481526020019060010190808311614520575050509183525050600d8201546020820152600e820154604080830191909152600f83015460608084019190915260108401546080840152601184015460ff16151560a084015281519081019182905260c09092019190601284019060039082845b81548152602001906001019080831161459557505050918352505060408051606081019182905260209092019190601584019060039082845b8154815260200190600101908083116145ce57505050918352505060408051606081019182905260209092019190601884019060039082845b815481526020019060010190808311614607575050505050815250509050806101a0015184608001516003811061463a57fe5b60200201518461012001511061467c57614677846101000151610ecd83610180015187608001516003811061466b57fe5b602002015186906140ea565b612605565b5060009392505050565b6000828211156146dd576040805162461bcd60e51b815260206004820152601e60248201527f536166654d6174683a207375627472616374696f6e206f766572666c6f770000604482015290519081900360640190fd5b50900390565b600454156147035760405162461bcd60e51b815260040161084590615796565b60016004556001600160a01b038116600090815260106020526040902054819060ff166147425760405162461bcd60e51b8152600401610845906159fd565b826147a15760078054600180820190925560008181526011602052604090208181559182018054610100600160a81b0319163361010002179055600290910180546001600160a01b0319166001600160a01b0384161790559250614801565b60075483106147c25760405162461bcd60e51b815260040161084590615bd9565b600160008481526011602052604090206001015460ff1660048111156147e457fe5b146148015760405162461bcd60e51b81526004016108459061582b565b60089290925550600a80546001600160a01b039092166001600160a01b03199283161790556009805490911633179055565b600019600855600a80546001600160a01b03199081166002179091556000600455600980549091169055565b604080516001600160a01b038416602482015260448082018490528251808303909101815260649091019091526020810180516001600160e01b031663a9059cbb60e01b1790526148b1908490614ac9565b505050565b6000806148d66148c98560800151614143565b6114fe8660600151614143565b90508083116117415782612605565b60006148f030614b7a565b15905090565b600054610100900460ff168061490f575061490f6148e5565b8061491d575060005460ff16155b6149585760405162461bcd60e51b815260040180806020018281038252602e815260200180615eb7602e913960400191505060405180910390fd5b600054610100900460ff16158015614983576000805460ff1961ff0019909116610100171660011790555b6000805462010000600160b01b031916620100006001600160a01b038516021790558015612059576000805461ff00191690555050565b801580614a40575060408051636eb1769f60e11b81523060048201526001600160a01b03848116602483015291519185169163dd62ed3e91604480820192602092909190829003018186803b158015614a1257600080fd5b505afa158015614a26573d6000803e3d6000fd5b505050506040513d6020811015614a3c57600080fd5b5051155b614a7b5760405162461bcd60e51b8152600401808060200182810382526036815260200180615f306036913960400191505060405180910390fd5b604080516001600160a01b038416602482015260448082018490528251808303909101815260649091019091526020810180516001600160e01b031663095ea7b360e01b1790526148b19084905b6000614b1e826040518060400160405280602081526020017f5361666545524332303a206c6f772d6c6576656c2063616c6c206661696c6564815250856001600160a01b0316614b809092919063ffffffff16565b8051909150156148b157808060200190516020811015614b3d57600080fd5b50516148b15760405162461bcd60e51b815260040180806020018281038252602a815260200180615f06602a913960400191505060405180910390fd5b3b151590565b6060612605848460008585614b9485614b7a565b614be5576040805162461bcd60e51b815260206004820152601d60248201527f416464726573733a2063616c6c20746f206e6f6e2d636f6e7472616374000000604482015290519081900360640190fd5b600080866001600160a01b031685876040518082805190602001908083835b60208310614c235780518252601f199092019160209182019101614c04565b6001836020036101000a03801982511681845116808217855250505050505090500191505060006040518083038185875af1925050503d8060008114614c85576040519150601f19603f3d011682016040523d82523d6000602084013e614c8a565b606091505b509150915061313782828660608315614ca4575081611741565b825115614cb45782518084602001fd5b8160405162461bcd60e51b81526004018080602001828103825283818151815260200191508051906020019080838360005b83811015614cfe578181015183820152602001614ce6565b50505050905090810190601f168015614d2b5780820380516001836020036101000a031916815260200191505b509250505060405180910390fd5b8260038101928215614d67579160200282015b82811115614d67578251825591602001919060010190614d4c565b50614d73929150614ec2565b5090565b60405180606001604052806003905b614d8e614ed7565b815260200190600190039081614d865790505090565b604080516101c08101825260008082526020820152908101614dc4614e3c565b8152602001614dd1614e3c565b8152602001614dde614e3c565b8152602001614deb614e3c565b815260200160008152602001600081526020016000815260200160008152602001600015158152602001614e1d614e3c565b8152602001614e2a614e3c565b8152602001614e37614e3c565b905290565b60405180606001604052806003906020820280368337509192915050565b6040805161018081019091526000808252602082019081526000602082018190526040820181905260608201819052608082015260a001614e99614e3c565b815260200160008152602001600081526020016000815260200160008152602001600081525090565b5b80821115614d735760008155600101614ec3565b60408051610140810190915260008082526020820190815260200160006001600160a01b0316815260200160006001600160a01b031681526020016000815260200160008152602001600081526020016000815260200160008152602001600081525090565b600060208284031215614f4e578081fd5b813561174181615ea1565b60008060408385031215614f6b578081fd5b8235614f7681615ea1565b91506020830135614f8681615ea1565b809150509250929050565b600080600060608486031215614fa5578081fd5b8335614fb081615ea1565b92506020840135614fc081615ea1565b9150604084013560038110614fd3578182fd5b809150509250925092565b600080600060608486031215614ff2578283fd5b8335614ffd81615ea1565b9250602084013561500d81615ea1565b929592945050506040919091013590565b60008060008060808587031215615033578081fd5b843561503e81615ea1565b9350602085013561504e81615ea1565b93969395505050506040820135916060013590565b60008060408385031215615075578182fd5b823561508081615ea1565b946020939093013593505050565b6000806000606084860312156150a2578283fd5b83356150ad81615ea1565b95602085013595506040909401359392505050565b600080608083850312156150d4578182fd5b83601f8401126150e2578182fd5b6040516060810181811067ffffffffffffffff821117156150ff57fe5b60405280846060810187811115615114578586fd5b855b6003811015615135578235845260209384019390920191600101615116565b5092979235965091945050505050565b600060208284031215615156578081fd5b81518015158114611741578182fd5b60008060008060808587031215615033578384fd5b60006020828403121561518b578081fd5b5035919050565b6000602082840312156151a3578081fd5b5051919050565b600080604083850312156151bc578182fd5b823591506020830135614f8681615ea1565b60008060008060008060c087890312156151e6578384fd5b8635955060208701356151f881615ea1565b9450604087013561520881615ea1565b9350606087013561521881615ea1565b9598949750929560808101359460a0909101359350915050565b60008060408385031215615244578182fd5b50508035926020909101359150565b6001600160a01b03169052565b8060005b60038110156125dd578151845260209384019390910190600101615264565b15159052565b6005811061529357fe5b9052565b6004811061529357fe5b6001600160a01b0391909116815260200190565b6001600160a01b03958616815293909416602084015260408301919091526060820152608081019190915260a00190565b6001600160a01b0394851681529290931660208301526040820152606081019190915260800190565b6001600160a01b03929092168252602082015260400190565b6001600160a01b039390931683526020830191909152604082015260600190565b6020808252825182820181905260009190848201906040850190845b8181101561538a5783516001600160a01b031683529284019291840191600101615365565b50909695505050505050565b6103c08101818360005b600381101561543f578151805184526020808201516153c182870182615297565b506040808301516153d482880182615253565b50506060808301516153e882880182615253565b50506080828101519086015260a0808301519086015260c0808301519086015260e08083015190860152610100808301519086015261012091820151918501919091526101409093019291909101906001016153a0565b50505092915050565b60608101611e318284615260565b6020808252825182820181905260009190848201906040850190845b8181101561538a57835183529284019291840191600101615472565b901515815260200190565b96151587526001600160a01b0395909516602087015260408601939093526060850191909152608084015260a0830152151560c082015260e00190565b6000602080835283518082850152825b81811015615502578581018301518582016040015282016154e6565b818111156155135783604083870101525b50601f01601f1916929092016040019392505050565b6020808252600e908201526d39b2ba26b4b71037379030b2383960911b604082015260600190565b602080825260119082015270616464436f6c6c546b2062616420706f7360781b604082015260600190565b6020808252600e908201526d1858d8dc925c881b9bc81c1bdbdb60921b604082015260600190565b6020808252600b908201526a3638ba1037379030b2383960a91b604082015260600190565b6020808252600c908201526b1cdd1ac810909088199d5b1b60a21b604082015260600190565b6020808252600f908201526e0eadce6e8d640c4c2c840e8e4dcc6d608b1b604082015260600190565b6020808252601290820152710cecae8a0dee692a440c4c2c840dac2e8c6d60731b604082015260600190565b6020808252600c908201526b1d5b9cdd1ac81b9bc8191c1d60a21b604082015260600190565b6020808252600f908201526e0c8e6e886e4c840c6ded840d0d2ced608b1b604082015260600190565b602080825260069082015265706c206c636b60d01b604082015260600190565b6020808252600890820152673130b21030b2383960c11b604082015260600190565b6020808252600b908201526a6c7174206261642072707960a81b604082015260600190565b60208082526010908201526f756e73746b206261642073746174757360801b604082015260600190565b6020808252600b908201526a1cdd1ac81b9bc81c1bdbdb60aa1b604082015260600190565b6020808252600e908201526d189c9dc8189c9dc80f0818dbdb1b60921b604082015260600190565b6020808252600b908201526a189c9dc81b9bc81c1bdbdb60aa1b604082015260600190565b602080825260079082015266706f6c206c636b60c81b604082015260600190565b60208082526010908201526f19d95d141bdb125b99881b9bc81c1bdb60821b604082015260600190565b602080825260089082015267657863206c6f636b60c01b604082015260600190565b6020808252600e908201526d1cd95d135a5b881b9bc81c1bdbdb60921b604082015260600190565b6020808252600d908201526c6f6e6c79206f70656e20706f7360981b604082015260600190565b6020808252600b908201526a3ab824a9103130b21034b960a91b604082015260600190565b6020808252600c908201526b30b2322836103130b21034b960a11b604082015260600190565b6020808252600790820152666e6f742065786360c81b604082015260600190565b6020808252601190820152701d5c191d125490591a881b9bc81c1bdbdb607a1b604082015260600190565b60208082526016908201527517d9d95d10dbdb1b14985d1418dd081b9bc81c1bdbdb60521b604082015260600190565b6020808252600d908201526c1d5b9cdd1ac818985908185b5d609a1b604082015260600190565b6020808252600c908201526b1cdd1ac8189859081c1c9c1b60a21b604082015260600190565b6020808252600c908201526b627277206e6f20726562727760a01b604082015260600190565b60208082526010908201526f19dd115c9b99125c881b9bc81c1bdbdb60821b604082015260600190565b6020808252600c908201526b1d5c1254881b9bc81c1bdbdb60a21b604082015260600190565b6020808252600790820152664e5554206c6f7760c81b604082015260600190565b60208082526007908201526637379030b2383960c91b604082015260600190565b6020808252600e908201526d191cdd10dc99081b9bc81c1bdbdb60921b604082015260600190565b6020808252600b908201526a189c9dc81d1bdbc818985960aa1b604082015260600190565b6020808252601190820152700d8e2e840c4c2e6ca40dcde40dac2e8c6d607b1b604082015260600190565b6020808252600d908201526c627277206173736574206c6f7760981b604082015260600190565b6020808252600d908201526c0e6e8d640c4c2c840e8e4dcc6d609b1b604082015260600190565b6020808252600f908201526e616464506c20706f6f6c206578747360881b604082015260600190565b60208082526010908201526f19d95d141bdcd254881b9bc81c1bdbdb60821b604082015260600190565b6020808252600b908201526a1b1c5d081b9bc81c1bdbdb60aa1b604082015260600190565b6020808252600e908201526d0c2c8c8a0d840e0d8407c40dac2f60931b604082015260600190565b6020808252601690820152753932b830bc9d1037379039bab1b41030b230b83a32b960511b604082015260600190565b6020808252600b908201526a1c9c1e481b9bc81c1bdbdb60aa1b604082015260600190565b6020808252600690820152656e6f20706f7360d01b604082015260600190565b600061038082019050615c0d828451615283565b6020830151615c1f6020840182615253565b506040830151615c326040840182615260565b506060830151615c4560a0840182615260565b506080830151610100615c5a81850183615260565b60a08501519150610160615c7081860184615260565b60c08601516101c086015260e08601516101e0860152818601516102008601526101208601516102208601526101408601519250615cb2610240860184615283565b8501519150615cc79050610260840182615260565b50610180830151615cdc6102c0840182615260565b506101a0830151615cf1610320840182615260565b5092915050565b815181526020808301516101c0830191615d1490840182615289565b506040830151615d276040840182615253565b506060830151615d3a6060840182615253565b506080830151615d4d6080840182615253565b5060a0830151615d6060a0840182615253565b5060c0830151615d7360c0840182615260565b5060e08301516101208381019190915261010084015161014080850191909152908401516101608085019190915290840151610180840152909201516101a09091015290565b90815260200190565b8b81526101608101615dd7602083018d615289565b6001600160a01b039a8b166040830152988a16606082015296891660808801529490971660a086015260c085019290925260e0840152610100830152610120820193909352610140019190915292915050565b8a81526101408101615e3f602083018c615297565b6001600160a01b03998a166040830152979098166060890152608088019590955260a087019390935260c086019190915260e08501526101008401526101209092019190915292915050565b9283526020830191909152604082015260600190565b6001600160a01b038116811461435e57600080fdfe496e697469616c697a61626c653a20636f6e747261637420697320616c726561647920696e697469616c697a6564536166654d6174683a206d756c7469706c69636174696f6e206f766572666c6f775361666545524332303a204552433230206f7065726174696f6e20646964206e6f7420737563636565645361666545524332303a20617070726f76652066726f6d206e6f6e2d7a65726f20746f206e6f6e2d7a65726f20616c6c6f77616e6365a264697066735822122012b515e2295c5345ca98289201fdce4c41562ae0906e496111704446a95c683a64736f6c63430007060033",
  "immutableReferences": {},
  "source": "// SPDX-License-Identifier: MIT\n\npragma solidity 0.7.6;\npragma experimental ABIEncoderV2;\nimport \"../Nutmeg.sol\";\n\n// @notice This contract is a version of Nutmeg that contains additional\n// interfaces for testing\n\ncontract NutmegAltA is Nutmeg {\n    //@notice output version string\n    function getVersionString()\n    external virtual pure returns (string memory) {\n        return \"nutmegalta\";\n   }\n}\n\ncontract NutmegAltB is Nutmeg {\n    //@notice output version string\n    function getVersionString()\n    external virtual pure returns (string memory) {\n        return \"nutmegaltb\";\n   }\n}\n\nimport \"../NutDistributor.sol\";\nimport \"@openzeppelin/contracts/token/ERC20/SafeERC20.sol\";\n\n// @notice This contract is a version of NutDistributor that allows\n// the epoch intervals to be changed for testing\n\ncontract NutDistributorAltA is NutDistributor {\n    //@notice output version string\n    function getVersionString()\n    external virtual pure override returns (string memory) {\n        return \"nutdistributoralta\";\n   }\n}\n\ncontract NutDistributorAltB is NutDistributor {\n    //@notice output version string\n    function getVersionString()\n    external virtual pure override returns (string memory) {\n        return \"nutdistributoraltb\";\n   }\n}\n\nimport \"./MockERC20.sol\";\n\ncontract MockERC20AltA is\nMockERC20(\"MockERC20AltA\", \"MOCKERC20ALTA\", 18) {\n}\n\ncontract MockERC20AltB is\nMockERC20(\"MockERC20AltB\", \"MOCKERC20ALTB\", 18) {\n}\n\ncontract MockERC20AltC is\nMockERC20(\"MockERC20AltC\", \"MOCKERC20ALTC\", 6) {\n}\n\nimport \"./MockCERC20.sol\";\n\ncontract MockCERC20AltA is MockCERC20Base {\n    constructor(address tokenAddr)\n    MockCERC20Base(tokenAddr, \"MockCERC20 AltA\", \"MOCKCERC20ALTA\", 18) {\n    }\n}\ncontract MockCERC20AltB is MockCERC20Base {\n    constructor(address tokenAddr)\n    MockCERC20Base(tokenAddr, \"MockCERC20 AltB\", \"MOCKCERC20ALTB\", 18) {\n    }\n}\ncontract MockCERC20AltC is MockCERC20Base {\n    constructor(address tokenAddr)\n    MockCERC20Base(tokenAddr, \"MockCERC20 AltC\", \"MOCKCERC20ALTC\", 6) {\n    }\n}\n\nimport \"../adapters/CompoundAdapter.sol\";\nimport \"../interfaces/INutmeg.sol\";\ncontract CompoundAdapterAltA is CompoundAdapter {\n    constructor(INutmeg nutmegAddr) CompoundAdapter(nutmegAddr) {\n    }\n}\n\ncontract CompoundAdapterAltB is CompoundAdapter {\n    constructor(INutmeg nutmegAddr) CompoundAdapter(nutmegAddr) {\n    }\n}\n",
  "sourcePath": "/home/joe/local2/bench/git/nutmeg.0501/contracts/mock/AltContracts.sol",
  "compiler": {
    "name": "solc",
    "version": "0.7.6+commit.7338295f.Emscripten.clang"
  },
  "schemaVersion": "3.3.4",
  "updatedAt": "2021-05-04T05:14:41.980Z",
  "networkType": "ethereum",
  "devdoc": {
    "kind": "dev",
    "methods": {
      "_getCollateralRatioPct(address,uint256)": {
        "details": "Get the collateral ratio of the pool.",
        "params": {
          "baseAmt": "The collateral from the borrower.",
          "baseToken": "Base token of the pool."
        }
      },
      "acceptGovernor()": {
        "details": "Accept to become the new governor. Must be called by the pending governor."
      },
      "addAdapter(address)": {
        "details": "Add adapter to Nutmeg",
        "params": {
          "token": "The address of the adapter"
        }
      },
      "addCollToken(uint256,uint256)": {
        "params": {
          "collAmt": "The amount of the collateral token from 3rd party pool.",
          "posId": "Position id"
        }
      },
      "addPool(address,uint256)": {
        "details": "Add a new treasury pool.",
        "params": {
          "interestRate": "The interest rate per block of Tranche A.",
          "token": "The underlying base token for the pool, e.g., DAI."
        }
      },
      "borrow(address,address,uint256,uint256)": {
        "params": {
          "baseAmt": "The amount of collateral from borrower.",
          "baseToken": "The token to borrow from the pool.",
          "borrowAmt": "The amount of tokens to borrow, x time leveraged already.",
          "collToken": "The token borrowers got from the 3rd party pool."
        }
      },
      "distributeCreditLosses(address,uint256,uint256)": {
        "params": {
          "baseToken": "Base token of the pool.",
          "collateralLoss": "Loss to be distributed",
          "poolLoss": "Loss to be distributed"
        }
      },
      "getCurrSender()": {
        "details": "get current sender"
      },
      "getMaxBorrowAmount(address,uint256)": {
        "params": {
          "baseAmt": "The collateral from the borrower",
          "baseToken": "Base token of the pool"
        }
      },
      "getPool(address)": {
        "details": "Get a specific pool given address"
      },
      "getPoolInfo(address)": {
        "params": {
          "token": "The base token"
        }
      },
      "getPools()": {
        "details": "Get all treasury pools"
      },
      "getPositionInterest(address,uint256)": {
        "params": {
          "posId": "Position ID.",
          "token": "Address of the pool."
        }
      },
      "getStake(address,address)": {
        "params": {
          "owner": "The address of the owner",
          "token": "The address of the pool"
        }
      },
      "initialize(address)": {
        "details": "Initialize the smart contract, using msg.sender as the first governor."
      },
      "liquidate(address,uint256)": {
        "params": {
          "baseToken": "The base token of the pool.",
          "liquidateAmt": "The repay amount from adapter."
        }
      },
      "removeAdapter(address)": {
        "details": "Remove adapter from Nutmeg",
        "params": {
          "token": "The address of the adapter"
        }
      },
      "repay(address,uint256)": {
        "params": {
          "baseToken": "The token to borrow from the pool.",
          "repayAmt": "The amount of base token repaid from adapter."
        }
      },
      "setPendingGovernor(address)": {
        "details": "Set the pending governor, which will be the governor once accepted.",
        "params": {
          "addr": "The address of the pending governor."
        }
      },
      "stake(address,uint256,uint256)": {
        "params": {
          "principal": "The amount of principal",
          "token": "The contract address of the base token of the pool.",
          "tranche": "The tranche of the pool, 0 - AA, 1 - A, 2 - BBB."
        }
      },
      "unstake(address,uint256,uint256)": {
        "params": {
          "amount": "The amount of principal that owner want to withdraw",
          "token": "The address of the pool.",
          "tranche": "The tranche of the pool, 0 - AA, 1 - A, 2 - BBB."
        }
      },
      "updateInterestRateAdjustment(address)": {
        "details": "Update the interest rate adjustment of the pool",
        "params": {
          "token": "Address of the pool"
        }
      },
      "updateInterestRates(address,uint256)": {
        "details": "Update interest rate of the pool",
        "params": {
          "interestRate": "The interest rate per block of Tranche A. Input 316 for 3.16% APY",
          "token": "The underlying base token for the pool, e.g., DAI."
        }
      }
    },
    "version": 1
  },
  "userdoc": {
    "kind": "user",
    "methods": {
      "addCollToken(uint256,uint256)": {
        "notice": "Add collateral token to position. Must be called during execution."
      },
      "borrow(address,address,uint256,uint256)": {
        "notice": "Borrow tokens from the pool. Must only be called by adapter while under execution."
      },
      "distributeCreditLosses(address,uint256,uint256)": {
        "notice": "Settle credit event callback"
      },
      "getCurrPositionId()": {
        "notice": "Return current position ID"
      },
      "getMaxBorrowAmount(address,uint256)": {
        "notice": "Get the maximum available borrow amount"
      },
      "getNextPositionId()": {
        "notice": "Return next position ID"
      },
      "getPoolInfo(address)": {
        "notice": "Get pool information"
      },
      "getPosition(uint256)": {
        "notice": "Get position information"
      },
      "getPositionIds(address)": {
        "notice": "Get all position IDs of a borrower"
      },
      "getPositionInterest(address,uint256)": {
        "notice": "Get interest a position need to pay"
      },
      "getStake(address,address)": {
        "notice": "Get stakes of a user in a pool"
      },
      "getStakeIds(address)": {
        "notice": "Get all stake IDs of a lender"
      },
      "liquidate(address,uint256)": {
        "notice": "Liquidate a position when conditions are satisfied"
      },
      "repay(address,uint256)": {
        "notice": "Repay tokens to the pool and close the position. Must only be called while under execution."
      },
      "stake(address,uint256,uint256)": {
        "notice": "Stake to a treasury pool."
      },
      "unstake(address,uint256,uint256)": {
        "notice": "Unstake from a treasury pool."
      }
    },
    "version": 1
  }
}