{
  "contractName": "PriceOracle",
  "abi": [
    {
      "inputs": [],
      "stateMutability": "nonpayable",
      "type": "constructor"
    },
    {
      "anonymous": false,
      "inputs": [
        {
          "indexed": false,
          "internalType": "address",
          "name": "token",
          "type": "address"
        },
        {
          "indexed": false,
          "internalType": "uint256",
          "name": "price",
          "type": "uint256"
        }
      ],
      "name": "setPriceEvent",
      "type": "event"
    },
    {
      "inputs": [],
      "name": "acceptGovernor",
      "outputs": [],
      "stateMutability": "nonpayable",
      "type": "function"
    },
    {
      "inputs": [],
      "name": "governor",
      "outputs": [
        {
          "internalType": "address",
          "name": "",
          "type": "address"
        }
      ],
      "stateMutability": "view",
      "type": "function"
    },
    {
      "inputs": [],
      "name": "pendingGovernor",
      "outputs": [
        {
          "internalType": "address",
          "name": "",
          "type": "address"
        }
      ],
      "stateMutability": "view",
      "type": "function"
    },
    {
      "inputs": [
        {
          "internalType": "address",
          "name": "",
          "type": "address"
        }
      ],
      "name": "priceMap",
      "outputs": [
        {
          "internalType": "uint256",
          "name": "",
          "type": "uint256"
        }
      ],
      "stateMutability": "view",
      "type": "function"
    },
    {
      "inputs": [
        {
          "internalType": "address",
          "name": "addr",
          "type": "address"
        }
      ],
      "name": "setPendingGovernor",
      "outputs": [],
      "stateMutability": "nonpayable",
      "type": "function"
    },
    {
      "inputs": [
        {
          "internalType": "address",
          "name": "token",
          "type": "address"
        }
      ],
      "name": "getPrice",
      "outputs": [
        {
          "internalType": "uint256",
          "name": "",
          "type": "uint256"
        }
      ],
      "stateMutability": "view",
      "type": "function"
    },
    {
      "inputs": [
        {
          "internalType": "address[]",
          "name": "tokens",
          "type": "address[]"
        },
        {
          "internalType": "uint256[]",
          "name": "prices",
          "type": "uint256[]"
        }
      ],
      "name": "setPrices",
      "outputs": [],
      "stateMutability": "nonpayable",
      "type": "function"
    }
  ],
  "bytecode": "0x608060405234801561001057600080fd5b5061001961001e565b6100fa565b600054610100900460ff168061003757506100376100d9565b80610045575060005460ff16155b6100805760405162461bcd60e51b815260040180806020018281038252602e8152602001806106b0602e913960400191505060405180910390fd5b600054610100900460ff161580156100ab576000805460ff1961ff0019909116610100171660011790555b6000805462010000600160b01b03191633620100000217905580156100d6576000805461ff00191690555b50565b60006100ee306100f460201b61056b1760201c565b15905090565b3b151590565b6105a7806101096000396000f3fe608060405234801561001057600080fd5b506004361061007d5760003560e01c8063e3056a341161005b578063e3056a3414610207578063e58bb6391461020f578063eaa8972914610217578063f235757f1461023d5761007d565b80630c340a241461008257806341976e09146100a65780634352fa9f146100de575b600080fd5b61008a610263565b604080516001600160a01b039092168252519081900360200190f35b6100cc600480360360208110156100bc57600080fd5b50356001600160a01b0316610278565b60408051918252519081900360200190f35b610205600480360360408110156100f457600080fd5b81019060208101813564010000000081111561010f57600080fd5b82018360208201111561012157600080fd5b8035906020019184602083028401116401000000008311171561014357600080fd5b919080806020026020016040519081016040528093929190818152602001838360200280828437600092019190915250929594936020810193503591505064010000000081111561019357600080fd5b8201836020820111156101a557600080fd5b803590602001918460208302840111640100000000831117156101c757600080fd5b9190808060200260200160405190810160405280939291908181526020018383602002808284376000920191909152509295506102e9945050505050565b005b61008a610465565b610205610474565b6100cc6004803603602081101561022d57600080fd5b50356001600160a01b03166104e8565b6102056004803603602081101561025357600080fd5b50356001600160a01b03166104fa565b6000546201000090046001600160a01b031681565b6001600160a01b038116600090815260026020526040812054806102e3576040805162461bcd60e51b815260206004820152601a60248201527f67657450726963653a207072696365206e6f7420666f756e642e000000000000604482015290519081900360640190fd5b92915050565b6000546201000090046001600160a01b03163314610338576040805162461bcd60e51b81526020600482015260076024820152663130b21033b7bb60c91b604482015290519081900360640190fd5b805182511461038e576040805162461bcd60e51b815260206004820152601f60248201527f7365745072696365733a206c656e6774687320646f206e6f74206d6174636800604482015290519081900360640190fd5b60005b8251811015610460578181815181106103a657fe5b6020026020010151600260008584815181106103be57fe5b60200260200101516001600160a01b03166001600160a01b03168152602001908152602001600020819055507f588be8105da92531a0b9aa42270053c162c89beba225e716353cde274c11441783828151811061041757fe5b602002602001015183838151811061042b57fe5b602002602001015160405180836001600160a01b031681526020018281526020019250505060405180910390a1600101610391565b505050565b6001546001600160a01b031681565b6001546001600160a01b031633146104bd576040805162461bcd60e51b81526020600482015260076024820152661b9bc81c195b9960ca1b604482015290519081900360640190fd5b600180546001600160a01b03191690556000805462010000600160b01b031916336201000002179055565b60026020526000908152604090205481565b6000546201000090046001600160a01b03163314610549576040805162461bcd60e51b81526020600482015260076024820152663130b21033b7bb60c91b604482015290519081900360640190fd5b600180546001600160a01b0319166001600160a01b0392909216919091179055565b3b15159056fea2646970667358221220c87423fd3aa35ded0d6cfa57b1542c7d96a214973e020d5cc97d3f833918578e64736f6c63430007060033496e697469616c697a61626c653a20636f6e747261637420697320616c726561647920696e697469616c697a6564",
  "immutableReferences": {},
  "source": "// SPDX-License-Identifier: MIT\n\npragma solidity 0.7.6;\n\nimport '../lib/Governable.sol';\nimport \"../interfaces/IPriceOracle.sol\";\n\ncontract PriceOracle is IPriceOracle, Governable {\n\n    mapping(address => uint) public priceMap;\n\n    event setPriceEvent(address token, uint price);\n\n    constructor() {\n        __Governable__init();\n    }\n\n    /// @notice Return the value of the given token in ETH.\n    /// @param token The ERC20 token\n    function getPrice(address token) external view override returns (uint) {\n        uint price = priceMap[token];\n        require(price != 0, 'getPrice: price not found.');\n        return price;\n    }\n\n    /// @notice Set the prices of the given tokens.\n    /// @param tokens The tokens to set the prices.\n    /// @param prices The prices of tokens.\n    function setPrices(address[] memory tokens, uint[] memory prices) external onlyGov {\n        require(tokens.length == prices.length, 'setPrices: lengths do not match');\n        for (uint i = 0; i < tokens.length; i++) {\n            priceMap[tokens[i]] = prices[i];\n            emit setPriceEvent(tokens[i], prices[i]);\n        }\n    }\n}\n",
  "sourcePath": "/home/joe/local2/bench/git/nutmeg/contracts/oracles/PriceOracle.sol",
  "compiler": {
    "name": "solc",
    "version": "0.7.6+commit.7338295f.Emscripten.clang"
  },
  "schemaVersion": "3.3.4",
  "updatedAt": "2021-04-29T11:24:49.141Z",
  "devdoc": {
    "kind": "dev",
    "methods": {
      "acceptGovernor()": {
        "details": "Accept to become the new governor. Must be called by the pending governor."
      },
      "getPrice(address)": {
        "params": {
          "token": "The ERC20 token"
        }
      },
      "setPendingGovernor(address)": {
        "details": "Set the pending governor, which will be the governor once accepted.",
        "params": {
          "addr": "The address of the pending governor."
        }
      },
      "setPrices(address[],uint256[])": {
        "params": {
          "prices": "The prices of tokens.",
          "tokens": "The tokens to set the prices."
        }
      }
    },
    "version": 1
  },
  "userdoc": {
    "kind": "user",
    "methods": {
      "getPrice(address)": {
        "notice": "Return the value of the given token in ETH."
      },
      "setPrices(address[],uint256[])": {
        "notice": "Set the prices of the given tokens."
      }
    },
    "version": 1
  }
}