{
  "contractName": "TestNutDistributor",
  "abi": [
    {
      "inputs": [],
      "name": "BLOCKS_PER_EPOCH",
      "outputs": [
        {
          "internalType": "uint256",
          "name": "",
          "type": "uint256"
        }
      ],
      "stateMutability": "view",
      "type": "function"
    },
    {
      "inputs": [],
      "name": "CURRENT_EPOCH",
      "outputs": [
        {
          "internalType": "uint256",
          "name": "",
          "type": "uint256"
        }
      ],
      "stateMutability": "view",
      "type": "function"
    },
    {
      "inputs": [],
      "name": "DIST_MIN_AMOUNT",
      "outputs": [
        {
          "internalType": "uint256",
          "name": "",
          "type": "uint256"
        }
      ],
      "stateMutability": "view",
      "type": "function"
    },
    {
      "inputs": [],
      "name": "DIST_START_AMOUNT",
      "outputs": [
        {
          "internalType": "uint256",
          "name": "",
          "type": "uint256"
        }
      ],
      "stateMutability": "view",
      "type": "function"
    },
    {
      "inputs": [],
      "name": "DIST_START_BLOCK",
      "outputs": [
        {
          "internalType": "uint256",
          "name": "",
          "type": "uint256"
        }
      ],
      "stateMutability": "view",
      "type": "function"
    },
    {
      "inputs": [],
      "name": "MAX_NUM_POOLS",
      "outputs": [
        {
          "internalType": "uint256",
          "name": "",
          "type": "uint256"
        }
      ],
      "stateMutability": "view",
      "type": "function"
    },
    {
      "inputs": [],
      "name": "NUM_EPOCH",
      "outputs": [
        {
          "internalType": "uint256",
          "name": "",
          "type": "uint256"
        }
      ],
      "stateMutability": "view",
      "type": "function"
    },
    {
      "inputs": [],
      "name": "acceptGovernor",
      "outputs": [],
      "stateMutability": "nonpayable",
      "type": "function"
    },
    {
      "inputs": [],
      "name": "collect",
      "outputs": [],
      "stateMutability": "nonpayable",
      "type": "function"
    },
    {
      "inputs": [
        {
          "internalType": "uint256",
          "name": "",
          "type": "uint256"
        }
      ],
      "name": "distCompletionMap",
      "outputs": [
        {
          "internalType": "bool",
          "name": "",
          "type": "bool"
        }
      ],
      "stateMutability": "view",
      "type": "function"
    },
    {
      "inputs": [],
      "name": "distribute",
      "outputs": [],
      "stateMutability": "nonpayable",
      "type": "function"
    },
    {
      "inputs": [
        {
          "internalType": "uint256",
          "name": "",
          "type": "uint256"
        }
      ],
      "name": "echoMap",
      "outputs": [
        {
          "internalType": "uint256",
          "name": "id",
          "type": "uint256"
        },
        {
          "internalType": "uint256",
          "name": "endBlock",
          "type": "uint256"
        },
        {
          "internalType": "uint256",
          "name": "amount",
          "type": "uint256"
        }
      ],
      "stateMutability": "view",
      "type": "function"
    },
    {
      "inputs": [],
      "name": "getCollectionAmount",
      "outputs": [
        {
          "internalType": "uint256",
          "name": "",
          "type": "uint256"
        }
      ],
      "stateMutability": "view",
      "type": "function"
    },
    {
      "inputs": [
        {
          "internalType": "address",
          "name": "pool",
          "type": "address"
        },
        {
          "internalType": "uint256",
          "name": "i",
          "type": "uint256"
        }
      ],
      "name": "getTotalVtb",
      "outputs": [
        {
          "internalType": "uint256",
          "name": "",
          "type": "uint256"
        }
      ],
      "stateMutability": "view",
      "type": "function"
    },
    {
      "inputs": [
        {
          "internalType": "address",
          "name": "pool",
          "type": "address"
        },
        {
          "internalType": "address",
          "name": "lender",
          "type": "address"
        },
        {
          "internalType": "uint256",
          "name": "i",
          "type": "uint256"
        }
      ],
      "name": "getVtb",
      "outputs": [
        {
          "internalType": "uint256",
          "name": "",
          "type": "uint256"
        }
      ],
      "stateMutability": "view",
      "type": "function"
    },
    {
      "inputs": [],
      "name": "governor",
      "outputs": [
        {
          "internalType": "address",
          "name": "",
          "type": "address"
        }
      ],
      "stateMutability": "view",
      "type": "function"
    },
    {
      "inputs": [],
      "name": "inNutDistribution",
      "outputs": [
        {
          "internalType": "bool",
          "name": "",
          "type": "bool"
        }
      ],
      "stateMutability": "view",
      "type": "function"
    },
    {
      "inputs": [],
      "name": "nut",
      "outputs": [
        {
          "internalType": "address",
          "name": "",
          "type": "address"
        }
      ],
      "stateMutability": "view",
      "type": "function"
    },
    {
      "inputs": [],
      "name": "nutmeg",
      "outputs": [
        {
          "internalType": "address",
          "name": "",
          "type": "address"
        }
      ],
      "stateMutability": "view",
      "type": "function"
    },
    {
      "inputs": [],
      "name": "oracle",
      "outputs": [
        {
          "internalType": "address",
          "name": "",
          "type": "address"
        }
      ],
      "stateMutability": "view",
      "type": "function"
    },
    {
      "inputs": [],
      "name": "pendingGovernor",
      "outputs": [
        {
          "internalType": "address",
          "name": "",
          "type": "address"
        }
      ],
      "stateMutability": "view",
      "type": "function"
    },
    {
      "inputs": [
        {
          "internalType": "uint256",
          "name": "",
          "type": "uint256"
        }
      ],
      "name": "pools",
      "outputs": [
        {
          "internalType": "address",
          "name": "",
          "type": "address"
        }
      ],
      "stateMutability": "view",
      "type": "function"
    },
    {
      "inputs": [
        {
          "internalType": "address",
          "name": "addr",
          "type": "address"
        }
      ],
      "name": "setNutmegAddress",
      "outputs": [],
      "stateMutability": "nonpayable",
      "type": "function"
    },
    {
      "inputs": [
        {
          "internalType": "address",
          "name": "addr",
          "type": "address"
        }
      ],
      "name": "setPendingGovernor",
      "outputs": [],
      "stateMutability": "nonpayable",
      "type": "function"
    },
    {
      "inputs": [
        {
          "internalType": "address",
          "name": "addr",
          "type": "address"
        }
      ],
      "name": "setPriceOracle",
      "outputs": [],
      "stateMutability": "nonpayable",
      "type": "function"
    },
    {
      "inputs": [
        {
          "internalType": "address",
          "name": "",
          "type": "address"
        },
        {
          "internalType": "uint256",
          "name": "",
          "type": "uint256"
        }
      ],
      "name": "totalNutMap",
      "outputs": [
        {
          "internalType": "uint256",
          "name": "",
          "type": "uint256"
        }
      ],
      "stateMutability": "view",
      "type": "function"
    },
    {
      "inputs": [
        {
          "internalType": "address",
          "name": "",
          "type": "address"
        },
        {
          "internalType": "uint256",
          "name": "",
          "type": "uint256"
        }
      ],
      "name": "totalVtbMap",
      "outputs": [
        {
          "internalType": "uint256",
          "name": "",
          "type": "uint256"
        }
      ],
      "stateMutability": "view",
      "type": "function"
    },
    {
      "inputs": [
        {
          "internalType": "address",
          "name": "token",
          "type": "address"
        },
        {
          "internalType": "address",
          "name": "lender",
          "type": "address"
        },
        {
          "internalType": "uint256",
          "name": "incAmount",
          "type": "uint256"
        },
        {
          "internalType": "uint256",
          "name": "decAmount",
          "type": "uint256"
        }
      ],
      "name": "updateVtb",
      "outputs": [],
      "stateMutability": "nonpayable",
      "type": "function"
    },
    {
      "inputs": [
        {
          "internalType": "address",
          "name": "",
          "type": "address"
        },
        {
          "internalType": "address",
          "name": "",
          "type": "address"
        },
        {
          "internalType": "uint256",
          "name": "",
          "type": "uint256"
        }
      ],
      "name": "vtbMap",
      "outputs": [
        {
          "internalType": "uint256",
          "name": "",
          "type": "uint256"
        }
      ],
      "stateMutability": "view",
      "type": "function"
    },
    {
      "inputs": [
        {
          "internalType": "address",
          "name": "nutAddr",
          "type": "address"
        },
        {
          "internalType": "address",
          "name": "_governor",
          "type": "address"
        },
        {
          "internalType": "uint256",
          "name": "blocks_per_epoch",
          "type": "uint256"
        }
      ],
      "name": "initialize",
      "outputs": [],
      "stateMutability": "nonpayable",
      "type": "function"
    },
    {
      "inputs": [
        {
          "internalType": "address",
          "name": "nutAddr",
          "type": "address"
        },
        {
          "internalType": "address",
          "name": "_governor",
          "type": "address"
        }
      ],
      "name": "initialize",
      "outputs": [],
      "stateMutability": "nonpayable",
      "type": "function"
    },
    {
      "inputs": [],
      "name": "getVersionString",
      "outputs": [
        {
          "internalType": "string",
          "name": "",
          "type": "string"
        }
      ],
      "stateMutability": "pure",
      "type": "function"
    }
  ],
  "bytecode": "0x608060405234801561001057600080fd5b5061221a806100206000396000f3fe608060405234801561001057600080fd5b50600436106101f05760003560e01c8063625372db1161010f578063ad8102fa116100a2578063e4fc6b6d11610071578063e4fc6b6d146103b2578063e5225381146103ba578063e58bb639146103c2578063f235757f146103ca576101f0565b8063ad8102fa1461037c578063bf47c26414610384578063d44b7af114610397578063e3056a34146103aa576101f0565b80638b159cee116100de5780638b159cee1461033b5780639107a25f1461034e578063960874d814610356578063ac4afa3814610369576101f0565b8063625372db14610310578063656d565e14610323578063763f31a21461032b5780637dc0d1d014610333576101f0565b80632c6bb55411610187578063485cc95511610156578063485cc955146102b55780634ce41ac0146102c85780634d24cff0146102ea578063530e784f146102fd576101f0565b80632c6bb5541461028a578063325140ea146102925780633d02df6f1461029a5780633fde3f9f146102a2576101f0565b806315d3b7a0116101c357806315d3b7a01461025d5780631794bb3c146102655780631f3adc0f1461027a5780632962420714610282576101f0565b80630374119e146101f557806305b540f2146102135780630c340a2414610228578063153173d61461023d575b600080fd5b6101fd6103dd565b60405161020a919061205d565b60405180910390f35b61021b6103eb565b60405161020a919061200a565b610230610414565b60405161020a9190611feb565b61025061024b366004611fd3565b610429565b60405161020a9190611fff565b61023061043e565b610278610273366004611f2e565b61044d565b005b6101fd6105a3565b6101fd6105a9565b6101fd6105af565b6101fd610710565b610250610716565b6101fd6102b0366004611faa565b61073f565b6102786102c3366004611efc565b610764565b6102db6102d6366004611fd3565b6108b6565b60405161020a93929190612066565b6101fd6102f8366004611faa565b6108d7565b61027861030b366004611ee2565b61098d565b61027861031e366004611f69565b6109fe565b610230610efb565b6101fd610f0a565b610230610f10565b6101fd610349366004611faa565b610f1f565b6101fd610f3b565b6101fd610364366004611f2e565b610f40565b610230610377366004611fd3565b611017565b6101fd611041565b6101fd610392366004611f2e565b61104f565b6102786103a5366004611ee2565b611081565b6102306110f2565b610278611101565b6102786115f3565b6102786119cf565b6102786103d8366004611ee2565b611a43565b6934f086f3b33b6840000081565b60408051808201909152600f81526e3a32b9ba17373aba3234b9ba3934b160891b602082015290565b6000546201000090046001600160a01b031681565b600b6020526000908152604090205460ff1681565b6003546001600160a01b031681565b600054610100900460ff16806104665750610466611ab4565b80610474575060005460ff16155b6104af5760405162461bcd60e51b815260040180806020018281038252602e8152602001806120ca602e913960400191505060405180910390fd5b600054610100900460ff161580156104da576000805460ff1961ff0019909116610100171660011790555b6104e48484610764565b600682905560005b600f81101561058a576000818152600a60205260409020818155610529610520610517846001611ac5565b60065490611b1f565b60055490611ac5565b8160010181905550600061055b61054a600185611ac590919063ffffffff16565b6934f086f3b33b6840000090611b78565b90506903f870857a3e0e38000081101561057c57506903f870857a3e0e3800005b6002909101556001016104ec565b50801561059d576000805461ff00191690555b50505050565b60065481565b60075481565b6000806105d36006546105cd60055443611bdf90919063ffffffff16565b90611b78565b9050600081116106145760405162461bcd60e51b815260040180806020018281038252602e815260200180612143602e913960400191505060405180910390fd5b60095433906000906101001161062c57610100610630565b6009545b90506000805b828110156107075760006009828154811061064d57fe5b60009182526020822001546001600160a01b031691505b86811080156106735750600f81105b156106fd576000610685838884610f40565b90506000811180156106a05750600061069e84846108d7565b115b156106f45760006106e46106b485856108d7565b6001600160a01b0386166000908152600d602052604090206105cd9086600f81106106db57fe5b01548590611b1f565b90506106f08682611ac5565b9550505b50600101610664565b5050600101610636565b50935050505090565b60055481565b6000600554431015801561073a57506006546107379061052090600f611b1f565b43105b905090565b600c60205281600052604060002081600f811061075b57600080fd5b01549150829050565b600054610100900460ff168061077d575061077d611ab4565b8061078b575060005460ff16155b6107c65760405162461bcd60e51b815260040180806020018281038252602e8152602001806120ca602e913960400191505060405180910390fd5b600054610100900460ff161580156107f1576000805460ff1961ff0019909116610100171660011790555b600380546001600160a01b0319166001600160a01b0385161790554360055562013b0060065561082082611c3c565b60005b600f81101561089e576000818152600a6020526040902081815561084e610520610517846001611ac5565b8160010181905550600061086f61054a600185611ac590919063ffffffff16565b90506903f870857a3e0e38000081101561089057506903f870857a3e0e3800005b600290910155600101610823565b5080156108b1576000805461ff00191690555b505050565b600a6020526000908152604090208054600182015460029092015490919083565b6000600f8210610921576040805162461bcd60e51b815260206004820152601060248201526f3a37ba30b62b3a311034b23c1032b93960811b604482015290519081900360640190fd5b6001600160a01b038316600090815260116020526040902054821061095e576001600160a01b0383166000908152600f6020526040902054610984565b6001600160a01b0383166000908152600c6020526040902082600f811061098157fe5b01545b90505b92915050565b6000546201000090046001600160a01b031633146109dc576040805162461bcd60e51b81526020600482015260076024820152663130b21033b7bb60c91b604482015290519081900360640190fd5b600480546001600160a01b0319166001600160a01b0392909216919091179055565b6002546001600160a01b03163314610a54576040805162461bcd60e51b81526020600482015260146024820152731bdb9b1e481b9d5d1b5959c818d85b8818d85b1b60621b604482015290519081900360640190fd5b600554431015610aab576040805162461bcd60e51b815260206004820152601f60248201527f7570646174655674623a20696e76616c696420626c6f636b206e756d62657200604482015290519081900360640190fd5b811580610ab6575080155b610af15760405162461bcd60e51b81526004018080602001828103825260238152602001806121716023913960400191505060405180910390fd5b6000610afd8383611ac5565b905060008111610b3e5760405162461bcd60e51b815260040180806020018281038252602b81526020018061209f602b913960400191505060405180910390fd5b610b596006546105cd60055443611bdf90919063ffffffff16565b6007819055600f11610b6b575061059d565b610b758585611d01565b610b7e85611e01565b6007546000908152600a6020526040812060010154610ba9908390610ba39043611bdf565b90611b1f565b90506000610bc283600654611b1f90919063ffffffff16565b90508415610d1e576001600160a01b038088166000908152600e60209081526040808320938a16835292905220600754610c0a918491600f8110610c0257fe5b015490611ac5565b6001600160a01b038089166000908152600e60209081526040808320938b16835292905220600754600f8110610c3c57fe5b01556001600160a01b0387166000908152600c60205260409020600754610c69918491600f8110610c0257fe5b6001600160a01b0388166000908152600c60205260409020600754600f8110610c8e57fe5b01556001600160a01b038088166000908152601060209081526040808320938a1683529290522054610cc09082611ac5565b6001600160a01b038089166000818152601060209081526040808320948c16835293815283822094909455908152600f909252902054610d009082611ac5565b6001600160a01b0388166000908152600f6020526040902055610e6e565b6001600160a01b038088166000908152600e60209081526040808320938a16835292905220600754610d5e918491600f8110610d5657fe5b015490611bdf565b6001600160a01b038089166000908152600e60209081526040808320938b16835292905220600754600f8110610d9057fe5b01556001600160a01b0387166000908152600c60205260409020600754610dbd918491600f8110610d5657fe5b6001600160a01b0388166000908152600c60205260409020600754600f8110610de257fe5b01556001600160a01b038088166000908152601060209081526040808320938a1683529290522054610e149082611bdf565b6001600160a01b038089166000818152601060209081526040808320948c16835293815283822094909455908152600f909252902054610e549082611bdf565b6001600160a01b0388166000908152600f60205260409020555b6001600160a01b03871660009081526008602052604090205460ff16610ef2576009805460018082019092557f6e1540171b6c0c960b71a7020d9f60077f6af931a8bbf590da0223dacf75c7af0180546001600160a01b0319166001600160a01b038a169081179091556000908152600860205260409020805460ff191690911790555b50505050505050565b6002546001600160a01b031681565b61010081565b6004546001600160a01b031681565b600d60205281600052604060002081600f811061075b57600080fd5b600f81565b6000600f8210610f85576040805162461bcd60e51b815260206004820152600b60248201526a3b3a311034b23c1032b93960a91b604482015290519081900360640190fd5b6001600160a01b038085166000908152601260209081526040808320938716835292905220548210610fdc576001600160a01b0380851660009081526010602090815260408083209387168352929052205461100f565b6001600160a01b038085166000908152600e6020908152604080832093871683529290522082600f811061100c57fe5b01545b949350505050565b6009818154811061102757600080fd5b6000918252602090912001546001600160a01b0316905081565b6903f870857a3e0e38000081565b600e60205282600052604060002060205281600052604060002081600f811061107757600080fd5b0154925083915050565b6000546201000090046001600160a01b031633146110d0576040805162461bcd60e51b81526020600482015260076024820152663130b21033b7bb60c91b604482015290519081900360640190fd5b600280546001600160a01b0319166001600160a01b0392909216919091179055565b6001546001600160a01b031681565b6000546201000090046001600160a01b03163314611150576040805162461bcd60e51b81526020600482015260076024820152663130b21033b7bb60c91b604482015290519081900360640190fd5b6004546001600160a01b03166111ad576040805162461bcd60e51b815260206004820152601f60248201527f646973747269627574653a206e6f206f7261636c6520617661696c61626c6500604482015290519081900360640190fd5b60006111ca6006546105cd60055443611bdf90919063ffffffff16565b90506000811161120b5760405162461bcd60e51b815260040180806020018281038252602c8152602001806121b9602c913960400191505060405180910390fd5b611217600f6001611ac5565b81106112545760405162461bcd60e51b815260040180806020018281038252602a815260200180612119602a913960400191505060405180910390fd5b6000611261826001611bdf565b6000818152600b602052604090205490915060ff16156112b25760405162461bcd60e51b81526004018080602001828103825260258152602001806121946025913960400191505060405180910390fd5b6000818152600a60205260408082206002015460035482516340c10f1960e01b815230600482015260248101839052925191936001600160a01b03909116926340c10f19926044808301939282900301818387803b15801561131357600080fd5b505af1158015611327573d6000803e3d6000fd5b5050505060006101006009805490501061134357610100611347565b6009545b905060008060005b8381101561144b57600454600980546000926001600160a01b0316916341976e09918590811061137b57fe5b60009182526020918290200154604080516001600160e01b031960e086901b1681526001600160a01b0390921660048301525160248083019392829003018186803b1580156113c957600080fd5b505afa1580156113dd573d6000803e3d6000fd5b505050506040513d60208110156113f357600080fd5b5051600980549192506000916114339161142c918690811061141157fe5b6000918252602090912001546001600160a01b03168a6108d7565b8390611b1f565b905061143f8582611ac5565b9450505060010161134f565b5081156115875760005b8381101561158557600454600980546000926001600160a01b0316916341976e09918590811061148157fe5b60009182526020918290200154604080516001600160e01b031960e086901b1681526001600160a01b0390921660048301525160248083019392829003018186803b1580156114cf57600080fd5b505afa1580156114e3573d6000803e3d6000fd5b505050506040513d60208110156114f957600080fd5b5051600980549192506000916115179161142c918690811061141157fe5b90506000611529866105cd848b611b1f565b90506115358582611ac5565b945080600d60006009878154811061154957fe5b60009182526020808320909101546001600160a01b0316835282019290925260400190208a600f811061157857fe5b0155505050600101611455565b505b838111156115d3576040805162461bcd60e51b8152602060048201526014602482015273646973747269627574653a206f766572666c6f7760601b604482015290519081900360640190fd5b505050600091825250600b60205260409020805460ff1916600117905550565b60006116106006546105cd60055443611bdf90919063ffffffff16565b9050600081116116515760405162461bcd60e51b815260040180806020018281038252602281526020018061207d6022913960400191505060405180910390fd5b6009543390600090610100116116695761010061166d565b6009545b90506000805b8281101561174a5760006009828154811061168a57fe5b60009182526020822001546001600160a01b031691505b86811080156116b05750600f81105b156117405760006116c2838884610f40565b90506000811180156116dd575060006116db84846108d7565b115b156117375760006116f16106b485856108d7565b90506116fd8682611ac5565b6001600160a01b038086166000908152600e60209081526040808320938d1683529290529081209197509084600f811061173357fe5b0155505b506001016116a1565b5050600101611673565b50801561059d576003546040805163095ea7b360e01b815230600482015260006024820181905291516001600160a01b039093169263095ea7b392604480840193602093929083900390910190829087803b1580156117a857600080fd5b505af11580156117bc573d6000803e3d6000fd5b505050506040513d60208110156117d257600080fd5b5051611825576040805162461bcd60e51b815260206004820152601a60248201527f6469737472696275746f7220617070726f7665206661696c6564000000000000604482015290519081900360640190fd5b6003546040805163095ea7b360e01b81523060048201526024810184905290516001600160a01b039092169163095ea7b3916044808201926020929091908290030181600087803b15801561187957600080fd5b505af115801561188d573d6000803e3d6000fd5b505050506040513d60208110156118a357600080fd5b50516118f6576040805162461bcd60e51b815260206004820152601d60248201527f4e75744469737420617070726f766520616d6f756e74206661696c6564000000604482015290519081900360640190fd5b600354604080516323b872dd60e01b81523060048201526001600160a01b03868116602483015260448201859052915191909216916323b872dd9160648083019260209291908290030181600087803b15801561195257600080fd5b505af1158015611966573d6000803e3d6000fd5b505050506040513d602081101561197c57600080fd5b505161059d576040805162461bcd60e51b815260206004820152601760248201527f4e757444697374207472616e73666572206661696c6564000000000000000000604482015290519081900360640190fd5b6001546001600160a01b03163314611a18576040805162461bcd60e51b81526020600482015260076024820152661b9bc81c195b9960ca1b604482015290519081900360640190fd5b600180546001600160a01b03191690556000805462010000600160b01b031916336201000002179055565b6000546201000090046001600160a01b03163314611a92576040805162461bcd60e51b81526020600482015260076024820152663130b21033b7bb60c91b604482015290519081900360640190fd5b600180546001600160a01b0319166001600160a01b0392909216919091179055565b6000611abf30611ec1565b15905090565b600082820183811015610984576040805162461bcd60e51b815260206004820152601b60248201527f536166654d6174683a206164646974696f6e206f766572666c6f770000000000604482015290519081900360640190fd5b600082611b2e57506000610987565b82820282848281611b3b57fe5b04146109845760405162461bcd60e51b81526004018080602001828103825260218152602001806120f86021913960400191505060405180910390fd5b6000808211611bce576040805162461bcd60e51b815260206004820152601a60248201527f536166654d6174683a206469766973696f6e206279207a65726f000000000000604482015290519081900360640190fd5b818381611bd757fe5b049392505050565b600082821115611c36576040805162461bcd60e51b815260206004820152601e60248201527f536166654d6174683a207375627472616374696f6e206f766572666c6f770000604482015290519081900360640190fd5b50900390565b600054610100900460ff1680611c555750611c55611ab4565b80611c63575060005460ff16155b611c9e5760405162461bcd60e51b815260040180806020018281038252602e8152602001806120ca602e913960400191505060405180910390fd5b600054610100900460ff16158015611cc9576000805460ff1961ff0019909116610100171660011790555b6000805462010000600160b01b031916620100006001600160a01b038516021790558015611cfd576000805461ff00191690555b5050565b6007546001600160a01b038084166000908152601260209081526040808320938616835292905220541180611d395750600f60075410155b15611d4357611cfd565b6001600160a01b038083166000818152601060209081526040808320948616808452948252808320549383526012825280832094835293905291909120545b6007548111611dc7576001600160a01b038085166000908152600e60209081526040808320938716835292905220829082600f8110611dbd57fe5b0155600101611d82565b50600754611dd6906001611ac5565b6001600160a01b03808516600090815260126020908152604080832093871683529290522055505050565b6007546001600160a01b0382166000908152601160205260409020541180611e2c5750600f60075410155b15611e3657611ebe565b6001600160a01b0381166000908152600f60209081526040808320546011909252909120545b6007548111611e94576001600160a01b0383166000908152600c60205260409020829082600f8110611e8a57fe5b0155600101611e5c565b50600754611ea3906001611ac5565b6001600160a01b038316600090815260116020526040902055505b50565b803b15155b919050565b80356001600160a01b0381168114611ec657600080fd5b600060208284031215611ef3578081fd5b61098482611ecb565b60008060408385031215611f0e578081fd5b611f1783611ecb565b9150611f2560208401611ecb565b90509250929050565b600080600060608486031215611f42578081fd5b611f4b84611ecb565b9250611f5960208501611ecb565b9150604084013590509250925092565b60008060008060808587031215611f7e578081fd5b611f8785611ecb565b9350611f9560208601611ecb565b93969395505050506040820135916060013590565b60008060408385031215611fbc578182fd5b611fc583611ecb565b946020939093013593505050565b600060208284031215611fe4578081fd5b5035919050565b6001600160a01b0391909116815260200190565b901515815260200190565b6000602080835283518082850152825b818110156120365785810183015185820160400152820161201a565b818111156120475783604083870101525b50601f01601f1916929092016040019392505050565b90815260200190565b928352602083019190915260408201526060019056fe636f6c6c6563743a20646973747269627574696f6e20697320636f6d706c657465647570646174655674623a2075706461746520616d6f756e742073686f756c6420626520706f736974697665496e697469616c697a61626c653a20636f6e747261637420697320616c726561647920696e697469616c697a6564536166654d6174683a206d756c7469706c69636174696f6e206f766572666c6f77646973747269627574653a206e757420746f6b656e20646973747269627574696f6e206973206f766572676574436f6c6c656374696f6e416d6f756e743a20646973747269627574696f6e20697320636f6d706c657465647570646174655674623a2075706461746520616d6f756e7420697320696e76616c6964646973747269627574653a20646973747269627574696f6e20697320636f6d706c65746564646973747269627574653a206e757420746f6b656e20646973747269627574696f6e206e6f74207265616479a264697066735822122049588ad6861f3f8fb5b30af5cb1284698cf2b58cea8b3676b5f28384fcf530aa64736f6c63430007060033",
  "immutableReferences": {},
  "source": "// SPDX-License-Identifier: MIT\npragma solidity 0.7.6;\npragma experimental ABIEncoderV2;\nimport \"../NutDistributor.sol\";\nimport \"@openzeppelin/contracts/token/ERC20/SafeERC20.sol\";\n\n// @notice This contract is a version of NutDistributor that allows\n// the epoch intervals to be changed for testing\n\ncontract TestNutDistributor is NutDistributor {\n    using SafeMath for uint;\n    function initialize (\n        address nutAddr,\n        address _governor,\n        uint blocks_per_epoch\n    ) external initializer {\n        initialize(nutAddr, _governor);\n\tBLOCKS_PER_EPOCH = blocks_per_epoch;\n\n        // config echoMap which indicates how many tokens will be distributed at each epoch\n        for (uint i = 0; i < NUM_EPOCH; i++) {\n            Echo storage echo =  echoMap[i];\n            echo.id = i;\n            echo.endBlock = DIST_START_BLOCK.add(BLOCKS_PER_EPOCH.mul(i.add(1)));\n            uint amount = DIST_START_AMOUNT.div(i.add(1));\n            if (amount < DIST_MIN_AMOUNT) {\n                amount = DIST_MIN_AMOUNT;\n            }\n            echo.amount = amount;\n        }\n    }\n\n    //@notice output version string\n    function getVersionString()\n    external virtual pure override returns (string memory) {\n        return \"test.nutdistrib\";\n   }\n}\n",
  "sourcePath": "/home/joe/local2/bench/git/nutmeg/contracts/mock/TestNutDistributor.sol",
  "compiler": {
    "name": "solc",
    "version": "0.7.6+commit.7338295f.Emscripten.clang"
  },
  "schemaVersion": "3.3.4",
  "updatedAt": "2021-04-29T11:24:49.132Z",
  "devdoc": {
    "kind": "dev",
    "methods": {
      "acceptGovernor()": {
        "details": "Accept to become the new governor. Must be called by the pending governor."
      },
      "collect()": {
        "details": "Collect Nut tokens"
      },
      "distribute()": {
        "details": "Distribute NUT tokens for the previous epoch"
      },
      "getCollectionAmount()": {
        "details": "getCollectionAmount get the # of NUT tokens for collection"
      },
      "setNutmegAddress(address)": {
        "details": "Set the Nutmeg"
      },
      "setPendingGovernor(address)": {
        "details": "Set the pending governor, which will be the governor once accepted.",
        "params": {
          "addr": "The address of the pending governor."
        }
      },
      "setPriceOracle(address)": {
        "details": "Set the oracle"
      },
      "updateVtb(address,address,uint256,uint256)": {
        "params": {
          "decAmount": "false=subtract/unstake true=add/stake",
          "incAmount": "to stake or unstake",
          "lender": "Address of the lender.",
          "token": "Base token of the pool."
        }
      }
    },
    "version": 1
  },
  "userdoc": {
    "kind": "user",
    "methods": {
      "updateVtb(address,address,uint256,uint256)": {
        "notice": "Update valueTimesBlocks of pools and the lender when they stake or unstake"
      }
    },
    "version": 1
  }
}