{
  "contractName": "TestNutmeg",
  "abi": [
    {
      "anonymous": false,
      "inputs": [
        {
          "indexed": false,
          "internalType": "address",
          "name": "bank",
          "type": "address"
        },
        {
          "indexed": false,
          "internalType": "uint256",
          "name": "interestRateA",
          "type": "uint256"
        }
      ],
      "name": "addPoolEvent",
      "type": "event"
    },
    {
      "anonymous": false,
      "inputs": [
        {
          "indexed": false,
          "internalType": "address",
          "name": "bank",
          "type": "address"
        },
        {
          "indexed": false,
          "internalType": "address",
          "name": "owner",
          "type": "address"
        },
        {
          "indexed": false,
          "internalType": "uint256",
          "name": "tranche",
          "type": "uint256"
        },
        {
          "indexed": false,
          "internalType": "uint256",
          "name": "amount",
          "type": "uint256"
        },
        {
          "indexed": false,
          "internalType": "uint256",
          "name": "depId",
          "type": "uint256"
        }
      ],
      "name": "stakeEvent",
      "type": "event"
    },
    {
      "anonymous": false,
      "inputs": [
        {
          "indexed": false,
          "internalType": "address",
          "name": "bank",
          "type": "address"
        },
        {
          "indexed": false,
          "internalType": "address",
          "name": "owner",
          "type": "address"
        },
        {
          "indexed": false,
          "internalType": "uint256",
          "name": "tranche",
          "type": "uint256"
        },
        {
          "indexed": false,
          "internalType": "uint256",
          "name": "amount",
          "type": "uint256"
        },
        {
          "indexed": false,
          "internalType": "uint256",
          "name": "depId",
          "type": "uint256"
        }
      ],
      "name": "unstakeEvent",
      "type": "event"
    },
    {
      "inputs": [],
      "name": "CURR_ADAPTER",
      "outputs": [
        {
          "internalType": "address",
          "name": "",
          "type": "address"
        }
      ],
      "stateMutability": "view",
      "type": "function"
    },
    {
      "inputs": [],
      "name": "CURR_POSITION_ID",
      "outputs": [
        {
          "internalType": "uint256",
          "name": "",
          "type": "uint256"
        }
      ],
      "stateMutability": "view",
      "type": "function"
    },
    {
      "inputs": [],
      "name": "CURR_SENDER",
      "outputs": [
        {
          "internalType": "address",
          "name": "",
          "type": "address"
        }
      ],
      "stateMutability": "view",
      "type": "function"
    },
    {
      "inputs": [],
      "name": "EXECUTION_LOCK",
      "outputs": [
        {
          "internalType": "uint256",
          "name": "",
          "type": "uint256"
        }
      ],
      "stateMutability": "view",
      "type": "function"
    },
    {
      "inputs": [],
      "name": "LIQUIDATION_COMMISSION",
      "outputs": [
        {
          "internalType": "uint256",
          "name": "",
          "type": "uint256"
        }
      ],
      "stateMutability": "view",
      "type": "function"
    },
    {
      "inputs": [],
      "name": "MAX_INTEREST_RATE_PER_BLOCK",
      "outputs": [
        {
          "internalType": "uint256",
          "name": "",
          "type": "uint256"
        }
      ],
      "stateMutability": "view",
      "type": "function"
    },
    {
      "inputs": [],
      "name": "MAX_NUM_POOL",
      "outputs": [
        {
          "internalType": "uint256",
          "name": "",
          "type": "uint256"
        }
      ],
      "stateMutability": "view",
      "type": "function"
    },
    {
      "inputs": [],
      "name": "MIN_INTEREST_RATE_PER_BLOCK",
      "outputs": [
        {
          "internalType": "uint256",
          "name": "",
          "type": "uint256"
        }
      ],
      "stateMutability": "view",
      "type": "function"
    },
    {
      "inputs": [],
      "name": "POOL_LOCK",
      "outputs": [
        {
          "internalType": "uint256",
          "name": "",
          "type": "uint256"
        }
      ],
      "stateMutability": "view",
      "type": "function"
    },
    {
      "inputs": [],
      "name": "POSITION_COUNTER",
      "outputs": [
        {
          "internalType": "uint256",
          "name": "",
          "type": "uint256"
        }
      ],
      "stateMutability": "view",
      "type": "function"
    },
    {
      "inputs": [],
      "name": "STAKE_COUNTER",
      "outputs": [
        {
          "internalType": "uint256",
          "name": "",
          "type": "uint256"
        }
      ],
      "stateMutability": "view",
      "type": "function"
    },
    {
      "inputs": [],
      "name": "VERSION_ID",
      "outputs": [
        {
          "internalType": "uint256",
          "name": "",
          "type": "uint256"
        }
      ],
      "stateMutability": "view",
      "type": "function"
    },
    {
      "inputs": [
        {
          "internalType": "address",
          "name": "baseToken",
          "type": "address"
        },
        {
          "internalType": "uint256",
          "name": "baseAmt",
          "type": "uint256"
        }
      ],
      "name": "_getCollateralRatioPct",
      "outputs": [
        {
          "internalType": "uint256",
          "name": "",
          "type": "uint256"
        }
      ],
      "stateMutability": "view",
      "type": "function"
    },
    {
      "inputs": [
        {
          "internalType": "uint256[3]",
          "name": "loans",
          "type": "uint256[3]"
        },
        {
          "internalType": "uint256",
          "name": "totalAmt",
          "type": "uint256"
        }
      ],
      "name": "_getRepayAmount",
      "outputs": [
        {
          "internalType": "uint256[3]",
          "name": "",
          "type": "uint256[3]"
        }
      ],
      "stateMutability": "pure",
      "type": "function"
    },
    {
      "inputs": [],
      "name": "acceptGovernor",
      "outputs": [],
      "stateMutability": "nonpayable",
      "type": "function"
    },
    {
      "inputs": [
        {
          "internalType": "address",
          "name": "",
          "type": "address"
        }
      ],
      "name": "adapterMap",
      "outputs": [
        {
          "internalType": "bool",
          "name": "",
          "type": "bool"
        }
      ],
      "stateMutability": "view",
      "type": "function"
    },
    {
      "inputs": [
        {
          "internalType": "uint256",
          "name": "",
          "type": "uint256"
        }
      ],
      "name": "adapters",
      "outputs": [
        {
          "internalType": "address",
          "name": "",
          "type": "address"
        }
      ],
      "stateMutability": "view",
      "type": "function"
    },
    {
      "inputs": [
        {
          "internalType": "address",
          "name": "token",
          "type": "address"
        }
      ],
      "name": "addAdapter",
      "outputs": [],
      "stateMutability": "nonpayable",
      "type": "function"
    },
    {
      "inputs": [
        {
          "internalType": "uint256",
          "name": "posId",
          "type": "uint256"
        },
        {
          "internalType": "uint256",
          "name": "collAmt",
          "type": "uint256"
        }
      ],
      "name": "addCollToken",
      "outputs": [],
      "stateMutability": "nonpayable",
      "type": "function"
    },
    {
      "inputs": [
        {
          "internalType": "address",
          "name": "token",
          "type": "address"
        },
        {
          "internalType": "uint256",
          "name": "interestRate",
          "type": "uint256"
        }
      ],
      "name": "addPool",
      "outputs": [],
      "stateMutability": "nonpayable",
      "type": "function"
    },
    {
      "inputs": [
        {
          "internalType": "address",
          "name": "baseToken",
          "type": "address"
        },
        {
          "internalType": "address",
          "name": "collToken",
          "type": "address"
        },
        {
          "internalType": "uint256",
          "name": "baseAmt",
          "type": "uint256"
        },
        {
          "internalType": "uint256",
          "name": "borrowAmt",
          "type": "uint256"
        }
      ],
      "name": "borrow",
      "outputs": [],
      "stateMutability": "nonpayable",
      "type": "function"
    },
    {
      "inputs": [
        {
          "internalType": "uint256",
          "name": "posId",
          "type": "uint256"
        },
        {
          "internalType": "contract IAdapter",
          "name": "adapter",
          "type": "address"
        }
      ],
      "name": "closePosition",
      "outputs": [
        {
          "internalType": "uint256",
          "name": "",
          "type": "uint256"
        }
      ],
      "stateMutability": "nonpayable",
      "type": "function"
    },
    {
      "inputs": [
        {
          "internalType": "address",
          "name": "baseToken",
          "type": "address"
        },
        {
          "internalType": "uint256",
          "name": "collateralLoss",
          "type": "uint256"
        },
        {
          "internalType": "uint256",
          "name": "poolLoss",
          "type": "uint256"
        }
      ],
      "name": "distributeCreditLosses",
      "outputs": [],
      "stateMutability": "nonpayable",
      "type": "function"
    },
    {
      "inputs": [],
      "name": "getCurrPositionId",
      "outputs": [
        {
          "internalType": "uint256",
          "name": "",
          "type": "uint256"
        }
      ],
      "stateMutability": "view",
      "type": "function"
    },
    {
      "inputs": [],
      "name": "getCurrSender",
      "outputs": [
        {
          "internalType": "address",
          "name": "",
          "type": "address"
        }
      ],
      "stateMutability": "view",
      "type": "function"
    },
    {
      "inputs": [
        {
          "internalType": "address",
          "name": "token",
          "type": "address"
        },
        {
          "internalType": "address",
          "name": "owner",
          "type": "address"
        },
        {
          "internalType": "enum INutmeg.Tranche",
          "name": "tranche",
          "type": "uint8"
        }
      ],
      "name": "getEarnedInterest",
      "outputs": [
        {
          "internalType": "uint256",
          "name": "",
          "type": "uint256"
        }
      ],
      "stateMutability": "view",
      "type": "function"
    },
    {
      "inputs": [
        {
          "internalType": "address",
          "name": "baseToken",
          "type": "address"
        },
        {
          "internalType": "uint256",
          "name": "baseAmt",
          "type": "uint256"
        }
      ],
      "name": "getMaxBorrowAmount",
      "outputs": [
        {
          "internalType": "uint256",
          "name": "",
          "type": "uint256"
        }
      ],
      "stateMutability": "view",
      "type": "function"
    },
    {
      "inputs": [
        {
          "internalType": "address",
          "name": "token",
          "type": "address"
        },
        {
          "internalType": "address",
          "name": "owner",
          "type": "address"
        },
        {
          "internalType": "uint256",
          "name": "tranche",
          "type": "uint256"
        }
      ],
      "name": "getMaxUnstakePrincipal",
      "outputs": [
        {
          "internalType": "uint256",
          "name": "",
          "type": "uint256"
        }
      ],
      "stateMutability": "view",
      "type": "function"
    },
    {
      "inputs": [],
      "name": "getNextPositionId",
      "outputs": [
        {
          "internalType": "uint256",
          "name": "",
          "type": "uint256"
        }
      ],
      "stateMutability": "view",
      "type": "function"
    },
    {
      "inputs": [
        {
          "internalType": "address",
          "name": "addr",
          "type": "address"
        }
      ],
      "name": "getPool",
      "outputs": [
        {
          "components": [
            {
              "internalType": "bool",
              "name": "isExists",
              "type": "bool"
            },
            {
              "internalType": "address",
              "name": "baseToken",
              "type": "address"
            },
            {
              "internalType": "uint256[3]",
              "name": "interestRates",
              "type": "uint256[3]"
            },
            {
              "internalType": "uint256[3]",
              "name": "principals",
              "type": "uint256[3]"
            },
            {
              "internalType": "uint256[3]",
              "name": "loans",
              "type": "uint256[3]"
            },
            {
              "internalType": "uint256[3]",
              "name": "interests",
              "type": "uint256[3]"
            },
            {
              "internalType": "uint256",
              "name": "totalCollateral",
              "type": "uint256"
            },
            {
              "internalType": "uint256",
              "name": "latestAccruedBlock",
              "type": "uint256"
            },
            {
              "internalType": "uint256",
              "name": "sumRtb",
              "type": "uint256"
            },
            {
              "internalType": "uint256",
              "name": "irAdjustPct",
              "type": "uint256"
            },
            {
              "internalType": "bool",
              "name": "isIrAdjustPctNegative",
              "type": "bool"
            },
            {
              "internalType": "uint256[3]",
              "name": "sumIpp",
              "type": "uint256[3]"
            },
            {
              "internalType": "uint256[3]",
              "name": "lossMultiplier",
              "type": "uint256[3]"
            },
            {
              "internalType": "uint256[3]",
              "name": "lossZeroCounter",
              "type": "uint256[3]"
            }
          ],
          "internalType": "struct INutmeg.Pool",
          "name": "",
          "type": "tuple"
        }
      ],
      "stateMutability": "view",
      "type": "function"
    },
    {
      "inputs": [
        {
          "internalType": "address",
          "name": "token",
          "type": "address"
        }
      ],
      "name": "getPoolInfo",
      "outputs": [
        {
          "internalType": "uint256",
          "name": "",
          "type": "uint256"
        },
        {
          "internalType": "uint256",
          "name": "",
          "type": "uint256"
        },
        {
          "internalType": "uint256",
          "name": "",
          "type": "uint256"
        }
      ],
      "stateMutability": "view",
      "type": "function"
    },
    {
      "inputs": [],
      "name": "getPools",
      "outputs": [
        {
          "internalType": "address[]",
          "name": "",
          "type": "address[]"
        }
      ],
      "stateMutability": "view",
      "type": "function"
    },
    {
      "inputs": [
        {
          "internalType": "uint256",
          "name": "id",
          "type": "uint256"
        }
      ],
      "name": "getPosition",
      "outputs": [
        {
          "components": [
            {
              "internalType": "uint256",
              "name": "id",
              "type": "uint256"
            },
            {
              "internalType": "enum INutmeg.PositionStatus",
              "name": "status",
              "type": "uint8"
            },
            {
              "internalType": "address",
              "name": "owner",
              "type": "address"
            },
            {
              "internalType": "address",
              "name": "adapter",
              "type": "address"
            },
            {
              "internalType": "address",
              "name": "baseToken",
              "type": "address"
            },
            {
              "internalType": "address",
              "name": "collToken",
              "type": "address"
            },
            {
              "internalType": "uint256[3]",
              "name": "loans",
              "type": "uint256[3]"
            },
            {
              "internalType": "uint256",
              "name": "baseAmt",
              "type": "uint256"
            },
            {
              "internalType": "uint256",
              "name": "collAmt",
              "type": "uint256"
            },
            {
              "internalType": "uint256",
              "name": "borrowAmt",
              "type": "uint256"
            },
            {
              "internalType": "uint256",
              "name": "sumRtbStart",
              "type": "uint256"
            },
            {
              "internalType": "uint256",
              "name": "repayDeficit",
              "type": "uint256"
            }
          ],
          "internalType": "struct INutmeg.Position",
          "name": "",
          "type": "tuple"
        }
      ],
      "stateMutability": "view",
      "type": "function"
    },
    {
      "inputs": [
        {
          "internalType": "address",
          "name": "borrower",
          "type": "address"
        }
      ],
      "name": "getPositionIds",
      "outputs": [
        {
          "internalType": "uint256[]",
          "name": "",
          "type": "uint256[]"
        }
      ],
      "stateMutability": "view",
      "type": "function"
    },
    {
      "inputs": [
        {
          "internalType": "address",
          "name": "token",
          "type": "address"
        },
        {
          "internalType": "uint256",
          "name": "posId",
          "type": "uint256"
        }
      ],
      "name": "getPositionInterest",
      "outputs": [
        {
          "internalType": "uint256",
          "name": "",
          "type": "uint256"
        }
      ],
      "stateMutability": "view",
      "type": "function"
    },
    {
      "inputs": [
        {
          "internalType": "address",
          "name": "token",
          "type": "address"
        },
        {
          "internalType": "address",
          "name": "owner",
          "type": "address"
        }
      ],
      "name": "getStake",
      "outputs": [
        {
          "components": [
            {
              "internalType": "uint256",
              "name": "id",
              "type": "uint256"
            },
            {
              "internalType": "enum INutmeg.StakeStatus",
              "name": "status",
              "type": "uint8"
            },
            {
              "internalType": "address",
              "name": "owner",
              "type": "address"
            },
            {
              "internalType": "address",
              "name": "pool",
              "type": "address"
            },
            {
              "internalType": "uint256",
              "name": "tranche",
              "type": "uint256"
            },
            {
              "internalType": "uint256",
              "name": "principal",
              "type": "uint256"
            },
            {
              "internalType": "uint256",
              "name": "sumIppStart",
              "type": "uint256"
            },
            {
              "internalType": "uint256",
              "name": "earnedInterest",
              "type": "uint256"
            },
            {
              "internalType": "uint256",
              "name": "lossMultiplierBase",
              "type": "uint256"
            },
            {
              "internalType": "uint256",
              "name": "lossZeroCounterBase",
              "type": "uint256"
            }
          ],
          "internalType": "struct INutmeg.Stake[3]",
          "name": "",
          "type": "tuple[3]"
        }
      ],
      "stateMutability": "view",
      "type": "function"
    },
    {
      "inputs": [
        {
          "internalType": "address",
          "name": "lender",
          "type": "address"
        }
      ],
      "name": "getStakeIds",
      "outputs": [
        {
          "internalType": "uint256[]",
          "name": "",
          "type": "uint256[]"
        }
      ],
      "stateMutability": "view",
      "type": "function"
    },
    {
      "inputs": [],
      "name": "governor",
      "outputs": [
        {
          "internalType": "address",
          "name": "",
          "type": "address"
        }
      ],
      "stateMutability": "view",
      "type": "function"
    },
    {
      "inputs": [
        {
          "internalType": "address",
          "name": "_governor",
          "type": "address"
        }
      ],
      "name": "initialize",
      "outputs": [],
      "stateMutability": "nonpayable",
      "type": "function"
    },
    {
      "inputs": [
        {
          "internalType": "address",
          "name": "baseToken",
          "type": "address"
        },
        {
          "internalType": "uint256",
          "name": "liquidateAmt",
          "type": "uint256"
        }
      ],
      "name": "liquidate",
      "outputs": [],
      "stateMutability": "nonpayable",
      "type": "function"
    },
    {
      "inputs": [
        {
          "internalType": "uint256",
          "name": "posId",
          "type": "uint256"
        },
        {
          "internalType": "contract IAdapter",
          "name": "adapter",
          "type": "address"
        }
      ],
      "name": "liquidatePosition",
      "outputs": [],
      "stateMutability": "nonpayable",
      "type": "function"
    },
    {
      "inputs": [],
      "name": "nut",
      "outputs": [
        {
          "internalType": "address",
          "name": "",
          "type": "address"
        }
      ],
      "stateMutability": "view",
      "type": "function"
    },
    {
      "inputs": [],
      "name": "nutDistributor",
      "outputs": [
        {
          "internalType": "address",
          "name": "",
          "type": "address"
        }
      ],
      "stateMutability": "view",
      "type": "function"
    },
    {
      "inputs": [
        {
          "internalType": "uint256",
          "name": "posId",
          "type": "uint256"
        },
        {
          "internalType": "contract IAdapter",
          "name": "adapter",
          "type": "address"
        },
        {
          "internalType": "address",
          "name": "baseToken",
          "type": "address"
        },
        {
          "internalType": "address",
          "name": "collToken",
          "type": "address"
        },
        {
          "internalType": "uint256",
          "name": "baseAmt",
          "type": "uint256"
        },
        {
          "internalType": "uint256",
          "name": "borrowAmt",
          "type": "uint256"
        }
      ],
      "name": "openPosition",
      "outputs": [],
      "stateMutability": "nonpayable",
      "type": "function"
    },
    {
      "inputs": [],
      "name": "pendingGovernor",
      "outputs": [
        {
          "internalType": "address",
          "name": "",
          "type": "address"
        }
      ],
      "stateMutability": "view",
      "type": "function"
    },
    {
      "inputs": [
        {
          "internalType": "address",
          "name": "",
          "type": "address"
        }
      ],
      "name": "poolMap",
      "outputs": [
        {
          "internalType": "bool",
          "name": "isExists",
          "type": "bool"
        },
        {
          "internalType": "address",
          "name": "baseToken",
          "type": "address"
        },
        {
          "internalType": "uint256",
          "name": "totalCollateral",
          "type": "uint256"
        },
        {
          "internalType": "uint256",
          "name": "latestAccruedBlock",
          "type": "uint256"
        },
        {
          "internalType": "uint256",
          "name": "sumRtb",
          "type": "uint256"
        },
        {
          "internalType": "uint256",
          "name": "irAdjustPct",
          "type": "uint256"
        },
        {
          "internalType": "bool",
          "name": "isIrAdjustPctNegative",
          "type": "bool"
        }
      ],
      "stateMutability": "view",
      "type": "function"
    },
    {
      "inputs": [
        {
          "internalType": "uint256",
          "name": "",
          "type": "uint256"
        }
      ],
      "name": "pools",
      "outputs": [
        {
          "internalType": "address",
          "name": "",
          "type": "address"
        }
      ],
      "stateMutability": "view",
      "type": "function"
    },
    {
      "inputs": [
        {
          "internalType": "uint256",
          "name": "",
          "type": "uint256"
        }
      ],
      "name": "positionMap",
      "outputs": [
        {
          "internalType": "uint256",
          "name": "id",
          "type": "uint256"
        },
        {
          "internalType": "enum INutmeg.PositionStatus",
          "name": "status",
          "type": "uint8"
        },
        {
          "internalType": "address",
          "name": "owner",
          "type": "address"
        },
        {
          "internalType": "address",
          "name": "adapter",
          "type": "address"
        },
        {
          "internalType": "address",
          "name": "baseToken",
          "type": "address"
        },
        {
          "internalType": "address",
          "name": "collToken",
          "type": "address"
        },
        {
          "internalType": "uint256",
          "name": "baseAmt",
          "type": "uint256"
        },
        {
          "internalType": "uint256",
          "name": "collAmt",
          "type": "uint256"
        },
        {
          "internalType": "uint256",
          "name": "borrowAmt",
          "type": "uint256"
        },
        {
          "internalType": "uint256",
          "name": "sumRtbStart",
          "type": "uint256"
        },
        {
          "internalType": "uint256",
          "name": "repayDeficit",
          "type": "uint256"
        }
      ],
      "stateMutability": "view",
      "type": "function"
    },
    {
      "inputs": [
        {
          "internalType": "address",
          "name": "token",
          "type": "address"
        }
      ],
      "name": "removeAdapter",
      "outputs": [],
      "stateMutability": "nonpayable",
      "type": "function"
    },
    {
      "inputs": [
        {
          "internalType": "address",
          "name": "baseToken",
          "type": "address"
        },
        {
          "internalType": "uint256",
          "name": "repayAmt",
          "type": "uint256"
        }
      ],
      "name": "repay",
      "outputs": [],
      "stateMutability": "nonpayable",
      "type": "function"
    },
    {
      "inputs": [
        {
          "internalType": "address",
          "name": "poolAddr",
          "type": "address"
        },
        {
          "internalType": "address",
          "name": "adapterAddr",
          "type": "address"
        },
        {
          "internalType": "uint256",
          "name": "val",
          "type": "uint256"
        }
      ],
      "name": "setMinNut4Borrowers",
      "outputs": [],
      "stateMutability": "nonpayable",
      "type": "function"
    },
    {
      "inputs": [
        {
          "internalType": "address",
          "name": "addr",
          "type": "address"
        }
      ],
      "name": "setNut",
      "outputs": [],
      "stateMutability": "nonpayable",
      "type": "function"
    },
    {
      "inputs": [
        {
          "internalType": "address",
          "name": "addr",
          "type": "address"
        }
      ],
      "name": "setNutDistributor",
      "outputs": [],
      "stateMutability": "nonpayable",
      "type": "function"
    },
    {
      "inputs": [
        {
          "internalType": "address",
          "name": "addr",
          "type": "address"
        }
      ],
      "name": "setPendingGovernor",
      "outputs": [],
      "stateMutability": "nonpayable",
      "type": "function"
    },
    {
      "inputs": [
        {
          "internalType": "contract IAdapter",
          "name": "adapter",
          "type": "address"
        },
        {
          "internalType": "address",
          "name": "baseToken",
          "type": "address"
        },
        {
          "internalType": "uint256",
          "name": "collateralLoss",
          "type": "uint256"
        },
        {
          "internalType": "uint256",
          "name": "poolLoss",
          "type": "uint256"
        }
      ],
      "name": "settleCreditEvent",
      "outputs": [],
      "stateMutability": "nonpayable",
      "type": "function"
    },
    {
      "inputs": [
        {
          "internalType": "address",
          "name": "token",
          "type": "address"
        },
        {
          "internalType": "uint256",
          "name": "tranche",
          "type": "uint256"
        },
        {
          "internalType": "uint256",
          "name": "principal",
          "type": "uint256"
        }
      ],
      "name": "stake",
      "outputs": [],
      "stateMutability": "nonpayable",
      "type": "function"
    },
    {
      "inputs": [
        {
          "internalType": "address",
          "name": "",
          "type": "address"
        },
        {
          "internalType": "address",
          "name": "",
          "type": "address"
        },
        {
          "internalType": "uint256",
          "name": "",
          "type": "uint256"
        }
      ],
      "name": "stakeMap",
      "outputs": [
        {
          "internalType": "uint256",
          "name": "id",
          "type": "uint256"
        },
        {
          "internalType": "enum INutmeg.StakeStatus",
          "name": "status",
          "type": "uint8"
        },
        {
          "internalType": "address",
          "name": "owner",
          "type": "address"
        },
        {
          "internalType": "address",
          "name": "pool",
          "type": "address"
        },
        {
          "internalType": "uint256",
          "name": "tranche",
          "type": "uint256"
        },
        {
          "internalType": "uint256",
          "name": "principal",
          "type": "uint256"
        },
        {
          "internalType": "uint256",
          "name": "sumIppStart",
          "type": "uint256"
        },
        {
          "internalType": "uint256",
          "name": "earnedInterest",
          "type": "uint256"
        },
        {
          "internalType": "uint256",
          "name": "lossMultiplierBase",
          "type": "uint256"
        },
        {
          "internalType": "uint256",
          "name": "lossZeroCounterBase",
          "type": "uint256"
        }
      ],
      "stateMutability": "view",
      "type": "function"
    },
    {
      "inputs": [
        {
          "internalType": "address",
          "name": "token",
          "type": "address"
        },
        {
          "internalType": "uint256",
          "name": "tranche",
          "type": "uint256"
        },
        {
          "internalType": "uint256",
          "name": "amount",
          "type": "uint256"
        }
      ],
      "name": "unstake",
      "outputs": [],
      "stateMutability": "nonpayable",
      "type": "function"
    },
    {
      "inputs": [
        {
          "internalType": "address",
          "name": "token",
          "type": "address"
        }
      ],
      "name": "updateInterestRateAdjustment",
      "outputs": [],
      "stateMutability": "nonpayable",
      "type": "function"
    },
    {
      "inputs": [
        {
          "internalType": "address",
          "name": "token",
          "type": "address"
        },
        {
          "internalType": "uint256",
          "name": "interestRate",
          "type": "uint256"
        }
      ],
      "name": "updateInterestRates",
      "outputs": [],
      "stateMutability": "nonpayable",
      "type": "function"
    },
    {
      "inputs": [
        {
          "internalType": "uint256",
          "name": "posId",
          "type": "uint256"
        },
        {
          "internalType": "uint256",
          "name": "baseAmt",
          "type": "uint256"
        }
      ],
      "name": "_testSetBaseAmt",
      "outputs": [],
      "stateMutability": "nonpayable",
      "type": "function"
    },
    {
      "inputs": [
        {
          "internalType": "address",
          "name": "token",
          "type": "address"
        }
      ],
      "name": "_forceAccrueInterest",
      "outputs": [],
      "stateMutability": "nonpayable",
      "type": "function"
    }
  ],
  "bytecode": "0x608060405234801561001057600080fd5b50615f6080620000216000396000f3fe608060405234801561001057600080fd5b50600436106103ba5760003560e01c80638033db42116101f4578063bcbaf4871161011a578063e3056a34116100ad578063f18c1cda1161007c578063f18c1cda14610800578063f235757f14610808578063f79d9bf21461081b578063fbf377391461082e576103ba565b8063e3056a34146107c8578063e58bb639146107d0578063eb02c301146107d8578063eb289421146107f8576103ba565b8063ce56378a116100e9578063ce56378a1461077a578063d27459681461079a578063d76512be146107a2578063dcc474eb146107b5576103ba565b8063bcbaf48714610739578063c4d66de81461074c578063cc7b9d061461075f578063ccbc4cc014610767576103ba565b8063a17fff7511610192578063b5e0ecac11610161578063b5e0ecac146106eb578063b75141f7146106fe578063b90306ed14610706578063bbe4f6db14610719576103ba565b8063a17fff75146106b5578063a2bc66be146106bd578063a4b407e4146106d0578063ac4afa38146106d8576103ba565b806382dda22d116101ce57806382dda22d1461065a5780638ccab1381461067a578063938148dd1461069a5780639befd223146106ad576103ba565b80638033db421461062c57806380b88a2e1461063f57806381d3a1c214610652576103ba565b80633aca4d85116102e4578063585cd34b11610277578063639dc52711610246578063639dc527146105f4578063673a2a1f146105fc57806379a267d9146106115780637e7768ae14610624576103ba565b8063585cd34b146105955780635b673532146105a85780635f036de1146105ce57806360d54d41146105e1576103ba565b8063470ce5f2116102b3578063470ce5f2146105545780634ef501ac146105675780635400e01b1461057a578063554028ba14610582576103ba565b80633aca4d85146105295780633d31fbb41461053c5780634379652b14610544578063449b53921461054c576103ba565b806315d3b7a01161035c578063265c03aa1161032b578063265c03aa146104d057806328fe7031146104e35780632b692db91461050357806332a9caba14610516576103ba565b806315d3b7a01461048f57806318a49581146104975780631c8fc7fc146104aa57806322867d78146104bd576103ba565b80630b5f78a1116103985780630b5f78a1146104145780630c340a241461043e5780630c51b88f146104535780630f9ebdce14610466576103ba565b806301fda53b146103bf578063067f4ddd146103d457806306bfa938146103f2575b600080fd5b6103d26103cd36600461507b565b610841565b005b6103dc610967565b6040516103e99190615d7e565b60405180910390f35b610405610400366004614f55565b61096d565b6040516103e993929190615e50565b610427610422366004615192565b610bcb565b6040516103e99b9a99989796959493929190615d87565b610446610c30565b6040516103e991906152b9565b6103d26104613660046150a6565b610c45565b610479610474366004614ff6565b611184565b6040516103e99a99989796959493929190615def565b610446611204565b6103d26104a536600461524a565b611213565b6103d26104b83660046151e6565b611228565b6103d26104cb36600461507b565b611370565b6103dc6104de366004614fa9565b611694565b6104f66104f1366004614f55565b611755565b6040516103e9919061546e565b6103d26105113660046150a6565b6117c1565b6103d261052436600461507b565b611b10565b6103d2610537366004614f55565b611d38565b6103dc611d44565b610446611d49565b6103dc611d58565b6103dc61056236600461507b565b611d5e565b610446610575366004615192565b611e50565b6103dc611e7a565b6103d261059036600461524a565b611e80565b6103d26105a3366004614f55565b611f30565b6105bb6105b6366004614f55565b611fc8565b6040516103e997969594939291906154b1565b6103d26105dc3660046151c2565b61200d565b6103d26105ef366004614f55565b612076565b610446612153565b610604612162565b6040516103e99190615361565b6103dc61061f366004614ff6565b6121c4565b6103dc6124bf565b6103d261063a366004614f55565b6124c5565b6103dc61064d36600461507b565b6125fc565b6103dc612626565b61066d610668366004614f71565b61262d565b6040516103e991906153ae565b61068d610688366004614f55565b612731565b6040516103e991906154a6565b6103d26106a8366004614ff6565b612746565b6103dc612833565b610446612839565b6103d26106cb3660046150a6565b612848565b6103dc612f90565b6104466106e6366004615192565b612f96565b6103dc6106f93660046151c2565b612fa6565b6103dc613031565b6103dc61071436600461507b565b613037565b61072c610727366004614f55565b61315b565b6040516103e99190615bbe565b6103d261074736600461507b565b613370565b6103d261075a366004614f55565b613708565b6103dc6137e0565b6103d2610775366004614f55565b6137e5565b61078d6107883660046150da565b613856565b6040516103e99190615460565b6103dc613911565b6103d26107b0366004614f55565b613917565b6104f66107c3366004614f55565b613988565b6104466139f2565b6103d2613a01565b6107eb6107e6366004615192565b613a75565b6040516103e99190615cbd565b6103dc613b76565b610446613b7c565b6103d2610816366004614f55565b613b8b565b6103d261082936600461517d565b613bfc565b6103d261083c366004615036565b613cc0565b6004541561086a5760405162461bcd60e51b815260040161086190615658565b60405180910390fd5b60016004556000546201000090046001600160a01b031633146108be576040805162461bcd60e51b81526020600482015260076024820152663130b21033b7bb60c91b604482015290519081900360640190fd5b6108c781614083565b6108e35760405162461bcd60e51b815260040161086190615817565b6001600160a01b0382166000908152600c60205260409020805460ff1661091c5760405162461bcd60e51b81526004016108619061597b565b60408051606081019091528061093384600261409c565b81526020810184905260400161094a846002614103565b905261095c9060018301906003614d51565b505060006004555050565b60075490565b6001600160a01b038181166000908152600c6020908152604080832081516101c081018352815460ff811615158252610100900490951692850192909252805160608101808352939485948594859492939092840191600184019060039082845b8154815260200190600101908083116109ce57505050918352505060408051606081019182905260209092019190600484019060039082845b815481526020019060010190808311610a0757505050918352505060408051606081019182905260209092019190600784019060039082845b815481526020019060010190808311610a4057505050918352505060408051606081019182905260209092019190600a84019060039082845b815481526020019060010190808311610a79575050509183525050600d8201546020820152600e820154604080830191909152600f83015460608084019190915260108401546080840152601184015460ff16151560a084015281519081019182905260c09092019190601284019060039082845b815481526020019060010190808311610aee57505050918352505060408051606081019182905260209092019190601584019060039082845b815481526020019060010190808311610b2757505050918352505060408051606081019182905260209092019190601884019060039082845b815481526020019060010190808311610b605750505050508152505090508060000151610b9f5760405162461bcd60e51b81526004016108619061577c565b610bac816060015161415c565b610bb9826080015161415c565b60c09092015190969195509350915050565b60116020526000908152604090208054600182015460028301546003840154600485015460088601546009870154600a880154600b890154600c90990154979860ff8816986101009098046001600160a01b039081169897811697968116969516948b565b6000546201000090046001600160a01b031681565b60045415610c655760405162461bcd60e51b815260040161086190615658565b600160045582610c7481614178565b60038310610c945760405162461bcd60e51b815260040161086190615a82565b60008211610cb45760405162461bcd60e51b815260040161086190615905565b6001600160a01b0384166000908152600c60205260409020805460ff16610ced5760405162461bcd60e51b8152600401610861906156e9565b6002841415610d295760048101546006820154610d0b908590614379565b1115610d295760405162461bcd60e51b81526004016108619061558e565b8054610d459061010090046001600160a01b03163330866143d3565b6001600160a01b0385166000908152600d6020908152604080832033845290915281208560038110610d7357fe5b6009020190506000826012018660038110610d8a57fe5b01548254909150600090610dee576006805460018082019092558455838101805460ff1916909117610100600160a81b03191633610100021790556002830180546001600160a01b0319166001600160a01b038a1617905560038301879055610f86565b604080516101408101909152835481526001840154610e9491908590602083019060ff166003811115610e1d57fe5b6003811115610e2857fe5b815260018201546001600160a01b0361010091829004811660208401526002840154166040830152600383015460608301526004808401546080840152600584015460a0840152600684015460c0840152600784015460e084015260089093015491015285015461442d565b90506000610ecb670de0b6b3a7640000610ec5610ebe87600501548761469e90919063ffffffff16565b8590614103565b9061409c565b604080516101408101909152855481526001860154919250610f7f918391610f79918890602083019060ff166003811115610f0257fe5b6003811115610f0d57fe5b815260018201546001600160a01b03610100918290048116602084015260028401541660408301526003830154606083015260048301546080830152600583015460a083015260068084015460c0840152600784015460e084015260089093015491015288015461442d565b90614379565b6006850155505b60058301829055610f978187614379565b6004840155601884018760038110610fab57fe5b01546008840155601584018760038110610fc157fe5b0154600784015560018084015461010090046001600160a01b03166000908152600e6020908152604082208654815494850182559083529120909101556110198660048601896003811061101157fe5b015490614379565b84600401886003811061102857fe5b0155611033886124c5565b600260009054906101000a90046001600160a01b03166001600160a01b0316633d02df6f6040518163ffffffff1660e01b815260040160206040518083038186803b15801561108157600080fd5b505afa158015611095573d6000803e3d6000fd5b505050506040513d601f19601f820116820180604052508101906110b9919061515d565b1561113557600254600184015460405163625372db60e01b81526001600160a01b039283169263625372db92611102928d92610100909204909116908b906000906004016152fe565b600060405180830381600087803b15801561111c57600080fd5b505af1158015611130573d6000803e3d6000fd5b505050505b82546040517fdd896aa374850d8e04317b5aeb7adadc818f31150c0dc804fe7c0da09bb667729161116d918b9133918c918c916152cd565b60405180910390a150506000600455505050505050565b600d60205282600052604060002060205281600052604060002081600381106111ac57600080fd5b6009020180546001820154600283015460038401546004850154600586015460068701546007880154600890980154969a5060ff861699506101009095046001600160a01b039081169850909316959194909391908a565b6003546001600160a01b031681565b60009182526011602052604090912060080155565b6003546040516370a0823160e01b81526000916001600160a01b0316906370a08231906112599033906004016152b9565b60206040518083038186803b15801561127157600080fd5b505afa158015611285573d6000803e3d6000fd5b505050506040513d601f19601f820116820180604052508101906112a991906151aa565b6001600160a01b038087166000908152601360209081526040808320938b16835292905220549091508110156112f15760405162461bcd60e51b8152600401610861906159a1565b6112fb87876146fb565b604051636ef1a28f60e01b81526001600160a01b03871690636ef1a28f9061132d9088908890889088906004016152fe565b600060405180830381600087803b15801561134757600080fd5b505af115801561135b573d6000803e3d6000fd5b5050505061136761484b565b50505050505050565b8161137a81614178565b600019600854141561139e5760405162461bcd60e51b815260040161086190615862565b600a546001600160a01b031633146113c85760405162461bcd60e51b815260040161086190615678565b600554156113e85760405162461bcd60e51b8152600401610861906157a6565b6001600555600854600090815260116020908152604080832060038101546001600160a01b03168452600c909252909120805460ff1661143a5760405162461bcd60e51b815260040161086190615b79565b60028201546001600160a01b031660009081526010602052604090205460ff168015611472575060028201546001600160a01b031633145b61148e5760405162461bcd60e51b815260040161086190615b49565b6040805160608101918290526000916114ca9190600586019060039082845b8154815260200190600101908083116114ad57505050505061415c565b825484549192506000916114ec9161010090046001600160a01b031690611d5e565b905060006115118261150b87600801548a61437990919063ffffffff16565b9061469e565b9050600083821161152357600061152d565b61152d828561469e565b90506115446001600160a01b038a1633308b6143d3565b8382101561155c57611556848361469e565b600c8701555b604080516060810191829052600091611599919060058a019060039082845b81548152602001906001019080831161157b5750505050508a613856565b60018801805460ff19166002179055905060005b60038110156115fa576115e18282600381106115c557fe5b60200201518960050183600381106115d957fe5b01549061469e565b8860050182600381106115f057fe5b01556001016115ad565b506008870154600d87015461160e9161469e565b600d87015560005b600381101561165b5761164282826003811061162e57fe5b60200201518860070183600381106115d957fe5b87600701826003811061165157fe5b0155600101611616565b508115611683576001870154611683906001600160a01b038c81169161010090041684614877565b505060006005555050505050505050565b6001600160a01b0383166000908152600c60205260408120805460ff166116cd5760405162461bcd60e51b815260040161086190615951565b60006116d9868661262d565b8460028111156116e557fe5b600381106116ef57fe5b6020020151905061174981611744611739670de0b6b3a7640000610ec561172e8760c00151896012018c600281111561172457fe5b600381106115d957fe5b60a088015190614103565b60e085015190614379565b61442d565b925050505b9392505050565b6001600160a01b0381166000908152601260209081526040918290208054835181840281018401909452808452606093928301828280156117b557602002820191906000526020600020905b8154815260200190600101908083116117a1575b50505050509050919050565b826117cb81614178565b60001960085414156117ef5760405162461bcd60e51b815260040161086190615862565b600a546001600160a01b031633146118195760405162461bcd60e51b815260040161086190615678565b600554156118395760405162461bcd60e51b8152600401610861906157a6565b60016005556001600160a01b0384166000908152600c60205260409020805460ff166118775760405162461bcd60e51b8152600401610861906159e3565b80600d015484111561189b5760405162461bcd60e51b81526004016108619061562f565b600d8101546118aa908561469e565b600d820155826118ba5750611b05565b60408051606081019182905260048301805482526000926118f392919060039060058701602085018083116114ad57505050505061415c565b90508360005b6003811015611a55576000600182600303039050600085600401826003811061191e57fe5b01549050600086600a01836003811061193357fe5b015487600401846003811061194457fe5b01540190508185106119b357600087600401846003811061196157fe5b01556000600a8801846003811061197457fe5b01554360188801846003811061198657fe5b0155670de0b6b3a76400006015880184600381106119a057fe5b01556119ac858361469e565b9450611a4a565b60006119bf838761469e565b90506119e082610ec5838b60040188600381106119d857fe5b015490614103565b8860040185600381106119ef57fe5b0155611a0882610ec583600a8c0188600381106119d857fe5b88600a018560038110611a1757fe5b0155611a2f82610ec583670de0b6b3a7640000614103565b886015018560038110611a3e57fe5b015550611a5592505050565b5050506001016118f9565b5060098301546008840154600091611a7591610f79906007880185611011565b905082861115611a86576000611a90565b611a90838761469e565b925080861115611aa1576000611aab565b611aab818761469e565b905060005b6003811015611aff578315611ae357611ade84610ec5876004018460038110611ad557fe5b01548590614103565b611ae6565b60005b856007018260038110611af557fe5b0155600101611ab0565b50505050505b505060006005555050565b60045415611b305760405162461bcd60e51b815260040161086190615658565b60016004556000546201000090046001600160a01b03163314611b84576040805162461bcd60e51b81526020600482015260076024820152663130b21033b7bb60c91b604482015290519081900360640190fd5b600b5461010011611ba75760405162461bcd60e51b815260040161086190615b21565b611bb081614083565b611bcc5760405162461bcd60e51b81526004016108619061583c565b6001600160a01b0382166000908152600c60205260409020805460ff1615611c065760405162461bcd60e51b815260040161086190615aa9565b8054600160ff1990911617610100600160a81b0319166101006001600160a01b03851602178155604080516060810190915280611c4484600261409c565b815260208101849052604001611c5b846002614103565b9052611c6d9060018301906003614d51565b50600b80546001810182556000919091527f0175b7a638427703f0dbe7bb9bbf987a2551717b34e79f33b5b1008d1fa01db90180546001600160a01b0319166001600160a01b0385161790556040517faf34faf75d3145f35bbbac30e5a4ee7bdcce5f49268859df1a013baa102eca1b90611ceb9085908590615327565b60405180910390a16040518060600160405280670de0b6b3a76400008152602001670de0b6b3a76400008152602001670de0b6b3a76400008152508160150190600361095c929190614d51565b611d4181614178565b50565b600581565b6002546001600160a01b031681565b60045481565b6001600160a01b0382166000908152600c60205260408120805460ff16611d975760405162461bcd60e51b815260040161086190615ad2565b6000838152601160205260409020815460038201546001600160a01b039081166101009092041614611ddb5760405162461bcd60e51b8152600401610861906155dd565b611e45611ded62201480612710614103565b610ec5611e0b84600b015486600f015461469e90919063ffffffff16565b6040805160608101918290526005870180548252611e3f9260039060068a01602085018083116114ad57505050505061415c565b90614103565b925050505b92915050565b600f8181548110611e6057600080fd5b6000918252602090912001546001600160a01b0316905081565b60085481565b6000196008541415611ea45760405162461bcd60e51b815260040161086190615862565b600a546001600160a01b03163314611ece5760405162461bcd60e51b815260040161086190615678565b60055415611eee5760405162461bcd60e51b8152600401610861906157a6565b6001600555600854600090815260116020526040902080548314611f245760405162461bcd60e51b815260040161086190615516565b60090155506000600555565b60045415611f505760405162461bcd60e51b815260040161086190615658565b60016004556000546201000090046001600160a01b03163314611fa4576040805162461bcd60e51b81526020600482015260076024820152663130b21033b7bb60c91b604482015290519081900360640190fd5b6001600160a01b03166000908152601060205260408120805460ff19169055600455565b600c6020526000908152604090208054600d820154600e830154600f840154601085015460119095015460ff808616966101009096046001600160a01b031695911687565b61201782826146fb565b806001600160a01b03166328a070256040518163ffffffff1660e01b8152600401600060405180830381600087803b15801561205257600080fd5b505af1158015612066573d6000803e3d6000fd5b5050505061207261484b565b5050565b600454156120965760405162461bcd60e51b815260040161086190615658565b60016004556000546201000090046001600160a01b031633146120ea576040805162461bcd60e51b81526020600482015260076024820152663130b21033b7bb60c91b604482015290519081900360640190fd5b600f805460018181019092557f8d1108e10bcb7c27dddfc02ed9d693a074039d026cf4ea4240b40f7d581ac8020180546001600160a01b039093166001600160a01b0319909316831790556000918252601060205260408220805460ff19169091179055600455565b600a546001600160a01b031681565b6060600b8054806020026020016040519081016040528092919081815260200182805480156121ba57602002820191906000526020600020905b81546001600160a01b0316815260019091019060200180831161219c575b5050505050905090565b6001600160a01b038084166000908152600d602090815260408083209386168352929052908120819083600381106121f857fe5b60408051610140810190915260099190910291909101805482526001810154602083019060ff16600381111561222a57fe5b600381111561223557fe5b81526001828101546001600160a01b036101009182900481166020808601919091526002860154821660408087019190915260038088015460608089019190915260048901546080890152600589015460a0890152600689015460c0890152600789015460e0890152600890980154968501969096528787015183166000908152600c835281902081516101c081018352815460ff811615158252959095049093169184019190915280519586018082529697506124b696929591949086019391929185019182845b8154815260200190600101908083116122fe57505050918352505060408051606081019182905260209092019190600484019060039082845b81548152602001906001019080831161233757505050918352505060408051606081019182905260209092019190600784019060039082845b81548152602001906001019080831161237057505050918352505060408051606081019182905260209092019190600a84019060039082845b8154815260200190600101908083116123a9575050509183525050600d8201546020820152600e820154604080830191909152600f83015460608084019190915260108401546080840152601184015460ff16151560a084015281519081019182905260c09092019190601284019060039082845b81548152602001906001019080831161241e57505050918352505060408051606081019182905260209092019190601584019060039082845b81548152602001906001019080831161245757505050918352505060408051606081019182905260209092019190601884019060039082845b815481526020019060010190808311612490575050505050815250508260a001516148ce565b95945050505050565b60085490565b6001600160a01b0381166000908152600c60205260409020805460ff166124fe5760405162461bcd60e51b815260040161086190615883565b604080516060810191829052600483018054825260009261253792919060039060058701602085018083116114ad57505050505061415c565b60408051606081019182905260078501805482529293506000926125719260039060088801602085018083116114ad57505050505061415c565b905081156125f6576000828210156125975761259283610ec5846064614103565b61259a565b60645b9050605a8111156125cb576125b56032611e3f83605a61469e565b601085015560118401805460ff191690556125f4565b605a8110156125f4576125df605a8261469e565b601085015560118401805460ff191660011790555b505b50505050565b6000806126098484613037565b905061261e8361150b83610ec5836064614103565b949350505050565b620186a081565b612635614d8f565b6001600160a01b038084166000908152600d60209081526040808320938616835292905281812082516060810190935290600390835b8282101561272557604080516101408101909152600983028501805482526001810154602083019060ff1660038111156126a157fe5b60038111156126ac57fe5b81526001828101546001600160a01b03610100918290048116602080860191909152600286015490911660408501526003850154606085015260048501546080850152600585015460a0850152600685015460c0850152600785015460e08501526008909401549201919091529183529201910161266b565b50505050905092915050565b60106020526000908152604090205460ff1681565b6000546201000090046001600160a01b03163314612795576040805162461bcd60e51b81526020600482015260076024820152663130b21033b7bb60c91b604482015290519081900360640190fd5b6001600160a01b03821660009081526010602052604090205460ff166127cd5760405162461bcd60e51b8152600401610861906154ee565b6001600160a01b0383166000908152600c60205260409020805460ff166128065760405162461bcd60e51b8152600401610861906157c8565b506001600160a01b0392831660009081526013602090815260408083209490951682529290925291902055565b6101f481565b6009546001600160a01b031690565b600454156128685760405162461bcd60e51b815260040161086190615658565b60016004558261287781614178565b600383106128975760405162461bcd60e51b8152600401610861906155b4565b6001600160a01b0384166000908152600c60209081526040808320600d8352818420338552909252822090919085600381106128cf57fe5b6009020180549091506128f45760405162461bcd60e51b815260040161086190615609565b60408051610140810190915281548152600182015460009161299c918490602083019060ff16600381111561292557fe5b600381111561293057fe5b815260018201546001600160a01b0361010091829004811660208401526002840154166040830152600383015460608301526004808401546080840152600584015460a0840152600684015460c0840152600784015460e084015260089093015491015284015461442d565b90506000851180156129ae5750808511155b6129ca5760405162461bcd60e51b8152600401610861906158de565b60018083015460ff1660038111156129de57fe5b146129fb5760405162461bcd60e51b8152600401610861906156bf565b60028201546001600160a01b039081166000908152600c6020908152604080832081516101c081018352815460ff8116151582526101009004909516928501929092528051606081018083529394612c139490939284019190600184019060039082845b815481526020019060010190808311612a5f57505050918352505060408051606081019182905260209092019190600484019060039082845b815481526020019060010190808311612a9857505050918352505060408051606081019182905260209092019190600784019060039082845b815481526020019060010190808311612ad157505050918352505060408051606081019182905260209092019190600a84019060039082845b815481526020019060010190808311612b0a575050509183525050600d8201546020820152600e820154604080830191909152600f83015460608084019190915260108401546080840152601184015460ff16151560a084015281519081019182905260c09092019190601284019060039082845b815481526020019060010190808311612b7f57505050918352505060408051606081019182905260209092019190601584019060039082845b815481526020019060010190808311612bb857505050918352505060408051606081019182905260209092019190601884019060039082845b815481526020019060010190808311612bf157505050505081525050876148ce565b90506000612c44670de0b6b3a7640000610ec5612c3d8760050154896012018d600381106115d957fe5b8690614103565b90506000612cfb82610f798760405180610140016040529081600082015481526020016001820160009054906101000a900460ff166003811115612c8457fe5b6003811115612c8f57fe5b815260018201546001600160a01b03610100918290048116602084015260028401541660408301526003830154606083015260048301546080830152600583015460a083015260068084015460c0840152600784015460e084015260089093015491015289015461442d565b905085600a018960038110612d0c57fe5b0154811115612d295785600a018960038110612d2457fe5b015490505b6000612d358483614379565b8754909150612d539061010090046001600160a01b03163383614877565b612d5d858561469e565b6004870155601287018a60038110612d7157fe5b01546005870155601887018a60038110612d8757fe5b01546008870155601587018a60038110612d9d57fe5b01546007870155600060068701556004860154612dc45760018601805460ff191660021790555b612dd784886004018c600381106115d957fe5b876004018b60038110612de657fe5b0155612dfb82600a89018c600381106115d957fe5b87600a018b60038110612e0a57fe5b0155612e158b6124c5565b600260009054906101000a90046001600160a01b03166001600160a01b0316633d02df6f6040518163ffffffff1660e01b815260040160206040518083038186803b158015612e6357600080fd5b505afa158015612e77573d6000803e3d6000fd5b505050506040513d601f19601f82011682018060405250810190612e9b919061515d565b8015612ea75750600084115b15612f3e57600260009054906101000a90046001600160a01b03166001600160a01b031663625372db8c8860010160019054906101000a90046001600160a01b03166000886040518563ffffffff1660e01b8152600401612f0b94939291906152fe565b600060405180830381600087803b158015612f2557600080fd5b505af1158015612f39573d6000803e3d6000fd5b505050505b85546040517fcbaeda62652cb1eed671e4f780d62f58277055c4318fbdd9544f795de48fdf9c91612f76918e9133918f918a916152cd565b60405180910390a150506000600455505050505050505050565b60055481565b600b8181548110611e6057600080fd5b6000612fb283836146fb565b6000826001600160a01b031663c393d0e36040518163ffffffff1660e01b8152600401602060405180830381600087803b158015612fef57600080fd5b505af1158015613003573d6000803e3d6000fd5b505050506040513d601f19601f8201168201806040525081019061302791906151aa565b905061174e61484b565b60065481565b6001600160a01b0382166000908152600c60205260408120805460ff166130705760405162461bcd60e51b8152600401610861906158ae565b60408051606081019182905260048301805482526000926130a992919060039060058701602085018083116114ad57505050505061415c565b60408051606081019182905260078501805482529293506000926130e39260039060088801602085018083116114ad57505050505061415c565b9050600082156131055761310083610ec56064611e3f868b614379565b613108565b60645b90506064811115613117575060645b605a81111561314057613135600a610f796009611e3f85605a61469e565b945050505050611e4a565b6131506001610f7983600a61409c565b979650505050505050565b613163614dbc565b6001600160a01b038281166000908152600c602090815260409182902082516101c081018452815460ff8116151582526101009004909416918401919091528151606081018084529192840191600184019060039082845b8154815260200190600101908083116131bb57505050918352505060408051606081019182905260209092019190600484019060039082845b8154815260200190600101908083116131f457505050918352505060408051606081019182905260209092019190600784019060039082845b81548152602001906001019080831161322d57505050918352505060408051606081019182905260209092019190600a84019060039082845b815481526020019060010190808311613266575050509183525050600d8201546020820152600e820154604080830191909152600f83015460608084019190915260108401546080840152601184015460ff16151560a084015281519081019182905260c09092019190601284019060039082845b8154815260200190600101908083116132db57505050918352505060408051606081019182905260209092019190601584019060039082845b81548152602001906001019080831161331457505050918352505060408051606081019182905260209092019190601884019060039082845b81548152602001906001019080831161334d575050505050815250509050919050565b8161337a81614178565b600019600854141561339e5760405162461bcd60e51b815260040161086190615862565b600a546001600160a01b031633146133c85760405162461bcd60e51b815260040161086190615678565b600554156133e85760405162461bcd60e51b8152600401610861906157a6565b600160055560085460009081526011602090815260408083206001600160a01b0387168452600c909252909120805460ff166134365760405162461bcd60e51b815260040161086190615afc565b80546001600160a01b0386811661010090920416146134675760405162461bcd60e51b815260040161086190615a30565b60028201546001600160a01b031660009081526010602052604090205460ff16801561349f575060028201546001600160a01b031633145b6134bb5760405162461bcd60e51b815260040161086190615569565b600084116134db5760405162461bcd60e51b81526004016108619061569a565b6134f06001600160a01b0386163330876143d3565b604080516060810191829052600584018054825260009261352992919060039060068801602085018083116114ad57505050505061415c565b8254845491925060009161354b9161010090046001600160a01b031690611d5e565b9050600061356a8261150b87600801548a61437990919063ffffffff16565b9050600061357e6064610ec5600585614103565b9050600061358c838361469e565b9050600081861061359e5760006135a8565b6135a8828761469e565b6040805160608101918290529192506000916135e79160058c019060039082845b8154815260200190600101908083116135c95750505050508c613856565b90506135fd6001600160a01b038d163286614877565b60018901805460ff1916600317905560005b60038110156136545761363b82826003811061362757fe5b60200201518b60050183600381106115d957fe5b8a600501826003811061364a57fe5b015560010161360f565b506008890154600d8901546136689161469e565b600d89015560005b60038110156136b55761369c82826003811061368857fe5b60200201518a60070183600381106115d957fe5b8960070182600381106136ab57fe5b0155600101613670565b5081156136dd5760018901546136dd906001600160a01b038e81169161010090041684614877565b868510156136f5576136ef878661469e565b600c8a01555b5050600060055550505050505050505050565b600054610100900460ff168061372157506137216148fd565b8061372f575060005460ff16155b61376a5760405162461bcd60e51b815260040180806020018281038252602e815260200180615e7c602e913960400191505060405180910390fd5b600054610100900460ff16158015613795576000805460ff1961ff0019909116610100171660011790555b61379e8261490e565b6000600481905560055560016006819055600755600019600855600a80546001600160a01b03191660021790558015612072576000805461ff00191690555050565b600181565b6000546201000090046001600160a01b03163314613834576040805162461bcd60e51b81526020600482015260076024820152663130b21033b7bb60c91b604482015290519081900360640190fd5b600380546001600160a01b0319166001600160a01b0392909216919091179055565b61385e614e54565b60006138698461415c565b9050600083821061387a578361387c565b815b604080516060810182526000808252602082018190529181018290529192505b60038110156138dd576138c484610ec5858a85600381106138b957fe5b602002015190614103565b8282600381106138d057fe5b602002015260010161389c565b506139036138fc8260015b60200201518360005b602002015190614379565b839061469e565b604082015295945050505050565b61010081565b6000546201000090046001600160a01b03163314613966576040805162461bcd60e51b81526020600482015260076024820152663130b21033b7bb60c91b604482015290519081900360640190fd5b600280546001600160a01b0319166001600160a01b0392909216919091179055565b6001600160a01b0381166000908152600e60209081526040918290208054835181840281018401909452808452606093928301828280156117b557602002820191906000526020600020908154815260200190600101908083116117a15750505050509050919050565b6001546001600160a01b031681565b6001546001600160a01b03163314613a4a576040805162461bcd60e51b81526020600482015260076024820152661b9bc81c195b9960ca1b604482015290519081900360640190fd5b600180546001600160a01b03191690556000805462010000600160b01b031916336201000002179055565b613a7d614e72565b60008281526011602090815260409182902082516101808101909352805483526001810154909183019060ff166004811115613ab557fe5b6004811115613ac057fe5b8152600182015461010090046001600160a01b0390811660208301526002830154811660408084019190915260038085015483166060808601919091526004860154909316608085015281519283019182905260a090930192600585019182845b815481526020019060010190808311613b2157505050505081526020016008820154815260200160098201548152602001600a8201548152602001600b8201548152602001600c820154815250509050919050565b60075481565b6009546001600160a01b031681565b6000546201000090046001600160a01b03163314613bda576040805162461bcd60e51b81526020600482015260076024820152663130b21033b7bb60c91b604482015290519081900360640190fd5b600180546001600160a01b0319166001600160a01b0392909216919091179055565b6000546201000090046001600160a01b03163314613c4b576040805162461bcd60e51b81526020600482015260076024820152663130b21033b7bb60c91b604482015290519081900360640190fd5b613c566000856146fb565b6040516356a18e8960e11b81526001600160a01b0385169063ad431d1290613c8690869086908690600401615340565b600060405180830381600087803b158015613ca057600080fd5b505af1158015613cb4573d6000803e3d6000fd5b505050506125f661484b565b83613cca81614178565b6000196008541415613cee5760405162461bcd60e51b815260040161086190615862565b600a546001600160a01b03163314613d185760405162461bcd60e51b815260040161086190615678565b60055415613d385760405162461bcd60e51b8152600401610861906157a6565b60016005556001600160a01b0385166000908152600c60205260409020805460ff16613d765760405162461bcd60e51b815260040161086190615736565b600854600090815260116020526040902060038101546001600160a01b031615613db25760405162461bcd60e51b81526004016108619061592b565b6000613dbe88876125fc565b905080851115613de05760405162461bcd60e51b815260040161086190615a0b565b858511613dff5760405162461bcd60e51b81526004016108619061570e565b613e07614e54565b60005b6003811015613e4f57613e36856007018260038110613e2557fe5b01548660040183600381106115d957fe5b828260038110613e4257fe5b6020020152600101613e0a565b506000613e5b8261415c565b905080871115613e7d5760405162461bcd60e51b815260040161086190615a5b565b613e85614e54565b60005b6003811015613ec957613eb083610ec5868460038110613ea457fe5b60200201518c90614103565b828260038110613ebc57fe5b6020020152600101613e88565b50613edf613ed88260016138e8565b899061469e565b60408201528554613f009061010090046001600160a01b03163060006149d2565b8554613f1b9061010090046001600160a01b0316308b6149d2565b60018501548654613f43916001600160a01b036101009283900481169290910416308c6143d3565b8554613f5e9061010090046001600160a01b0316338a614877565b6001858101805460ff1916828002179055508554600386810180546101009093046001600160a01b039081166001600160a01b031994851617909155600488018054909316908d1617909155600886018a9055600a8601899055613fc89060058701908390614d51565b50600f860154600b86015560018086015461010090046001600160a01b031660009081526012602090815260408220885481549485018255908352908220909201919091555b60038110156140535761403a82826003811061402657fe5b602002015188600701836003811061101157fe5b87600701826003811061404957fe5b015560010161400e565b50600d860154614063908a614379565b600d8701556140718b6124c5565b50506000600555505050505050505050565b6000620186a08211158015611e4a5750506101f4111590565b60008082116140f2576040805162461bcd60e51b815260206004820152601a60248201527f536166654d6174683a206469766973696f6e206279207a65726f000000000000604482015290519081900360640190fd5b8183816140fb57fe5b049392505050565b60008261411257506000611e4a565b8282028284828161411f57fe5b041461174e5760405162461bcd60e51b8152600401808060200182810382526021815260200180615eaa6021913960400191505060405180910390fd5b60408101516020820151600091611e4a91610f799085856138f1565b6001600160a01b0381166000908152600c60205260409020805460ff166141b15760405162461bcd60e51b815260040161086190615541565b60408051606081019182905260078301805482526000926141ea92919060039060088701602085018083116114ad57505050505061415c565b600e8301549091504390811161420257505050611d41565b811561436d576002830154601184015460ff16614247576142406064610ec56142396064886010015461437990919063ffffffff16565b8490614103565b905061426a565b6142676064610ec56142398760100154606461469e90919063ffffffff16565b90505b600061428d61428686600e01548561469e90919063ffffffff16565b8390614103565b600f86015490915061429f9082614379565b600f86015560005b60038110156143695760008660040182600381106142c157fe5b015411156143615760006142f06142dd62201480612710614103565b610ec5858a60070186600381106119d857fe5b90506143058188600a01846003811061101157fe5b87600a01836003811061431457fe5b015561434e61433f60048901846003811061432b57fe5b0154610ec584670de0b6b3a7640000614103565b88601201846003811061101157fe5b87601201836003811061435d57fe5b0155505b6001016142a7565b5050505b505043600e9091015550565b60008282018381101561174e576040805162461bcd60e51b815260206004820152601b60248201527f536166654d6174683a206164646974696f6e206f766572666c6f770000000000604482015290519081900360640190fd5b604080516001600160a01b0380861660248301528416604482015260648082018490528251808303909101815260849091019091526020810180516001600160e01b03166323b872dd60e01b1790526125f6908590614ae1565b6060828101516001600160a01b039081166000908152600c6020908152604080832081516101c081018352815460ff8116151582526101009004909516928501929092528051948501808252929485949391840191600184019060039082845b81548152602001906001019080831161448d57505050918352505060408051606081019182905260209092019190600484019060039082845b8154815260200190600101908083116144c657505050918352505060408051606081019182905260209092019190600784019060039082845b8154815260200190600101908083116144ff57505050918352505060408051606081019182905260209092019190600a84019060039082845b815481526020019060010190808311614538575050509183525050600d8201546020820152600e820154604080830191909152600f83015460608084019190915260108401546080840152601184015460ff16151560a084015281519081019182905260c09092019190601284019060039082845b8154815260200190600101908083116145ad57505050918352505060408051606081019182905260209092019190601584019060039082845b8154815260200190600101908083116145e657505050918352505060408051606081019182905260209092019190601884019060039082845b81548152602001906001019080831161461f575050505050815250509050806101a0015184608001516003811061465257fe5b6020020151846101200151106146945761468f846101000151610ec583610180015187608001516003811061468357fe5b60200201518690614103565b61261e565b5060009392505050565b6000828211156146f5576040805162461bcd60e51b815260206004820152601e60248201527f536166654d6174683a207375627472616374696f6e206f766572666c6f770000604482015290519081900360640190fd5b50900390565b6004541561471b5760405162461bcd60e51b81526004016108619061575b565b60016004556001600160a01b038116600090815260106020526040902054819060ff1661475a5760405162461bcd60e51b8152600401610861906159c2565b826147b95760078054600180820190925560008181526011602052604090208181559182018054610100600160a81b0319163361010002179055600290910180546001600160a01b0319166001600160a01b0384161790559250614819565b60075483106147da5760405162461bcd60e51b815260040161086190615b9e565b600160008481526011602052604090206001015460ff1660048111156147fc57fe5b146148195760405162461bcd60e51b8152600401610861906157f0565b60089290925550600a80546001600160a01b039092166001600160a01b03199283161790556009805490911633179055565b600019600855600a80546001600160a01b03199081166002179091556000600455600980549091169055565b604080516001600160a01b038416602482015260448082018490528251808303909101815260649091019091526020810180516001600160e01b031663a9059cbb60e01b1790526148c9908490614ae1565b505050565b6000806148ee6148e1856080015161415c565b61150b866060015161415c565b905080831161174e578261261e565b600061490830614b92565b15905090565b600054610100900460ff168061492757506149276148fd565b80614935575060005460ff16155b6149705760405162461bcd60e51b815260040180806020018281038252602e815260200180615e7c602e913960400191505060405180910390fd5b600054610100900460ff1615801561499b576000805460ff1961ff0019909116610100171660011790555b6000805462010000600160b01b031916620100006001600160a01b038516021790558015612072576000805461ff00191690555050565b801580614a58575060408051636eb1769f60e11b81523060048201526001600160a01b03848116602483015291519185169163dd62ed3e91604480820192602092909190829003018186803b158015614a2a57600080fd5b505afa158015614a3e573d6000803e3d6000fd5b505050506040513d6020811015614a5457600080fd5b5051155b614a935760405162461bcd60e51b8152600401808060200182810382526036815260200180615ef56036913960400191505060405180910390fd5b604080516001600160a01b038416602482015260448082018490528251808303909101815260649091019091526020810180516001600160e01b031663095ea7b360e01b1790526148c99084905b6000614b36826040518060400160405280602081526020017f5361666545524332303a206c6f772d6c6576656c2063616c6c206661696c6564815250856001600160a01b0316614b989092919063ffffffff16565b8051909150156148c957808060200190516020811015614b5557600080fd5b50516148c95760405162461bcd60e51b815260040180806020018281038252602a815260200180615ecb602a913960400191505060405180910390fd5b3b151590565b606061261e848460008585614bac85614b92565b614bfd576040805162461bcd60e51b815260206004820152601d60248201527f416464726573733a2063616c6c20746f206e6f6e2d636f6e7472616374000000604482015290519081900360640190fd5b600080866001600160a01b031685876040518082805190602001908083835b60208310614c3b5780518252601f199092019160209182019101614c1c565b6001836020036101000a03801982511681845116808217855250505050505090500191505060006040518083038185875af1925050503d8060008114614c9d576040519150601f19603f3d011682016040523d82523d6000602084013e614ca2565b606091505b509150915061315082828660608315614cbc57508161174e565b825115614ccc5782518084602001fd5b8160405162461bcd60e51b81526004018080602001828103825283818151815260200191508051906020019080838360005b83811015614d16578181015183820152602001614cfe565b50505050905090810190601f168015614d435780820380516001836020036101000a031916815260200191505b509250505060405180910390fd5b8260038101928215614d7f579160200282015b82811115614d7f578251825591602001919060010190614d64565b50614d8b929150614eda565b5090565b60405180606001604052806003905b614da6614eef565b815260200190600190039081614d9e5790505090565b604080516101c08101825260008082526020820152908101614ddc614e54565b8152602001614de9614e54565b8152602001614df6614e54565b8152602001614e03614e54565b815260200160008152602001600081526020016000815260200160008152602001600015158152602001614e35614e54565b8152602001614e42614e54565b8152602001614e4f614e54565b905290565b60405180606001604052806003906020820280368337509192915050565b6040805161018081019091526000808252602082019081526000602082018190526040820181905260608201819052608082015260a001614eb1614e54565b815260200160008152602001600081526020016000815260200160008152602001600081525090565b5b80821115614d8b5760008155600101614edb565b60408051610140810190915260008082526020820190815260200160006001600160a01b0316815260200160006001600160a01b031681526020016000815260200160008152602001600081526020016000815260200160008152602001600081525090565b600060208284031215614f66578081fd5b813561174e81615e66565b60008060408385031215614f83578081fd5b8235614f8e81615e66565b91506020830135614f9e81615e66565b809150509250929050565b600080600060608486031215614fbd578081fd5b8335614fc881615e66565b92506020840135614fd881615e66565b9150604084013560038110614feb578182fd5b809150509250925092565b60008060006060848603121561500a578283fd5b833561501581615e66565b9250602084013561502581615e66565b929592945050506040919091013590565b6000806000806080858703121561504b578081fd5b843561505681615e66565b9350602085013561506681615e66565b93969395505050506040820135916060013590565b6000806040838503121561508d578182fd5b823561509881615e66565b946020939093013593505050565b6000806000606084860312156150ba578283fd5b83356150c581615e66565b95602085013595506040909401359392505050565b600080608083850312156150ec578182fd5b83601f8401126150fa578182fd5b6040516060810181811067ffffffffffffffff8211171561511757fe5b6040528084606081018781111561512c578586fd5b855b600381101561514d57823584526020938401939092019160010161512e565b5092979235965091945050505050565b60006020828403121561516e578081fd5b8151801515811461174e578182fd5b6000806000806080858703121561504b578384fd5b6000602082840312156151a3578081fd5b5035919050565b6000602082840312156151bb578081fd5b5051919050565b600080604083850312156151d4578182fd5b823591506020830135614f9e81615e66565b60008060008060008060c087890312156151fe578384fd5b86359550602087013561521081615e66565b9450604087013561522081615e66565b9350606087013561523081615e66565b9598949750929560808101359460a0909101359350915050565b6000806040838503121561525c578182fd5b50508035926020909101359150565b6001600160a01b03169052565b8060005b60038110156125f657815184526020938401939091019060010161527c565b15159052565b600581106152ab57fe5b9052565b600481106152ab57fe5b6001600160a01b0391909116815260200190565b6001600160a01b03958616815293909416602084015260408301919091526060820152608081019190915260a00190565b6001600160a01b0394851681529290931660208301526040820152606081019190915260800190565b6001600160a01b03929092168252602082015260400190565b6001600160a01b039390931683526020830191909152604082015260600190565b6020808252825182820181905260009190848201906040850190845b818110156153a25783516001600160a01b03168352928401929184019160010161537d565b50909695505050505050565b6103c08101818360005b6003811015615457578151805184526020808201516153d9828701826152af565b506040808301516153ec8288018261526b565b50506060808301516154008288018261526b565b50506080828101519086015260a0808301519086015260c0808301519086015260e08083015190860152610100808301519086015261012091820151918501919091526101409093019291909101906001016153b8565b50505092915050565b60608101611e4a8284615278565b6020808252825182820181905260009190848201906040850190845b818110156153a25783518352928401929184019160010161548a565b901515815260200190565b96151587526001600160a01b0395909516602087015260408601939093526060850191909152608084015260a0830152151560c082015260e00190565b6020808252600e908201526d39b2ba26b4b71037379030b2383960911b604082015260600190565b602080825260119082015270616464436f6c6c546b2062616420706f7360781b604082015260600190565b6020808252600e908201526d1858d8dc925c881b9bc81c1bdbdb60921b604082015260600190565b6020808252600b908201526a3638ba1037379030b2383960a91b604082015260600190565b6020808252600c908201526b1cdd1ac810909088199d5b1b60a21b604082015260600190565b6020808252600f908201526e0eadce6e8d640c4c2c840e8e4dcc6d608b1b604082015260600190565b6020808252601290820152710cecae8a0dee692a440c4c2c840dac2e8c6d60731b604082015260600190565b6020808252600c908201526b1d5b9cdd1ac81b9bc8191c1d60a21b604082015260600190565b6020808252600f908201526e0c8e6e886e4c840c6ded840d0d2ced608b1b604082015260600190565b602080825260069082015265706c206c636b60d01b604082015260600190565b6020808252600890820152673130b21030b2383960c11b604082015260600190565b6020808252600b908201526a6c7174206261642072707960a81b604082015260600190565b60208082526010908201526f756e73746b206261642073746174757360801b604082015260600190565b6020808252600b908201526a1cdd1ac81b9bc81c1bdbdb60aa1b604082015260600190565b6020808252600e908201526d189c9dc8189c9dc80f0818dbdb1b60921b604082015260600190565b6020808252600b908201526a189c9dc81b9bc81c1bdbdb60aa1b604082015260600190565b602080825260079082015266706f6c206c636b60c81b604082015260600190565b60208082526010908201526f19d95d141bdb125b99881b9bc81c1bdb60821b604082015260600190565b602080825260089082015267657863206c6f636b60c01b604082015260600190565b6020808252600e908201526d1cd95d135a5b881b9bc81c1bdbdb60921b604082015260600190565b6020808252600d908201526c6f6e6c79206f70656e20706f7360981b604082015260600190565b6020808252600b908201526a3ab824a9103130b21034b960a91b604082015260600190565b6020808252600c908201526b30b2322836103130b21034b960a11b604082015260600190565b6020808252600790820152666e6f742065786360c81b604082015260600190565b6020808252601190820152701d5c191d125490591a881b9bc81c1bdbdb607a1b604082015260600190565b60208082526016908201527517d9d95d10dbdb1b14985d1418dd081b9bc81c1bdbdb60521b604082015260600190565b6020808252600d908201526c1d5b9cdd1ac818985908185b5d609a1b604082015260600190565b6020808252600c908201526b1cdd1ac8189859081c1c9c1b60a21b604082015260600190565b6020808252600c908201526b627277206e6f20726562727760a01b604082015260600190565b60208082526010908201526f19dd115c9b99125c881b9bc81c1bdbdb60821b604082015260600190565b6020808252600c908201526b1d5c1254881b9bc81c1bdbdb60a21b604082015260600190565b6020808252600790820152664e5554206c6f7760c81b604082015260600190565b60208082526007908201526637379030b2383960c91b604082015260600190565b6020808252600e908201526d191cdd10dc99081b9bc81c1bdbdb60921b604082015260600190565b6020808252600b908201526a189c9dc81d1bdbc818985960aa1b604082015260600190565b6020808252601190820152700d8e2e840c4c2e6ca40dcde40dac2e8c6d607b1b604082015260600190565b6020808252600d908201526c627277206173736574206c6f7760981b604082015260600190565b6020808252600d908201526c0e6e8d640c4c2c840e8e4dcc6d609b1b604082015260600190565b6020808252600f908201526e616464506c20706f6f6c206578747360881b604082015260600190565b60208082526010908201526f19d95d141bdcd254881b9bc81c1bdbdb60821b604082015260600190565b6020808252600b908201526a1b1c5d081b9bc81c1bdbdb60aa1b604082015260600190565b6020808252600e908201526d0c2c8c8a0d840e0d8407c40dac2f60931b604082015260600190565b6020808252601690820152753932b830bc9d1037379039bab1b41030b230b83a32b960511b604082015260600190565b6020808252600b908201526a1c9c1e481b9bc81c1bdbdb60aa1b604082015260600190565b6020808252600690820152656e6f20706f7360d01b604082015260600190565b600061038082019050615bd282845161529b565b6020830151615be4602084018261526b565b506040830151615bf76040840182615278565b506060830151615c0a60a0840182615278565b506080830151610100615c1f81850183615278565b60a08501519150610160615c3581860184615278565b60c08601516101c086015260e08601516101e0860152818601516102008601526101208601516102208601526101408601519250615c7761024086018461529b565b8501519150615c8c9050610260840182615278565b50610180830151615ca16102c0840182615278565b506101a0830151615cb6610320840182615278565b5092915050565b815181526020808301516101c0830191615cd9908401826152a1565b506040830151615cec604084018261526b565b506060830151615cff606084018261526b565b506080830151615d12608084018261526b565b5060a0830151615d2560a084018261526b565b5060c0830151615d3860c0840182615278565b5060e08301516101208381019190915261010084015161014080850191909152908401516101608085019190915290840151610180840152909201516101a09091015290565b90815260200190565b8b81526101608101615d9c602083018d6152a1565b6001600160a01b039a8b166040830152988a16606082015296891660808801529490971660a086015260c085019290925260e0840152610100830152610120820193909352610140019190915292915050565b8a81526101408101615e04602083018c6152af565b6001600160a01b03998a166040830152979098166060890152608088019590955260a087019390935260c086019190915260e08501526101008401526101209092019190915292915050565b9283526020830191909152604082015260600190565b6001600160a01b0381168114611d4157600080fdfe496e697469616c697a61626c653a20636f6e747261637420697320616c726561647920696e697469616c697a6564536166654d6174683a206d756c7469706c69636174696f6e206f766572666c6f775361666545524332303a204552433230206f7065726174696f6e20646964206e6f7420737563636565645361666545524332303a20617070726f76652066726f6d206e6f6e2d7a65726f20746f206e6f6e2d7a65726f20616c6c6f77616e6365a264697066735822122032d330c01e680fea5eb3e5f766e0dbdd6a793af63fab00b3b11802303342089764736f6c63430007060033",
  "immutableReferences": {},
  "source": "// SPDX-License-Identifier: MIT\n\npragma solidity 0.7.6;\npragma experimental ABIEncoderV2;\nimport \"../Nutmeg.sol\";\n\n// @notice This contract is a version of Nutmeg that contains additional\n// interfaces for testing\n\ncontract TestNutmeg is Nutmeg {\n    function _testSetBaseAmt (\n\tuint posId, uint baseAmt\n    ) external {\n\tpositionMap[posId].baseAmt = baseAmt;\n    }\n\n    function _forceAccrueInterest(\n        address token\n    ) external {\n        accrueInterest(token);\n    }\n}\n\n",
  "sourcePath": "/home/joe/local2/bench/git/nutmeg/contracts/mock/TestNutmeg.sol",
  "compiler": {
    "name": "solc",
    "version": "0.7.6+commit.7338295f.Emscripten.clang"
  },
  "schemaVersion": "3.3.4",
  "updatedAt": "2021-04-29T11:24:49.134Z",
  "devdoc": {
    "kind": "dev",
    "methods": {
      "_getCollateralRatioPct(address,uint256)": {
        "details": "Get the collateral ratio of the pool.",
        "params": {
          "baseAmt": "The collateral from the borrower.",
          "baseToken": "Base token of the pool."
        }
      },
      "acceptGovernor()": {
        "details": "Accept to become the new governor. Must be called by the pending governor."
      },
      "addAdapter(address)": {
        "details": "Add adapter to Nutmeg",
        "params": {
          "token": "The address of the adapter"
        }
      },
      "addCollToken(uint256,uint256)": {
        "params": {
          "collAmt": "The amount of the collateral token from 3rd party pool.",
          "posId": "Position id"
        }
      },
      "addPool(address,uint256)": {
        "details": "Add a new treasury pool.",
        "params": {
          "interestRate": "The interest rate per block of Tranche A.",
          "token": "The underlying base token for the pool, e.g., DAI."
        }
      },
      "borrow(address,address,uint256,uint256)": {
        "params": {
          "baseAmt": "The amount of collateral from borrower.",
          "baseToken": "The token to borrow from the pool.",
          "borrowAmt": "The amount of tokens to borrow, x time leveraged already.",
          "collToken": "The token borrowers got from the 3rd party pool."
        }
      },
      "distributeCreditLosses(address,uint256,uint256)": {
        "params": {
          "baseToken": "Base token of the pool.",
          "collateralLoss": "Loss to be distributed",
          "poolLoss": "Loss to be distributed"
        }
      },
      "getCurrSender()": {
        "details": "get current sender"
      },
      "getMaxBorrowAmount(address,uint256)": {
        "params": {
          "baseAmt": "The collateral from the borrower",
          "baseToken": "Base token of the pool"
        }
      },
      "getPool(address)": {
        "details": "Get a specific pool given address"
      },
      "getPoolInfo(address)": {
        "params": {
          "token": "The base token"
        }
      },
      "getPools()": {
        "details": "Get all treasury pools"
      },
      "getPositionInterest(address,uint256)": {
        "params": {
          "posId": "Position ID.",
          "token": "Address of the pool."
        }
      },
      "getStake(address,address)": {
        "params": {
          "owner": "The address of the owner",
          "token": "The address of the pool"
        }
      },
      "initialize(address)": {
        "details": "Initialize the smart contract, using msg.sender as the first governor."
      },
      "liquidate(address,uint256)": {
        "params": {
          "baseToken": "The base token of the pool.",
          "liquidateAmt": "The repay amount from adapter."
        }
      },
      "removeAdapter(address)": {
        "details": "Remove adapter from Nutmeg",
        "params": {
          "token": "The address of the adapter"
        }
      },
      "repay(address,uint256)": {
        "params": {
          "baseToken": "The token to borrow from the pool.",
          "repayAmt": "The amount of base token repaid from adapter."
        }
      },
      "setPendingGovernor(address)": {
        "details": "Set the pending governor, which will be the governor once accepted.",
        "params": {
          "addr": "The address of the pending governor."
        }
      },
      "stake(address,uint256,uint256)": {
        "params": {
          "principal": "The amount of principal",
          "token": "The contract address of the base token of the pool.",
          "tranche": "The tranche of the pool, 0 - AA, 1 - A, 2 - BBB."
        }
      },
      "unstake(address,uint256,uint256)": {
        "params": {
          "amount": "The amount of principal that owner want to withdraw",
          "token": "The address of the pool.",
          "tranche": "The tranche of the pool, 0 - AA, 1 - A, 2 - BBB."
        }
      },
      "updateInterestRateAdjustment(address)": {
        "details": "Update the interest rate adjustment of the pool",
        "params": {
          "token": "Address of the pool"
        }
      },
      "updateInterestRates(address,uint256)": {
        "details": "Update interest rate of the pool",
        "params": {
          "interestRate": "The interest rate per block of Tranche A. Input 316 for 3.16% APY",
          "token": "The underlying base token for the pool, e.g., DAI."
        }
      }
    },
    "version": 1
  },
  "userdoc": {
    "kind": "user",
    "methods": {
      "addCollToken(uint256,uint256)": {
        "notice": "Add collateral token to position. Must be called during execution."
      },
      "borrow(address,address,uint256,uint256)": {
        "notice": "Borrow tokens from the pool. Must only be called by adapter while under execution."
      },
      "distributeCreditLosses(address,uint256,uint256)": {
        "notice": "Settle credit event callback"
      },
      "getCurrPositionId()": {
        "notice": "Return current position ID"
      },
      "getMaxBorrowAmount(address,uint256)": {
        "notice": "Get the maximum available borrow amount"
      },
      "getNextPositionId()": {
        "notice": "Return next position ID"
      },
      "getPoolInfo(address)": {
        "notice": "Get pool information"
      },
      "getPosition(uint256)": {
        "notice": "Get position information"
      },
      "getPositionIds(address)": {
        "notice": "Get all position IDs of a borrower"
      },
      "getPositionInterest(address,uint256)": {
        "notice": "Get interest a position need to pay"
      },
      "getStake(address,address)": {
        "notice": "Get stakes of a user in a pool"
      },
      "getStakeIds(address)": {
        "notice": "Get all stake IDs of a lender"
      },
      "liquidate(address,uint256)": {
        "notice": "Liquidate a position when conditions are satisfied"
      },
      "repay(address,uint256)": {
        "notice": "Repay tokens to the pool and close the position. Must only be called while under execution."
      },
      "stake(address,uint256,uint256)": {
        "notice": "Stake to a treasury pool."
      },
      "unstake(address,uint256,uint256)": {
        "notice": "Unstake from a treasury pool."
      }
    },
    "version": 1
  }
}